{
  "contractName": "CardItem",
  "abi": [
    {
      "inputs": [],
      "stateMutability": "nonpayable",
      "type": "constructor"
    },
    {
      "anonymous": false,
      "inputs": [
        {
          "indexed": true,
          "internalType": "address",
          "name": "owner",
          "type": "address"
        },
        {
          "indexed": true,
          "internalType": "address",
          "name": "approved",
          "type": "address"
        },
        {
          "indexed": true,
          "internalType": "uint256",
          "name": "tokenId",
          "type": "uint256"
        }
      ],
      "name": "Approval",
      "type": "event"
    },
    {
      "anonymous": false,
      "inputs": [
        {
          "indexed": true,
          "internalType": "address",
          "name": "owner",
          "type": "address"
        },
        {
          "indexed": true,
          "internalType": "address",
          "name": "operator",
          "type": "address"
        },
        {
          "indexed": false,
          "internalType": "bool",
          "name": "approved",
          "type": "bool"
        }
      ],
      "name": "ApprovalForAll",
      "type": "event"
    },
    {
      "anonymous": false,
      "inputs": [
        {
          "indexed": false,
          "internalType": "uint256",
          "name": "cartaId",
          "type": "uint256"
        },
        {
          "indexed": false,
          "internalType": "uint256",
          "name": "descripcion",
          "type": "uint256"
        },
        {
          "indexed": false,
          "internalType": "uint8",
          "name": "tipo",
          "type": "uint8"
        }
      ],
      "name": "NuevaCarta",
      "type": "event"
    },
    {
      "anonymous": false,
      "inputs": [
        {
          "indexed": true,
          "internalType": "address",
          "name": "previousOwner",
          "type": "address"
        },
        {
          "indexed": true,
          "internalType": "address",
          "name": "newOwner",
          "type": "address"
        }
      ],
      "name": "OwnershipTransferred",
      "type": "event"
    },
    {
      "anonymous": false,
      "inputs": [
        {
          "indexed": true,
          "internalType": "address",
          "name": "from",
          "type": "address"
        },
        {
          "indexed": true,
          "internalType": "address",
          "name": "to",
          "type": "address"
        },
        {
          "indexed": true,
          "internalType": "uint256",
          "name": "tokenId",
          "type": "uint256"
        }
      ],
      "name": "Transfer",
      "type": "event"
    },
    {
      "inputs": [
        {
          "internalType": "address",
          "name": "to",
          "type": "address"
        },
        {
          "internalType": "uint256",
          "name": "tokenId",
          "type": "uint256"
        }
      ],
      "name": "approve",
      "outputs": [],
      "stateMutability": "nonpayable",
      "type": "function"
    },
    {
      "inputs": [
        {
          "internalType": "address",
          "name": "owner",
          "type": "address"
        }
      ],
      "name": "balanceOf",
      "outputs": [
        {
          "internalType": "uint256",
          "name": "",
          "type": "uint256"
        }
      ],
      "stateMutability": "view",
      "type": "function"
    },
    {
      "inputs": [
        {
          "internalType": "uint256",
          "name": "",
          "type": "uint256"
        }
      ],
      "name": "cartaAPersona",
      "outputs": [
        {
          "internalType": "address",
          "name": "",
          "type": "address"
        }
      ],
      "stateMutability": "view",
      "type": "function"
    },
    {
      "inputs": [
        {
          "internalType": "uint256",
          "name": "",
          "type": "uint256"
        }
      ],
      "name": "cartas",
      "outputs": [
        {
          "internalType": "uint256",
          "name": "descripcion",
          "type": "uint256"
        },
        {
          "internalType": "uint8",
          "name": "tipo",
          "type": "uint8"
        }
      ],
      "stateMutability": "view",
      "type": "function"
    },
    {
      "inputs": [],
      "name": "crearCartaAleatoria",
      "outputs": [],
      "stateMutability": "nonpayable",
      "type": "function"
    },
    {
      "inputs": [
        {
          "internalType": "uint256",
          "name": "tokenId",
          "type": "uint256"
        }
      ],
      "name": "getApproved",
      "outputs": [
        {
          "internalType": "address",
          "name": "",
          "type": "address"
        }
      ],
      "stateMutability": "view",
      "type": "function"
    },
    {
      "inputs": [
        {
          "internalType": "address",
          "name": "owner",
          "type": "address"
        },
        {
          "internalType": "address",
          "name": "operator",
          "type": "address"
        }
      ],
      "name": "isApprovedForAll",
      "outputs": [
        {
          "internalType": "bool",
          "name": "",
          "type": "bool"
        }
      ],
      "stateMutability": "view",
      "type": "function"
    },
    {
      "inputs": [],
      "name": "name",
      "outputs": [
        {
          "internalType": "string",
          "name": "",
          "type": "string"
        }
      ],
      "stateMutability": "view",
      "type": "function"
    },
    {
      "inputs": [],
      "name": "owner",
      "outputs": [
        {
          "internalType": "address",
          "name": "",
          "type": "address"
        }
      ],
      "stateMutability": "view",
      "type": "function"
    },
    {
      "inputs": [
        {
          "internalType": "uint256",
          "name": "tokenId",
          "type": "uint256"
        }
      ],
      "name": "ownerOf",
      "outputs": [
        {
          "internalType": "address",
          "name": "",
          "type": "address"
        }
      ],
      "stateMutability": "view",
      "type": "function"
    },
    {
      "inputs": [],
      "name": "renounceOwnership",
      "outputs": [],
      "stateMutability": "nonpayable",
      "type": "function"
    },
    {
      "inputs": [
        {
          "internalType": "address",
          "name": "from",
          "type": "address"
        },
        {
          "internalType": "address",
          "name": "to",
          "type": "address"
        },
        {
          "internalType": "uint256",
          "name": "tokenId",
          "type": "uint256"
        }
      ],
      "name": "safeTransferFrom",
      "outputs": [],
      "stateMutability": "nonpayable",
      "type": "function"
    },
    {
      "inputs": [
        {
          "internalType": "address",
          "name": "from",
          "type": "address"
        },
        {
          "internalType": "address",
          "name": "to",
          "type": "address"
        },
        {
          "internalType": "uint256",
          "name": "tokenId",
          "type": "uint256"
        },
        {
          "internalType": "bytes",
          "name": "_data",
          "type": "bytes"
        }
      ],
      "name": "safeTransferFrom",
      "outputs": [],
      "stateMutability": "nonpayable",
      "type": "function"
    },
    {
      "inputs": [
        {
          "internalType": "address",
          "name": "operator",
          "type": "address"
        },
        {
          "internalType": "bool",
          "name": "approved",
          "type": "bool"
        }
      ],
      "name": "setApprovalForAll",
      "outputs": [],
      "stateMutability": "nonpayable",
      "type": "function"
    },
    {
      "inputs": [
        {
          "internalType": "bytes4",
          "name": "interfaceId",
          "type": "bytes4"
        }
      ],
      "name": "supportsInterface",
      "outputs": [
        {
          "internalType": "bool",
          "name": "",
          "type": "bool"
        }
      ],
      "stateMutability": "view",
      "type": "function"
    },
    {
      "inputs": [],
      "name": "symbol",
      "outputs": [
        {
          "internalType": "string",
          "name": "",
          "type": "string"
        }
      ],
      "stateMutability": "view",
      "type": "function"
    },
    {
      "inputs": [
        {
          "internalType": "uint256",
          "name": "tokenId",
          "type": "uint256"
        }
      ],
      "name": "tokenURI",
      "outputs": [
        {
          "internalType": "string",
          "name": "",
          "type": "string"
        }
      ],
      "stateMutability": "view",
      "type": "function"
    },
    {
      "inputs": [
        {
          "internalType": "address",
          "name": "from",
          "type": "address"
        },
        {
          "internalType": "address",
          "name": "to",
          "type": "address"
        },
        {
          "internalType": "uint256",
          "name": "tokenId",
          "type": "uint256"
        }
      ],
      "name": "transferFrom",
      "outputs": [],
      "stateMutability": "nonpayable",
      "type": "function"
    },
    {
      "inputs": [
        {
          "internalType": "address",
          "name": "newOwner",
          "type": "address"
        }
      ],
      "name": "transferOwnership",
      "outputs": [],
      "stateMutability": "nonpayable",
      "type": "function"
    }
  ],
  "bytecode": "0x60806040526010600155600154600a6200001a9190620002ba565b600255600060035560006004556003600560006101000a81548160ff021916908360ff1602179055503480156200005057600080fd5b506040518060400160405280600881526020017f436172644974656d0000000000000000000000000000000000000000000000008152506040518060400160405280600381526020017f49544d00000000000000000000000000000000000000000000000000000000008152506000620000cf620001a760201b60201c565b9050806000806101000a81548173ffffffffffffffffffffffffffffffffffffffff021916908373ffffffffffffffffffffffffffffffffffffffff1602179055508073ffffffffffffffffffffffffffffffffffffffff16600073ffffffffffffffffffffffffffffffffffffffff167f8be0079c531659141344cd1fd0a4f28419497f9722a3daafe3b4186f6b6457e060405160405180910390a350816009908051906020019062000185929190620001af565b5080600a90805190602001906200019e929190620001af565b505050620004a2565b600033905090565b828054620001bd9062000401565b90600052602060002090601f016020900481019282620001e157600085556200022d565b82601f10620001fc57805160ff19168380011785556200022d565b828001600101855582156200022d579182015b828111156200022c5782518255916020019190600101906200020f565b5b5090506200023c919062000240565b5090565b5b808211156200025b57600081600090555060010162000241565b5090565b6000808291508390505b6001851115620002b15780860481111562000289576200028862000437565b5b6001851615620002995780820291505b8081029050620002a98562000495565b945062000269565b94509492505050565b6000620002c782620003f7565b9150620002d483620003f7565b9250620003037fffffffffffffffffffffffffffffffffffffffffffffffffffffffffffffffff84846200030b565b905092915050565b6000826200031d5760019050620003f0565b816200032d5760009050620003f0565b8160018114620003465760028114620003515762000387565b6001915050620003f0565b60ff84111562000366576200036562000437565b5b8360020a91508482111562000380576200037f62000437565b5b50620003f0565b5060208310610133831016604e8410600b8410161715620003c15782820a905083811115620003bb57620003ba62000437565b5b620003f0565b620003d084848460016200025f565b92509050818404811115620003ea57620003e962000437565b5b81810290505b9392505050565b6000819050919050565b600060028204905060018216806200041a57607f821691505b6020821081141562000431576200043062000466565b5b50919050565b7f4e487b7100000000000000000000000000000000000000000000000000000000600052601160045260246000fd5b7f4e487b7100000000000000000000000000000000000000000000000000000000600052602260045260246000fd5b60008160011c9050919050565b612bdf80620004b26000396000f3fe608060405234801561001057600080fd5b50600436106101215760003560e01c806370a08231116100ad578063b88d4fde11610071578063b88d4fde1461031b578063bc24b16a14610337578063c87b56dd14610341578063e985e9c514610371578063f2fde38b146103a157610121565b806370a0823114610289578063715018a6146102b95780638da5cb5b146102c357806395d89b41146102e1578063a22cb465146102ff57610121565b806323b872dd116100f457806323b872dd146101c057806342842e0e146101dc578063582ddb38146101f85780635b102ab8146102285780636352211e1461025957610121565b806301ffc9a71461012657806306fdde0314610156578063081812fc14610174578063095ea7b3146101a4575b600080fd5b610140600480360381019061013b9190611d67565b6103bd565b60405161014d91906124ff565b60405180910390f35b61015e61049f565b60405161016b919061251a565b60405180910390f35b61018e60048036038101906101899190611db9565b610531565b60405161019b9190612498565b60405180910390f35b6101be60048036038101906101b99190611d2b565b6105b6565b005b6101da60048036038101906101d59190611c25565b6106ce565b005b6101f660048036038101906101f19190611c25565b61072e565b005b610212600480360381019061020d9190611db9565b61074e565b60405161021f9190612498565b60405180910390f35b610242600480360381019061023d9190611db9565b610781565b60405161025092919061274e565b60405180910390f35b610273600480360381019061026e9190611db9565b6107c2565b6040516102809190612498565b60405180910390f35b6102a3600480360381019061029e9190611bc0565b610874565b6040516102b091906126fc565b60405180910390f35b6102c161092c565b005b6102cb610a66565b6040516102d89190612498565b60405180910390f35b6102e9610a8f565b6040516102f6919061251a565b60405180910390f35b61031960048036038101906103149190611cef565b610b21565b005b61033560048036038101906103309190611c74565b610ca2565b005b61033f610d04565b005b61035b60048036038101906103569190611db9565b610d2a565b604051610368919061251a565b60405180910390f35b61038b60048036038101906103869190611be9565b610dd1565b60405161039891906124ff565b60405180910390f35b6103bb60048036038101906103b69190611bc0565b610e65565b005b60007f80ac58cd000000000000000000000000000000000000000000000000000000007bffffffffffffffffffffffffffffffffffffffffffffffffffffffff1916827bffffffffffffffffffffffffffffffffffffffffffffffffffffffff1916148061048857507f5b5e139f000000000000000000000000000000000000000000000000000000007bffffffffffffffffffffffffffffffffffffffffffffffffffffffff1916827bffffffffffffffffffffffffffffffffffffffffffffffffffffffff1916145b8061049857506104978261100e565b5b9050919050565b6060600980546104ae90612999565b80601f01602080910402602001604051908101604052809291908181526020018280546104da90612999565b80156105275780601f106104fc57610100808354040283529160200191610527565b820191906000526020600020905b81548152906001019060200180831161050a57829003601f168201915b5050505050905090565b600061053c82611078565b61057b576040517f08c379a00000000000000000000000000000000000000000000000000000000081526004016105729061263c565b60405180910390fd5b600d600083815260200190815260200160002060009054906101000a900473ffffffffffffffffffffffffffffffffffffffff169050919050565b60006105c1826107c2565b90508073ffffffffffffffffffffffffffffffffffffffff168373ffffffffffffffffffffffffffffffffffffffff161415610632576040517f08c379a0000000000000000000000000000000000000000000000000000000008152600401610629906126bc565b60405180910390fd5b8073ffffffffffffffffffffffffffffffffffffffff166106516110e4565b73ffffffffffffffffffffffffffffffffffffffff161480610680575061067f8161067a6110e4565b610dd1565b5b6106bf576040517f08c379a00000000000000000000000000000000000000000000000000000000081526004016106b6906125dc565b60405180910390fd5b6106c983836110ec565b505050565b6106df6106d96110e4565b826111a5565b61071e576040517f08c379a0000000000000000000000000000000000000000000000000000000008152600401610715906126dc565b60405180910390fd5b610729838383611283565b505050565b61074983838360405180602001604052806000815250610ca2565b505050565b60076020528060005260406000206000915054906101000a900473ffffffffffffffffffffffffffffffffffffffff1681565b6006818154811061079157600080fd5b90600052602060002090600202016000915090508060000154908060010160009054906101000a900460ff16905082565b600080600b600084815260200190815260200160002060009054906101000a900473ffffffffffffffffffffffffffffffffffffffff169050600073ffffffffffffffffffffffffffffffffffffffff168173ffffffffffffffffffffffffffffffffffffffff16141561086b576040517f08c379a00000000000000000000000000000000000000000000000000000000081526004016108629061261c565b60405180910390fd5b80915050919050565b60008073ffffffffffffffffffffffffffffffffffffffff168273ffffffffffffffffffffffffffffffffffffffff1614156108e5576040517f08c379a00000000000000000000000000000000000000000000000000000000081526004016108dc906125fc565b60405180910390fd5b600c60008373ffffffffffffffffffffffffffffffffffffffff1673ffffffffffffffffffffffffffffffffffffffff168152602001908152602001600020549050919050565b6109346110e4565b73ffffffffffffffffffffffffffffffffffffffff16610952610a66565b73ffffffffffffffffffffffffffffffffffffffff16146109a8576040517f08c379a000000000000000000000000000000000000000000000000000000000815260040161099f9061265c565b60405180910390fd5b600073ffffffffffffffffffffffffffffffffffffffff1660008054906101000a900473ffffffffffffffffffffffffffffffffffffffff1673ffffffffffffffffffffffffffffffffffffffff167f8be0079c531659141344cd1fd0a4f28419497f9722a3daafe3b4186f6b6457e060405160405180910390a360008060006101000a81548173ffffffffffffffffffffffffffffffffffffffff021916908373ffffffffffffffffffffffffffffffffffffffff160217905550565b60008060009054906101000a900473ffffffffffffffffffffffffffffffffffffffff16905090565b6060600a8054610a9e90612999565b80601f0160208091040260200160405190810160405280929190818152602001828054610aca90612999565b8015610b175780601f10610aec57610100808354040283529160200191610b17565b820191906000526020600020905b815481529060010190602001808311610afa57829003601f168201915b5050505050905090565b610b296110e4565b73ffffffffffffffffffffffffffffffffffffffff168273ffffffffffffffffffffffffffffffffffffffff161415610b97576040517f08c379a0000000000000000000000000000000000000000000000000000000008152600401610b8e9061259c565b60405180910390fd5b80600e6000610ba46110e4565b73ffffffffffffffffffffffffffffffffffffffff1673ffffffffffffffffffffffffffffffffffffffff16815260200190815260200160002060008473ffffffffffffffffffffffffffffffffffffffff1673ffffffffffffffffffffffffffffffffffffffff16815260200190815260200160002060006101000a81548160ff0219169083151502179055508173ffffffffffffffffffffffffffffffffffffffff16610c516110e4565b73ffffffffffffffffffffffffffffffffffffffff167f17307eab39ab6107e8899845ad3d59bd9653f200f220920489ca2b5937696c3183604051610c9691906124ff565b60405180910390a35050565b610cb3610cad6110e4565b836111a5565b610cf2576040517f08c379a0000000000000000000000000000000000000000000000000000000008152600401610ce9906126dc565b60405180910390fd5b610cfe848484846114df565b50505050565b6000610d0e61153b565b90506000610d1a61159d565b9050610d26828261160f565b5050565b6060610d3582611078565b610d74576040517f08c379a0000000000000000000000000000000000000000000000000000000008152600401610d6b9061269c565b60405180910390fd5b6000610d7e61177c565b90506000815111610d9e5760405180602001604052806000815250610dc9565b80610da884611793565b604051602001610db9929190612437565b6040516020818303038152906040525b915050919050565b6000600e60008473ffffffffffffffffffffffffffffffffffffffff1673ffffffffffffffffffffffffffffffffffffffff16815260200190815260200160002060008373ffffffffffffffffffffffffffffffffffffffff1673ffffffffffffffffffffffffffffffffffffffff16815260200190815260200160002060009054906101000a900460ff16905092915050565b610e6d6110e4565b73ffffffffffffffffffffffffffffffffffffffff16610e8b610a66565b73ffffffffffffffffffffffffffffffffffffffff1614610ee1576040517f08c379a0000000000000000000000000000000000000000000000000000000008152600401610ed89061265c565b60405180910390fd5b600073ffffffffffffffffffffffffffffffffffffffff168173ffffffffffffffffffffffffffffffffffffffff161415610f51576040517f08c379a0000000000000000000000000000000000000000000000000000000008152600401610f489061255c565b60405180910390fd5b8073ffffffffffffffffffffffffffffffffffffffff1660008054906101000a900473ffffffffffffffffffffffffffffffffffffffff1673ffffffffffffffffffffffffffffffffffffffff167f8be0079c531659141344cd1fd0a4f28419497f9722a3daafe3b4186f6b6457e060405160405180910390a3806000806101000a81548173ffffffffffffffffffffffffffffffffffffffff021916908373ffffffffffffffffffffffffffffffffffffffff16021790555050565b60007f01ffc9a7000000000000000000000000000000000000000000000000000000007bffffffffffffffffffffffffffffffffffffffffffffffffffffffff1916827bffffffffffffffffffffffffffffffffffffffffffffffffffffffff1916149050919050565b60008073ffffffffffffffffffffffffffffffffffffffff16600b600084815260200190815260200160002060009054906101000a900473ffffffffffffffffffffffffffffffffffffffff1673ffffffffffffffffffffffffffffffffffffffff1614159050919050565b600033905090565b81600d600083815260200190815260200160002060006101000a81548173ffffffffffffffffffffffffffffffffffffffff021916908373ffffffffffffffffffffffffffffffffffffffff160217905550808273ffffffffffffffffffffffffffffffffffffffff1661115f836107c2565b73ffffffffffffffffffffffffffffffffffffffff167f8c5be1e5ebec7d5bd14f71427d1e84f3dd0314c0f7b2291e5b200ac8c7c3b92560405160405180910390a45050565b60006111b082611078565b6111ef576040517f08c379a00000000000000000000000000000000000000000000000000000000081526004016111e6906125bc565b60405180910390fd5b60006111fa836107c2565b90508073ffffffffffffffffffffffffffffffffffffffff168473ffffffffffffffffffffffffffffffffffffffff16148061126957508373ffffffffffffffffffffffffffffffffffffffff1661125184610531565b73ffffffffffffffffffffffffffffffffffffffff16145b8061127a57506112798185610dd1565b5b91505092915050565b8273ffffffffffffffffffffffffffffffffffffffff166112a3826107c2565b73ffffffffffffffffffffffffffffffffffffffff16146112f9576040517f08c379a00000000000000000000000000000000000000000000000000000000081526004016112f09061267c565b60405180910390fd5b600073ffffffffffffffffffffffffffffffffffffffff168273ffffffffffffffffffffffffffffffffffffffff161415611369576040517f08c379a00000000000000000000000000000000000000000000000000000000081526004016113609061257c565b60405180910390fd5b611374838383611940565b61137f6000826110ec565b6001600c60008573ffffffffffffffffffffffffffffffffffffffff1673ffffffffffffffffffffffffffffffffffffffff16815260200190815260200160002060008282546113cf91906128a2565b925050819055506001600c60008473ffffffffffffffffffffffffffffffffffffffff1673ffffffffffffffffffffffffffffffffffffffff1681526020019081526020016000206000828254611426919061281b565b9250508190555081600b600083815260200190815260200160002060006101000a81548173ffffffffffffffffffffffffffffffffffffffff021916908373ffffffffffffffffffffffffffffffffffffffff160217905550808273ffffffffffffffffffffffffffffffffffffffff168473ffffffffffffffffffffffffffffffffffffffff167fddf252ad1be2c89b69c2b068fc378daa952ba7f163c4a11628f55a4df523b3ef60405160405180910390a4505050565b6114ea848484611283565b6114f684848484611945565b611535576040517f08c379a000000000000000000000000000000000000000000000000000000000815260040161152c9061253c565b60405180910390fd5b50505050565b600060036000815480929190611550906129cb565b91905055506000423360035460405160200161156e9392919061245b565b6040516020818303038152906040528051906020012060001c9050600254816115979190612a42565b91505090565b6000600460008154809291906115b2906129cb565b9190505550600042336004546040516020016115d09392919061245b565b6040516020818303038152906040528051906020012060001c9050600560009054906101000a900460ff1660ff16816116099190612a42565b91505090565b600660405180604001604052808481526020018360ff1681525090806001815401808255809150506001900390600052602060002090600202016000909190919091506000820151816000015560208201518160010160006101000a81548160ff021916908360ff16021790555050506000600160068054905061169391906128a2565b9050336007600083815260200190815260200160002060006101000a81548173ffffffffffffffffffffffffffffffffffffffff021916908373ffffffffffffffffffffffffffffffffffffffff160217905550600860003373ffffffffffffffffffffffffffffffffffffffff1673ffffffffffffffffffffffffffffffffffffffff1681526020019081526020016000206000815480929190611737906129cb565b91905055507f6ca85b4ba4ace1b9d8e266c2cb00dcb3314c66609fd525cfab3301b2e306748d81848460405161176f93929190612717565b60405180910390a1505050565b606060405180602001604052806000815250905090565b606060008214156117db576040518060400160405280600181526020017f3000000000000000000000000000000000000000000000000000000000000000815250905061193b565b600082905060005b6000821461180d5780806117f6906129cb565b915050600a826118069190612871565b91506117e3565b60008167ffffffffffffffff81111561184f577f4e487b7100000000000000000000000000000000000000000000000000000000600052604160045260246000fd5b6040519080825280601f01601f1916602001820160405280156118815781602001600182028036833780820191505090505b5090505b600085146119345760018261189a91906128a2565b9150600a856118a99190612a42565b60306118b5919061281b565b60f81b8183815181106118f1577f4e487b7100000000000000000000000000000000000000000000000000000000600052603260045260246000fd5b60200101907effffffffffffffffffffffffffffffffffffffffffffffffffffffffffffff1916908160001a905350600a8561192d9190612871565b9450611885565b8093505050505b919050565b505050565b60006119668473ffffffffffffffffffffffffffffffffffffffff16611adc565b15611acf578373ffffffffffffffffffffffffffffffffffffffff1663150b7a0261198f6110e4565b8786866040518563ffffffff1660e01b81526004016119b194939291906124b3565b602060405180830381600087803b1580156119cb57600080fd5b505af19250505080156119fc57506040513d601f19601f820116820180604052508101906119f99190611d90565b60015b611a7f573d8060008114611a2c576040519150601f19603f3d011682016040523d82523d6000602084013e611a31565b606091505b50600081511415611a77576040517f08c379a0000000000000000000000000000000000000000000000000000000008152600401611a6e9061253c565b60405180910390fd5b805181602001fd5b63150b7a0260e01b7bffffffffffffffffffffffffffffffffffffffffffffffffffffffff1916817bffffffffffffffffffffffffffffffffffffffffffffffffffffffff191614915050611ad4565b600190505b949350505050565b600080823b905060008111915050919050565b6000611b02611afd846127a8565b612777565b905082815260208101848484011115611b1a57600080fd5b611b25848285612957565b509392505050565b600081359050611b3c81612b4d565b92915050565b600081359050611b5181612b64565b92915050565b600081359050611b6681612b7b565b92915050565b600081519050611b7b81612b7b565b92915050565b600082601f830112611b9257600080fd5b8135611ba2848260208601611aef565b91505092915050565b600081359050611bba81612b92565b92915050565b600060208284031215611bd257600080fd5b6000611be084828501611b2d565b91505092915050565b60008060408385031215611bfc57600080fd5b6000611c0a85828601611b2d565b9250506020611c1b85828601611b2d565b9150509250929050565b600080600060608486031215611c3a57600080fd5b6000611c4886828701611b2d565b9350506020611c5986828701611b2d565b9250506040611c6a86828701611bab565b9150509250925092565b60008060008060808587031215611c8a57600080fd5b6000611c9887828801611b2d565b9450506020611ca987828801611b2d565b9350506040611cba87828801611bab565b925050606085013567ffffffffffffffff811115611cd757600080fd5b611ce387828801611b81565b91505092959194509250565b60008060408385031215611d0257600080fd5b6000611d1085828601611b2d565b9250506020611d2185828601611b42565b9150509250929050565b60008060408385031215611d3e57600080fd5b6000611d4c85828601611b2d565b9250506020611d5d85828601611bab565b9150509250929050565b600060208284031215611d7957600080fd5b6000611d8784828501611b57565b91505092915050565b600060208284031215611da257600080fd5b6000611db084828501611b6c565b91505092915050565b600060208284031215611dcb57600080fd5b6000611dd984828501611bab565b91505092915050565b611deb816128d6565b82525050565b611e02611dfd826128d6565b612a14565b82525050565b611e11816128e8565b82525050565b6000611e22826127d8565b611e2c81856127ee565b9350611e3c818560208601612966565b611e4581612b2f565b840191505092915050565b6000611e5b826127e3565b611e6581856127ff565b9350611e75818560208601612966565b611e7e81612b2f565b840191505092915050565b6000611e94826127e3565b611e9e8185612810565b9350611eae818560208601612966565b80840191505092915050565b6000611ec76032836127ff565b91507f4552433732313a207472616e7366657220746f206e6f6e20455243373231526560008301527f63656976657220696d706c656d656e74657200000000000000000000000000006020830152604082019050919050565b6000611f2d6026836127ff565b91507f4f776e61626c653a206e6577206f776e657220697320746865207a65726f206160008301527f64647265737300000000000000000000000000000000000000000000000000006020830152604082019050919050565b6000611f936024836127ff565b91507f4552433732313a207472616e7366657220746f20746865207a65726f2061646460008301527f72657373000000000000000000000000000000000000000000000000000000006020830152604082019050919050565b6000611ff96019836127ff565b91507f4552433732313a20617070726f766520746f2063616c6c6572000000000000006000830152602082019050919050565b6000612039602c836127ff565b91507f4552433732313a206f70657261746f7220717565727920666f72206e6f6e657860008301527f697374656e7420746f6b656e00000000000000000000000000000000000000006020830152604082019050919050565b600061209f6038836127ff565b91507f4552433732313a20617070726f76652063616c6c6572206973206e6f74206f7760008301527f6e6572206e6f7220617070726f76656420666f7220616c6c00000000000000006020830152604082019050919050565b6000612105602a836127ff565b91507f4552433732313a2062616c616e636520717565727920666f7220746865207a6560008301527f726f2061646472657373000000000000000000000000000000000000000000006020830152604082019050919050565b600061216b6029836127ff565b91507f4552433732313a206f776e657220717565727920666f72206e6f6e657869737460008301527f656e7420746f6b656e00000000000000000000000000000000000000000000006020830152604082019050919050565b60006121d1602c836127ff565b91507f4552433732313a20617070726f76656420717565727920666f72206e6f6e657860008301527f697374656e7420746f6b656e00000000000000000000000000000000000000006020830152604082019050919050565b60006122376020836127ff565b91507f4f776e61626c653a2063616c6c6572206973206e6f7420746865206f776e65726000830152602082019050919050565b60006122776029836127ff565b91507f4552433732313a207472616e73666572206f6620746f6b656e2074686174206960008301527f73206e6f74206f776e00000000000000000000000000000000000000000000006020830152604082019050919050565b60006122dd602f836127ff565b91507f4552433732314d657461646174613a2055524920717565727920666f72206e6f60008301527f6e6578697374656e7420746f6b656e00000000000000000000000000000000006020830152604082019050919050565b60006123436021836127ff565b91507f4552433732313a20617070726f76616c20746f2063757272656e74206f776e6560008301527f72000000000000000000000000000000000000000000000000000000000000006020830152604082019050919050565b60006123a96031836127ff565b91507f4552433732313a207472616e736665722063616c6c6572206973206e6f74206f60008301527f776e6572206e6f7220617070726f7665640000000000000000000000000000006020830152604082019050919050565b61240b81612940565b82525050565b61242261241d82612940565b612a38565b82525050565b6124318161294a565b82525050565b60006124438285611e89565b915061244f8284611e89565b91508190509392505050565b60006124678286612411565b6020820191506124778285611df1565b6014820191506124878284612411565b602082019150819050949350505050565b60006020820190506124ad6000830184611de2565b92915050565b60006080820190506124c86000830187611de2565b6124d56020830186611de2565b6124e26040830185612402565b81810360608301526124f48184611e17565b905095945050505050565b60006020820190506125146000830184611e08565b92915050565b600060208201905081810360008301526125348184611e50565b905092915050565b6000602082019050818103600083015261255581611eba565b9050919050565b6000602082019050818103600083015261257581611f20565b9050919050565b6000602082019050818103600083015261259581611f86565b9050919050565b600060208201905081810360008301526125b581611fec565b9050919050565b600060208201905081810360008301526125d58161202c565b9050919050565b600060208201905081810360008301526125f581612092565b9050919050565b60006020820190508181036000830152612615816120f8565b9050919050565b600060208201905081810360008301526126358161215e565b9050919050565b60006020820190508181036000830152612655816121c4565b9050919050565b600060208201905081810360008301526126758161222a565b9050919050565b600060208201905081810360008301526126958161226a565b9050919050565b600060208201905081810360008301526126b5816122d0565b9050919050565b600060208201905081810360008301526126d581612336565b9050919050565b600060208201905081810360008301526126f58161239c565b9050919050565b60006020820190506127116000830184612402565b92915050565b600060608201905061272c6000830186612402565b6127396020830185612402565b6127466040830184612428565b949350505050565b60006040820190506127636000830185612402565b6127706020830184612428565b9392505050565b6000604051905081810181811067ffffffffffffffff8211171561279e5761279d612b00565b5b8060405250919050565b600067ffffffffffffffff8211156127c3576127c2612b00565b5b601f19601f8301169050602081019050919050565b600081519050919050565b600081519050919050565b600082825260208201905092915050565b600082825260208201905092915050565b600081905092915050565b600061282682612940565b915061283183612940565b9250827fffffffffffffffffffffffffffffffffffffffffffffffffffffffffffffffff0382111561286657612865612a73565b5b828201905092915050565b600061287c82612940565b915061288783612940565b92508261289757612896612aa2565b5b828204905092915050565b60006128ad82612940565b91506128b883612940565b9250828210156128cb576128ca612a73565b5b828203905092915050565b60006128e182612920565b9050919050565b60008115159050919050565b60007fffffffff0000000000000000000000000000000000000000000000000000000082169050919050565b600073ffffffffffffffffffffffffffffffffffffffff82169050919050565b6000819050919050565b600060ff82169050919050565b82818337600083830152505050565b60005b83811015612984578082015181840152602081019050612969565b83811115612993576000848401525b50505050565b600060028204905060018216806129b157607f821691505b602082108114156129c5576129c4612ad1565b5b50919050565b60006129d682612940565b91507fffffffffffffffffffffffffffffffffffffffffffffffffffffffffffffffff821415612a0957612a08612a73565b5b600182019050919050565b6000612a1f82612a26565b9050919050565b6000612a3182612b40565b9050919050565b6000819050919050565b6000612a4d82612940565b9150612a5883612940565b925082612a6857612a67612aa2565b5b828206905092915050565b7f4e487b7100000000000000000000000000000000000000000000000000000000600052601160045260246000fd5b7f4e487b7100000000000000000000000000000000000000000000000000000000600052601260045260246000fd5b7f4e487b7100000000000000000000000000000000000000000000000000000000600052602260045260246000fd5b7f4e487b7100000000000000000000000000000000000000000000000000000000600052604160045260246000fd5b6000601f19601f8301169050919050565b60008160601b9050919050565b612b56816128d6565b8114612b6157600080fd5b50565b612b6d816128e8565b8114612b7857600080fd5b50565b612b84816128f4565b8114612b8f57600080fd5b50565b612b9b81612940565b8114612ba657600080fd5b5056fea26469706673582212201c6a35e8d22fc505f77fdd3697bd8bca2418cb4a9723706455639e90a00f04ec64736f6c63430008000033",
  "immutableReferences": {},
  "source": "pragma solidity ^0.8.0;\n\nimport \"./CartaFactory.sol\";\nimport \"@openzeppelin/contracts/token/ERC721/ERC721.sol\";\n\n/**\n * @title CartaAdmin\n * @dev Funciones de administracion de cartas como \n * compra de las mismas o transferencia de ownership\n */\ncontract CardItem is CartaFactory, ERC721 {\n\n    constructor() public ERC721(\"CardItem\", \"ITM\") {}\n\n    /*function awardItem(address _owner, string memory tokenURI)\n        public\n        returns (uint256)\n    {\n        personaCantidadCartas[_owner] ++;\n        crearCartaAleatoria()\n        _tokenIds.increment();\n\n        uint256 newItemId = _tokenIds.current();\n        _mint(player, newItemId);\n        _setTokenURI(newItemId, tokenURI);\n\n        return newItemId;\n    }*/\n}",
  "sourcePath": "/home/miki_mustard/Desktop/Personal/Facultad/tdl/nuevo-tdl/teoria-del-lenguaje/truffle-project/contracts/CartaAdmin.sol",
  "compiler": {
    "name": "solc",
    "version": "0.8.0+commit.c7dfd78e.Emscripten.clang"
  },
  "schemaVersion": "3.4.1",
  "updatedAt": "2021-06-20T20:01:16.407Z",
  "devdoc": {
    "details": "Funciones de administracion de cartas como  compra de las mismas o transferencia de ownership",
    "kind": "dev",
    "methods": {
      "approve(address,uint256)": {
        "details": "See {IERC721-approve}."
      },
      "balanceOf(address)": {
        "details": "See {IERC721-balanceOf}."
      },
      "crearCartaAleatoria()": {
        "details": "Crea una carta aleatoria"
      },
      "getApproved(uint256)": {
        "details": "See {IERC721-getApproved}."
      },
      "isApprovedForAll(address,address)": {
        "details": "See {IERC721-isApprovedForAll}."
      },
      "name()": {
        "details": "See {IERC721Metadata-name}."
      },
      "owner()": {
        "details": "Returns the address of the current owner."
      },
      "ownerOf(uint256)": {
        "details": "See {IERC721-ownerOf}."
      },
      "renounceOwnership()": {
        "details": "Leaves the contract without owner. It will not be possible to call `onlyOwner` functions anymore. Can only be called by the current owner. NOTE: Renouncing ownership will leave the contract without an owner, thereby removing any functionality that is only available to the owner."
      },
      "safeTransferFrom(address,address,uint256)": {
        "details": "See {IERC721-safeTransferFrom}."
      },
      "safeTransferFrom(address,address,uint256,bytes)": {
        "details": "See {IERC721-safeTransferFrom}."
      },
      "setApprovalForAll(address,bool)": {
        "details": "See {IERC721-setApprovalForAll}."
      },
      "supportsInterface(bytes4)": {
        "details": "See {IERC165-supportsInterface}."
      },
      "symbol()": {
        "details": "See {IERC721Metadata-symbol}."
      },
      "tokenURI(uint256)": {
        "details": "See {IERC721Metadata-tokenURI}."
      },
      "transferFrom(address,address,uint256)": {
        "details": "See {IERC721-transferFrom}."
      },
      "transferOwnership(address)": {
        "details": "Transfers ownership of the contract to a new account (`newOwner`). Can only be called by the current owner."
      }
    },
    "title": "CartaAdmin",
    "version": 1
  },
  "userdoc": {
    "kind": "user",
    "methods": {},
    "version": 1
  }
}