{
  "contractName": "CartaFactory",
  "abi": [
    {
      "anonymous": false,
      "inputs": [
        {
          "indexed": false,
          "internalType": "uint256",
          "name": "cartaId",
          "type": "uint256"
        },
        {
          "indexed": false,
          "internalType": "uint256",
          "name": "descripcion",
          "type": "uint256"
        },
        {
          "indexed": false,
          "internalType": "uint8",
          "name": "tipo",
          "type": "uint8"
        }
      ],
      "name": "NuevaCarta",
      "type": "event"
    },
    {
      "constant": true,
      "inputs": [
        {
          "internalType": "uint256",
          "name": "",
          "type": "uint256"
        }
      ],
      "name": "cartaAPersona",
      "outputs": [
        {
          "internalType": "address",
          "name": "",
          "type": "address"
        }
      ],
      "payable": false,
      "stateMutability": "view",
      "type": "function"
    },
    {
      "constant": true,
      "inputs": [
        {
          "internalType": "uint256",
          "name": "",
          "type": "uint256"
        }
      ],
      "name": "cartas",
      "outputs": [
        {
          "internalType": "uint256",
          "name": "descripcion",
          "type": "uint256"
        },
        {
          "internalType": "uint8",
          "name": "tipo",
          "type": "uint8"
        }
      ],
      "payable": false,
      "stateMutability": "view",
      "type": "function"
    },
    {
      "constant": false,
      "inputs": [],
      "name": "crearCartaAleatoria",
      "outputs": [],
      "payable": false,
      "stateMutability": "nonpayable",
      "type": "function"
    },
    {
      "constant": true,
      "inputs": [],
      "name": "getCartas",
      "outputs": [
        {
          "components": [
            {
              "internalType": "uint256",
              "name": "descripcion",
              "type": "uint256"
            },
            {
              "internalType": "uint8",
              "name": "tipo",
              "type": "uint8"
            }
          ],
          "internalType": "struct CartaFactory.Carta[]",
          "name": "",
          "type": "tuple[]"
        }
      ],
      "payable": false,
      "stateMutability": "view",
      "type": "function"
    }
  ],
  "bytecode": "0x60806040526010600055600054600a0a600155600060025560006003556003600460006101000a81548160ff021916908360ff16021790555034801561004457600080fd5b50610774806100546000396000f3fe608060405234801561001057600080fd5b506004361061004c5760003560e01c8063582ddb38146100515780635b102ab814610081578063bc24b16a146100b2578063c2fcde89146100bc575b600080fd5b61006b6004803603610066919081019061042a565b6100da565b60405161007891906105ae565b60405180910390f35b61009b6004803603610096919081019061042a565b61010d565b6040516100a9929190610622565b60405180910390f35b6100ba61014b565b005b6100c4610171565b6040516100d191906105c9565b60405180910390f35b60066020528060005260406000206000915054906101000a900473ffffffffffffffffffffffffffffffffffffffff1681565b6005818154811061011a57fe5b90600052602060002090600202016000915090508060000154908060010160009054906101000a900460ff16905082565b60006101556101f7565b90506000610161610251565b905061016d82826102bb565b5050565b60606005805480602002602001604051908101604052809291908181526020016000905b828210156101ee5783829060005260206000209060020201604051806040016040529081600082015481526020016001820160009054906101000a900460ff1660ff1660ff168152505081526020019060010190610195565b50505050905090565b60006002600081548092919060010191905055506000423360025460405160200161022493929190610571565b6040516020818303038152906040528051906020012060001c9050600154818161024a57fe5b0691505090565b60006003600081548092919060010191905055506000423360035460405160200161027e93929190610571565b6040516020818303038152906040528051906020012060001c9050600460009054906101000a900460ff1660ff1681816102b457fe5b0691505090565b60006001600560405180604001604052808681526020018560ff16815250908060018154018082558091505090600182039060005260206000209060020201600090919290919091506000820151816000015560208201518160010160006101000a81548160ff021916908360ff1602179055505050039050336006600083815260200190815260200160002060006101000a81548173ffffffffffffffffffffffffffffffffffffffff021916908373ffffffffffffffffffffffffffffffffffffffff160217905550600760003373ffffffffffffffffffffffffffffffffffffffff1673ffffffffffffffffffffffffffffffffffffffff168152602001908152602001600020600081548092919060010191905055507f6ca85b4ba4ace1b9d8e266c2cb00dcb3314c66609fd525cfab3301b2e306748d818484604051610408939291906105eb565b60405180910390a1505050565b6000813590506104248161071a565b92915050565b60006020828403121561043c57600080fd5b600061044a84828501610415565b91505092915050565b600061045f83836104ef565b60408301905092915050565b61047c61047782610696565b6106df565b82525050565b61048b81610684565b82525050565b600061049c8261065b565b6104a68185610673565b93506104b18361064b565b8060005b838110156104e25781516104c98882610453565b97506104d483610666565b9250506001810190506104b5565b5085935050505092915050565b604082016000820151610505600085018261051e565b5060208201516105186020850182610553565b50505050565b610527816106c8565b82525050565b610536816106c8565b82525050565b61054d610548826106c8565b610703565b82525050565b61055c816106d2565b82525050565b61056b816106d2565b82525050565b600061057d828661053c565b60208201915061058d828561046b565b60148201915061059d828461053c565b602082019150819050949350505050565b60006020820190506105c36000830184610482565b92915050565b600060208201905081810360008301526105e38184610491565b905092915050565b6000606082019050610600600083018661052d565b61060d602083018561052d565b61061a6040830184610562565b949350505050565b6000604082019050610637600083018561052d565b6106446020830184610562565b9392505050565b6000819050602082019050919050565b600081519050919050565b6000602082019050919050565b600082825260208201905092915050565b600061068f826106a8565b9050919050565b60006106a1826106a8565b9050919050565b600073ffffffffffffffffffffffffffffffffffffffff82169050919050565b6000819050919050565b600060ff82169050919050565b60006106ea826106f1565b9050919050565b60006106fc8261070d565b9050919050565b6000819050919050565b60008160601b9050919050565b610723816106c8565b811461072e57600080fd5b5056fea365627a7a7231582036cb307be215f1753aba58e15a12073de797498ac1c5260f3f5863ccdf0e47526c6578706572696d656e74616cf564736f6c63430005100040",
  "source": "pragma solidity 0.5.16;\npragma experimental ABIEncoderV2;\n\n/**\n * @title CartaFactory\n * @dev Generacion aleatoria de cartas\n */\ncontract CartaFactory {\n\n    event NuevaCarta(uint cartaId, uint256 descripcion, uint8 tipo);\n\n    uint256 cantidadDigitos = 16;\n    uint256 modulo = 10 ** cantidadDigitos;\n    uint256 semillaDescripcion = 0;\n    uint256 semillaTipo = 0;\n    uint8 cantidadTipos = 3;\n\n    /**\n    * Tipos:\n    * 1: normal\n    * 2: rara\n    * 3: epica\n    */\n    struct Carta {\n        uint256 descripcion;\n        uint8 tipo;\n    }\n    \n    Carta[] public cartas;\n\n    mapping (uint => address) public cartaAPersona;\n    mapping (address => uint) personaCantidadCartas;\n    \n    /**\n     * @dev Crea una instancia de carta\n     * @param _descripcion descripcion para crear la carta\n     */\n    function _crearCarta(uint256 _descripcion, uint8 _tipo) private {\n        uint id = cartas.push(Carta(_descripcion, _tipo)) - 1;\n        cartaAPersona[id] = msg.sender;\n        personaCantidadCartas[msg.sender] ++;\n        emit NuevaCarta(id, _descripcion, _tipo);\n    }\n\n    /**\n     * @dev Crea un valor aleatorio de descripcion \n     * @return valor aleatorio de descripcion\n     */\n    function _crearDescripcionAleatoria() private returns (uint256){\n        semillaDescripcion ++;\n        uint256 descripcionAleatoria = uint256(keccak256(abi.encodePacked(block.timestamp, msg.sender, semillaDescripcion)));\n        return descripcionAleatoria % modulo;\n    }\n\n    /**\n     * @dev Crea un tipo de carta aleatorio\n     * @return valor aleatorio de tipo de carta\n     */\n    function _crearTipoAleatorio() private returns (uint8){\n        semillaTipo ++;\n        uint256 tipoAleatorio = uint256(keccak256(abi.encodePacked(block.timestamp, msg.sender, semillaTipo)));\n        return uint8(tipoAleatorio % cantidadTipos);\n    }\n    \n    /**\n     * @dev Crea una carta aleatoria\n     */\n    function crearCartaAleatoria() public {\n        uint256 descripcionAleatoria = _crearDescripcionAleatoria();\n        uint8 tipoAleatorio = _crearTipoAleatorio();\n        _crearCarta(descripcionAleatoria, tipoAleatorio);\n    }\n\n    /**\n     * Para obtener todas las cartas\n     */\n    function getCartas() public view returns (Carta[] memory) {\n        return cartas;\n    }\n    \n}\n",
  "sourcePath": "/home/miki_mustard/Desktop/Personal/Facultad/tdl/teoria-del-lenguaje/truffle-project/contracts/CartaFactory.sol",
  "compiler": {
    "name": "solc",
    "version": "0.5.16+commit.9c3226ce.Emscripten.clang"
  },
  "schemaVersion": "3.4.1",
  "updatedAt": "2021-06-14T22:11:00.455Z",
  "networkType": "ethereum",
  "devdoc": {
    "details": "Generacion aleatoria de cartas",
    "methods": {
      "crearCartaAleatoria()": {
        "details": "Crea una carta aleatoria"
      }
    },
    "title": "CartaFactory"
  },
  "userdoc": {
    "methods": {
      "getCartas()": {
        "notice": "Para obtener todas las cartas"
      }
    }
  }
}