{
  "contractName": "CartaItem",
  "abi": [
    {
      "anonymous": false,
      "inputs": [
        {
          "indexed": true,
          "internalType": "address",
          "name": "_owner",
          "type": "address"
        },
        {
          "indexed": true,
          "internalType": "address",
          "name": "_approved",
          "type": "address"
        },
        {
          "indexed": false,
          "internalType": "uint256",
          "name": "_tokenId",
          "type": "uint256"
        }
      ],
      "name": "Approval",
      "type": "event"
    },
    {
      "anonymous": false,
      "inputs": [
        {
          "indexed": false,
          "internalType": "uint256",
          "name": "cartaId",
          "type": "uint256"
        },
        {
          "indexed": false,
          "internalType": "uint256",
          "name": "descripcion",
          "type": "uint256"
        },
        {
          "indexed": false,
          "internalType": "uint8",
          "name": "tipo",
          "type": "uint8"
        }
      ],
      "name": "NuevaCarta",
      "type": "event"
    },
    {
      "anonymous": false,
      "inputs": [
        {
          "indexed": true,
          "internalType": "address",
          "name": "previousOwner",
          "type": "address"
        },
        {
          "indexed": true,
          "internalType": "address",
          "name": "newOwner",
          "type": "address"
        }
      ],
      "name": "OwnershipTransferred",
      "type": "event"
    },
    {
      "anonymous": false,
      "inputs": [
        {
          "indexed": true,
          "internalType": "address",
          "name": "_from",
          "type": "address"
        },
        {
          "indexed": true,
          "internalType": "address",
          "name": "_to",
          "type": "address"
        },
        {
          "indexed": false,
          "internalType": "uint256",
          "name": "_tokenId",
          "type": "uint256"
        }
      ],
      "name": "Transfer",
      "type": "event"
    },
    {
      "inputs": [
        {
          "internalType": "uint256",
          "name": "",
          "type": "uint256"
        }
      ],
      "name": "cartaAPersona",
      "outputs": [
        {
          "internalType": "address",
          "name": "",
          "type": "address"
        }
      ],
      "stateMutability": "view",
      "type": "function",
      "constant": true
    },
    {
      "inputs": [
        {
          "internalType": "uint256",
          "name": "",
          "type": "uint256"
        }
      ],
      "name": "cartas",
      "outputs": [
        {
          "internalType": "uint256",
          "name": "descripcion",
          "type": "uint256"
        },
        {
          "internalType": "uint8",
          "name": "tipo",
          "type": "uint8"
        }
      ],
      "stateMutability": "view",
      "type": "function",
      "constant": true
    },
    {
      "inputs": [],
      "name": "crearCartaAleatoria",
      "outputs": [
        {
          "internalType": "uint256",
          "name": "",
          "type": "uint256"
        }
      ],
      "stateMutability": "nonpayable",
      "type": "function"
    },
    {
      "inputs": [],
      "name": "getCartas",
      "outputs": [
        {
          "internalType": "uint256[]",
          "name": "",
          "type": "uint256[]"
        },
        {
          "internalType": "uint8[]",
          "name": "",
          "type": "uint8[]"
        }
      ],
      "stateMutability": "view",
      "type": "function",
      "constant": true
    },
    {
      "inputs": [
        {
          "internalType": "address",
          "name": "_owner",
          "type": "address"
        }
      ],
      "name": "getCartasDe",
      "outputs": [
        {
          "internalType": "uint256[]",
          "name": "",
          "type": "uint256[]"
        },
        {
          "internalType": "uint8[]",
          "name": "",
          "type": "uint8[]"
        }
      ],
      "stateMutability": "view",
      "type": "function",
      "constant": true
    },
    {
      "inputs": [],
      "name": "owner",
      "outputs": [
        {
          "internalType": "address",
          "name": "",
          "type": "address"
        }
      ],
      "stateMutability": "view",
      "type": "function",
      "constant": true
    },
    {
      "inputs": [],
      "name": "renounceOwnership",
      "outputs": [],
      "stateMutability": "nonpayable",
      "type": "function"
    },
    {
      "inputs": [
        {
          "internalType": "address",
          "name": "newOwner",
          "type": "address"
        }
      ],
      "name": "transferOwnership",
      "outputs": [],
      "stateMutability": "nonpayable",
      "type": "function"
    },
    {
      "inputs": [
        {
          "internalType": "address",
          "name": "_owner",
          "type": "address"
        }
      ],
      "name": "balanceOf",
      "outputs": [
        {
          "internalType": "uint256",
          "name": "_balance",
          "type": "uint256"
        }
      ],
      "stateMutability": "view",
      "type": "function",
      "constant": true
    },
    {
      "inputs": [
        {
          "internalType": "uint256",
          "name": "_tokenId",
          "type": "uint256"
        }
      ],
      "name": "ownerOf",
      "outputs": [
        {
          "internalType": "address",
          "name": "_owner",
          "type": "address"
        }
      ],
      "stateMutability": "view",
      "type": "function",
      "constant": true
    },
    {
      "inputs": [
        {
          "internalType": "address",
          "name": "_to",
          "type": "address"
        },
        {
          "internalType": "uint256",
          "name": "_tokenId",
          "type": "uint256"
        }
      ],
      "name": "transfer",
      "outputs": [],
      "stateMutability": "nonpayable",
      "type": "function"
    },
    {
      "inputs": [
        {
          "internalType": "address",
          "name": "_to",
          "type": "address"
        },
        {
          "internalType": "uint256",
          "name": "_tokenId",
          "type": "uint256"
        }
      ],
      "name": "approve",
      "outputs": [],
      "stateMutability": "nonpayable",
      "type": "function"
    },
    {
      "inputs": [
        {
          "internalType": "uint256",
          "name": "_tokenId",
          "type": "uint256"
        }
      ],
      "name": "takeOwnership",
      "outputs": [],
      "stateMutability": "nonpayable",
      "type": "function"
    }
  ],
  "bytecode": "0x60806040526010600155600154600a6200001a91906200016a565b600255600060035560006004556003600560006101000a81548160ff021916908360ff1602179055503480156200005057600080fd5b506000620000636200010760201b60201c565b9050806000806101000a81548173ffffffffffffffffffffffffffffffffffffffff021916908373ffffffffffffffffffffffffffffffffffffffff1602179055508073ffffffffffffffffffffffffffffffffffffffff16600073ffffffffffffffffffffffffffffffffffffffff167f8be0079c531659141344cd1fd0a4f28419497f9722a3daafe3b4186f6b6457e060405160405180910390a350620002ed565b600033905090565b6000808291508390505b60018511156200016157808604811115620001395762000138620002b1565b5b6001851615620001495780820291505b80810290506200015985620002e0565b945062000119565b94509492505050565b60006200017782620002a7565b91506200018483620002a7565b9250620001b37fffffffffffffffffffffffffffffffffffffffffffffffffffffffffffffffff8484620001bb565b905092915050565b600082620001cd5760019050620002a0565b81620001dd5760009050620002a0565b8160018114620001f65760028114620002015762000237565b6001915050620002a0565b60ff841115620002165762000215620002b1565b5b8360020a91508482111562000230576200022f620002b1565b5b50620002a0565b5060208310610133831016604e8410600b8410161715620002715782820a9050838111156200026b576200026a620002b1565b5b620002a0565b6200028084848460016200010f565b925090508184048111156200029a5762000299620002b1565b5b81810290505b9392505050565b6000819050919050565b7f4e487b7100000000000000000000000000000000000000000000000000000000600052601160045260246000fd5b60008160011c9050919050565b6118cd80620002fd6000396000f3fe608060405234801561001057600080fd5b50600436106100cf5760003560e01c8063715018a61161008c578063b2e6ceeb11610066578063b2e6ceeb14610226578063bc24b16a14610242578063c2fcde8914610260578063f2fde38b1461027f576100cf565b8063715018a6146101e25780638da5cb5b146101ec578063a9059cbb1461020a576100cf565b8063095ea7b3146100d45780634a358c1e146100f0578063582ddb38146101215780635b102ab8146101515780636352211e1461018257806370a08231146101b2575b600080fd5b6100ee60048036038101906100e99190611272565b61029b565b005b61010a60048036038101906101059190611249565b6103c3565b60405161011892919061153a565b60405180910390f35b61013b600480360381019061013691906112ae565b6106d1565b604051610148919061151f565b60405180910390f35b61016b600480360381019061016691906112ae565b610704565b604051610179929190611603565b60405180910390f35b61019c600480360381019061019791906112ae565b610745565b6040516101a9919061151f565b60405180910390f35b6101cc60048036038101906101c79190611249565b610782565b6040516101d991906115b1565b60405180910390f35b6101ea6107cb565b005b6101f4610905565b604051610201919061151f565b60405180910390f35b610224600480360381019061021f9190611272565b61092e565b005b610240600480360381019061023b91906112ae565b6109aa565b005b61024a610a31565b60405161025791906115b1565b60405180910390f35b610268610a6d565b60405161027692919061153a565b60405180910390f35b61029960048036038101906102949190611249565b610cc7565b005b806007600082815260200190815260200160002060009054906101000a900473ffffffffffffffffffffffffffffffffffffffff1673ffffffffffffffffffffffffffffffffffffffff163373ffffffffffffffffffffffffffffffffffffffff161461030757600080fd5b826009600084815260200190815260200160002060006101000a81548173ffffffffffffffffffffffffffffffffffffffff021916908373ffffffffffffffffffffffffffffffffffffffff1602179055508273ffffffffffffffffffffffffffffffffffffffff163373ffffffffffffffffffffffffffffffffffffffff167f8c5be1e5ebec7d5bd14f71427d1e84f3dd0314c0f7b2291e5b200ac8c7c3b925846040516103b691906115b1565b60405180910390a3505050565b6060806000600860008573ffffffffffffffffffffffffffffffffffffffff1673ffffffffffffffffffffffffffffffffffffffff16815260200190815260200160002054905060008167ffffffffffffffff81111561044c577f4e487b7100000000000000000000000000000000000000000000000000000000600052604160045260246000fd5b60405190808252806020026020018201604052801561047a5781602001602082028036833780820191505090505b50905060008267ffffffffffffffff8111156104bf577f4e487b7100000000000000000000000000000000000000000000000000000000600052604160045260246000fd5b6040519080825280602002602001820160405280156104ed5781602001602082028036833780820191505090505b5090506000805b6006805490508110156106c1578773ffffffffffffffffffffffffffffffffffffffff166007600083815260200190815260200160002060009054906101000a900473ffffffffffffffffffffffffffffffffffffffff1673ffffffffffffffffffffffffffffffffffffffff1614156106ae57600681815481106105a2577f4e487b7100000000000000000000000000000000000000000000000000000000600052603260045260246000fd5b9060005260206000209060020201600001548483815181106105ed577f4e487b7100000000000000000000000000000000000000000000000000000000600052603260045260246000fd5b60200260200101818152505060068181548110610633577f4e487b7100000000000000000000000000000000000000000000000000000000600052603260045260246000fd5b906000526020600020906002020160010160009054906101000a900460ff1683838151811061068b577f4e487b7100000000000000000000000000000000000000000000000000000000600052603260045260246000fd5b602002602001019060ff16908160ff168152505081806106aa90611756565b9250505b80806106b990611756565b9150506104f4565b5082829550955050505050915091565b60076020528060005260406000206000915054906101000a900473ffffffffffffffffffffffffffffffffffffffff1681565b6006818154811061071457600080fd5b90600052602060002090600202016000915090508060000154908060010160009054906101000a900460ff16905082565b60006007600083815260200190815260200160002060009054906101000a900473ffffffffffffffffffffffffffffffffffffffff169050919050565b6000600860008373ffffffffffffffffffffffffffffffffffffffff1673ffffffffffffffffffffffffffffffffffffffff168152602001908152602001600020549050919050565b6107d3610e70565b73ffffffffffffffffffffffffffffffffffffffff166107f1610905565b73ffffffffffffffffffffffffffffffffffffffff1614610847576040517f08c379a000000000000000000000000000000000000000000000000000000000815260040161083e90611591565b60405180910390fd5b600073ffffffffffffffffffffffffffffffffffffffff1660008054906101000a900473ffffffffffffffffffffffffffffffffffffffff1673ffffffffffffffffffffffffffffffffffffffff167f8be0079c531659141344cd1fd0a4f28419497f9722a3daafe3b4186f6b6457e060405160405180910390a360008060006101000a81548173ffffffffffffffffffffffffffffffffffffffff021916908373ffffffffffffffffffffffffffffffffffffffff160217905550565b60008060009054906101000a900473ffffffffffffffffffffffffffffffffffffffff16905090565b806007600082815260200190815260200160002060009054906101000a900473ffffffffffffffffffffffffffffffffffffffff1673ffffffffffffffffffffffffffffffffffffffff163373ffffffffffffffffffffffffffffffffffffffff161461099a57600080fd5b6109a5338484610e78565b505050565b3373ffffffffffffffffffffffffffffffffffffffff166009600083815260200190815260200160002060009054906101000a900473ffffffffffffffffffffffffffffffffffffffff1673ffffffffffffffffffffffffffffffffffffffff1614610a1557600080fd5b6000610a2082610745565b9050610a2d813384610e78565b5050565b600080610a3c610fde565b90506000610a48611040565b9050610a5482826110b2565b6001600680549050610a6691906116af565b9250505090565b606080600060068054905067ffffffffffffffff811115610ab7577f4e487b7100000000000000000000000000000000000000000000000000000000600052604160045260246000fd5b604051908082528060200260200182016040528015610ae55781602001602082028036833780820191505090505b509050600060068054905067ffffffffffffffff811115610b2f577f4e487b7100000000000000000000000000000000000000000000000000000000600052604160045260246000fd5b604051908082528060200260200182016040528015610b5d5781602001602082028036833780820191505090505b50905060005b600680549050811015610cba5760068181548110610baa577f4e487b7100000000000000000000000000000000000000000000000000000000600052603260045260246000fd5b906000526020600020906002020160000154838281518110610bf5577f4e487b7100000000000000000000000000000000000000000000000000000000600052603260045260246000fd5b60200260200101818152505060068181548110610c3b577f4e487b7100000000000000000000000000000000000000000000000000000000600052603260045260246000fd5b906000526020600020906002020160010160009054906101000a900460ff16828281518110610c93577f4e487b7100000000000000000000000000000000000000000000000000000000600052603260045260246000fd5b602002602001019060ff16908160ff16815250508080610cb290611756565b915050610b63565b5081819350935050509091565b610ccf610e70565b73ffffffffffffffffffffffffffffffffffffffff16610ced610905565b73ffffffffffffffffffffffffffffffffffffffff1614610d43576040517f08c379a0000000000000000000000000000000000000000000000000000000008152600401610d3a90611591565b60405180910390fd5b600073ffffffffffffffffffffffffffffffffffffffff168173ffffffffffffffffffffffffffffffffffffffff161415610db3576040517f08c379a0000000000000000000000000000000000000000000000000000000008152600401610daa90611571565b60405180910390fd5b8073ffffffffffffffffffffffffffffffffffffffff1660008054906101000a900473ffffffffffffffffffffffffffffffffffffffff1673ffffffffffffffffffffffffffffffffffffffff167f8be0079c531659141344cd1fd0a4f28419497f9722a3daafe3b4186f6b6457e060405160405180910390a3806000806101000a81548173ffffffffffffffffffffffffffffffffffffffff021916908373ffffffffffffffffffffffffffffffffffffffff16021790555050565b600033905090565b600860008373ffffffffffffffffffffffffffffffffffffffff1673ffffffffffffffffffffffffffffffffffffffff1681526020019081526020016000206000815480929190610ec890611756565b9190505550600860008473ffffffffffffffffffffffffffffffffffffffff1673ffffffffffffffffffffffffffffffffffffffff1681526020019081526020016000206000815480929190610f1d9061172c565b9190505550816007600083815260200190815260200160002060006101000a81548173ffffffffffffffffffffffffffffffffffffffff021916908373ffffffffffffffffffffffffffffffffffffffff1602179055508173ffffffffffffffffffffffffffffffffffffffff168373ffffffffffffffffffffffffffffffffffffffff167fddf252ad1be2c89b69c2b068fc378daa952ba7f163c4a11628f55a4df523b3ef83604051610fd191906115b1565b60405180910390a3505050565b600060036000815480929190610ff390611756565b919050555060004233600354604051602001611011939291906114e2565b6040516020818303038152906040528051906020012060001c90506002548161103a91906117cd565b91505090565b60006004600081548092919061105590611756565b919050555060004233600454604051602001611073939291906114e2565b6040516020818303038152906040528051906020012060001c9050600560009054906101000a900460ff1660ff16816110ac91906117cd565b91505090565b600660405180604001604052808481526020018360ff1681525090806001815401808255809150506001900390600052602060002090600202016000909190919091506000820151816000015560208201518160010160006101000a81548160ff021916908360ff16021790555050506000600160068054905061113691906116af565b9050336007600083815260200190815260200160002060006101000a81548173ffffffffffffffffffffffffffffffffffffffff021916908373ffffffffffffffffffffffffffffffffffffffff160217905550600860003373ffffffffffffffffffffffffffffffffffffffff1673ffffffffffffffffffffffffffffffffffffffff16815260200190815260200160002060008154809291906111da90611756565b91905055507f6ca85b4ba4ace1b9d8e266c2cb00dcb3314c66609fd525cfab3301b2e306748d818484604051611212939291906115cc565b60405180910390a1505050565b60008135905061122e81611869565b92915050565b60008135905061124381611880565b92915050565b60006020828403121561125b57600080fd5b60006112698482850161121f565b91505092915050565b6000806040838503121561128557600080fd5b60006112938582860161121f565b92505060206112a485828601611234565b9150509250929050565b6000602082840312156112c057600080fd5b60006112ce84828501611234565b91505092915050565b60006112e3838361148f565b60208301905092915050565b60006112fb83836114c4565b60208301905092915050565b611310816116e3565b82525050565b611327611322826116e3565b61179f565b82525050565b60006113388261164c565b611342818561167c565b935061134d8361162c565b8060005b8381101561137e57815161136588826112d7565b975061137083611662565b925050600181019050611351565b5085935050505092915050565b600061139682611657565b6113a0818561168d565b93506113ab8361163c565b8060005b838110156113dc5781516113c388826112ef565b97506113ce8361166f565b9250506001810190506113af565b5085935050505092915050565b60006113f660268361169e565b91507f4f776e61626c653a206e6577206f776e657220697320746865207a65726f206160008301527f64647265737300000000000000000000000000000000000000000000000000006020830152604082019050919050565b600061145c60208361169e565b91507f4f776e61626c653a2063616c6c6572206973206e6f7420746865206f776e65726000830152602082019050919050565b61149881611715565b82525050565b6114a781611715565b82525050565b6114be6114b982611715565b6117c3565b82525050565b6114cd8161171f565b82525050565b6114dc8161171f565b82525050565b60006114ee82866114ad565b6020820191506114fe8285611316565b60148201915061150e82846114ad565b602082019150819050949350505050565b60006020820190506115346000830184611307565b92915050565b60006040820190508181036000830152611554818561132d565b90508181036020830152611568818461138b565b90509392505050565b6000602082019050818103600083015261158a816113e9565b9050919050565b600060208201905081810360008301526115aa8161144f565b9050919050565b60006020820190506115c6600083018461149e565b92915050565b60006060820190506115e1600083018661149e565b6115ee602083018561149e565b6115fb60408301846114d3565b949350505050565b6000604082019050611618600083018561149e565b61162560208301846114d3565b9392505050565b6000819050602082019050919050565b6000819050602082019050919050565b600081519050919050565b600081519050919050565b6000602082019050919050565b6000602082019050919050565b600082825260208201905092915050565b600082825260208201905092915050565b600082825260208201905092915050565b60006116ba82611715565b91506116c583611715565b9250828210156116d8576116d76117fe565b5b828203905092915050565b60006116ee826116f5565b9050919050565b600073ffffffffffffffffffffffffffffffffffffffff82169050919050565b6000819050919050565b600060ff82169050919050565b600061173782611715565b9150600082141561174b5761174a6117fe565b5b600182039050919050565b600061176182611715565b91507fffffffffffffffffffffffffffffffffffffffffffffffffffffffffffffffff821415611794576117936117fe565b5b600182019050919050565b60006117aa826117b1565b9050919050565b60006117bc8261185c565b9050919050565b6000819050919050565b60006117d882611715565b91506117e383611715565b9250826117f3576117f261182d565b5b828206905092915050565b7f4e487b7100000000000000000000000000000000000000000000000000000000600052601160045260246000fd5b7f4e487b7100000000000000000000000000000000000000000000000000000000600052601260045260246000fd5b60008160601b9050919050565b611872816116e3565b811461187d57600080fd5b50565b61188981611715565b811461189457600080fd5b5056fea264697066735822122010fc90820174f14b0a25c868d1984bd83971ed0ad84da554822862b10e3a508364736f6c63430008000033",
  "immutableReferences": {},
  "source": "pragma solidity ^0.8.0;\n\nimport \"./CartaHelper.sol\";\nimport \"./erc721.sol\";\n\n/**\n * @title CartaItem\n * @dev Funciones de administracion de cartas como \n * compra de las mismas o transferencia de ownership\n */\ncontract CartaItem is CartaHelper, ERC721 {\n    \n    mapping (uint => address) cartaApprovals;\n\n    function balanceOf(address _owner) public view override returns (uint256 _balance) {\n        return personaCantidadCartas[_owner];\n    }\n\n    function ownerOf(uint256 _tokenId) public view override returns (address _owner) {\n        return cartaAPersona[_tokenId];\n    }\n\n    function _transfer(address _from, address _to, uint256 _tokenId) private {\n        personaCantidadCartas[_to]++;\n        personaCantidadCartas[_from]--;\n        cartaAPersona[_tokenId] = _to;\n        Transfer(_from, _to, _tokenId);\n    }\n\n    function transfer(address _to, uint256 _tokenId) public override soloDuenioDe(_tokenId) {\n        _transfer(msg.sender, _to, _tokenId);\n    }\n\n    function approve(address _to, uint256 _tokenId) public override soloDuenioDe(_tokenId) {\n        cartaApprovals[_tokenId] = _to;\n        Approval(msg.sender, _to, _tokenId);\n    }\n\n    function takeOwnership(uint256 _tokenId) public override {\n        require(cartaApprovals[_tokenId] == msg.sender);\n        address owner = ownerOf(_tokenId);\n        _transfer(owner, msg.sender, _tokenId);\n    }\n}",
  "sourcePath": "/home/miki_mustard/Desktop/Personal/Facultad/tdl/nuevo-tdl/teoria-del-lenguaje/truffle-project/contracts/CartaItem.sol",
  "compiler": {
    "name": "solc",
    "version": "0.8.0+commit.c7dfd78e.Emscripten.clang"
  },
  "schemaVersion": "3.4.1",
  "updatedAt": "2021-06-21T03:37:21.388Z",
  "networkType": "ethereum",
  "devdoc": {
    "details": "Funciones de administracion de cartas como  compra de las mismas o transferencia de ownership",
    "kind": "dev",
    "methods": {
      "crearCartaAleatoria()": {
        "details": "Crea una carta aleatoria",
        "returns": {
          "_0": "id de la carta creada"
        }
      },
      "owner()": {
        "details": "Returns the address of the current owner."
      },
      "renounceOwnership()": {
        "details": "Leaves the contract without owner. It will not be possible to call `onlyOwner` functions anymore. Can only be called by the current owner. NOTE: Renouncing ownership will leave the contract without an owner, thereby removing any functionality that is only available to the owner."
      },
      "transferOwnership(address)": {
        "details": "Transfers ownership of the contract to a new account (`newOwner`). Can only be called by the current owner."
      }
    },
    "title": "CartaItem",
    "version": 1
  },
  "userdoc": {
    "kind": "user",
    "methods": {
      "getCartas()": {
        "notice": "Para obtener todas las cartas"
      },
      "getCartasDe(address)": {
        "notice": "Para obtener todas las cartas correspondientes a un address"
      }
    },
    "version": 1
  }
}