{
  "contractName": "CartaHelper",
  "abi": [
    {
      "anonymous": false,
      "inputs": [
        {
          "indexed": false,
          "internalType": "uint256",
          "name": "cartaId",
          "type": "uint256"
        },
        {
          "indexed": false,
          "internalType": "uint256",
          "name": "descripcion",
          "type": "uint256"
        },
        {
          "indexed": false,
          "internalType": "uint8",
          "name": "tipo",
          "type": "uint8"
        }
      ],
      "name": "NuevaCarta",
      "type": "event"
    },
    {
      "anonymous": false,
      "inputs": [
        {
          "indexed": true,
          "internalType": "address",
          "name": "previousOwner",
          "type": "address"
        },
        {
          "indexed": true,
          "internalType": "address",
          "name": "newOwner",
          "type": "address"
        }
      ],
      "name": "OwnershipTransferred",
      "type": "event"
    },
    {
      "inputs": [
        {
          "internalType": "uint256",
          "name": "",
          "type": "uint256"
        }
      ],
      "name": "cartaAPersona",
      "outputs": [
        {
          "internalType": "address",
          "name": "",
          "type": "address"
        }
      ],
      "stateMutability": "view",
      "type": "function"
    },
    {
      "inputs": [
        {
          "internalType": "uint256",
          "name": "",
          "type": "uint256"
        }
      ],
      "name": "cartas",
      "outputs": [
        {
          "internalType": "uint256",
          "name": "descripcion",
          "type": "uint256"
        },
        {
          "internalType": "uint8",
          "name": "tipo",
          "type": "uint8"
        }
      ],
      "stateMutability": "view",
      "type": "function"
    },
    {
      "inputs": [],
      "name": "owner",
      "outputs": [
        {
          "internalType": "address",
          "name": "",
          "type": "address"
        }
      ],
      "stateMutability": "view",
      "type": "function"
    },
    {
      "inputs": [],
      "name": "renounceOwnership",
      "outputs": [],
      "stateMutability": "nonpayable",
      "type": "function"
    },
    {
      "inputs": [
        {
          "internalType": "address",
          "name": "newOwner",
          "type": "address"
        }
      ],
      "name": "transferOwnership",
      "outputs": [],
      "stateMutability": "nonpayable",
      "type": "function"
    },
    {
      "inputs": [],
      "name": "getCartas",
      "outputs": [
        {
          "internalType": "uint256[]",
          "name": "",
          "type": "uint256[]"
        },
        {
          "internalType": "uint8[]",
          "name": "",
          "type": "uint8[]"
        }
      ],
      "stateMutability": "view",
      "type": "function"
    },
    {
      "inputs": [
        {
          "internalType": "address",
          "name": "_owner",
          "type": "address"
        }
      ],
      "name": "getCartasDe",
      "outputs": [
        {
          "internalType": "uint256[]",
          "name": "",
          "type": "uint256[]"
        },
        {
          "internalType": "uint256[]",
          "name": "",
          "type": "uint256[]"
        },
        {
          "internalType": "uint8[]",
          "name": "",
          "type": "uint8[]"
        }
      ],
      "stateMutability": "view",
      "type": "function"
    }
  ],
  "bytecode": "0x60806040526010600155600154600a6200001a91906200019e565b600255600060035560006004556003600560006101000a81548160ff021916908360ff1602179055503480156200005057600080fd5b5062000071620000656200007760201b60201c565b6200007f60201b60201c565b62000321565b600033905090565b60008060009054906101000a900473ffffffffffffffffffffffffffffffffffffffff169050816000806101000a81548173ffffffffffffffffffffffffffffffffffffffff021916908373ffffffffffffffffffffffffffffffffffffffff1602179055508173ffffffffffffffffffffffffffffffffffffffff168173ffffffffffffffffffffffffffffffffffffffff167f8be0079c531659141344cd1fd0a4f28419497f9722a3daafe3b4186f6b6457e060405160405180910390a35050565b6000808291508390505b600185111562000195578086048111156200016d576200016c620002e5565b5b60018516156200017d5780820291505b80810290506200018d8562000314565b94506200014d565b94509492505050565b6000620001ab82620002db565b9150620001b883620002db565b9250620001e77fffffffffffffffffffffffffffffffffffffffffffffffffffffffffffffffff8484620001ef565b905092915050565b600082620002015760019050620002d4565b81620002115760009050620002d4565b81600181146200022a576002811462000235576200026b565b6001915050620002d4565b60ff8411156200024a5762000249620002e5565b5b8360020a915084821115620002645762000263620002e5565b5b50620002d4565b5060208310610133831016604e8410600b8410161715620002a55782820a9050838111156200029f576200029e620002e5565b5b620002d4565b620002b4848484600162000143565b92509050818404811115620002ce57620002cd620002e5565b5b81810290505b9392505050565b6000819050919050565b7f4e487b7100000000000000000000000000000000000000000000000000000000600052601160045260246000fd5b60008160011c9050919050565b610f9280620003316000396000f3fe608060405234801561001057600080fd5b506004361061007d5760003560e01c8063715018a61161005b578063715018a6146101155780638da5cb5b1461011f578063c2fcde891461013d578063f2fde38b1461015c5761007d565b80634a358c1e14610082578063582ddb38146100b45780635b102ab8146100e4575b600080fd5b61009c60048036038101906100979190610ab4565b610178565b6040516100ab93929190610cfe565b60405180910390f35b6100ce60048036038101906100c99190610add565b610547565b6040516100db9190610ce3565b60405180910390f35b6100fe60048036038101906100f99190610add565b61057a565b60405161010c929190610dc1565b60405180910390f35b61011d6105bb565b005b610127610643565b6040516101349190610ce3565b60405180910390f35b61014561066c565b604051610153929190610d4a565b60405180910390f35b61017660048036038101906101719190610ab4565b6108c6565b005b60608060606000600860008673ffffffffffffffffffffffffffffffffffffffff1673ffffffffffffffffffffffffffffffffffffffff16815260200190815260200160002054905060008167ffffffffffffffff811115610203577f4e487b7100000000000000000000000000000000000000000000000000000000600052604160045260246000fd5b6040519080825280602002602001820160405280156102315781602001602082028036833780820191505090505b50905060008267ffffffffffffffff811115610276577f4e487b7100000000000000000000000000000000000000000000000000000000600052604160045260246000fd5b6040519080825280602002602001820160405280156102a45781602001602082028036833780820191505090505b50905060008367ffffffffffffffff8111156102e9577f4e487b7100000000000000000000000000000000000000000000000000000000600052604160045260246000fd5b6040519080825280602002602001820160405280156103175781602001602082028036833780820191505090505b5090506000805b600680549050811015610531578973ffffffffffffffffffffffffffffffffffffffff166007600083815260200190815260200160002060009054906101000a900473ffffffffffffffffffffffffffffffffffffffff1673ffffffffffffffffffffffffffffffffffffffff16141561051e57808583815181106103cc577f4e487b7100000000000000000000000000000000000000000000000000000000600052603260045260246000fd5b60200260200101818152505060068181548110610412577f4e487b7100000000000000000000000000000000000000000000000000000000600052603260045260246000fd5b90600052602060002090600202016000015484838151811061045d577f4e487b7100000000000000000000000000000000000000000000000000000000600052603260045260246000fd5b602002602001018181525050600681815481106104a3577f4e487b7100000000000000000000000000000000000000000000000000000000600052603260045260246000fd5b906000526020600020906002020160010160009054906101000a900460ff168383815181106104fb577f4e487b7100000000000000000000000000000000000000000000000000000000600052603260045260246000fd5b602002602001019060ff16908160ff1681525050818061051a90610eb6565b9250505b808061052990610eb6565b91505061031e565b5083838397509750975050505050509193909250565b60076020528060005260406000206000915054906101000a900473ffffffffffffffffffffffffffffffffffffffff1681565b6006818154811061058a57600080fd5b90600052602060002090600202016000915090508060000154908060010160009054906101000a900460ff16905082565b6105c36109be565b73ffffffffffffffffffffffffffffffffffffffff166105e1610643565b73ffffffffffffffffffffffffffffffffffffffff1614610637576040517f08c379a000000000000000000000000000000000000000000000000000000000815260040161062e90610da1565b60405180910390fd5b61064160006109c6565b565b60008060009054906101000a900473ffffffffffffffffffffffffffffffffffffffff16905090565b606080600060068054905067ffffffffffffffff8111156106b6577f4e487b7100000000000000000000000000000000000000000000000000000000600052604160045260246000fd5b6040519080825280602002602001820160405280156106e45781602001602082028036833780820191505090505b509050600060068054905067ffffffffffffffff81111561072e577f4e487b7100000000000000000000000000000000000000000000000000000000600052604160045260246000fd5b60405190808252806020026020018201604052801561075c5781602001602082028036833780820191505090505b50905060005b6006805490508110156108b957600681815481106107a9577f4e487b7100000000000000000000000000000000000000000000000000000000600052603260045260246000fd5b9060005260206000209060020201600001548382815181106107f4577f4e487b7100000000000000000000000000000000000000000000000000000000600052603260045260246000fd5b6020026020010181815250506006818154811061083a577f4e487b7100000000000000000000000000000000000000000000000000000000600052603260045260246000fd5b906000526020600020906002020160010160009054906101000a900460ff16828281518110610892577f4e487b7100000000000000000000000000000000000000000000000000000000600052603260045260246000fd5b602002602001019060ff16908160ff168152505080806108b190610eb6565b915050610762565b5081819350935050509091565b6108ce6109be565b73ffffffffffffffffffffffffffffffffffffffff166108ec610643565b73ffffffffffffffffffffffffffffffffffffffff1614610942576040517f08c379a000000000000000000000000000000000000000000000000000000000815260040161093990610da1565b60405180910390fd5b600073ffffffffffffffffffffffffffffffffffffffff168173ffffffffffffffffffffffffffffffffffffffff1614156109b2576040517f08c379a00000000000000000000000000000000000000000000000000000000081526004016109a990610d81565b60405180910390fd5b6109bb816109c6565b50565b600033905090565b60008060009054906101000a900473ffffffffffffffffffffffffffffffffffffffff169050816000806101000a81548173ffffffffffffffffffffffffffffffffffffffff021916908373ffffffffffffffffffffffffffffffffffffffff1602179055508173ffffffffffffffffffffffffffffffffffffffff168173ffffffffffffffffffffffffffffffffffffffff167f8be0079c531659141344cd1fd0a4f28419497f9722a3daafe3b4186f6b6457e060405160405180910390a35050565b600081359050610a9981610f2e565b92915050565b600081359050610aae81610f45565b92915050565b600060208284031215610ac657600080fd5b6000610ad484828501610a8a565b91505092915050565b600060208284031215610aef57600080fd5b6000610afd84828501610a9f565b91505092915050565b6000610b128383610ca7565b60208301905092915050565b6000610b2a8383610cc5565b60208301905092915050565b610b3f81610e6d565b82525050565b6000610b5082610e0a565b610b5a8185610e3a565b9350610b6583610dea565b8060005b83811015610b96578151610b7d8882610b06565b9750610b8883610e20565b925050600181019050610b69565b5085935050505092915050565b6000610bae82610e15565b610bb88185610e4b565b9350610bc383610dfa565b8060005b83811015610bf4578151610bdb8882610b1e565b9750610be683610e2d565b925050600181019050610bc7565b5085935050505092915050565b6000610c0e602683610e5c565b91507f4f776e61626c653a206e6577206f776e657220697320746865207a65726f206160008301527f64647265737300000000000000000000000000000000000000000000000000006020830152604082019050919050565b6000610c74602083610e5c565b91507f4f776e61626c653a2063616c6c6572206973206e6f7420746865206f776e65726000830152602082019050919050565b610cb081610e9f565b82525050565b610cbf81610e9f565b82525050565b610cce81610ea9565b82525050565b610cdd81610ea9565b82525050565b6000602082019050610cf86000830184610b36565b92915050565b60006060820190508181036000830152610d188186610b45565b90508181036020830152610d2c8185610b45565b90508181036040830152610d408184610ba3565b9050949350505050565b60006040820190508181036000830152610d648185610b45565b90508181036020830152610d788184610ba3565b90509392505050565b60006020820190508181036000830152610d9a81610c01565b9050919050565b60006020820190508181036000830152610dba81610c67565b9050919050565b6000604082019050610dd66000830185610cb6565b610de36020830184610cd4565b9392505050565b6000819050602082019050919050565b6000819050602082019050919050565b600081519050919050565b600081519050919050565b6000602082019050919050565b6000602082019050919050565b600082825260208201905092915050565b600082825260208201905092915050565b600082825260208201905092915050565b6000610e7882610e7f565b9050919050565b600073ffffffffffffffffffffffffffffffffffffffff82169050919050565b6000819050919050565b600060ff82169050919050565b6000610ec182610e9f565b91507fffffffffffffffffffffffffffffffffffffffffffffffffffffffffffffffff821415610ef457610ef3610eff565b5b600182019050919050565b7f4e487b7100000000000000000000000000000000000000000000000000000000600052601160045260246000fd5b610f3781610e6d565b8114610f4257600080fd5b50565b610f4e81610e9f565b8114610f5957600080fd5b5056fea26469706673582212207ad89b4a6f74e17e0c39f37cee6c51f9f94e39f18fa67affebb179e673f545f464736f6c63430008000033",
  "immutableReferences": {},
  "source": "pragma solidity ^0.8.0;\n\nimport \"./CartaFactory.sol\";\n\n/**\n * @title CartaHelper\n * @dev Funciones auxiliares\n */\ncontract CartaHelper is CartaFactory {\n\n    /**\n     * Para obtener todas las cartas\n     */\n    function getCartas() external view returns (uint256[] memory, uint8[] memory) {\n        uint256[] memory descripciones = new uint256[](cartas.length);\n        uint8[] memory tipos = new uint8[](cartas.length);\n        for (uint i = 0; i < cartas.length; i++) {\n            descripciones[i] = (cartas[i].descripcion);\n            tipos[i] = (cartas[i].tipo);\n        }\n        return (descripciones, tipos);\n    }\n\n    /**\n     * Para obtener todas las cartas correspondientes a un address\n     */\n    function getCartasDe(address _owner) external view returns (uint[] memory, uint[] memory, uint8[] memory) {\n        uint cantidadCartas = personaCantidadCartas[_owner];\n        uint[] memory ids = new uint[](cantidadCartas);\n        uint[] memory descripciones = new uint[](cantidadCartas);\n        uint8[] memory tipos = new uint8[](cantidadCartas);\n\n        uint contador = 0;\n        for (uint i = 0; i < cartas.length; i++) {\n            if (cartaAPersona[i] == _owner) {\n                ids[contador] = i;\n                descripciones[contador] = cartas[i].descripcion;\n                tipos[contador] = cartas[i].tipo;\n                contador ++;\n            }\n        }\n        return (ids, descripciones, tipos);\n    }\n\n}",
  "sourcePath": "/Users/filyankaragoz/Documents/TDL/teoria-del-lenguaje/truffle-project/contracts/CartaHelper.sol",
  "compiler": {
    "name": "solc",
    "version": "0.8.0+commit.c7dfd78e.Emscripten.clang"
  },
  "schemaVersion": "3.4.1",
  "updatedAt": "2021-07-10T19:49:37.366Z",
  "devdoc": {
    "details": "Funciones auxiliares",
    "kind": "dev",
    "methods": {
      "owner()": {
        "details": "Returns the address of the current owner."
      },
      "renounceOwnership()": {
        "details": "Leaves the contract without owner. It will not be possible to call `onlyOwner` functions anymore. Can only be called by the current owner. NOTE: Renouncing ownership will leave the contract without an owner, thereby removing any functionality that is only available to the owner."
      },
      "transferOwnership(address)": {
        "details": "Transfers ownership of the contract to a new account (`newOwner`). Can only be called by the current owner."
      }
    },
    "title": "CartaHelper",
    "version": 1
  },
  "userdoc": {
    "kind": "user",
    "methods": {
      "getCartas()": {
        "notice": "Para obtener todas las cartas"
      },
      "getCartasDe(address)": {
        "notice": "Para obtener todas las cartas correspondientes a un address"
      }
    },
    "version": 1
  }
}