{
  "contractName": "CartaItem",
  "abi": [
    {
      "inputs": [
        {
          "internalType": "address",
          "name": "_ozAddress",
          "type": "address"
        },
        {
          "internalType": "address",
          "name": "_subastaFactoryAddress",
          "type": "address"
        }
      ],
      "stateMutability": "nonpayable",
      "type": "constructor"
    },
    {
      "anonymous": false,
      "inputs": [
        {
          "indexed": true,
          "internalType": "address",
          "name": "_owner",
          "type": "address"
        },
        {
          "indexed": true,
          "internalType": "address",
          "name": "_approved",
          "type": "address"
        },
        {
          "indexed": false,
          "internalType": "uint256",
          "name": "_tokenId",
          "type": "uint256"
        }
      ],
      "name": "Approval",
      "type": "event"
    },
    {
      "anonymous": false,
      "inputs": [
        {
          "indexed": false,
          "internalType": "uint256",
          "name": "cartaId",
          "type": "uint256"
        },
        {
          "indexed": false,
          "internalType": "uint256",
          "name": "descripcion",
          "type": "uint256"
        },
        {
          "indexed": false,
          "internalType": "uint8",
          "name": "tipo",
          "type": "uint8"
        }
      ],
      "name": "NuevaCarta",
      "type": "event"
    },
    {
      "anonymous": false,
      "inputs": [
        {
          "indexed": true,
          "internalType": "address",
          "name": "previousOwner",
          "type": "address"
        },
        {
          "indexed": true,
          "internalType": "address",
          "name": "newOwner",
          "type": "address"
        }
      ],
      "name": "OwnershipTransferred",
      "type": "event"
    },
    {
      "anonymous": false,
      "inputs": [
        {
          "indexed": true,
          "internalType": "address",
          "name": "_from",
          "type": "address"
        },
        {
          "indexed": true,
          "internalType": "address",
          "name": "_to",
          "type": "address"
        },
        {
          "indexed": false,
          "internalType": "uint256",
          "name": "_tokenId",
          "type": "uint256"
        }
      ],
      "name": "Transfer",
      "type": "event"
    },
    {
      "inputs": [
        {
          "internalType": "uint256",
          "name": "",
          "type": "uint256"
        }
      ],
      "name": "cartaAPersona",
      "outputs": [
        {
          "internalType": "address",
          "name": "",
          "type": "address"
        }
      ],
      "stateMutability": "view",
      "type": "function",
      "constant": true
    },
    {
      "inputs": [
        {
          "internalType": "uint256",
          "name": "",
          "type": "uint256"
        }
      ],
      "name": "cartas",
      "outputs": [
        {
          "internalType": "uint256",
          "name": "descripcion",
          "type": "uint256"
        },
        {
          "internalType": "uint8",
          "name": "tipo",
          "type": "uint8"
        },
        {
          "internalType": "bool",
          "name": "enSubasta",
          "type": "bool"
        }
      ],
      "stateMutability": "view",
      "type": "function",
      "constant": true
    },
    {
      "inputs": [],
      "name": "getCartas",
      "outputs": [
        {
          "internalType": "uint256[]",
          "name": "",
          "type": "uint256[]"
        },
        {
          "internalType": "uint8[]",
          "name": "",
          "type": "uint8[]"
        }
      ],
      "stateMutability": "view",
      "type": "function",
      "constant": true
    },
    {
      "inputs": [
        {
          "internalType": "address",
          "name": "_owner",
          "type": "address"
        }
      ],
      "name": "getCartasDe",
      "outputs": [
        {
          "internalType": "uint256[]",
          "name": "",
          "type": "uint256[]"
        },
        {
          "internalType": "uint256[]",
          "name": "",
          "type": "uint256[]"
        },
        {
          "internalType": "uint8[]",
          "name": "",
          "type": "uint8[]"
        }
      ],
      "stateMutability": "view",
      "type": "function",
      "constant": true
    },
    {
      "inputs": [],
      "name": "name",
      "outputs": [
        {
          "internalType": "string",
          "name": "",
          "type": "string"
        }
      ],
      "stateMutability": "view",
      "type": "function",
      "constant": true
    },
    {
      "inputs": [],
      "name": "owner",
      "outputs": [
        {
          "internalType": "address",
          "name": "",
          "type": "address"
        }
      ],
      "stateMutability": "view",
      "type": "function",
      "constant": true
    },
    {
      "inputs": [],
      "name": "renounceOwnership",
      "outputs": [],
      "stateMutability": "nonpayable",
      "type": "function"
    },
    {
      "inputs": [],
      "name": "symbol",
      "outputs": [
        {
          "internalType": "string",
          "name": "",
          "type": "string"
        }
      ],
      "stateMutability": "view",
      "type": "function",
      "constant": true
    },
    {
      "inputs": [
        {
          "internalType": "address",
          "name": "newOwner",
          "type": "address"
        }
      ],
      "name": "transferOwnership",
      "outputs": [],
      "stateMutability": "nonpayable",
      "type": "function"
    },
    {
      "inputs": [],
      "name": "crearCartaAleatoria",
      "outputs": [
        {
          "internalType": "uint256",
          "name": "",
          "type": "uint256"
        }
      ],
      "stateMutability": "nonpayable",
      "type": "function"
    },
    {
      "inputs": [
        {
          "internalType": "address",
          "name": "_duenio",
          "type": "address"
        },
        {
          "internalType": "uint256",
          "name": "_idCarta",
          "type": "uint256"
        },
        {
          "internalType": "uint256",
          "name": "_incrementoOferta",
          "type": "uint256"
        },
        {
          "internalType": "uint256",
          "name": "_tiempoInicial",
          "type": "uint256"
        },
        {
          "internalType": "uint256",
          "name": "_tiempoFinal",
          "type": "uint256"
        }
      ],
      "name": "subastarCarta",
      "outputs": [
        {
          "internalType": "uint256",
          "name": "",
          "type": "uint256"
        }
      ],
      "stateMutability": "nonpayable",
      "type": "function"
    },
    {
      "inputs": [
        {
          "internalType": "uint256",
          "name": "_idSubasta",
          "type": "uint256"
        },
        {
          "internalType": "uint256",
          "name": "_amount",
          "type": "uint256"
        }
      ],
      "name": "ofertarCarta",
      "outputs": [
        {
          "internalType": "bool",
          "name": "",
          "type": "bool"
        }
      ],
      "stateMutability": "nonpayable",
      "type": "function"
    },
    {
      "inputs": [
        {
          "internalType": "uint256",
          "name": "_idSubasta",
          "type": "uint256"
        }
      ],
      "name": "retirarFondos",
      "outputs": [
        {
          "internalType": "bool",
          "name": "",
          "type": "bool"
        }
      ],
      "stateMutability": "nonpayable",
      "type": "function"
    },
    {
      "inputs": [
        {
          "internalType": "uint256",
          "name": "_idSubasta",
          "type": "uint256"
        }
      ],
      "name": "cancelarSubasta",
      "outputs": [
        {
          "internalType": "bool",
          "name": "",
          "type": "bool"
        }
      ],
      "stateMutability": "nonpayable",
      "type": "function"
    },
    {
      "inputs": [
        {
          "internalType": "address",
          "name": "_owner",
          "type": "address"
        }
      ],
      "name": "balanceOf",
      "outputs": [
        {
          "internalType": "uint256",
          "name": "_balance",
          "type": "uint256"
        }
      ],
      "stateMutability": "view",
      "type": "function",
      "constant": true
    },
    {
      "inputs": [
        {
          "internalType": "uint256",
          "name": "_tokenId",
          "type": "uint256"
        }
      ],
      "name": "ownerOf",
      "outputs": [
        {
          "internalType": "address",
          "name": "_owner",
          "type": "address"
        }
      ],
      "stateMutability": "view",
      "type": "function",
      "constant": true
    },
    {
      "inputs": [
        {
          "internalType": "address",
          "name": "_to",
          "type": "address"
        },
        {
          "internalType": "uint256",
          "name": "_tokenId",
          "type": "uint256"
        }
      ],
      "name": "transfer",
      "outputs": [],
      "stateMutability": "nonpayable",
      "type": "function"
    },
    {
      "inputs": [
        {
          "internalType": "address",
          "name": "_to",
          "type": "address"
        },
        {
          "internalType": "uint256",
          "name": "_tokenId",
          "type": "uint256"
        }
      ],
      "name": "approve",
      "outputs": [],
      "stateMutability": "nonpayable",
      "type": "function"
    },
    {
      "inputs": [
        {
          "internalType": "uint256",
          "name": "_tokenId",
          "type": "uint256"
        }
      ],
      "name": "takeOwnership",
      "outputs": [],
      "stateMutability": "nonpayable",
      "type": "function"
    },
    {
      "inputs": [],
      "name": "balanceOzToken",
      "outputs": [
        {
          "internalType": "uint256",
          "name": "",
          "type": "uint256"
        }
      ],
      "stateMutability": "view",
      "type": "function",
      "constant": true
    },
    {
      "inputs": [
        {
          "internalType": "address",
          "name": "_ozTokenAddress",
          "type": "address"
        }
      ],
      "name": "setOzTokenAddress",
      "outputs": [],
      "stateMutability": "nonpayable",
      "type": "function"
    },
    {
      "inputs": [
        {
          "internalType": "address",
          "name": "_subastaFactoryAddress",
          "type": "address"
        }
      ],
      "name": "setSubastaFactoryAddress",
      "outputs": [],
      "stateMutability": "nonpayable",
      "type": "function"
    },
    {
      "inputs": [
        {
          "internalType": "address",
          "name": "_ozAccountAddress",
          "type": "address"
        }
      ],
      "name": "setOzAccountAddress",
      "outputs": [],
      "stateMutability": "nonpayable",
      "type": "function"
    }
  ],
  "bytecode": "0x60806040526010600155600154600a6200001a919062000424565b600255600060035560006004556003600560006101000a81548160ff021916908360ff1602179055506005600d556003600e556001600f556003601055731c53954455a6796723b52021c034964dd9e329de601160006101000a81548173ffffffffffffffffffffffffffffffffffffffff021916908373ffffffffffffffffffffffffffffffffffffffff160217905550348015620000b957600080fd5b506040516200408d3803806200408d8339818101604052810190620000df919062000388565b6040518060400160405280600981526020017f43617274614974656d00000000000000000000000000000000000000000000008152506040518060400160405280600481526020017f4349544d0000000000000000000000000000000000000000000000000000000081525060006200015d620002b960201b60201c565b9050806000806101000a81548173ffffffffffffffffffffffffffffffffffffffff021916908373ffffffffffffffffffffffffffffffffffffffff1602179055508073ffffffffffffffffffffffffffffffffffffffff16600073ffffffffffffffffffffffffffffffffffffffff167f8be0079c531659141344cd1fd0a4f28419497f9722a3daafe3b4186f6b6457e060405160405180910390a350816009908051906020019062000213929190620002c1565b5080600a90805190602001906200022c929190620002c1565b50505081600b60006101000a81548173ffffffffffffffffffffffffffffffffffffffff021916908373ffffffffffffffffffffffffffffffffffffffff16021790555080600c60006101000a81548173ffffffffffffffffffffffffffffffffffffffff021916908373ffffffffffffffffffffffffffffffffffffffff16021790555050506200065a565b600033905090565b828054620002cf906200059f565b90600052602060002090601f016020900481019282620002f357600085556200033f565b82601f106200030e57805160ff19168380011785556200033f565b828001600101855582156200033f579182015b828111156200033e57825182559160200191906001019062000321565b5b5090506200034e919062000352565b5090565b5b808211156200036d57600081600090555060010162000353565b5090565b600081519050620003828162000640565b92915050565b600080604083850312156200039c57600080fd5b6000620003ac8582860162000371565b9250506020620003bf8582860162000371565b9150509250929050565b6000808291508390505b60018511156200041b57808604811115620003f357620003f2620005d5565b5b6001851615620004035780820291505b8081029050620004138562000633565b9450620003d3565b94509492505050565b6000620004318262000595565b91506200043e8362000595565b92506200046d7fffffffffffffffffffffffffffffffffffffffffffffffffffffffffffffffff848462000475565b905092915050565b6000826200048757600190506200055a565b816200049757600090506200055a565b8160018114620004b05760028114620004bb57620004f1565b60019150506200055a565b60ff841115620004d057620004cf620005d5565b5b8360020a915084821115620004ea57620004e9620005d5565b5b506200055a565b5060208310610133831016604e8410600b84101617156200052b5782820a905083811115620005255762000524620005d5565b5b6200055a565b6200053a8484846001620003c9565b92509050818404811115620005545762000553620005d5565b5b81810290505b9392505050565b60006200056e8262000575565b9050919050565b600073ffffffffffffffffffffffffffffffffffffffff82169050919050565b6000819050919050565b60006002820490506001821680620005b857607f821691505b60208210811415620005cf57620005ce62000604565b5b50919050565b7f4e487b7100000000000000000000000000000000000000000000000000000000600052601160045260246000fd5b7f4e487b7100000000000000000000000000000000000000000000000000000000600052602260045260246000fd5b60008160011c9050919050565b6200064b8162000561565b81146200065757600080fd5b50565b613a23806200066a6000396000f3fe608060405234801561001057600080fd5b506004361061014d5760003560e01c80637e5f9591116100c3578063bc24b16a1161007c578063bc24b16a146103c8578063c1bf4059146103e6578063c2fcde8914610402578063c53714fb14610421578063d2a10c481461043d578063f2fde38b1461046d5761014d565b80637e5f9591146103065780638da5cb5b1461032457806395d89b4114610342578063a32aa71714610360578063a9059cbb14610390578063b2e6ceeb146103ac5761014d565b8063582ddb3811610115578063582ddb381461021e57806358a8788f1461024e5780635b102ab81461026a5780636352211e1461029c57806370a08231146102cc578063715018a6146102fc5761014d565b806306fdde0314610152578063095ea7b3146101705780630f981d8e1461018c57806328678259146101bc5780634a358c1e146101ec575b600080fd5b61015a610489565b60405161016791906133f2565b60405180910390f35b61018a60048036038101906101859190612a75565b61051b565b005b6101a660048036038101906101a19190612b51565b610679565b6040516101b391906133bc565b60405180910390f35b6101d660048036038101906101d19190612ba3565b610851565b6040516101e391906133bc565b60405180910390f35b61020660048036038101906102019190612a4c565b610b50565b60405161021593929190613339565b60405180910390f35b61023860048036038101906102339190612b51565b610f1f565b6040516102459190613294565b60405180910390f35b61026860048036038101906102639190612a4c565b610f52565b005b610284600480360381019061027f9190612b51565b611012565b60405161029393929190613666565b60405180910390f35b6102b660048036038101906102b19190612b51565b611066565b6040516102c39190613294565b60405180910390f35b6102e660048036038101906102e19190612a4c565b6110a3565b6040516102f391906135b4565b60405180910390f35b6103046110ec565b005b61030e611226565b60405161031b91906135b4565b60405180910390f35b61032c6112d8565b6040516103399190613294565b60405180910390f35b61034a611301565b60405161035791906133f2565b60405180910390f35b61037a60048036038101906103759190612b51565b611393565b60405161038791906133bc565b60405180910390f35b6103aa60048036038101906103a59190612a75565b611525565b005b6103c660048036038101906103c19190612b51565b6115d7565b005b6103d061165e565b6040516103dd91906135b4565b60405180910390f35b61040060048036038101906103fb9190612a4c565b611936565b005b61040a6119f6565b604051610418929190613385565b60405180910390f35b61043b60048036038101906104369190612a4c565b611c50565b005b61045760048036038101906104529190612ab1565b611d10565b60405161046491906135b4565b60405180910390f35b61048760048036038101906104829190612a4c565b6121fe565b005b60606009805461049890613823565b80601f01602080910402602001604051908101604052809291908181526020018280546104c490613823565b80156105115780601f106104e657610100808354040283529160200191610511565b820191906000526020600020905b8154815290600101906020018083116104f457829003601f168201915b5050505050905090565b806007600082815260200190815260200160002060009054906101000a900473ffffffffffffffffffffffffffffffffffffffff1673ffffffffffffffffffffffffffffffffffffffff163373ffffffffffffffffffffffffffffffffffffffff16146105bd576040517f08c379a00000000000000000000000000000000000000000000000000000000081526004016105b490613474565b60405180910390fd5b826012600084815260200190815260200160002060006101000a81548173ffffffffffffffffffffffffffffffffffffffff021916908373ffffffffffffffffffffffffffffffffffffffff1602179055508273ffffffffffffffffffffffffffffffffffffffff163373ffffffffffffffffffffffffffffffffffffffff167f8c5be1e5ebec7d5bd14f71427d1e84f3dd0314c0f7b2291e5b200ac8c7c3b9258460405161066c91906135b4565b60405180910390a3505050565b600080600c60009054906101000a900473ffffffffffffffffffffffffffffffffffffffff1673ffffffffffffffffffffffffffffffffffffffff16634d9770cb84336040518363ffffffff1660e01b81526004016106d99291906135cf565b602060405180830381600087803b1580156106f357600080fd5b505af1158015610707573d6000803e3d6000fd5b505050506040513d601f19601f8201168201806040525081019061072b9190612b28565b90506000600c60009054906101000a900473ffffffffffffffffffffffffffffffffffffffff1673ffffffffffffffffffffffffffffffffffffffff166390607191856040518263ffffffff1660e01b815260040161078a91906135b4565b602060405180830381600087803b1580156107a457600080fd5b505af11580156107b8573d6000803e3d6000fd5b505050506040513d601f19601f820116820180604052508101906107dc9190612b7a565b905060006006828154811061081a577f4e487b7100000000000000000000000000000000000000000000000000000000600052603260045260246000fd5b90600052602060002090600202019050828160010160016101000a81548160ff021916908315150217905550829350505050919050565b6000808211610895576040517f08c379a000000000000000000000000000000000000000000000000000000000815260040161088c906134f4565b60405180910390fd5b81600b60009054906101000a900473ffffffffffffffffffffffffffffffffffffffff1673ffffffffffffffffffffffffffffffffffffffff166370a08231336040518263ffffffff1660e01b81526004016108f19190613294565b60206040518083038186803b15801561090957600080fd5b505afa15801561091d573d6000803e3d6000fd5b505050506040513d601f19601f820116820180604052508101906109419190612b7a565b1015610982576040517f08c379a000000000000000000000000000000000000000000000000000000000815260040161097990613494565b60405180910390fd5b600c60009054906101000a900473ffffffffffffffffffffffffffffffffffffffff1673ffffffffffffffffffffffffffffffffffffffff16635e033ff18484336040518463ffffffff1660e01b81526004016109e1939291906135f8565b602060405180830381600087803b1580156109fb57600080fd5b505af1158015610a0f573d6000803e3d6000fd5b505050506040513d601f19601f82011682018060405250810190610a339190612b28565b610a72576040517f08c379a0000000000000000000000000000000000000000000000000000000008152600401610a6990613594565b60405180910390fd5b600b60009054906101000a900473ffffffffffffffffffffffffffffffffffffffff1673ffffffffffffffffffffffffffffffffffffffff166323b872dd33601160009054906101000a900473ffffffffffffffffffffffffffffffffffffffff16856040518463ffffffff1660e01b8152600401610af3939291906132af565b602060405180830381600087803b158015610b0d57600080fd5b505af1158015610b21573d6000803e3d6000fd5b505050506040513d601f19601f82011682018060405250810190610b459190612b28565b506001905092915050565b60608060606000600860008673ffffffffffffffffffffffffffffffffffffffff1673ffffffffffffffffffffffffffffffffffffffff16815260200190815260200160002054905060008167ffffffffffffffff811115610bdb577f4e487b7100000000000000000000000000000000000000000000000000000000600052604160045260246000fd5b604051908082528060200260200182016040528015610c095781602001602082028036833780820191505090505b50905060008267ffffffffffffffff811115610c4e577f4e487b7100000000000000000000000000000000000000000000000000000000600052604160045260246000fd5b604051908082528060200260200182016040528015610c7c5781602001602082028036833780820191505090505b50905060008367ffffffffffffffff811115610cc1577f4e487b7100000000000000000000000000000000000000000000000000000000600052604160045260246000fd5b604051908082528060200260200182016040528015610cef5781602001602082028036833780820191505090505b5090506000805b600680549050811015610f09578973ffffffffffffffffffffffffffffffffffffffff166007600083815260200190815260200160002060009054906101000a900473ffffffffffffffffffffffffffffffffffffffff1673ffffffffffffffffffffffffffffffffffffffff161415610ef65780858381518110610da4577f4e487b7100000000000000000000000000000000000000000000000000000000600052603260045260246000fd5b60200260200101818152505060068181548110610dea577f4e487b7100000000000000000000000000000000000000000000000000000000600052603260045260246000fd5b906000526020600020906002020160000154848381518110610e35577f4e487b7100000000000000000000000000000000000000000000000000000000600052603260045260246000fd5b60200260200101818152505060068181548110610e7b577f4e487b7100000000000000000000000000000000000000000000000000000000600052603260045260246000fd5b906000526020600020906002020160010160009054906101000a900460ff16838381518110610ed3577f4e487b7100000000000000000000000000000000000000000000000000000000600052603260045260246000fd5b602002602001019060ff16908160ff16815250508180610ef290613855565b9250505b8080610f0190613855565b915050610cf6565b5083838397509750975050505050509193909250565b60076020528060005260406000206000915054906101000a900473ffffffffffffffffffffffffffffffffffffffff1681565b610f5a6123a7565b73ffffffffffffffffffffffffffffffffffffffff16610f786112d8565b73ffffffffffffffffffffffffffffffffffffffff1614610fce576040517f08c379a0000000000000000000000000000000000000000000000000000000008152600401610fc5906134d4565b60405180910390fd5b80600b60006101000a81548173ffffffffffffffffffffffffffffffffffffffff021916908373ffffffffffffffffffffffffffffffffffffffff16021790555050565b6006818154811061102257600080fd5b90600052602060002090600202016000915090508060000154908060010160009054906101000a900460ff16908060010160019054906101000a900460ff16905083565b60006007600083815260200190815260200160002060009054906101000a900473ffffffffffffffffffffffffffffffffffffffff169050919050565b6000600860008373ffffffffffffffffffffffffffffffffffffffff1673ffffffffffffffffffffffffffffffffffffffff168152602001908152602001600020549050919050565b6110f46123a7565b73ffffffffffffffffffffffffffffffffffffffff166111126112d8565b73ffffffffffffffffffffffffffffffffffffffff1614611168576040517f08c379a000000000000000000000000000000000000000000000000000000000815260040161115f906134d4565b60405180910390fd5b600073ffffffffffffffffffffffffffffffffffffffff1660008054906101000a900473ffffffffffffffffffffffffffffffffffffffff1673ffffffffffffffffffffffffffffffffffffffff167f8be0079c531659141344cd1fd0a4f28419497f9722a3daafe3b4186f6b6457e060405160405180910390a360008060006101000a81548173ffffffffffffffffffffffffffffffffffffffff021916908373ffffffffffffffffffffffffffffffffffffffff160217905550565b6000600b60009054906101000a900473ffffffffffffffffffffffffffffffffffffffff1673ffffffffffffffffffffffffffffffffffffffff166370a08231336040518263ffffffff1660e01b81526004016112839190613294565b60206040518083038186803b15801561129b57600080fd5b505afa1580156112af573d6000803e3d6000fd5b505050506040513d601f19601f820116820180604052508101906112d39190612b7a565b905090565b60008060009054906101000a900473ffffffffffffffffffffffffffffffffffffffff16905090565b6060600a805461131090613823565b80601f016020809104026020016040519081016040528092919081815260200182805461133c90613823565b80156113895780601f1061135e57610100808354040283529160200191611389565b820191906000526020600020905b81548152906001019060200180831161136c57829003601f168201915b5050505050905090565b600080600c60009054906101000a900473ffffffffffffffffffffffffffffffffffffffff1673ffffffffffffffffffffffffffffffffffffffff1663a99a476f84336040518363ffffffff1660e01b81526004016113f39291906135cf565b602060405180830381600087803b15801561140d57600080fd5b505af1158015611421573d6000803e3d6000fd5b505050506040513d601f19601f820116820180604052508101906114459190612b7a565b9050600b60009054906101000a900473ffffffffffffffffffffffffffffffffffffffff1673ffffffffffffffffffffffffffffffffffffffff166323b872dd601160009054906101000a900473ffffffffffffffffffffffffffffffffffffffff1633846040518463ffffffff1660e01b81526004016114c8939291906132af565b602060405180830381600087803b1580156114e257600080fd5b505af11580156114f6573d6000803e3d6000fd5b505050506040513d601f19601f8201168201806040525081019061151a9190612b28565b506001915050919050565b806007600082815260200190815260200160002060009054906101000a900473ffffffffffffffffffffffffffffffffffffffff1673ffffffffffffffffffffffffffffffffffffffff163373ffffffffffffffffffffffffffffffffffffffff16146115c7576040517f08c379a00000000000000000000000000000000000000000000000000000000081526004016115be90613474565b60405180910390fd5b6115d23384846123af565b505050565b3373ffffffffffffffffffffffffffffffffffffffff166012600083815260200190815260200160002060009054906101000a900473ffffffffffffffffffffffffffffffffffffffff1673ffffffffffffffffffffffffffffffffffffffff161461164257600080fd5b600061164d82611066565b905061165a8133846123af565b5050565b60008073ffffffffffffffffffffffffffffffffffffffff163373ffffffffffffffffffffffffffffffffffffffff1614156116cf576040517f08c379a00000000000000000000000000000000000000000000000000000000081526004016116c690613574565b60405180910390fd5b600d54600b60009054906101000a900473ffffffffffffffffffffffffffffffffffffffff1673ffffffffffffffffffffffffffffffffffffffff166370a08231336040518263ffffffff1660e01b815260040161172d9190613294565b60206040518083038186803b15801561174557600080fd5b505afa158015611759573d6000803e3d6000fd5b505050506040513d601f19601f8201168201806040525081019061177d9190612b7a565b10156117be576040517f08c379a00000000000000000000000000000000000000000000000000000000081526004016117b5906134b4565b60405180910390fd5b600b60009054906101000a900473ffffffffffffffffffffffffffffffffffffffff1673ffffffffffffffffffffffffffffffffffffffff166323b872dd33601160009054906101000a900473ffffffffffffffffffffffffffffffffffffffff16600d546040518463ffffffff1660e01b8152600401611841939291906132af565b602060405180830381600087803b15801561185b57600080fd5b505af115801561186f573d6000803e3d6000fd5b505050506040513d601f19601f820116820180604052508101906118939190612b28565b50600061189e61278e565b905060006118aa6127f0565b90506118b68282612862565b3373ffffffffffffffffffffffffffffffffffffffff16600073ffffffffffffffffffffffffffffffffffffffff167fddf252ad1be2c89b69c2b068fc378daa952ba7f163c4a11628f55a4df523b3ef600160405161191591906133d7565b60405180910390a3600160068054905061192f919061372b565b9250505090565b61193e6123a7565b73ffffffffffffffffffffffffffffffffffffffff1661195c6112d8565b73ffffffffffffffffffffffffffffffffffffffff16146119b2576040517f08c379a00000000000000000000000000000000000000000000000000000000081526004016119a9906134d4565b60405180910390fd5b80601160006101000a81548173ffffffffffffffffffffffffffffffffffffffff021916908373ffffffffffffffffffffffffffffffffffffffff16021790555050565b606080600060068054905067ffffffffffffffff811115611a40577f4e487b7100000000000000000000000000000000000000000000000000000000600052604160045260246000fd5b604051908082528060200260200182016040528015611a6e5781602001602082028036833780820191505090505b509050600060068054905067ffffffffffffffff811115611ab8577f4e487b7100000000000000000000000000000000000000000000000000000000600052604160045260246000fd5b604051908082528060200260200182016040528015611ae65781602001602082028036833780820191505090505b50905060005b600680549050811015611c435760068181548110611b33577f4e487b7100000000000000000000000000000000000000000000000000000000600052603260045260246000fd5b906000526020600020906002020160000154838281518110611b7e577f4e487b7100000000000000000000000000000000000000000000000000000000600052603260045260246000fd5b60200260200101818152505060068181548110611bc4577f4e487b7100000000000000000000000000000000000000000000000000000000600052603260045260246000fd5b906000526020600020906002020160010160009054906101000a900460ff16828281518110611c1c577f4e487b7100000000000000000000000000000000000000000000000000000000600052603260045260246000fd5b602002602001019060ff16908160ff16815250508080611c3b90613855565b915050611aec565b5081819350935050509091565b611c586123a7565b73ffffffffffffffffffffffffffffffffffffffff16611c766112d8565b73ffffffffffffffffffffffffffffffffffffffff1614611ccc576040517f08c379a0000000000000000000000000000000000000000000000000000000008152600401611cc3906134d4565b60405180910390fd5b80600c60006101000a81548173ffffffffffffffffffffffffffffffffffffffff021916908373ffffffffffffffffffffffffffffffffffffffff16021790555050565b6000846007600082815260200190815260200160002060009054906101000a900473ffffffffffffffffffffffffffffffffffffffff1673ffffffffffffffffffffffffffffffffffffffff163373ffffffffffffffffffffffffffffffffffffffff1614611db4576040517f08c379a0000000000000000000000000000000000000000000000000000000008152600401611dab90613474565b60405180910390fd5b8560068181548110611def577f4e487b7100000000000000000000000000000000000000000000000000000000600052603260045260246000fd5b906000526020600020906002020160010160019054906101000a900460ff1615611e4e576040517f08c379a0000000000000000000000000000000000000000000000000000000008152600401611e4590613514565b60405180910390fd5b866006805490508110611e96576040517f08c379a0000000000000000000000000000000000000000000000000000000008152600401611e8d90613454565b60405180910390fd5b600073ffffffffffffffffffffffffffffffffffffffff163373ffffffffffffffffffffffffffffffffffffffff161415611f06576040517f08c379a0000000000000000000000000000000000000000000000000000000008152600401611efd90613554565b60405180910390fd5b601054600b60009054906101000a900473ffffffffffffffffffffffffffffffffffffffff1673ffffffffffffffffffffffffffffffffffffffff166370a08231336040518263ffffffff1660e01b8152600401611f649190613294565b60206040518083038186803b158015611f7c57600080fd5b505afa158015611f90573d6000803e3d6000fd5b505050506040513d601f19601f82011682018060405250810190611fb49190612b7a565b1015611ff5576040517f08c379a0000000000000000000000000000000000000000000000000000000008152600401611fec90613434565b60405180910390fd5b6000600c60009054906101000a900473ffffffffffffffffffffffffffffffffffffffff1673ffffffffffffffffffffffffffffffffffffffff16630ddaf5858b8b8b8b8b6040518663ffffffff1660e01b815260040161205a9594939291906132e6565b602060405180830381600087803b15801561207457600080fd5b505af1158015612088573d6000803e3d6000fd5b505050506040513d601f19601f820116820180604052508101906120ac9190612b7a565b9050600b60009054906101000a900473ffffffffffffffffffffffffffffffffffffffff1673ffffffffffffffffffffffffffffffffffffffff166323b872dd33601160009054906101000a900473ffffffffffffffffffffffffffffffffffffffff166010546040518463ffffffff1660e01b8152600401612131939291906132af565b602060405180830381600087803b15801561214b57600080fd5b505af115801561215f573d6000803e3d6000fd5b505050506040513d601f19601f820116820180604052508101906121839190612b28565b50600060068a815481106121c0577f4e487b7100000000000000000000000000000000000000000000000000000000600052603260045260246000fd5b9060005260206000209060020201905060018160010160016101000a81548160ff021916908315150217905550819550505050505095945050505050565b6122066123a7565b73ffffffffffffffffffffffffffffffffffffffff166122246112d8565b73ffffffffffffffffffffffffffffffffffffffff161461227a576040517f08c379a0000000000000000000000000000000000000000000000000000000008152600401612271906134d4565b60405180910390fd5b600073ffffffffffffffffffffffffffffffffffffffff168173ffffffffffffffffffffffffffffffffffffffff1614156122ea576040517f08c379a00000000000000000000000000000000000000000000000000000000081526004016122e190613414565b60405180910390fd5b8073ffffffffffffffffffffffffffffffffffffffff1660008054906101000a900473ffffffffffffffffffffffffffffffffffffffff1673ffffffffffffffffffffffffffffffffffffffff167f8be0079c531659141344cd1fd0a4f28419497f9722a3daafe3b4186f6b6457e060405160405180910390a3806000806101000a81548173ffffffffffffffffffffffffffffffffffffffff021916908373ffffffffffffffffffffffffffffffffffffffff16021790555050565b600033905090565b600e54600b60009054906101000a900473ffffffffffffffffffffffffffffffffffffffff1673ffffffffffffffffffffffffffffffffffffffff166370a08231846040518263ffffffff1660e01b815260040161240d9190613294565b60206040518083038186803b15801561242557600080fd5b505afa158015612439573d6000803e3d6000fd5b505050506040513d601f19601f8201168201806040525081019061245d9190612b7a565b101561249e576040517f08c379a000000000000000000000000000000000000000000000000000000000815260040161249590613534565b60405180910390fd5b600b60009054906101000a900473ffffffffffffffffffffffffffffffffffffffff1673ffffffffffffffffffffffffffffffffffffffff166323b872dd8385600e546040518463ffffffff1660e01b81526004016124ff939291906132af565b602060405180830381600087803b15801561251957600080fd5b505af115801561252d573d6000803e3d6000fd5b505050506040513d601f19601f820116820180604052508101906125519190612b28565b50600b60009054906101000a900473ffffffffffffffffffffffffffffffffffffffff1673ffffffffffffffffffffffffffffffffffffffff166323b872dd84601160009054906101000a900473ffffffffffffffffffffffffffffffffffffffff16600f546040518463ffffffff1660e01b81526004016125d5939291906132af565b602060405180830381600087803b1580156125ef57600080fd5b505af1158015612603573d6000803e3d6000fd5b505050506040513d601f19601f820116820180604052508101906126279190612b28565b50600860008373ffffffffffffffffffffffffffffffffffffffff1673ffffffffffffffffffffffffffffffffffffffff168152602001908152602001600020600081548092919061267890613855565b9190505550600860008473ffffffffffffffffffffffffffffffffffffffff1673ffffffffffffffffffffffffffffffffffffffff16815260200190815260200160002060008154809291906126cd906137f9565b9190505550816007600083815260200190815260200160002060006101000a81548173ffffffffffffffffffffffffffffffffffffffff021916908373ffffffffffffffffffffffffffffffffffffffff1602179055508173ffffffffffffffffffffffffffffffffffffffff168373ffffffffffffffffffffffffffffffffffffffff167fddf252ad1be2c89b69c2b068fc378daa952ba7f163c4a11628f55a4df523b3ef8360405161278191906135b4565b60405180910390a3505050565b6000600360008154809291906127a390613855565b9190505550600042336003546040516020016127c193929190613257565b6040516020818303038152906040528051906020012060001c9050600254816127ea91906138cc565b91505090565b60006004600081548092919061280590613855565b91905055506000423360045460405160200161282393929190613257565b6040516020818303038152906040528051906020012060001c9050600560009054906101000a900460ff1660ff168161285c91906138cc565b91505090565b600660405180606001604052808481526020018360ff1681526020016000151581525090806001815401808255809150506001900390600052602060002090600202016000909190919091506000820151816000015560208201518160010160006101000a81548160ff021916908360ff16021790555060408201518160010160016101000a81548160ff02191690831515021790555050506000600160068054905061290f919061372b565b9050336007600083815260200190815260200160002060006101000a81548173ffffffffffffffffffffffffffffffffffffffff021916908373ffffffffffffffffffffffffffffffffffffffff160217905550600860003373ffffffffffffffffffffffffffffffffffffffff1673ffffffffffffffffffffffffffffffffffffffff16815260200190815260200160002060008154809291906129b390613855565b91905055507f6ca85b4ba4ace1b9d8e266c2cb00dcb3314c66609fd525cfab3301b2e306748d8184846040516129eb9392919061362f565b60405180910390a1505050565b600081359050612a07816139a8565b92915050565b600081519050612a1c816139bf565b92915050565b600081359050612a31816139d6565b92915050565b600081519050612a46816139d6565b92915050565b600060208284031215612a5e57600080fd5b6000612a6c848285016129f8565b91505092915050565b60008060408385031215612a8857600080fd5b6000612a96858286016129f8565b9250506020612aa785828601612a22565b9150509250929050565b600080600080600060a08688031215612ac957600080fd5b6000612ad7888289016129f8565b9550506020612ae888828901612a22565b9450506040612af988828901612a22565b9350506060612b0a88828901612a22565b9250506080612b1b88828901612a22565b9150509295509295909350565b600060208284031215612b3a57600080fd5b6000612b4884828501612a0d565b91505092915050565b600060208284031215612b6357600080fd5b6000612b7184828501612a22565b91505092915050565b600060208284031215612b8c57600080fd5b6000612b9a84828501612a37565b91505092915050565b60008060408385031215612bb657600080fd5b6000612bc485828601612a22565b9250506020612bd585828601612a22565b9150509250929050565b6000612beb8383613204565b60208301905092915050565b6000612c038383613239565b60208301905092915050565b612c188161375f565b82525050565b612c2f612c2a8261375f565b61389e565b82525050565b6000612c40826136bd565b612c4a81856136f8565b9350612c558361369d565b8060005b83811015612c86578151612c6d8882612bdf565b9750612c78836136de565b925050600181019050612c59565b5085935050505092915050565b6000612c9e826136c8565b612ca88185613709565b9350612cb3836136ad565b8060005b83811015612ce4578151612ccb8882612bf7565b9750612cd6836136eb565b925050600181019050612cb7565b5085935050505092915050565b612cfa81613771565b82525050565b612d09816137b4565b82525050565b6000612d1a826136d3565b612d24818561371a565b9350612d348185602086016137c6565b612d3d8161398a565b840191505092915050565b6000612d5560268361371a565b91507f4f776e61626c653a206e6577206f776e657220697320746865207a65726f206160008301527f64647265737300000000000000000000000000000000000000000000000000006020830152604082019050919050565b6000612dbb60308361371a565b91507f4e6f207469656e652073616c646f20737566696369656e74652070617261207360008301527f75626173746172206c61206361727461000000000000000000000000000000006020830152604082019050919050565b6000612e2160128361371a565b91507f4c61206361727461206e6f2065786973746500000000000000000000000000006000830152602082019050919050565b6000612e61603a8361371a565b91507f536f6c6f20656c206475656e696f206465206c6120636172746120707565646560008301527f207265616c697a61722065737461207472616e73616363696f6e0000000000006020830152604082019050919050565b6000612ec760268361371a565b91507f4e6f207469656e652073616c646f20737566696369656e74652070617261206f60008301527f66657274617200000000000000000000000000000000000000000000000000006020830152604082019050919050565b6000612f2d60308361371a565b91507f4e6f207469656e652073616c646f20737566696369656e74652070617261207260008301527f65616c697a6172206c61206361727461000000000000000000000000000000006020830152604082019050919050565b6000612f9360208361371a565b91507f4f776e61626c653a2063616c6c6572206973206e6f7420746865206f776e65726000830152602082019050919050565b6000612fd360258361371a565b91507f53652064656265206f66657274617220756e612063616e746964616420706f7360008301527f69746976610000000000000000000000000000000000000000000000000000006020830152604082019050919050565b6000613039601e8361371a565b91507f4c612063617274612065737461207369656e646f2073756261737461646100006000830152602082019050919050565b600061307960388361371a565b91507f4e6f207469656e652073616c646f20737566696369656e74652070617261207260008301527f65616c697a6172206c61207472616e73666572656e63696100000000000000006020830152604082019050919050565b60006130df60268361371a565b91507f4572726f723a20646972656363696f6e206365726f20737562617374616e646f60008301527f20636172746100000000000000000000000000000000000000000000000000006020830152604082019050919050565b600061314560238361371a565b91507f4572726f723a20646972656363696f6e206365726f20637265616e646f20636160008301527f72746100000000000000000000000000000000000000000000000000000000006020830152604082019050919050565b60006131ab60228361371a565b91507f4e6f207365207075646f206f66657274617220656e206573746120737562617360008301527f74610000000000000000000000000000000000000000000000000000000000006020830152604082019050919050565b61320d8161379d565b82525050565b61321c8161379d565b82525050565b61323361322e8261379d565b6138c2565b82525050565b613242816137a7565b82525050565b613251816137a7565b82525050565b60006132638286613222565b6020820191506132738285612c1e565b6014820191506132838284613222565b602082019150819050949350505050565b60006020820190506132a96000830184612c0f565b92915050565b60006060820190506132c46000830186612c0f565b6132d16020830185612c0f565b6132de6040830184613213565b949350505050565b600060a0820190506132fb6000830188612c0f565b6133086020830187613213565b6133156040830186613213565b6133226060830185613213565b61332f6080830184613213565b9695505050505050565b600060608201905081810360008301526133538186612c35565b905081810360208301526133678185612c35565b9050818103604083015261337b8184612c93565b9050949350505050565b6000604082019050818103600083015261339f8185612c35565b905081810360208301526133b38184612c93565b90509392505050565b60006020820190506133d16000830184612cf1565b92915050565b60006020820190506133ec6000830184612d00565b92915050565b6000602082019050818103600083015261340c8184612d0f565b905092915050565b6000602082019050818103600083015261342d81612d48565b9050919050565b6000602082019050818103600083015261344d81612dae565b9050919050565b6000602082019050818103600083015261346d81612e14565b9050919050565b6000602082019050818103600083015261348d81612e54565b9050919050565b600060208201905081810360008301526134ad81612eba565b9050919050565b600060208201905081810360008301526134cd81612f20565b9050919050565b600060208201905081810360008301526134ed81612f86565b9050919050565b6000602082019050818103600083015261350d81612fc6565b9050919050565b6000602082019050818103600083015261352d8161302c565b9050919050565b6000602082019050818103600083015261354d8161306c565b9050919050565b6000602082019050818103600083015261356d816130d2565b9050919050565b6000602082019050818103600083015261358d81613138565b9050919050565b600060208201905081810360008301526135ad8161319e565b9050919050565b60006020820190506135c96000830184613213565b92915050565b60006040820190506135e46000830185613213565b6135f16020830184612c0f565b9392505050565b600060608201905061360d6000830186613213565b61361a6020830185613213565b6136276040830184612c0f565b949350505050565b60006060820190506136446000830186613213565b6136516020830185613213565b61365e6040830184613248565b949350505050565b600060608201905061367b6000830186613213565b6136886020830185613248565b6136956040830184612cf1565b949350505050565b6000819050602082019050919050565b6000819050602082019050919050565b600081519050919050565b600081519050919050565b600081519050919050565b6000602082019050919050565b6000602082019050919050565b600082825260208201905092915050565b600082825260208201905092915050565b600082825260208201905092915050565b60006137368261379d565b91506137418361379d565b925082821015613754576137536138fd565b5b828203905092915050565b600061376a8261377d565b9050919050565b60008115159050919050565b600073ffffffffffffffffffffffffffffffffffffffff82169050919050565b6000819050919050565b600060ff82169050919050565b60006137bf8261379d565b9050919050565b60005b838110156137e45780820151818401526020810190506137c9565b838111156137f3576000848401525b50505050565b60006138048261379d565b91506000821415613818576138176138fd565b5b600182039050919050565b6000600282049050600182168061383b57607f821691505b6020821081141561384f5761384e61395b565b5b50919050565b60006138608261379d565b91507fffffffffffffffffffffffffffffffffffffffffffffffffffffffffffffffff821415613893576138926138fd565b5b600182019050919050565b60006138a9826138b0565b9050919050565b60006138bb8261399b565b9050919050565b6000819050919050565b60006138d78261379d565b91506138e28361379d565b9250826138f2576138f161392c565b5b828206905092915050565b7f4e487b7100000000000000000000000000000000000000000000000000000000600052601160045260246000fd5b7f4e487b7100000000000000000000000000000000000000000000000000000000600052601260045260246000fd5b7f4e487b7100000000000000000000000000000000000000000000000000000000600052602260045260246000fd5b6000601f19601f8301169050919050565b60008160601b9050919050565b6139b18161375f565b81146139bc57600080fd5b50565b6139c881613771565b81146139d357600080fd5b50565b6139df8161379d565b81146139ea57600080fd5b5056fea26469706673582212203b4abc5fa366a1e55621bc8a1a986ef99b8a2151d04d66595d41c2d42c4eaa3c64736f6c63430008000033",
  "immutableReferences": {},
  "source": "// SPDX-License-Identifier: GPL-3.0\npragma solidity ^0.8.0;\n\nimport \"./CartaHelper.sol\";\nimport \"./erc721.sol\";\nimport \"./IOzToken.sol\";\n\ninterface ISubastaFactory {\n    function crearSubasta(address _duenio, uint _idCarta, uint _incrementoOferta, uint _tiempoInicial, uint _tiempoFinal) external returns(uint);\n    function cancelarSubasta(uint _idSubasta, address _cuenta ) external returns (bool success);\n    function retirarFondos(uint _idSubasta, address _cuenta ) external returns (uint cantidadARetirar);\n    function ofertar(uint _idSubasta, uint _amount , address _cuenta ) external returns (bool success);\n    function getIdCartaEnSubasta(uint _idSubasta) external returns(uint);\n}\n\n/**\n * @title CartaItem\n * @dev Funciones de administracion de cartas como \n * compra de las mismas o transferencia de ownership\n */\ncontract CartaItem is CartaHelper, ERC721, ERC721Metadata {\n\n    IOzToken ozContract;\n    \n    ISubastaFactory subastaFactory;\n\n    uint costoCarta = 5;\n    uint costoTransferencia = 3;\n    uint comisionTransferencia = 1;\n    uint costoSubastarCarta = 3;\n    address ozAccount = 0x1C53954455A6796723B52021c034964DD9E329dE;\n\n    mapping (uint => address) cartaApprovals;\n\n    constructor(address _ozAddress, address _subastaFactoryAddress) public ERC721Metadata(\"CartaItem\", \"CITM\") {\n        ozContract = IOzToken(_ozAddress);\n        subastaFactory = ISubastaFactory(_subastaFactoryAddress);\n    }\n\n    /**\n     * @dev Crea una carta aleatoria\n     * @return id de la carta creada\n     */\n    function crearCartaAleatoria() public returns (uint256) {\n        require(msg.sender != address(0), \"Error: direccion cero creando carta\");\n        require(ozContract.balanceOf(msg.sender) >= costoCarta, \"No tiene saldo suficiente para realizar la carta\");\n        ozContract.transferFrom(msg.sender, ozAccount, costoCarta);\n        uint256 descripcionAleatoria = _crearDescripcionAleatoria();\n        uint8 tipoAleatorio = _crearTipoAleatorio();\n        _crearCarta(descripcionAleatoria, tipoAleatorio);\n        emit Transfer(address(0), msg.sender, 1);\n        return cartas.length - 1;\n    }\n\n    // Funciones subasta\n\n    /**\n     * @dev Se subasta una carta\n     * @return id de la subasta\n     */\n    function subastarCarta(address _duenio, uint _idCarta, uint _incrementoOferta, uint _tiempoInicial, uint _tiempoFinal) public\n    soloDuenioDe(_idCarta) cartaNoEnSubasta(_idCarta) cartaExiste(_idCarta) returns (uint) {\n        require(msg.sender != address(0), \"Error: direccion cero subastando carta\");\n        require(ozContract.balanceOf(msg.sender) >= costoSubastarCarta, \"No tiene saldo suficiente para subastar la carta\");\n        uint idSubasta = subastaFactory.crearSubasta(_duenio, _idCarta, _incrementoOferta, _tiempoInicial, _tiempoFinal);\n        ozContract.transferFrom(msg.sender, ozAccount, costoSubastarCarta);\n        Carta storage carta = cartas[_idCarta];\n        carta.enSubasta = true;\n        return idSubasta;\n    }\n\n    function ofertarCarta(uint _idSubasta, uint _amount) public returns(bool) {\n        require(_amount > 0, \"Se debe ofertar una cantidad positiva\");\n        require(ozContract.balanceOf(msg.sender) >= _amount, \"No tiene saldo suficiente para ofertar\");\n        require(subastaFactory.ofertar(_idSubasta, _amount, msg.sender), \"No se pudo ofertar en esta subasta\");\n        ozContract.transferFrom(msg.sender, ozAccount, _amount);\n        return true;\n    }\n\n    function retirarFondos(uint _idSubasta) public returns(bool) {\n        uint cantidadARetirar = subastaFactory.retirarFondos(_idSubasta, msg.sender);\n        ozContract.transferFrom(ozAccount,msg.sender, cantidadARetirar);\n        return true;\n    }\n\n    function cancelarSubasta(uint _idSubasta) public returns(bool) {\n        bool _cancelarSubasta = subastaFactory.cancelarSubasta(_idSubasta, msg.sender);\n        uint _idCarta = subastaFactory.getIdCartaEnSubasta(_idSubasta);\n        Carta storage carta = cartas[_idCarta];\n        carta.enSubasta = _cancelarSubasta;\n        return _cancelarSubasta;\n    }\n\n    // Implementacion ERC721\n\n    function balanceOf(address _owner) public view override returns(uint256 _balance) {\n        return personaCantidadCartas[_owner];\n    }\n\n    function ownerOf(uint256 _tokenId) public view override returns(address _owner) {\n        return cartaAPersona[_tokenId];\n    }\n\n    /**\n     * @dev Se transfiere una carta determinada\n     * @param _from dueo actua de la carta, quien recibe OZT a cambio de la carta\n     * @param _to quien paga la transferencia y quiere obtener la carta\n     * @param _tokenId el id de la carta a transferir\n     */\n    function _transfer(address _from, address _to, uint256 _tokenId) private {\n        require(ozContract.balanceOf(_to) >= costoTransferencia, \"No tiene saldo suficiente para realizar la transferencia\");\n        ozContract.transferFrom(_to, _from, costoTransferencia);\n        ozContract.transferFrom(_from, ozAccount, comisionTransferencia); // Comision\n        \n        personaCantidadCartas[_to]++;\n        personaCantidadCartas[_from]--;\n        cartaAPersona[_tokenId] = _to;\n        Transfer(_from, _to, _tokenId);\n    }\n\n    function transfer(address _to, uint256 _tokenId) public override soloDuenioDe(_tokenId) {\n        _transfer(msg.sender, _to, _tokenId);\n    }\n\n    function approve(address _to, uint256 _tokenId) public override soloDuenioDe(_tokenId) {\n        cartaApprovals[_tokenId] = _to;\n        Approval(msg.sender, _to, _tokenId);\n    }\n\n    function takeOwnership(uint256 _tokenId) public override {\n        require(cartaApprovals[_tokenId] == msg.sender);\n        address owner = ownerOf(_tokenId);\n        _transfer(owner, msg.sender, _tokenId);\n    }\n\n    // Funciones OzToken\n\n    function balanceOzToken() external view returns (uint) {\n        return ozContract.balanceOf(msg.sender);\n    }\n\n    // Uso de contratos externos\n\n    /**\n     * @dev Para cambiar la direccion del contrato OzToken\n     */\n    function setOzTokenAddress(address _ozTokenAddress) public onlyOwner {\n        ozContract = IOzToken(_ozTokenAddress);\n    }\n\n    /**\n     * @dev Para cambiar la direccion del contrato de subasta factory\n     */\n    function setSubastaFactoryAddress(address _subastaFactoryAddress) public onlyOwner {\n        subastaFactory = ISubastaFactory(_subastaFactoryAddress);\n    }\n\n    // Cuenta de destino de fondos\n\n    /**\n     * @dev Se setea la cuenta a la cual se le va a depositar el pago     \n     */\n    function setOzAccountAddress(address _ozAccountAddress) public onlyOwner {\n        ozAccount = _ozAccountAddress;\n    }\n}",
  "sourcePath": "/home/miki_mustard/Desktop/Personal/Facultad/tdl/nuevo-tdl/teoria-del-lenguaje/truffle-project/contracts/CartaItem.sol",
  "compiler": {
    "name": "solc",
    "version": "0.8.0+commit.c7dfd78e.Emscripten.clang"
  },
  "schemaVersion": "3.4.1",
  "updatedAt": "2021-07-18T00:33:10.381Z",
  "networkType": "ethereum",
  "devdoc": {
    "details": "Funciones de administracion de cartas como  compra de las mismas o transferencia de ownership",
    "kind": "dev",
    "methods": {
      "crearCartaAleatoria()": {
        "details": "Crea una carta aleatoria",
        "returns": {
          "_0": "id de la carta creada"
        }
      },
      "owner()": {
        "details": "Returns the address of the current owner."
      },
      "renounceOwnership()": {
        "details": "Leaves the contract without owner. It will not be possible to call `onlyOwner` functions anymore. Can only be called by the current owner. NOTE: Renouncing ownership will leave the contract without an owner, thereby removing any functionality that is only available to the owner."
      },
      "setOzAccountAddress(address)": {
        "details": "Se setea la cuenta a la cual se le va a depositar el pago     "
      },
      "setOzTokenAddress(address)": {
        "details": "Para cambiar la direccion del contrato OzToken"
      },
      "setSubastaFactoryAddress(address)": {
        "details": "Para cambiar la direccion del contrato de subasta factory"
      },
      "subastarCarta(address,uint256,uint256,uint256,uint256)": {
        "details": "Se subasta una carta",
        "returns": {
          "_0": "id de la subasta"
        }
      },
      "transferOwnership(address)": {
        "details": "Transfers ownership of the contract to a new account (`newOwner`). Can only be called by the current owner."
      }
    },
    "title": "CartaItem",
    "version": 1
  },
  "userdoc": {
    "kind": "user",
    "methods": {
      "getCartas()": {
        "notice": "Para obtener todas las cartas"
      },
      "getCartasDe(address)": {
        "notice": "Para obtener todas las cartas correspondientes a un address"
      }
    },
    "version": 1
  }
}