{
  "contractName": "CartaFactory",
  "abi": [
    {
      "anonymous": false,
      "inputs": [
        {
          "indexed": false,
          "internalType": "uint256",
          "name": "cartaId",
          "type": "uint256"
        },
        {
          "indexed": false,
          "internalType": "uint256",
          "name": "descripcion",
          "type": "uint256"
        },
        {
          "indexed": false,
          "internalType": "uint8",
          "name": "tipo",
          "type": "uint8"
        }
      ],
      "name": "NuevaCarta",
      "type": "event"
    },
    {
      "anonymous": false,
      "inputs": [
        {
          "indexed": true,
          "internalType": "address",
          "name": "previousOwner",
          "type": "address"
        },
        {
          "indexed": true,
          "internalType": "address",
          "name": "newOwner",
          "type": "address"
        }
      ],
      "name": "OwnershipTransferred",
      "type": "event"
    },
    {
      "inputs": [
        {
          "internalType": "uint256",
          "name": "",
          "type": "uint256"
        }
      ],
      "name": "cartaAPersona",
      "outputs": [
        {
          "internalType": "address",
          "name": "",
          "type": "address"
        }
      ],
      "stateMutability": "view",
      "type": "function"
    },
    {
      "inputs": [
        {
          "internalType": "uint256",
          "name": "",
          "type": "uint256"
        }
      ],
      "name": "cartas",
      "outputs": [
        {
          "internalType": "uint256",
          "name": "descripcion",
          "type": "uint256"
        },
        {
          "internalType": "uint8",
          "name": "tipo",
          "type": "uint8"
        }
      ],
      "stateMutability": "view",
      "type": "function"
    },
    {
      "inputs": [],
      "name": "owner",
      "outputs": [
        {
          "internalType": "address",
          "name": "",
          "type": "address"
        }
      ],
      "stateMutability": "view",
      "type": "function"
    },
    {
      "inputs": [],
      "name": "renounceOwnership",
      "outputs": [],
      "stateMutability": "nonpayable",
      "type": "function"
    },
    {
      "inputs": [
        {
          "internalType": "address",
          "name": "newOwner",
          "type": "address"
        }
      ],
      "name": "transferOwnership",
      "outputs": [],
      "stateMutability": "nonpayable",
      "type": "function"
    },
    {
      "inputs": [],
      "name": "crearCartaAleatoria",
      "outputs": [],
      "stateMutability": "nonpayable",
      "type": "function"
    }
  ],
  "bytecode": "0x60806040526010600155600154600a6200001a91906200016a565b600255600060035560006004556003600560006101000a81548160ff021916908360ff1602179055503480156200005057600080fd5b506000620000636200010760201b60201c565b9050806000806101000a81548173ffffffffffffffffffffffffffffffffffffffff021916908373ffffffffffffffffffffffffffffffffffffffff1602179055508073ffffffffffffffffffffffffffffffffffffffff16600073ffffffffffffffffffffffffffffffffffffffff167f8be0079c531659141344cd1fd0a4f28419497f9722a3daafe3b4186f6b6457e060405160405180910390a350620002ed565b600033905090565b6000808291508390505b60018511156200016157808604811115620001395762000138620002b1565b5b6001851615620001495780820291505b80810290506200015985620002e0565b945062000119565b94509492505050565b60006200017782620002a7565b91506200018483620002a7565b9250620001b37fffffffffffffffffffffffffffffffffffffffffffffffffffffffffffffffff8484620001bb565b905092915050565b600082620001cd5760019050620002a0565b81620001dd5760009050620002a0565b8160018114620001f65760028114620002015762000237565b6001915050620002a0565b60ff841115620002165762000215620002b1565b5b8360020a91508482111562000230576200022f620002b1565b5b50620002a0565b5060208310610133831016604e8410600b8410161715620002715782820a9050838111156200026b576200026a620002b1565b5b620002a0565b6200028084848460016200010f565b925090508184048111156200029a5762000299620002b1565b5b81810290505b9392505050565b6000819050919050565b7f4e487b7100000000000000000000000000000000000000000000000000000000600052601160045260246000fd5b60008160011c9050919050565b610b7f80620002fd6000396000f3fe608060405234801561001057600080fd5b50600436106100625760003560e01c8063582ddb38146100675780635b102ab814610097578063715018a6146100c85780638da5cb5b146100d2578063bc24b16a146100f0578063f2fde38b146100fa575b600080fd5b610081600480360381019061007c9190610758565b610116565b60405161008e91906108bf565b60405180910390f35b6100b160048036038101906100ac9190610758565b610149565b6040516100bf929190610951565b60405180910390f35b6100d061018a565b005b6100da6102c4565b6040516100e791906108bf565b60405180910390f35b6100f86102ed565b005b610114600480360381019061010f919061072f565b610313565b005b60076020528060005260406000206000915054906101000a900473ffffffffffffffffffffffffffffffffffffffff1681565b6006818154811061015957600080fd5b90600052602060002090600202016000915090508060000154908060010160009054906101000a900460ff16905082565b6101926104bc565b73ffffffffffffffffffffffffffffffffffffffff166101b06102c4565b73ffffffffffffffffffffffffffffffffffffffff1614610206576040517f08c379a00000000000000000000000000000000000000000000000000000000081526004016101fd906108fa565b60405180910390fd5b600073ffffffffffffffffffffffffffffffffffffffff1660008054906101000a900473ffffffffffffffffffffffffffffffffffffffff1673ffffffffffffffffffffffffffffffffffffffff167f8be0079c531659141344cd1fd0a4f28419497f9722a3daafe3b4186f6b6457e060405160405180910390a360008060006101000a81548173ffffffffffffffffffffffffffffffffffffffff021916908373ffffffffffffffffffffffffffffffffffffffff160217905550565b60008060009054906101000a900473ffffffffffffffffffffffffffffffffffffffff16905090565b60006102f76104c4565b90506000610303610526565b905061030f8282610598565b5050565b61031b6104bc565b73ffffffffffffffffffffffffffffffffffffffff166103396102c4565b73ffffffffffffffffffffffffffffffffffffffff161461038f576040517f08c379a0000000000000000000000000000000000000000000000000000000008152600401610386906108fa565b60405180910390fd5b600073ffffffffffffffffffffffffffffffffffffffff168173ffffffffffffffffffffffffffffffffffffffff1614156103ff576040517f08c379a00000000000000000000000000000000000000000000000000000000081526004016103f6906108da565b60405180910390fd5b8073ffffffffffffffffffffffffffffffffffffffff1660008054906101000a900473ffffffffffffffffffffffffffffffffffffffff1673ffffffffffffffffffffffffffffffffffffffff167f8be0079c531659141344cd1fd0a4f28419497f9722a3daafe3b4186f6b6457e060405160405180910390a3806000806101000a81548173ffffffffffffffffffffffffffffffffffffffff021916908373ffffffffffffffffffffffffffffffffffffffff16021790555050565b600033905090565b6000600360008154809291906104d990610a08565b9190505550600042336003546040516020016104f793929190610882565b6040516020818303038152906040528051906020012060001c9050600254816105209190610a7f565b91505090565b60006004600081548092919061053b90610a08565b91905055506000423360045460405160200161055993929190610882565b6040516020818303038152906040528051906020012060001c9050600560009054906101000a900460ff1660ff16816105929190610a7f565b91505090565b600660405180604001604052808481526020018360ff1681525090806001815401808255809150506001900390600052602060002090600202016000909190919091506000820151816000015560208201518160010160006101000a81548160ff021916908360ff16021790555050506000600160068054905061061c919061098b565b9050336007600083815260200190815260200160002060006101000a81548173ffffffffffffffffffffffffffffffffffffffff021916908373ffffffffffffffffffffffffffffffffffffffff160217905550600860003373ffffffffffffffffffffffffffffffffffffffff1673ffffffffffffffffffffffffffffffffffffffff16815260200190815260200160002060008154809291906106c090610a08565b91905055507f6ca85b4ba4ace1b9d8e266c2cb00dcb3314c66609fd525cfab3301b2e306748d8184846040516106f89392919061091a565b60405180910390a1505050565b60008135905061071481610b1b565b92915050565b60008135905061072981610b32565b92915050565b60006020828403121561074157600080fd5b600061074f84828501610705565b91505092915050565b60006020828403121561076a57600080fd5b60006107788482850161071a565b91505092915050565b61078a816109bf565b82525050565b6107a161079c826109bf565b610a51565b82525050565b60006107b460268361097a565b91507f4f776e61626c653a206e6577206f776e657220697320746865207a65726f206160008301527f64647265737300000000000000000000000000000000000000000000000000006020830152604082019050919050565b600061081a60208361097a565b91507f4f776e61626c653a2063616c6c6572206973206e6f7420746865206f776e65726000830152602082019050919050565b610856816109f1565b82525050565b61086d610868826109f1565b610a75565b82525050565b61087c816109fb565b82525050565b600061088e828661085c565b60208201915061089e8285610790565b6014820191506108ae828461085c565b602082019150819050949350505050565b60006020820190506108d46000830184610781565b92915050565b600060208201905081810360008301526108f3816107a7565b9050919050565b600060208201905081810360008301526109138161080d565b9050919050565b600060608201905061092f600083018661084d565b61093c602083018561084d565b6109496040830184610873565b949350505050565b6000604082019050610966600083018561084d565b6109736020830184610873565b9392505050565b600082825260208201905092915050565b6000610996826109f1565b91506109a1836109f1565b9250828210156109b4576109b3610ab0565b5b828203905092915050565b60006109ca826109d1565b9050919050565b600073ffffffffffffffffffffffffffffffffffffffff82169050919050565b6000819050919050565b600060ff82169050919050565b6000610a13826109f1565b91507fffffffffffffffffffffffffffffffffffffffffffffffffffffffffffffffff821415610a4657610a45610ab0565b5b600182019050919050565b6000610a5c82610a63565b9050919050565b6000610a6e82610b0e565b9050919050565b6000819050919050565b6000610a8a826109f1565b9150610a95836109f1565b925082610aa557610aa4610adf565b5b828206905092915050565b7f4e487b7100000000000000000000000000000000000000000000000000000000600052601160045260246000fd5b7f4e487b7100000000000000000000000000000000000000000000000000000000600052601260045260246000fd5b60008160601b9050919050565b610b24816109bf565b8114610b2f57600080fd5b50565b610b3b816109f1565b8114610b4657600080fd5b5056fea26469706673582212204932bbea3cc800bcfde801df52193035f37298be875eb45d7eedbae3da2c2fa864736f6c63430008000033",
  "immutableReferences": {},
  "source": "pragma solidity ^0.8.0;\npragma experimental ABIEncoderV2;\n\nimport \"@openzeppelin/contracts/access/Ownable.sol\";\n\n/**\n * @title CartaFactory\n * @dev Generacion aleatoria de cartas\n */\ncontract CartaFactory is Ownable {\n\n    event NuevaCarta(uint cartaId, uint256 descripcion, uint8 tipo);\n\n    uint256 cantidadDigitos = 16;\n    uint256 modulo = 10 ** cantidadDigitos;\n    uint256 semillaDescripcion = 0;\n    uint256 semillaTipo = 0;\n    uint8 cantidadTipos = 3;\n\n    /**\n    * Tipos:\n    * 1: normal\n    * 2: rara\n    * 3: epica\n    */\n    struct Carta {\n        uint256 descripcion;\n        uint8 tipo;\n    }\n    \n    Carta[] public cartas;\n\n    mapping (uint => address) public cartaAPersona;\n    mapping (address => uint) personaCantidadCartas;\n    \n    /**\n     * @dev Crea una instancia de carta\n     * @param _descripcion descripcion para crear la carta\n     */\n    function _crearCarta(uint256 _descripcion, uint8 _tipo) private {\n        cartas.push(Carta(_descripcion, _tipo));\n        uint id = cartas.length - 1;\n        cartaAPersona[id] = msg.sender;\n        personaCantidadCartas[msg.sender] ++;\n        emit NuevaCarta(id, _descripcion, _tipo);\n    }\n\n    /**\n     * @dev Crea un valor aleatorio de descripcion \n     * @return valor aleatorio de descripcion\n     */\n    function _crearDescripcionAleatoria() private returns (uint256){\n        semillaDescripcion ++;\n        uint256 descripcionAleatoria = uint256(keccak256(abi.encodePacked(block.timestamp, msg.sender, semillaDescripcion)));\n        return descripcionAleatoria % modulo;\n    }\n\n    /**\n     * @dev Crea un tipo de carta aleatorio\n     * @return valor aleatorio de tipo de carta\n     */\n    function _crearTipoAleatorio() private returns (uint8){\n        semillaTipo ++;\n        uint256 tipoAleatorio = uint256(keccak256(abi.encodePacked(block.timestamp, msg.sender, semillaTipo)));\n        return uint8(tipoAleatorio % cantidadTipos);\n    }\n    \n    /**\n     * @dev Crea una carta aleatoria\n     */\n    function crearCartaAleatoria() public {\n        uint256 descripcionAleatoria = _crearDescripcionAleatoria();\n        uint8 tipoAleatorio = _crearTipoAleatorio();\n        _crearCarta(descripcionAleatoria, tipoAleatorio);\n    }\n\n}\n",
  "sourcePath": "/home/miki_mustard/Desktop/Personal/Facultad/tdl/nuevo-tdl/teoria-del-lenguaje/truffle-project/contracts/CartaFactory.sol",
  "compiler": {
    "name": "solc",
    "version": "0.8.0+commit.c7dfd78e.Emscripten.clang"
  },
  "schemaVersion": "3.4.1",
  "updatedAt": "2021-06-20T20:01:16.423Z",
  "devdoc": {
    "details": "Generacion aleatoria de cartas",
    "kind": "dev",
    "methods": {
      "crearCartaAleatoria()": {
        "details": "Crea una carta aleatoria"
      },
      "owner()": {
        "details": "Returns the address of the current owner."
      },
      "renounceOwnership()": {
        "details": "Leaves the contract without owner. It will not be possible to call `onlyOwner` functions anymore. Can only be called by the current owner. NOTE: Renouncing ownership will leave the contract without an owner, thereby removing any functionality that is only available to the owner."
      },
      "transferOwnership(address)": {
        "details": "Transfers ownership of the contract to a new account (`newOwner`). Can only be called by the current owner."
      }
    },
    "title": "CartaFactory",
    "version": 1
  },
  "userdoc": {
    "kind": "user",
    "methods": {},
    "version": 1
  }
}