{
  "contractName": "CartaFactory",
  "abi": [
    {
      "anonymous": false,
      "inputs": [
        {
          "indexed": false,
          "internalType": "uint256",
          "name": "cartaId",
          "type": "uint256"
        },
        {
          "indexed": false,
          "internalType": "uint256",
          "name": "descripcion",
          "type": "uint256"
        },
        {
          "indexed": false,
          "internalType": "uint8",
          "name": "tipo",
          "type": "uint8"
        }
      ],
      "name": "NuevaCarta",
      "type": "event"
    },
    {
      "anonymous": false,
      "inputs": [
        {
          "indexed": true,
          "internalType": "address",
          "name": "previousOwner",
          "type": "address"
        },
        {
          "indexed": true,
          "internalType": "address",
          "name": "newOwner",
          "type": "address"
        }
      ],
      "name": "OwnershipTransferred",
      "type": "event"
    },
    {
      "inputs": [
        {
          "internalType": "uint256",
          "name": "",
          "type": "uint256"
        }
      ],
      "name": "cartaAPersona",
      "outputs": [
        {
          "internalType": "address",
          "name": "",
          "type": "address"
        }
      ],
      "stateMutability": "view",
      "type": "function"
    },
    {
      "inputs": [
        {
          "internalType": "uint256",
          "name": "",
          "type": "uint256"
        }
      ],
      "name": "cartas",
      "outputs": [
        {
          "internalType": "uint256",
          "name": "descripcion",
          "type": "uint256"
        },
        {
          "internalType": "uint8",
          "name": "tipo",
          "type": "uint8"
        }
      ],
      "stateMutability": "view",
      "type": "function"
    },
    {
      "inputs": [],
      "name": "owner",
      "outputs": [
        {
          "internalType": "address",
          "name": "",
          "type": "address"
        }
      ],
      "stateMutability": "view",
      "type": "function"
    },
    {
      "inputs": [],
      "name": "renounceOwnership",
      "outputs": [],
      "stateMutability": "nonpayable",
      "type": "function"
    },
    {
      "inputs": [
        {
          "internalType": "address",
          "name": "newOwner",
          "type": "address"
        }
      ],
      "name": "transferOwnership",
      "outputs": [],
      "stateMutability": "nonpayable",
      "type": "function"
    },
    {
      "inputs": [],
      "name": "crearCartaAleatoria",
      "outputs": [
        {
          "internalType": "uint256",
          "name": "",
          "type": "uint256"
        }
      ],
      "stateMutability": "nonpayable",
      "type": "function"
    }
  ],
  "bytecode": "0x60806040526010600155600154600a6200001a91906200016a565b600255600060035560006004556003600560006101000a81548160ff021916908360ff1602179055503480156200005057600080fd5b506000620000636200010760201b60201c565b9050806000806101000a81548173ffffffffffffffffffffffffffffffffffffffff021916908373ffffffffffffffffffffffffffffffffffffffff1602179055508073ffffffffffffffffffffffffffffffffffffffff16600073ffffffffffffffffffffffffffffffffffffffff167f8be0079c531659141344cd1fd0a4f28419497f9722a3daafe3b4186f6b6457e060405160405180910390a350620002ed565b600033905090565b6000808291508390505b60018511156200016157808604811115620001395762000138620002b1565b5b6001851615620001495780820291505b80810290506200015985620002e0565b945062000119565b94509492505050565b60006200017782620002a7565b91506200018483620002a7565b9250620001b37fffffffffffffffffffffffffffffffffffffffffffffffffffffffffffffffff8484620001bb565b905092915050565b600082620001cd5760019050620002a0565b81620001dd5760009050620002a0565b8160018114620001f65760028114620002015762000237565b6001915050620002a0565b60ff841115620002165762000215620002b1565b5b8360020a91508482111562000230576200022f620002b1565b5b50620002a0565b5060208310610133831016604e8410600b8410161715620002715782820a9050838111156200026b576200026a620002b1565b5b620002a0565b6200028084848460016200010f565b925090508184048111156200029a5762000299620002b1565b5b81810290505b9392505050565b6000819050919050565b7f4e487b7100000000000000000000000000000000000000000000000000000000600052601160045260246000fd5b60008160011c9050919050565b610bc480620002fd6000396000f3fe608060405234801561001057600080fd5b50600436106100625760003560e01c8063582ddb38146100675780635b102ab814610097578063715018a6146100c85780638da5cb5b146100d2578063bc24b16a146100f0578063f2fde38b1461010e575b600080fd5b610081600480360381019061007c9190610782565b61012a565b60405161008e91906108e9565b60405180910390f35b6100b160048036038101906100ac9190610782565b61015d565b6040516100bf929190610996565b60405180910390f35b6100d061019e565b005b6100da6102d8565b6040516100e791906108e9565b60405180910390f35b6100f8610301565b6040516101059190610944565b60405180910390f35b61012860048036038101906101239190610759565b61033d565b005b60076020528060005260406000206000915054906101000a900473ffffffffffffffffffffffffffffffffffffffff1681565b6006818154811061016d57600080fd5b90600052602060002090600202016000915090508060000154908060010160009054906101000a900460ff16905082565b6101a66104e6565b73ffffffffffffffffffffffffffffffffffffffff166101c46102d8565b73ffffffffffffffffffffffffffffffffffffffff161461021a576040517f08c379a000000000000000000000000000000000000000000000000000000000815260040161021190610924565b60405180910390fd5b600073ffffffffffffffffffffffffffffffffffffffff1660008054906101000a900473ffffffffffffffffffffffffffffffffffffffff1673ffffffffffffffffffffffffffffffffffffffff167f8be0079c531659141344cd1fd0a4f28419497f9722a3daafe3b4186f6b6457e060405160405180910390a360008060006101000a81548173ffffffffffffffffffffffffffffffffffffffff021916908373ffffffffffffffffffffffffffffffffffffffff160217905550565b60008060009054906101000a900473ffffffffffffffffffffffffffffffffffffffff16905090565b60008061030c6104ee565b90506000610318610550565b905061032482826105c2565b600160068054905061033691906109d0565b9250505090565b6103456104e6565b73ffffffffffffffffffffffffffffffffffffffff166103636102d8565b73ffffffffffffffffffffffffffffffffffffffff16146103b9576040517f08c379a00000000000000000000000000000000000000000000000000000000081526004016103b090610924565b60405180910390fd5b600073ffffffffffffffffffffffffffffffffffffffff168173ffffffffffffffffffffffffffffffffffffffff161415610429576040517f08c379a000000000000000000000000000000000000000000000000000000000815260040161042090610904565b60405180910390fd5b8073ffffffffffffffffffffffffffffffffffffffff1660008054906101000a900473ffffffffffffffffffffffffffffffffffffffff1673ffffffffffffffffffffffffffffffffffffffff167f8be0079c531659141344cd1fd0a4f28419497f9722a3daafe3b4186f6b6457e060405160405180910390a3806000806101000a81548173ffffffffffffffffffffffffffffffffffffffff021916908373ffffffffffffffffffffffffffffffffffffffff16021790555050565b600033905090565b60006003600081548092919061050390610a4d565b919050555060004233600354604051602001610521939291906108ac565b6040516020818303038152906040528051906020012060001c90506002548161054a9190610ac4565b91505090565b60006004600081548092919061056590610a4d565b919050555060004233600454604051602001610583939291906108ac565b6040516020818303038152906040528051906020012060001c9050600560009054906101000a900460ff1660ff16816105bc9190610ac4565b91505090565b600660405180604001604052808481526020018360ff1681525090806001815401808255809150506001900390600052602060002090600202016000909190919091506000820151816000015560208201518160010160006101000a81548160ff021916908360ff16021790555050506000600160068054905061064691906109d0565b9050336007600083815260200190815260200160002060006101000a81548173ffffffffffffffffffffffffffffffffffffffff021916908373ffffffffffffffffffffffffffffffffffffffff160217905550600860003373ffffffffffffffffffffffffffffffffffffffff1673ffffffffffffffffffffffffffffffffffffffff16815260200190815260200160002060008154809291906106ea90610a4d565b91905055507f6ca85b4ba4ace1b9d8e266c2cb00dcb3314c66609fd525cfab3301b2e306748d8184846040516107229392919061095f565b60405180910390a1505050565b60008135905061073e81610b60565b92915050565b60008135905061075381610b77565b92915050565b60006020828403121561076b57600080fd5b60006107798482850161072f565b91505092915050565b60006020828403121561079457600080fd5b60006107a284828501610744565b91505092915050565b6107b481610a04565b82525050565b6107cb6107c682610a04565b610a96565b82525050565b60006107de6026836109bf565b91507f4f776e61626c653a206e6577206f776e657220697320746865207a65726f206160008301527f64647265737300000000000000000000000000000000000000000000000000006020830152604082019050919050565b60006108446020836109bf565b91507f4f776e61626c653a2063616c6c6572206973206e6f7420746865206f776e65726000830152602082019050919050565b61088081610a36565b82525050565b61089761089282610a36565b610aba565b82525050565b6108a681610a40565b82525050565b60006108b88286610886565b6020820191506108c882856107ba565b6014820191506108d88284610886565b602082019150819050949350505050565b60006020820190506108fe60008301846107ab565b92915050565b6000602082019050818103600083015261091d816107d1565b9050919050565b6000602082019050818103600083015261093d81610837565b9050919050565b60006020820190506109596000830184610877565b92915050565b60006060820190506109746000830186610877565b6109816020830185610877565b61098e604083018461089d565b949350505050565b60006040820190506109ab6000830185610877565b6109b8602083018461089d565b9392505050565b600082825260208201905092915050565b60006109db82610a36565b91506109e683610a36565b9250828210156109f9576109f8610af5565b5b828203905092915050565b6000610a0f82610a16565b9050919050565b600073ffffffffffffffffffffffffffffffffffffffff82169050919050565b6000819050919050565b600060ff82169050919050565b6000610a5882610a36565b91507fffffffffffffffffffffffffffffffffffffffffffffffffffffffffffffffff821415610a8b57610a8a610af5565b5b600182019050919050565b6000610aa182610aa8565b9050919050565b6000610ab382610b53565b9050919050565b6000819050919050565b6000610acf82610a36565b9150610ada83610a36565b925082610aea57610ae9610b24565b5b828206905092915050565b7f4e487b7100000000000000000000000000000000000000000000000000000000600052601160045260246000fd5b7f4e487b7100000000000000000000000000000000000000000000000000000000600052601260045260246000fd5b60008160601b9050919050565b610b6981610a04565b8114610b7457600080fd5b50565b610b8081610a36565b8114610b8b57600080fd5b5056fea2646970667358221220caf4079372f958437eb798dae09455aa218f47451c67c63869da39f20e0566a564736f6c63430008000033",
  "immutableReferences": {},
  "source": "pragma solidity ^0.8.0;\npragma experimental ABIEncoderV2;\n\nimport \"@openzeppelin/contracts/access/Ownable.sol\";\n\n/**\n * @title CartaFactory\n * @dev Generacion aleatoria de cartas\n */\ncontract CartaFactory is Ownable {\n\n    event NuevaCarta(uint cartaId, uint256 descripcion, uint8 tipo);\n\n    uint256 cantidadDigitos = 16;\n    uint256 modulo = 10 ** cantidadDigitos;\n    uint256 semillaDescripcion = 0;\n    uint256 semillaTipo = 0;\n    uint8 cantidadTipos = 3;\n\n    /**\n    * Tipos:\n    * 1: normal\n    * 2: rara\n    * 3: epica\n    */\n    struct Carta {\n        uint256 descripcion;\n        uint8 tipo;\n    }\n    \n    Carta[] public cartas;\n\n    mapping (uint => address) public cartaAPersona;\n    mapping (address => uint) personaCantidadCartas;\n    \n    /**\n     * @dev Crea una instancia de carta\n     * @param _descripcion descripcion para crear la carta\n     */\n    function _crearCarta(uint256 _descripcion, uint8 _tipo) private {\n        cartas.push(Carta(_descripcion, _tipo));\n        uint id = cartas.length - 1;\n        cartaAPersona[id] = msg.sender;\n        personaCantidadCartas[msg.sender] ++;\n        emit NuevaCarta(id, _descripcion, _tipo);\n    }\n\n    /**\n     * @dev Crea un valor aleatorio de descripcion \n     * @return valor aleatorio de descripcion\n     */\n    function _crearDescripcionAleatoria() private returns (uint256){\n        semillaDescripcion ++;\n        uint256 descripcionAleatoria = uint256(keccak256(abi.encodePacked(block.timestamp, msg.sender, semillaDescripcion)));\n        return descripcionAleatoria % modulo;\n    }\n\n    /**\n     * @dev Crea un tipo de carta aleatorio\n     * @return valor aleatorio de tipo de carta\n     */\n    function _crearTipoAleatorio() private returns (uint8){\n        semillaTipo ++;\n        uint256 tipoAleatorio = uint256(keccak256(abi.encodePacked(block.timestamp, msg.sender, semillaTipo)));\n        return uint8(tipoAleatorio % cantidadTipos);\n    }\n    \n    /**\n     * @dev Crea una carta aleatoria\n     * @return id de la carta creada\n     */\n    function crearCartaAleatoria() public returns (uint256) {\n        uint256 descripcionAleatoria = _crearDescripcionAleatoria();\n        uint8 tipoAleatorio = _crearTipoAleatorio();\n        _crearCarta(descripcionAleatoria, tipoAleatorio);\n        return cartas.length - 1;\n    }\n\n    modifier soloDuenioDe(uint _cartaId) {\n        require (msg.sender == cartaAPersona[_cartaId]);\n        _;\n    }\n\n}\n",
  "sourcePath": "/home/miki_mustard/Desktop/Personal/Facultad/tdl/nuevo-tdl/teoria-del-lenguaje/truffle-project/contracts/CartaFactory.sol",
  "compiler": {
    "name": "solc",
    "version": "0.8.0+commit.c7dfd78e.Emscripten.clang"
  },
  "schemaVersion": "3.4.1",
  "updatedAt": "2021-06-20T20:38:09.754Z",
  "devdoc": {
    "details": "Generacion aleatoria de cartas",
    "kind": "dev",
    "methods": {
      "crearCartaAleatoria()": {
        "details": "Crea una carta aleatoria",
        "returns": {
          "_0": "id de la carta creada"
        }
      },
      "owner()": {
        "details": "Returns the address of the current owner."
      },
      "renounceOwnership()": {
        "details": "Leaves the contract without owner. It will not be possible to call `onlyOwner` functions anymore. Can only be called by the current owner. NOTE: Renouncing ownership will leave the contract without an owner, thereby removing any functionality that is only available to the owner."
      },
      "transferOwnership(address)": {
        "details": "Transfers ownership of the contract to a new account (`newOwner`). Can only be called by the current owner."
      }
    },
    "title": "CartaFactory",
    "version": 1
  },
  "userdoc": {
    "kind": "user",
    "methods": {},
    "version": 1
  }
}