{
  "contractName": "CartaItem",
  "abi": [
    {
      "inputs": [],
      "stateMutability": "nonpayable",
      "type": "constructor"
    },
    {
      "anonymous": false,
      "inputs": [
        {
          "indexed": true,
          "internalType": "address",
          "name": "_owner",
          "type": "address"
        },
        {
          "indexed": true,
          "internalType": "address",
          "name": "_approved",
          "type": "address"
        },
        {
          "indexed": false,
          "internalType": "uint256",
          "name": "_tokenId",
          "type": "uint256"
        }
      ],
      "name": "Approval",
      "type": "event"
    },
    {
      "anonymous": false,
      "inputs": [
        {
          "indexed": false,
          "internalType": "uint256",
          "name": "cartaId",
          "type": "uint256"
        },
        {
          "indexed": false,
          "internalType": "uint256",
          "name": "descripcion",
          "type": "uint256"
        },
        {
          "indexed": false,
          "internalType": "uint8",
          "name": "tipo",
          "type": "uint8"
        }
      ],
      "name": "NuevaCarta",
      "type": "event"
    },
    {
      "anonymous": false,
      "inputs": [
        {
          "indexed": true,
          "internalType": "address",
          "name": "previousOwner",
          "type": "address"
        },
        {
          "indexed": true,
          "internalType": "address",
          "name": "newOwner",
          "type": "address"
        }
      ],
      "name": "OwnershipTransferred",
      "type": "event"
    },
    {
      "anonymous": false,
      "inputs": [
        {
          "indexed": true,
          "internalType": "address",
          "name": "_from",
          "type": "address"
        },
        {
          "indexed": true,
          "internalType": "address",
          "name": "_to",
          "type": "address"
        },
        {
          "indexed": false,
          "internalType": "uint256",
          "name": "_tokenId",
          "type": "uint256"
        }
      ],
      "name": "Transfer",
      "type": "event"
    },
    {
      "inputs": [
        {
          "internalType": "uint256",
          "name": "",
          "type": "uint256"
        }
      ],
      "name": "cartaAPersona",
      "outputs": [
        {
          "internalType": "address",
          "name": "",
          "type": "address"
        }
      ],
      "stateMutability": "view",
      "type": "function",
      "constant": true
    },
    {
      "inputs": [
        {
          "internalType": "uint256",
          "name": "",
          "type": "uint256"
        }
      ],
      "name": "cartas",
      "outputs": [
        {
          "internalType": "uint256",
          "name": "descripcion",
          "type": "uint256"
        },
        {
          "internalType": "uint8",
          "name": "tipo",
          "type": "uint8"
        },
        {
          "internalType": "bool",
          "name": "enSubasta",
          "type": "bool"
        }
      ],
      "stateMutability": "view",
      "type": "function",
      "constant": true
    },
    {
      "inputs": [],
      "name": "getCartas",
      "outputs": [
        {
          "internalType": "uint256[]",
          "name": "",
          "type": "uint256[]"
        },
        {
          "internalType": "uint8[]",
          "name": "",
          "type": "uint8[]"
        }
      ],
      "stateMutability": "view",
      "type": "function",
      "constant": true
    },
    {
      "inputs": [
        {
          "internalType": "address",
          "name": "_owner",
          "type": "address"
        }
      ],
      "name": "getCartasDe",
      "outputs": [
        {
          "internalType": "uint256[]",
          "name": "",
          "type": "uint256[]"
        },
        {
          "internalType": "uint256[]",
          "name": "",
          "type": "uint256[]"
        },
        {
          "internalType": "uint8[]",
          "name": "",
          "type": "uint8[]"
        }
      ],
      "stateMutability": "view",
      "type": "function",
      "constant": true
    },
    {
      "inputs": [],
      "name": "name",
      "outputs": [
        {
          "internalType": "string",
          "name": "",
          "type": "string"
        }
      ],
      "stateMutability": "view",
      "type": "function",
      "constant": true
    },
    {
      "inputs": [],
      "name": "owner",
      "outputs": [
        {
          "internalType": "address",
          "name": "",
          "type": "address"
        }
      ],
      "stateMutability": "view",
      "type": "function",
      "constant": true
    },
    {
      "inputs": [],
      "name": "renounceOwnership",
      "outputs": [],
      "stateMutability": "nonpayable",
      "type": "function"
    },
    {
      "inputs": [],
      "name": "symbol",
      "outputs": [
        {
          "internalType": "string",
          "name": "",
          "type": "string"
        }
      ],
      "stateMutability": "view",
      "type": "function",
      "constant": true
    },
    {
      "inputs": [
        {
          "internalType": "address",
          "name": "newOwner",
          "type": "address"
        }
      ],
      "name": "transferOwnership",
      "outputs": [],
      "stateMutability": "nonpayable",
      "type": "function"
    },
    {
      "inputs": [],
      "name": "crearCartaAleatoria",
      "outputs": [
        {
          "internalType": "uint256",
          "name": "",
          "type": "uint256"
        }
      ],
      "stateMutability": "nonpayable",
      "type": "function"
    },
    {
      "inputs": [
        {
          "internalType": "address",
          "name": "_duenio",
          "type": "address"
        },
        {
          "internalType": "uint256",
          "name": "_idCarta",
          "type": "uint256"
        },
        {
          "internalType": "uint256",
          "name": "_incrementoOferta",
          "type": "uint256"
        },
        {
          "internalType": "uint256",
          "name": "_tiempoInicial",
          "type": "uint256"
        },
        {
          "internalType": "uint256",
          "name": "_tiempoFinal",
          "type": "uint256"
        }
      ],
      "name": "subastarCarta",
      "outputs": [
        {
          "internalType": "uint256",
          "name": "",
          "type": "uint256"
        }
      ],
      "stateMutability": "nonpayable",
      "type": "function"
    },
    {
      "inputs": [
        {
          "internalType": "uint256",
          "name": "_idSubasta",
          "type": "uint256"
        },
        {
          "internalType": "uint256",
          "name": "_amount",
          "type": "uint256"
        }
      ],
      "name": "ofertarCarta",
      "outputs": [
        {
          "internalType": "bool",
          "name": "",
          "type": "bool"
        }
      ],
      "stateMutability": "nonpayable",
      "type": "function"
    },
    {
      "inputs": [
        {
          "internalType": "uint256",
          "name": "_idSubasta",
          "type": "uint256"
        }
      ],
      "name": "retirarFondos",
      "outputs": [
        {
          "internalType": "bool",
          "name": "",
          "type": "bool"
        }
      ],
      "stateMutability": "nonpayable",
      "type": "function"
    },
    {
      "inputs": [
        {
          "internalType": "uint256",
          "name": "_idSubasta",
          "type": "uint256"
        }
      ],
      "name": "cancelarSubasta",
      "outputs": [
        {
          "internalType": "bool",
          "name": "",
          "type": "bool"
        }
      ],
      "stateMutability": "nonpayable",
      "type": "function"
    },
    {
      "inputs": [
        {
          "internalType": "address",
          "name": "_owner",
          "type": "address"
        }
      ],
      "name": "balanceOf",
      "outputs": [
        {
          "internalType": "uint256",
          "name": "_balance",
          "type": "uint256"
        }
      ],
      "stateMutability": "view",
      "type": "function",
      "constant": true
    },
    {
      "inputs": [
        {
          "internalType": "uint256",
          "name": "_tokenId",
          "type": "uint256"
        }
      ],
      "name": "ownerOf",
      "outputs": [
        {
          "internalType": "address",
          "name": "_owner",
          "type": "address"
        }
      ],
      "stateMutability": "view",
      "type": "function",
      "constant": true
    },
    {
      "inputs": [
        {
          "internalType": "address",
          "name": "_to",
          "type": "address"
        },
        {
          "internalType": "uint256",
          "name": "_tokenId",
          "type": "uint256"
        }
      ],
      "name": "transfer",
      "outputs": [],
      "stateMutability": "nonpayable",
      "type": "function"
    },
    {
      "inputs": [
        {
          "internalType": "address",
          "name": "_to",
          "type": "address"
        },
        {
          "internalType": "uint256",
          "name": "_tokenId",
          "type": "uint256"
        }
      ],
      "name": "approve",
      "outputs": [],
      "stateMutability": "nonpayable",
      "type": "function"
    },
    {
      "inputs": [
        {
          "internalType": "uint256",
          "name": "_tokenId",
          "type": "uint256"
        }
      ],
      "name": "takeOwnership",
      "outputs": [],
      "stateMutability": "nonpayable",
      "type": "function"
    },
    {
      "inputs": [],
      "name": "balanceOzToken",
      "outputs": [
        {
          "internalType": "uint256",
          "name": "",
          "type": "uint256"
        }
      ],
      "stateMutability": "view",
      "type": "function",
      "constant": true
    },
    {
      "inputs": [
        {
          "internalType": "address",
          "name": "_ozTokenAddress",
          "type": "address"
        }
      ],
      "name": "setOzTokenAddress",
      "outputs": [],
      "stateMutability": "nonpayable",
      "type": "function"
    },
    {
      "inputs": [
        {
          "internalType": "address",
          "name": "_subastaFactoryAddress",
          "type": "address"
        }
      ],
      "name": "setSubastaFactoryAddress",
      "outputs": [],
      "stateMutability": "nonpayable",
      "type": "function"
    },
    {
      "inputs": [
        {
          "internalType": "address",
          "name": "_ozAccountAddress",
          "type": "address"
        }
      ],
      "name": "setOzAccountAddress",
      "outputs": [],
      "stateMutability": "nonpayable",
      "type": "function"
    }
  ],
  "bytecode": "0x60806040526010600155600154600a6200001a919062000472565b600255600060035560006004556003600560006101000a81548160ff021916908360ff16021790555073c3d1131420135b246b155ba17e32ba9f48c4d6a2600b60006101000a81548173ffffffffffffffffffffffffffffffffffffffff021916908373ffffffffffffffffffffffffffffffffffffffff160217905550600b60009054906101000a900473ffffffffffffffffffffffffffffffffffffffff16600c60006101000a81548173ffffffffffffffffffffffffffffffffffffffff021916908373ffffffffffffffffffffffffffffffffffffffff160217905550600d60009054906101000a900473ffffffffffffffffffffffffffffffffffffffff16600e60006101000a81548173ffffffffffffffffffffffffffffffffffffffff021916908373ffffffffffffffffffffffffffffffffffffffff1602179055506005600f55600360105560016011556003601255731c53954455a6796723b52021c034964dd9e329de601360006101000a81548173ffffffffffffffffffffffffffffffffffffffff021916908373ffffffffffffffffffffffffffffffffffffffff160217905550348015620001d457600080fd5b506040518060400160405280600981526020017f43617274614974656d00000000000000000000000000000000000000000000008152506040518060400160405280600481526020017f4349544d0000000000000000000000000000000000000000000000000000000081525062000261620002556200029b60201b60201c565b620002a360201b60201c565b81600990805190602001906200027992919062000367565b5080600a90805190602001906200029292919062000367565b5050506200065a565b600033905090565b60008060009054906101000a900473ffffffffffffffffffffffffffffffffffffffff169050816000806101000a81548173ffffffffffffffffffffffffffffffffffffffff021916908373ffffffffffffffffffffffffffffffffffffffff1602179055508173ffffffffffffffffffffffffffffffffffffffff168173ffffffffffffffffffffffffffffffffffffffff167f8be0079c531659141344cd1fd0a4f28419497f9722a3daafe3b4186f6b6457e060405160405180910390a35050565b8280546200037590620005b9565b90600052602060002090601f016020900481019282620003995760008555620003e5565b82601f10620003b457805160ff1916838001178555620003e5565b82800160010185558215620003e5579182015b82811115620003e4578251825591602001919060010190620003c7565b5b509050620003f49190620003f8565b5090565b5b8082111562000413576000816000905550600101620003f9565b5090565b6000808291508390505b60018511156200046957808604811115620004415762000440620005ef565b5b6001851615620004515780820291505b808102905062000461856200064d565b945062000421565b94509492505050565b60006200047f82620005af565b91506200048c83620005af565b9250620004bb7fffffffffffffffffffffffffffffffffffffffffffffffffffffffffffffffff8484620004c3565b905092915050565b600082620004d55760019050620005a8565b81620004e55760009050620005a8565b8160018114620004fe576002811462000509576200053f565b6001915050620005a8565b60ff8411156200051e576200051d620005ef565b5b8360020a915084821115620005385762000537620005ef565b5b50620005a8565b5060208310610133831016604e8410600b8410161715620005795782820a905083811115620005735762000572620005ef565b5b620005a8565b62000588848484600162000417565b92509050818404811115620005a257620005a1620005ef565b5b81810290505b9392505050565b6000819050919050565b60006002820490506001821680620005d257607f821691505b60208210811415620005e957620005e86200061e565b5b50919050565b7f4e487b7100000000000000000000000000000000000000000000000000000000600052601160045260246000fd5b7f4e487b7100000000000000000000000000000000000000000000000000000000600052602260045260246000fd5b60008160011c9050919050565b613a4a806200066a6000396000f3fe608060405234801561001057600080fd5b506004361061014d5760003560e01c80637e5f9591116100c3578063bc24b16a1161007c578063bc24b16a146103c8578063c1bf4059146103e6578063c2fcde8914610402578063c53714fb14610421578063d2a10c481461043d578063f2fde38b1461046d5761014d565b80637e5f9591146103065780638da5cb5b1461032457806395d89b4114610342578063a32aa71714610360578063a9059cbb14610390578063b2e6ceeb146103ac5761014d565b8063582ddb3811610115578063582ddb381461021e57806358a8788f1461024e5780635b102ab81461026a5780636352211e1461029c57806370a08231146102cc578063715018a6146102fc5761014d565b806306fdde0314610152578063095ea7b3146101705780630f981d8e1461018c57806328678259146101bc5780634a358c1e146101ec575b600080fd5b61015a610489565b6040516101679190613419565b60405180910390f35b61018a60048036038101906101859190612a9c565b61051b565b005b6101a660048036038101906101a19190612b78565b610679565b6040516101b391906133e3565b60405180910390f35b6101d660048036038101906101d19190612bca565b610851565b6040516101e391906133e3565b60405180910390f35b61020660048036038101906102019190612a73565b610b50565b60405161021593929190613360565b60405180910390f35b61023860048036038101906102339190612b78565b610f1f565b60405161024591906132bb565b60405180910390f35b61026860048036038101906102639190612a73565b610f52565b005b610284600480360381019061027f9190612b78565b611075565b6040516102939392919061368d565b60405180910390f35b6102b660048036038101906102b19190612b78565b6110c9565b6040516102c391906132bb565b60405180910390f35b6102e660048036038101906102e19190612a73565b611106565b6040516102f391906135db565b60405180910390f35b61030461114f565b005b61030e6111d7565b60405161031b91906135db565b60405180910390f35b61032c611289565b60405161033991906132bb565b60405180910390f35b61034a6112b2565b6040516103579190613419565b60405180910390f35b61037a60048036038101906103759190612b78565b611344565b60405161038791906133e3565b60405180910390f35b6103aa60048036038101906103a59190612a9c565b6114d6565b005b6103c660048036038101906103c19190612b78565b611588565b005b6103d061160f565b6040516103dd91906135db565b60405180910390f35b61040060048036038101906103fb9190612a73565b6118e7565b005b61040a6119a7565b6040516104189291906133ac565b60405180910390f35b61043b60048036038101906104369190612a73565b611c01565b005b61045760048036038101906104529190612ad8565b611d24565b60405161046491906135db565b60405180910390f35b61048760048036038101906104829190612a73565b612212565b005b6060600980546104989061384a565b80601f01602080910402602001604051908101604052809291908181526020018280546104c49061384a565b80156105115780601f106104e657610100808354040283529160200191610511565b820191906000526020600020905b8154815290600101906020018083116104f457829003601f168201915b5050505050905090565b806007600082815260200190815260200160002060009054906101000a900473ffffffffffffffffffffffffffffffffffffffff1673ffffffffffffffffffffffffffffffffffffffff163373ffffffffffffffffffffffffffffffffffffffff16146105bd576040517f08c379a00000000000000000000000000000000000000000000000000000000081526004016105b49061349b565b60405180910390fd5b826014600084815260200190815260200160002060006101000a81548173ffffffffffffffffffffffffffffffffffffffff021916908373ffffffffffffffffffffffffffffffffffffffff1602179055508273ffffffffffffffffffffffffffffffffffffffff163373ffffffffffffffffffffffffffffffffffffffff167f8c5be1e5ebec7d5bd14f71427d1e84f3dd0314c0f7b2291e5b200ac8c7c3b9258460405161066c91906135db565b60405180910390a3505050565b600080600e60009054906101000a900473ffffffffffffffffffffffffffffffffffffffff1673ffffffffffffffffffffffffffffffffffffffff16634d9770cb84336040518363ffffffff1660e01b81526004016106d99291906135f6565b602060405180830381600087803b1580156106f357600080fd5b505af1158015610707573d6000803e3d6000fd5b505050506040513d601f19601f8201168201806040525081019061072b9190612b4f565b90506000600e60009054906101000a900473ffffffffffffffffffffffffffffffffffffffff1673ffffffffffffffffffffffffffffffffffffffff166390607191856040518263ffffffff1660e01b815260040161078a91906135db565b602060405180830381600087803b1580156107a457600080fd5b505af11580156107b8573d6000803e3d6000fd5b505050506040513d601f19601f820116820180604052508101906107dc9190612ba1565b905060006006828154811061081a577f4e487b7100000000000000000000000000000000000000000000000000000000600052603260045260246000fd5b90600052602060002090600202019050828160010160016101000a81548160ff021916908315150217905550829350505050919050565b6000808214610895576040517f08c379a000000000000000000000000000000000000000000000000000000000815260040161088c9061351b565b60405180910390fd5b81600c60009054906101000a900473ffffffffffffffffffffffffffffffffffffffff1673ffffffffffffffffffffffffffffffffffffffff166370a08231336040518263ffffffff1660e01b81526004016108f191906132bb565b60206040518083038186803b15801561090957600080fd5b505afa15801561091d573d6000803e3d6000fd5b505050506040513d601f19601f820116820180604052508101906109419190612ba1565b1015610982576040517f08c379a0000000000000000000000000000000000000000000000000000000008152600401610979906134bb565b60405180910390fd5b600e60009054906101000a900473ffffffffffffffffffffffffffffffffffffffff1673ffffffffffffffffffffffffffffffffffffffff16635e033ff18484336040518463ffffffff1660e01b81526004016109e19392919061361f565b602060405180830381600087803b1580156109fb57600080fd5b505af1158015610a0f573d6000803e3d6000fd5b505050506040513d601f19601f82011682018060405250810190610a339190612b4f565b610a72576040517f08c379a0000000000000000000000000000000000000000000000000000000008152600401610a69906135bb565b60405180910390fd5b600c60009054906101000a900473ffffffffffffffffffffffffffffffffffffffff1673ffffffffffffffffffffffffffffffffffffffff166323b872dd33601360009054906101000a900473ffffffffffffffffffffffffffffffffffffffff16856040518463ffffffff1660e01b8152600401610af3939291906132d6565b602060405180830381600087803b158015610b0d57600080fd5b505af1158015610b21573d6000803e3d6000fd5b505050506040513d601f19601f82011682018060405250810190610b459190612b4f565b506001905092915050565b60608060606000600860008673ffffffffffffffffffffffffffffffffffffffff1673ffffffffffffffffffffffffffffffffffffffff16815260200190815260200160002054905060008167ffffffffffffffff811115610bdb577f4e487b7100000000000000000000000000000000000000000000000000000000600052604160045260246000fd5b604051908082528060200260200182016040528015610c095781602001602082028036833780820191505090505b50905060008267ffffffffffffffff811115610c4e577f4e487b7100000000000000000000000000000000000000000000000000000000600052604160045260246000fd5b604051908082528060200260200182016040528015610c7c5781602001602082028036833780820191505090505b50905060008367ffffffffffffffff811115610cc1577f4e487b7100000000000000000000000000000000000000000000000000000000600052604160045260246000fd5b604051908082528060200260200182016040528015610cef5781602001602082028036833780820191505090505b5090506000805b600680549050811015610f09578973ffffffffffffffffffffffffffffffffffffffff166007600083815260200190815260200160002060009054906101000a900473ffffffffffffffffffffffffffffffffffffffff1673ffffffffffffffffffffffffffffffffffffffff161415610ef65780858381518110610da4577f4e487b7100000000000000000000000000000000000000000000000000000000600052603260045260246000fd5b60200260200101818152505060068181548110610dea577f4e487b7100000000000000000000000000000000000000000000000000000000600052603260045260246000fd5b906000526020600020906002020160000154848381518110610e35577f4e487b7100000000000000000000000000000000000000000000000000000000600052603260045260246000fd5b60200260200101818152505060068181548110610e7b577f4e487b7100000000000000000000000000000000000000000000000000000000600052603260045260246000fd5b906000526020600020906002020160010160009054906101000a900460ff16838381518110610ed3577f4e487b7100000000000000000000000000000000000000000000000000000000600052603260045260246000fd5b602002602001019060ff16908160ff16815250508180610ef29061387c565b9250505b8080610f019061387c565b915050610cf6565b5083838397509750975050505050509193909250565b60076020528060005260406000206000915054906101000a900473ffffffffffffffffffffffffffffffffffffffff1681565b610f5a61230a565b73ffffffffffffffffffffffffffffffffffffffff16610f78611289565b73ffffffffffffffffffffffffffffffffffffffff1614610fce576040517f08c379a0000000000000000000000000000000000000000000000000000000008152600401610fc5906134fb565b60405180910390fd5b80600b60006101000a81548173ffffffffffffffffffffffffffffffffffffffff021916908373ffffffffffffffffffffffffffffffffffffffff160217905550600b60009054906101000a900473ffffffffffffffffffffffffffffffffffffffff16600c60006101000a81548173ffffffffffffffffffffffffffffffffffffffff021916908373ffffffffffffffffffffffffffffffffffffffff16021790555050565b6006818154811061108557600080fd5b90600052602060002090600202016000915090508060000154908060010160009054906101000a900460ff16908060010160019054906101000a900460ff16905083565b60006007600083815260200190815260200160002060009054906101000a900473ffffffffffffffffffffffffffffffffffffffff169050919050565b6000600860008373ffffffffffffffffffffffffffffffffffffffff1673ffffffffffffffffffffffffffffffffffffffff168152602001908152602001600020549050919050565b61115761230a565b73ffffffffffffffffffffffffffffffffffffffff16611175611289565b73ffffffffffffffffffffffffffffffffffffffff16146111cb576040517f08c379a00000000000000000000000000000000000000000000000000000000081526004016111c2906134fb565b60405180910390fd5b6111d56000612312565b565b6000600c60009054906101000a900473ffffffffffffffffffffffffffffffffffffffff1673ffffffffffffffffffffffffffffffffffffffff166370a08231336040518263ffffffff1660e01b815260040161123491906132bb565b60206040518083038186803b15801561124c57600080fd5b505afa158015611260573d6000803e3d6000fd5b505050506040513d601f19601f820116820180604052508101906112849190612ba1565b905090565b60008060009054906101000a900473ffffffffffffffffffffffffffffffffffffffff16905090565b6060600a80546112c19061384a565b80601f01602080910402602001604051908101604052809291908181526020018280546112ed9061384a565b801561133a5780601f1061130f5761010080835404028352916020019161133a565b820191906000526020600020905b81548152906001019060200180831161131d57829003601f168201915b5050505050905090565b600080600e60009054906101000a900473ffffffffffffffffffffffffffffffffffffffff1673ffffffffffffffffffffffffffffffffffffffff1663a99a476f84336040518363ffffffff1660e01b81526004016113a49291906135f6565b602060405180830381600087803b1580156113be57600080fd5b505af11580156113d2573d6000803e3d6000fd5b505050506040513d601f19601f820116820180604052508101906113f69190612ba1565b9050600c60009054906101000a900473ffffffffffffffffffffffffffffffffffffffff1673ffffffffffffffffffffffffffffffffffffffff166323b872dd601360009054906101000a900473ffffffffffffffffffffffffffffffffffffffff1633846040518463ffffffff1660e01b8152600401611479939291906132d6565b602060405180830381600087803b15801561149357600080fd5b505af11580156114a7573d6000803e3d6000fd5b505050506040513d601f19601f820116820180604052508101906114cb9190612b4f565b506001915050919050565b806007600082815260200190815260200160002060009054906101000a900473ffffffffffffffffffffffffffffffffffffffff1673ffffffffffffffffffffffffffffffffffffffff163373ffffffffffffffffffffffffffffffffffffffff1614611578576040517f08c379a000000000000000000000000000000000000000000000000000000000815260040161156f9061349b565b60405180910390fd5b6115833384846123d6565b505050565b3373ffffffffffffffffffffffffffffffffffffffff166014600083815260200190815260200160002060009054906101000a900473ffffffffffffffffffffffffffffffffffffffff1673ffffffffffffffffffffffffffffffffffffffff16146115f357600080fd5b60006115fe826110c9565b905061160b8133846123d6565b5050565b60008073ffffffffffffffffffffffffffffffffffffffff163373ffffffffffffffffffffffffffffffffffffffff161415611680576040517f08c379a00000000000000000000000000000000000000000000000000000000081526004016116779061359b565b60405180910390fd5b600f54600c60009054906101000a900473ffffffffffffffffffffffffffffffffffffffff1673ffffffffffffffffffffffffffffffffffffffff166370a08231336040518263ffffffff1660e01b81526004016116de91906132bb565b60206040518083038186803b1580156116f657600080fd5b505afa15801561170a573d6000803e3d6000fd5b505050506040513d601f19601f8201168201806040525081019061172e9190612ba1565b101561176f576040517f08c379a0000000000000000000000000000000000000000000000000000000008152600401611766906134db565b60405180910390fd5b600c60009054906101000a900473ffffffffffffffffffffffffffffffffffffffff1673ffffffffffffffffffffffffffffffffffffffff166323b872dd33601360009054906101000a900473ffffffffffffffffffffffffffffffffffffffff16600f546040518463ffffffff1660e01b81526004016117f2939291906132d6565b602060405180830381600087803b15801561180c57600080fd5b505af1158015611820573d6000803e3d6000fd5b505050506040513d601f19601f820116820180604052508101906118449190612b4f565b50600061184f6127b5565b9050600061185b612817565b90506118678282612889565b3373ffffffffffffffffffffffffffffffffffffffff16600073ffffffffffffffffffffffffffffffffffffffff167fddf252ad1be2c89b69c2b068fc378daa952ba7f163c4a11628f55a4df523b3ef60016040516118c691906133fe565b60405180910390a360016006805490506118e09190613752565b9250505090565b6118ef61230a565b73ffffffffffffffffffffffffffffffffffffffff1661190d611289565b73ffffffffffffffffffffffffffffffffffffffff1614611963576040517f08c379a000000000000000000000000000000000000000000000000000000000815260040161195a906134fb565b60405180910390fd5b80601360006101000a81548173ffffffffffffffffffffffffffffffffffffffff021916908373ffffffffffffffffffffffffffffffffffffffff16021790555050565b606080600060068054905067ffffffffffffffff8111156119f1577f4e487b7100000000000000000000000000000000000000000000000000000000600052604160045260246000fd5b604051908082528060200260200182016040528015611a1f5781602001602082028036833780820191505090505b509050600060068054905067ffffffffffffffff811115611a69577f4e487b7100000000000000000000000000000000000000000000000000000000600052604160045260246000fd5b604051908082528060200260200182016040528015611a975781602001602082028036833780820191505090505b50905060005b600680549050811015611bf45760068181548110611ae4577f4e487b7100000000000000000000000000000000000000000000000000000000600052603260045260246000fd5b906000526020600020906002020160000154838281518110611b2f577f4e487b7100000000000000000000000000000000000000000000000000000000600052603260045260246000fd5b60200260200101818152505060068181548110611b75577f4e487b7100000000000000000000000000000000000000000000000000000000600052603260045260246000fd5b906000526020600020906002020160010160009054906101000a900460ff16828281518110611bcd577f4e487b7100000000000000000000000000000000000000000000000000000000600052603260045260246000fd5b602002602001019060ff16908160ff16815250508080611bec9061387c565b915050611a9d565b5081819350935050509091565b611c0961230a565b73ffffffffffffffffffffffffffffffffffffffff16611c27611289565b73ffffffffffffffffffffffffffffffffffffffff1614611c7d576040517f08c379a0000000000000000000000000000000000000000000000000000000008152600401611c74906134fb565b60405180910390fd5b80600d60006101000a81548173ffffffffffffffffffffffffffffffffffffffff021916908373ffffffffffffffffffffffffffffffffffffffff160217905550600d60009054906101000a900473ffffffffffffffffffffffffffffffffffffffff16600e60006101000a81548173ffffffffffffffffffffffffffffffffffffffff021916908373ffffffffffffffffffffffffffffffffffffffff16021790555050565b6000846007600082815260200190815260200160002060009054906101000a900473ffffffffffffffffffffffffffffffffffffffff1673ffffffffffffffffffffffffffffffffffffffff163373ffffffffffffffffffffffffffffffffffffffff1614611dc8576040517f08c379a0000000000000000000000000000000000000000000000000000000008152600401611dbf9061349b565b60405180910390fd5b8560068181548110611e03577f4e487b7100000000000000000000000000000000000000000000000000000000600052603260045260246000fd5b906000526020600020906002020160010160019054906101000a900460ff1615611e62576040517f08c379a0000000000000000000000000000000000000000000000000000000008152600401611e599061353b565b60405180910390fd5b866006805490508110611eaa576040517f08c379a0000000000000000000000000000000000000000000000000000000008152600401611ea19061347b565b60405180910390fd5b600073ffffffffffffffffffffffffffffffffffffffff163373ffffffffffffffffffffffffffffffffffffffff161415611f1a576040517f08c379a0000000000000000000000000000000000000000000000000000000008152600401611f119061357b565b60405180910390fd5b601254600c60009054906101000a900473ffffffffffffffffffffffffffffffffffffffff1673ffffffffffffffffffffffffffffffffffffffff166370a08231336040518263ffffffff1660e01b8152600401611f7891906132bb565b60206040518083038186803b158015611f9057600080fd5b505afa158015611fa4573d6000803e3d6000fd5b505050506040513d601f19601f82011682018060405250810190611fc89190612ba1565b1015612009576040517f08c379a00000000000000000000000000000000000000000000000000000000081526004016120009061345b565b60405180910390fd5b6000600e60009054906101000a900473ffffffffffffffffffffffffffffffffffffffff1673ffffffffffffffffffffffffffffffffffffffff16630ddaf5858b8b8b8b8b6040518663ffffffff1660e01b815260040161206e95949392919061330d565b602060405180830381600087803b15801561208857600080fd5b505af115801561209c573d6000803e3d6000fd5b505050506040513d601f19601f820116820180604052508101906120c09190612ba1565b9050600c60009054906101000a900473ffffffffffffffffffffffffffffffffffffffff1673ffffffffffffffffffffffffffffffffffffffff166323b872dd33601360009054906101000a900473ffffffffffffffffffffffffffffffffffffffff166012546040518463ffffffff1660e01b8152600401612145939291906132d6565b602060405180830381600087803b15801561215f57600080fd5b505af1158015612173573d6000803e3d6000fd5b505050506040513d601f19601f820116820180604052508101906121979190612b4f565b50600060068a815481106121d4577f4e487b7100000000000000000000000000000000000000000000000000000000600052603260045260246000fd5b9060005260206000209060020201905060018160010160016101000a81548160ff021916908315150217905550819550505050505095945050505050565b61221a61230a565b73ffffffffffffffffffffffffffffffffffffffff16612238611289565b73ffffffffffffffffffffffffffffffffffffffff161461228e576040517f08c379a0000000000000000000000000000000000000000000000000000000008152600401612285906134fb565b60405180910390fd5b600073ffffffffffffffffffffffffffffffffffffffff168173ffffffffffffffffffffffffffffffffffffffff1614156122fe576040517f08c379a00000000000000000000000000000000000000000000000000000000081526004016122f59061343b565b60405180910390fd5b61230781612312565b50565b600033905090565b60008060009054906101000a900473ffffffffffffffffffffffffffffffffffffffff169050816000806101000a81548173ffffffffffffffffffffffffffffffffffffffff021916908373ffffffffffffffffffffffffffffffffffffffff1602179055508173ffffffffffffffffffffffffffffffffffffffff168173ffffffffffffffffffffffffffffffffffffffff167f8be0079c531659141344cd1fd0a4f28419497f9722a3daafe3b4186f6b6457e060405160405180910390a35050565b601054600c60009054906101000a900473ffffffffffffffffffffffffffffffffffffffff1673ffffffffffffffffffffffffffffffffffffffff166370a08231846040518263ffffffff1660e01b815260040161243491906132bb565b60206040518083038186803b15801561244c57600080fd5b505afa158015612460573d6000803e3d6000fd5b505050506040513d601f19601f820116820180604052508101906124849190612ba1565b10156124c5576040517f08c379a00000000000000000000000000000000000000000000000000000000081526004016124bc9061355b565b60405180910390fd5b600c60009054906101000a900473ffffffffffffffffffffffffffffffffffffffff1673ffffffffffffffffffffffffffffffffffffffff166323b872dd83856010546040518463ffffffff1660e01b8152600401612526939291906132d6565b602060405180830381600087803b15801561254057600080fd5b505af1158015612554573d6000803e3d6000fd5b505050506040513d601f19601f820116820180604052508101906125789190612b4f565b50600c60009054906101000a900473ffffffffffffffffffffffffffffffffffffffff1673ffffffffffffffffffffffffffffffffffffffff166323b872dd84601360009054906101000a900473ffffffffffffffffffffffffffffffffffffffff166011546040518463ffffffff1660e01b81526004016125fc939291906132d6565b602060405180830381600087803b15801561261657600080fd5b505af115801561262a573d6000803e3d6000fd5b505050506040513d601f19601f8201168201806040525081019061264e9190612b4f565b50600860008373ffffffffffffffffffffffffffffffffffffffff1673ffffffffffffffffffffffffffffffffffffffff168152602001908152602001600020600081548092919061269f9061387c565b9190505550600860008473ffffffffffffffffffffffffffffffffffffffff1673ffffffffffffffffffffffffffffffffffffffff16815260200190815260200160002060008154809291906126f490613820565b9190505550816007600083815260200190815260200160002060006101000a81548173ffffffffffffffffffffffffffffffffffffffff021916908373ffffffffffffffffffffffffffffffffffffffff1602179055508173ffffffffffffffffffffffffffffffffffffffff168373ffffffffffffffffffffffffffffffffffffffff167fddf252ad1be2c89b69c2b068fc378daa952ba7f163c4a11628f55a4df523b3ef836040516127a891906135db565b60405180910390a3505050565b6000600360008154809291906127ca9061387c565b9190505550600042336003546040516020016127e89392919061327e565b6040516020818303038152906040528051906020012060001c90506002548161281191906138f3565b91505090565b60006004600081548092919061282c9061387c565b91905055506000423360045460405160200161284a9392919061327e565b6040516020818303038152906040528051906020012060001c9050600560009054906101000a900460ff1660ff168161288391906138f3565b91505090565b600660405180606001604052808481526020018360ff1681526020016000151581525090806001815401808255809150506001900390600052602060002090600202016000909190919091506000820151816000015560208201518160010160006101000a81548160ff021916908360ff16021790555060408201518160010160016101000a81548160ff0219169083151502179055505050600060016006805490506129369190613752565b9050336007600083815260200190815260200160002060006101000a81548173ffffffffffffffffffffffffffffffffffffffff021916908373ffffffffffffffffffffffffffffffffffffffff160217905550600860003373ffffffffffffffffffffffffffffffffffffffff1673ffffffffffffffffffffffffffffffffffffffff16815260200190815260200160002060008154809291906129da9061387c565b91905055507f6ca85b4ba4ace1b9d8e266c2cb00dcb3314c66609fd525cfab3301b2e306748d818484604051612a1293929190613656565b60405180910390a1505050565b600081359050612a2e816139cf565b92915050565b600081519050612a43816139e6565b92915050565b600081359050612a58816139fd565b92915050565b600081519050612a6d816139fd565b92915050565b600060208284031215612a8557600080fd5b6000612a9384828501612a1f565b91505092915050565b60008060408385031215612aaf57600080fd5b6000612abd85828601612a1f565b9250506020612ace85828601612a49565b9150509250929050565b600080600080600060a08688031215612af057600080fd5b6000612afe88828901612a1f565b9550506020612b0f88828901612a49565b9450506040612b2088828901612a49565b9350506060612b3188828901612a49565b9250506080612b4288828901612a49565b9150509295509295909350565b600060208284031215612b6157600080fd5b6000612b6f84828501612a34565b91505092915050565b600060208284031215612b8a57600080fd5b6000612b9884828501612a49565b91505092915050565b600060208284031215612bb357600080fd5b6000612bc184828501612a5e565b91505092915050565b60008060408385031215612bdd57600080fd5b6000612beb85828601612a49565b9250506020612bfc85828601612a49565b9150509250929050565b6000612c12838361322b565b60208301905092915050565b6000612c2a8383613260565b60208301905092915050565b612c3f81613786565b82525050565b612c56612c5182613786565b6138c5565b82525050565b6000612c67826136e4565b612c71818561371f565b9350612c7c836136c4565b8060005b83811015612cad578151612c948882612c06565b9750612c9f83613705565b925050600181019050612c80565b5085935050505092915050565b6000612cc5826136ef565b612ccf8185613730565b9350612cda836136d4565b8060005b83811015612d0b578151612cf28882612c1e565b9750612cfd83613712565b925050600181019050612cde565b5085935050505092915050565b612d2181613798565b82525050565b612d30816137db565b82525050565b6000612d41826136fa565b612d4b8185613741565b9350612d5b8185602086016137ed565b612d64816139b1565b840191505092915050565b6000612d7c602683613741565b91507f4f776e61626c653a206e6577206f776e657220697320746865207a65726f206160008301527f64647265737300000000000000000000000000000000000000000000000000006020830152604082019050919050565b6000612de2603083613741565b91507f4e6f207469656e652073616c646f20737566696369656e74652070617261207360008301527f75626173746172206c61206361727461000000000000000000000000000000006020830152604082019050919050565b6000612e48601283613741565b91507f4c61206361727461206e6f2065786973746500000000000000000000000000006000830152602082019050919050565b6000612e88603a83613741565b91507f536f6c6f20656c206475656e696f206465206c6120636172746120707565646560008301527f207265616c697a61722065737461207472616e73616363696f6e0000000000006020830152604082019050919050565b6000612eee602683613741565b91507f4e6f207469656e652073616c646f20737566696369656e74652070617261206f60008301527f66657274617200000000000000000000000000000000000000000000000000006020830152604082019050919050565b6000612f54603083613741565b91507f4e6f207469656e652073616c646f20737566696369656e74652070617261207260008301527f65616c697a6172206c61206361727461000000000000000000000000000000006020830152604082019050919050565b6000612fba602083613741565b91507f4f776e61626c653a2063616c6c6572206973206e6f7420746865206f776e65726000830152602082019050919050565b6000612ffa602583613741565b91507f53652064656265206f66657274617220756e612063616e746964616420706f7360008301527f69746976610000000000000000000000000000000000000000000000000000006020830152604082019050919050565b6000613060601e83613741565b91507f4c612063617274612065737461207369656e646f2073756261737461646100006000830152602082019050919050565b60006130a0603883613741565b91507f4e6f207469656e652073616c646f20737566696369656e74652070617261207260008301527f65616c697a6172206c61207472616e73666572656e63696100000000000000006020830152604082019050919050565b6000613106602683613741565b91507f4572726f723a20646972656363696f6e206365726f20737562617374616e646f60008301527f20636172746100000000000000000000000000000000000000000000000000006020830152604082019050919050565b600061316c602383613741565b91507f4572726f723a20646972656363696f6e206365726f20637265616e646f20636160008301527f72746100000000000000000000000000000000000000000000000000000000006020830152604082019050919050565b60006131d2602283613741565b91507f4e6f207365207075646f206f66657274617220656e206573746120737562617360008301527f74610000000000000000000000000000000000000000000000000000000000006020830152604082019050919050565b613234816137c4565b82525050565b613243816137c4565b82525050565b61325a613255826137c4565b6138e9565b82525050565b613269816137ce565b82525050565b613278816137ce565b82525050565b600061328a8286613249565b60208201915061329a8285612c45565b6014820191506132aa8284613249565b602082019150819050949350505050565b60006020820190506132d06000830184612c36565b92915050565b60006060820190506132eb6000830186612c36565b6132f86020830185612c36565b613305604083018461323a565b949350505050565b600060a0820190506133226000830188612c36565b61332f602083018761323a565b61333c604083018661323a565b613349606083018561323a565b613356608083018461323a565b9695505050505050565b6000606082019050818103600083015261337a8186612c5c565b9050818103602083015261338e8185612c5c565b905081810360408301526133a28184612cba565b9050949350505050565b600060408201905081810360008301526133c68185612c5c565b905081810360208301526133da8184612cba565b90509392505050565b60006020820190506133f86000830184612d18565b92915050565b60006020820190506134136000830184612d27565b92915050565b600060208201905081810360008301526134338184612d36565b905092915050565b6000602082019050818103600083015261345481612d6f565b9050919050565b6000602082019050818103600083015261347481612dd5565b9050919050565b6000602082019050818103600083015261349481612e3b565b9050919050565b600060208201905081810360008301526134b481612e7b565b9050919050565b600060208201905081810360008301526134d481612ee1565b9050919050565b600060208201905081810360008301526134f481612f47565b9050919050565b6000602082019050818103600083015261351481612fad565b9050919050565b6000602082019050818103600083015261353481612fed565b9050919050565b6000602082019050818103600083015261355481613053565b9050919050565b6000602082019050818103600083015261357481613093565b9050919050565b60006020820190508181036000830152613594816130f9565b9050919050565b600060208201905081810360008301526135b48161315f565b9050919050565b600060208201905081810360008301526135d4816131c5565b9050919050565b60006020820190506135f0600083018461323a565b92915050565b600060408201905061360b600083018561323a565b6136186020830184612c36565b9392505050565b6000606082019050613634600083018661323a565b613641602083018561323a565b61364e6040830184612c36565b949350505050565b600060608201905061366b600083018661323a565b613678602083018561323a565b613685604083018461326f565b949350505050565b60006060820190506136a2600083018661323a565b6136af602083018561326f565b6136bc6040830184612d18565b949350505050565b6000819050602082019050919050565b6000819050602082019050919050565b600081519050919050565b600081519050919050565b600081519050919050565b6000602082019050919050565b6000602082019050919050565b600082825260208201905092915050565b600082825260208201905092915050565b600082825260208201905092915050565b600061375d826137c4565b9150613768836137c4565b92508282101561377b5761377a613924565b5b828203905092915050565b6000613791826137a4565b9050919050565b60008115159050919050565b600073ffffffffffffffffffffffffffffffffffffffff82169050919050565b6000819050919050565b600060ff82169050919050565b60006137e6826137c4565b9050919050565b60005b8381101561380b5780820151818401526020810190506137f0565b8381111561381a576000848401525b50505050565b600061382b826137c4565b9150600082141561383f5761383e613924565b5b600182039050919050565b6000600282049050600182168061386257607f821691505b6020821081141561387657613875613982565b5b50919050565b6000613887826137c4565b91507fffffffffffffffffffffffffffffffffffffffffffffffffffffffffffffffff8214156138ba576138b9613924565b5b600182019050919050565b60006138d0826138d7565b9050919050565b60006138e2826139c2565b9050919050565b6000819050919050565b60006138fe826137c4565b9150613909836137c4565b92508261391957613918613953565b5b828206905092915050565b7f4e487b7100000000000000000000000000000000000000000000000000000000600052601160045260246000fd5b7f4e487b7100000000000000000000000000000000000000000000000000000000600052601260045260246000fd5b7f4e487b7100000000000000000000000000000000000000000000000000000000600052602260045260246000fd5b6000601f19601f8301169050919050565b60008160601b9050919050565b6139d881613786565b81146139e357600080fd5b50565b6139ef81613798565b81146139fa57600080fd5b50565b613a06816137c4565b8114613a1157600080fd5b5056fea264697066735822122028e387cbdccee5300980363568be4fe30a1c97c024ff9f08b6aec76ceb6dfd7d64736f6c63430008000033",
  "immutableReferences": {},
  "source": "pragma solidity ^0.8.0;\n\nimport \"./CartaHelper.sol\";\nimport \"./erc721.sol\";\n\ninterface OzInterface {\n    function balanceOf(address account) external view returns (uint);\n    function transfer(address recipient, uint amount) external returns (bool);\n    function approve(address spender, uint amount) external returns (bool);\n    function transferFrom(address sender, address recipient, uint amount) external returns (bool);\n}\n\ninterface ISubastaFactory {\n    function crearSubasta(address _duenio, uint _idCarta, uint _incrementoOferta, uint _tiempoInicial, uint _tiempoFinal) external returns(uint);\n    function cancelarSubasta(uint _idSubasta, address _cuenta ) external returns (bool success);\n    function retirarFondos(uint _idSubasta, address _cuenta ) external returns (uint cantidadARetirar);\n    function ofertar(uint _idSubasta, uint _amount , address _cuenta ) external returns (bool success);\n    function getIdCartaEnSubasta(uint _idSubasta) external returns(uint);\n}\n\n/**\n * @title CartaItem\n * @dev Funciones de administracion de cartas como \n * compra de las mismas o transferencia de ownership\n */\ncontract CartaItem is CartaHelper, ERC721, ERC721Metadata {\n    address ozAddress = 0xC3D1131420135b246B155BA17e32ba9f48c4D6A2;\n    OzInterface ozContract = OzInterface(ozAddress);\n\n    address subastaFactoryAddress;\n    ISubastaFactory subastaFactory = ISubastaFactory(subastaFactoryAddress);\n\n    uint costoCarta = 5;\n    uint costoTransferencia = 3;\n    uint comisionTransferencia = 1;\n    uint costoSubastarCarta = 3;\n    address ozAccount = 0x1C53954455A6796723B52021c034964DD9E329dE;\n\n    mapping (uint => address) cartaApprovals;\n\n    constructor() public ERC721Metadata(\"CartaItem\", \"CITM\") {}\n\n    /**\n     * @dev Crea una carta aleatoria\n     * @return id de la carta creada\n     */\n    function crearCartaAleatoria() public returns (uint256) {\n        require(msg.sender != address(0), \"Error: direccion cero creando carta\");\n        require(ozContract.balanceOf(msg.sender) >= costoCarta, \"No tiene saldo suficiente para realizar la carta\");\n        ozContract.transferFrom(msg.sender, ozAccount, costoCarta);\n        uint256 descripcionAleatoria = _crearDescripcionAleatoria();\n        uint8 tipoAleatorio = _crearTipoAleatorio();\n        _crearCarta(descripcionAleatoria, tipoAleatorio);\n        emit Transfer(address(0), msg.sender, 1);\n        return cartas.length - 1;\n    }\n\n    // Funciones subasta\n\n    /**\n     * @dev Se subasta una carta\n     * @return id de la subasta\n     */\n    function subastarCarta(address _duenio, uint _idCarta, uint _incrementoOferta, uint _tiempoInicial, uint _tiempoFinal) public\n    soloDuenioDe(_idCarta) cartaNoEnSubasta(_idCarta) cartaExiste(_idCarta) returns (uint) {\n        require(msg.sender != address(0), \"Error: direccion cero subastando carta\");\n        require(ozContract.balanceOf(msg.sender) >= costoSubastarCarta, \"No tiene saldo suficiente para subastar la carta\");\n        uint idSubasta = subastaFactory.crearSubasta(_duenio, _idCarta, _incrementoOferta, _tiempoInicial, _tiempoFinal);\n        ozContract.transferFrom(msg.sender, ozAccount, costoSubastarCarta);\n        Carta storage carta = cartas[_idCarta];\n        carta.enSubasta = true;\n        return idSubasta;\n    }\n\n    function ofertarCarta(uint _idSubasta, uint _amount) public returns(bool) {\n        require(_amount == 0, \"Se debe ofertar una cantidad positiva\");\n        require(ozContract.balanceOf(msg.sender) >= _amount, \"No tiene saldo suficiente para ofertar\");\n        require( subastaFactory.ofertar(_idSubasta, _amount, msg.sender), \"No se pudo ofertar en esta subasta\");\n        ozContract.transferFrom(msg.sender, ozAccount, _amount);\n        return true;\n    }\n\n    function retirarFondos(uint _idSubasta) public returns(bool) {\n        uint cantidadARetirar = subastaFactory.retirarFondos(_idSubasta, msg.sender);\n        ozContract.transferFrom(ozAccount,msg.sender, cantidadARetirar);\n        return true;\n    }\n\n    function cancelarSubasta(uint _idSubasta) public returns(bool) {\n        bool cancelarSubasta = subastaFactory.cancelarSubasta(_idSubasta, msg.sender );\n        uint _idCarta = subastaFactory.getIdCartaEnSubasta(_idSubasta);\n        Carta storage carta = cartas[_idCarta];\n        carta.enSubasta = cancelarSubasta;\n        return cancelarSubasta;\n    }\n\n    // Implementacion ERC721\n\n    function balanceOf(address _owner) public view override returns(uint256 _balance) {\n        return personaCantidadCartas[_owner];\n    }\n\n    function ownerOf(uint256 _tokenId) public view override returns(address _owner) {\n        return cartaAPersona[_tokenId];\n    }\n\n    /**\n     * @dev Se transfiere una carta determinada\n     * @param _from dueo actua de la carta, quien recibe OZT a cambio de la carta\n     * @param _to quien paga la transferencia y quiere obtener la carta\n     * @param _tokenId el id de la carta a transferir\n     */\n    function _transfer(address _from, address _to, uint256 _tokenId) private {\n        require(ozContract.balanceOf(_to) >= costoTransferencia, \"No tiene saldo suficiente para realizar la transferencia\");\n        ozContract.transferFrom(_to, _from, costoTransferencia);\n        ozContract.transferFrom(_from, ozAccount, comisionTransferencia); // Comision\n        \n        personaCantidadCartas[_to]++;\n        personaCantidadCartas[_from]--;\n        cartaAPersona[_tokenId] = _to;\n        Transfer(_from, _to, _tokenId);\n    }\n\n    function transfer(address _to, uint256 _tokenId) public override soloDuenioDe(_tokenId) {\n        _transfer(msg.sender, _to, _tokenId);\n    }\n\n    function approve(address _to, uint256 _tokenId) public override soloDuenioDe(_tokenId) {\n        cartaApprovals[_tokenId] = _to;\n        Approval(msg.sender, _to, _tokenId);\n    }\n\n    function takeOwnership(uint256 _tokenId) public override {\n        require(cartaApprovals[_tokenId] == msg.sender);\n        address owner = ownerOf(_tokenId);\n        _transfer(owner, msg.sender, _tokenId);\n    }\n\n    // Funciones OzToken\n\n    function balanceOzToken() external view returns (uint) {\n        return ozContract.balanceOf(msg.sender);\n    }\n\n    // Uso de contratos externos\n\n    /**\n     * @dev Para cambiar la direccion del contrato OzToken\n     */\n    function setOzTokenAddress(address _ozTokenAddress) public onlyOwner {\n        ozAddress = _ozTokenAddress;\n        ozContract = OzInterface(ozAddress);\n    }\n\n    /**\n     * @dev Para cambiar la direccion del contrato de subasta factory\n     */\n    function setSubastaFactoryAddress(address _subastaFactoryAddress) public onlyOwner {\n        subastaFactoryAddress = _subastaFactoryAddress;\n        subastaFactory = ISubastaFactory(subastaFactoryAddress);\n    }\n\n    // Cuenta de destino de fondos\n\n    /**\n     * @dev Se setea la cuenta a la cual se le va a depositar el pago     \n     */\n    function setOzAccountAddress(address _ozAccountAddress) public onlyOwner {\n        ozAccount = _ozAccountAddress;\n    }\n}",
  "sourcePath": "/Users/filyankaragoz/Desktop/teoria-del-lenguaje/truffle-project/contracts/CartaItem.sol",
  "compiler": {
    "name": "solc",
    "version": "0.8.0+commit.c7dfd78e.Emscripten.clang"
  },
  "schemaVersion": "3.4.1",
  "updatedAt": "2021-07-14T01:21:05.021Z",
  "networkType": "ethereum",
  "devdoc": {
    "details": "Funciones de administracion de cartas como  compra de las mismas o transferencia de ownership",
    "kind": "dev",
    "methods": {
      "crearCartaAleatoria()": {
        "details": "Crea una carta aleatoria",
        "returns": {
          "_0": "id de la carta creada"
        }
      },
      "owner()": {
        "details": "Returns the address of the current owner."
      },
      "renounceOwnership()": {
        "details": "Leaves the contract without owner. It will not be possible to call `onlyOwner` functions anymore. Can only be called by the current owner. NOTE: Renouncing ownership will leave the contract without an owner, thereby removing any functionality that is only available to the owner."
      },
      "setOzAccountAddress(address)": {
        "details": "Se setea la cuenta a la cual se le va a depositar el pago     "
      },
      "setOzTokenAddress(address)": {
        "details": "Para cambiar la direccion del contrato OzToken"
      },
      "setSubastaFactoryAddress(address)": {
        "details": "Para cambiar la direccion del contrato de subasta factory"
      },
      "subastarCarta(address,uint256,uint256,uint256,uint256)": {
        "details": "Se subasta una carta",
        "returns": {
          "_0": "id de la subasta"
        }
      },
      "transferOwnership(address)": {
        "details": "Transfers ownership of the contract to a new account (`newOwner`). Can only be called by the current owner."
      }
    },
    "title": "CartaItem",
    "version": 1
  },
  "userdoc": {
    "kind": "user",
    "methods": {
      "getCartas()": {
        "notice": "Para obtener todas las cartas"
      },
      "getCartasDe(address)": {
        "notice": "Para obtener todas las cartas correspondientes a un address"
      }
    },
    "version": 1
  }
}