{
  "contractName": "CartaItem",
  "abi": [
    {
      "inputs": [],
      "stateMutability": "nonpayable",
      "type": "constructor"
    },
    {
      "anonymous": false,
      "inputs": [
        {
          "indexed": true,
          "internalType": "address",
          "name": "_owner",
          "type": "address"
        },
        {
          "indexed": true,
          "internalType": "address",
          "name": "_approved",
          "type": "address"
        },
        {
          "indexed": false,
          "internalType": "uint256",
          "name": "_tokenId",
          "type": "uint256"
        }
      ],
      "name": "Approval",
      "type": "event"
    },
    {
      "anonymous": false,
      "inputs": [
        {
          "indexed": false,
          "internalType": "uint256",
          "name": "cartaId",
          "type": "uint256"
        },
        {
          "indexed": false,
          "internalType": "uint256",
          "name": "descripcion",
          "type": "uint256"
        },
        {
          "indexed": false,
          "internalType": "uint8",
          "name": "tipo",
          "type": "uint8"
        }
      ],
      "name": "NuevaCarta",
      "type": "event"
    },
    {
      "anonymous": false,
      "inputs": [
        {
          "indexed": true,
          "internalType": "address",
          "name": "previousOwner",
          "type": "address"
        },
        {
          "indexed": true,
          "internalType": "address",
          "name": "newOwner",
          "type": "address"
        }
      ],
      "name": "OwnershipTransferred",
      "type": "event"
    },
    {
      "anonymous": false,
      "inputs": [
        {
          "indexed": true,
          "internalType": "address",
          "name": "_from",
          "type": "address"
        },
        {
          "indexed": true,
          "internalType": "address",
          "name": "_to",
          "type": "address"
        },
        {
          "indexed": false,
          "internalType": "uint256",
          "name": "_tokenId",
          "type": "uint256"
        }
      ],
      "name": "Transfer",
      "type": "event"
    },
    {
      "inputs": [
        {
          "internalType": "uint256",
          "name": "",
          "type": "uint256"
        }
      ],
      "name": "cartaAPersona",
      "outputs": [
        {
          "internalType": "address",
          "name": "",
          "type": "address"
        }
      ],
      "stateMutability": "view",
      "type": "function",
      "constant": true
    },
    {
      "inputs": [
        {
          "internalType": "uint256",
          "name": "",
          "type": "uint256"
        }
      ],
      "name": "cartas",
      "outputs": [
        {
          "internalType": "uint256",
          "name": "descripcion",
          "type": "uint256"
        },
        {
          "internalType": "uint8",
          "name": "tipo",
          "type": "uint8"
        }
      ],
      "stateMutability": "view",
      "type": "function",
      "constant": true
    },
    {
      "inputs": [],
      "name": "getCartas",
      "outputs": [
        {
          "internalType": "uint256[]",
          "name": "",
          "type": "uint256[]"
        },
        {
          "internalType": "uint8[]",
          "name": "",
          "type": "uint8[]"
        }
      ],
      "stateMutability": "view",
      "type": "function",
      "constant": true
    },
    {
      "inputs": [
        {
          "internalType": "address",
          "name": "_owner",
          "type": "address"
        }
      ],
      "name": "getCartasDe",
      "outputs": [
        {
          "internalType": "uint256[]",
          "name": "",
          "type": "uint256[]"
        },
        {
          "internalType": "uint256[]",
          "name": "",
          "type": "uint256[]"
        },
        {
          "internalType": "uint8[]",
          "name": "",
          "type": "uint8[]"
        }
      ],
      "stateMutability": "view",
      "type": "function",
      "constant": true
    },
    {
      "inputs": [],
      "name": "name",
      "outputs": [
        {
          "internalType": "string",
          "name": "",
          "type": "string"
        }
      ],
      "stateMutability": "view",
      "type": "function",
      "constant": true
    },
    {
      "inputs": [],
      "name": "owner",
      "outputs": [
        {
          "internalType": "address",
          "name": "",
          "type": "address"
        }
      ],
      "stateMutability": "view",
      "type": "function",
      "constant": true
    },
    {
      "inputs": [],
      "name": "renounceOwnership",
      "outputs": [],
      "stateMutability": "nonpayable",
      "type": "function"
    },
    {
      "inputs": [],
      "name": "symbol",
      "outputs": [
        {
          "internalType": "string",
          "name": "",
          "type": "string"
        }
      ],
      "stateMutability": "view",
      "type": "function",
      "constant": true
    },
    {
      "inputs": [
        {
          "internalType": "address",
          "name": "newOwner",
          "type": "address"
        }
      ],
      "name": "transferOwnership",
      "outputs": [],
      "stateMutability": "nonpayable",
      "type": "function"
    },
    {
      "inputs": [],
      "name": "crearCartaAleatoria",
      "outputs": [
        {
          "internalType": "uint256",
          "name": "",
          "type": "uint256"
        }
      ],
      "stateMutability": "nonpayable",
      "type": "function"
    },
    {
      "inputs": [
        {
          "internalType": "address",
          "name": "_owner",
          "type": "address"
        }
      ],
      "name": "balanceOf",
      "outputs": [
        {
          "internalType": "uint256",
          "name": "_balance",
          "type": "uint256"
        }
      ],
      "stateMutability": "view",
      "type": "function",
      "constant": true
    },
    {
      "inputs": [
        {
          "internalType": "uint256",
          "name": "_tokenId",
          "type": "uint256"
        }
      ],
      "name": "ownerOf",
      "outputs": [
        {
          "internalType": "address",
          "name": "_owner",
          "type": "address"
        }
      ],
      "stateMutability": "view",
      "type": "function",
      "constant": true
    },
    {
      "inputs": [
        {
          "internalType": "address",
          "name": "_to",
          "type": "address"
        },
        {
          "internalType": "uint256",
          "name": "_tokenId",
          "type": "uint256"
        }
      ],
      "name": "transfer",
      "outputs": [],
      "stateMutability": "nonpayable",
      "type": "function"
    },
    {
      "inputs": [
        {
          "internalType": "address",
          "name": "_to",
          "type": "address"
        },
        {
          "internalType": "uint256",
          "name": "_tokenId",
          "type": "uint256"
        }
      ],
      "name": "approve",
      "outputs": [],
      "stateMutability": "nonpayable",
      "type": "function"
    },
    {
      "inputs": [
        {
          "internalType": "uint256",
          "name": "_tokenId",
          "type": "uint256"
        }
      ],
      "name": "takeOwnership",
      "outputs": [],
      "stateMutability": "nonpayable",
      "type": "function"
    },
    {
      "inputs": [],
      "name": "balanceOzToken",
      "outputs": [
        {
          "internalType": "uint256",
          "name": "",
          "type": "uint256"
        }
      ],
      "stateMutability": "view",
      "type": "function",
      "constant": true
    },
    {
      "inputs": [
        {
          "internalType": "address",
          "name": "_ozTokenAddress",
          "type": "address"
        }
      ],
      "name": "setOzTokenAddress",
      "outputs": [],
      "stateMutability": "nonpayable",
      "type": "function"
    },
    {
      "inputs": [
        {
          "internalType": "address",
          "name": "_ozAccountAddress",
          "type": "address"
        }
      ],
      "name": "setOzAccountAddress",
      "outputs": [],
      "stateMutability": "nonpayable",
      "type": "function"
    }
  ],
  "bytecode": "0x60806040526010600155600154600a6200001a9190620003d6565b600255600060035560006004556003600560006101000a81548160ff021916908360ff16021790555073c3d1131420135b246b155ba17e32ba9f48c4d6a2600b60006101000a81548173ffffffffffffffffffffffffffffffffffffffff021916908373ffffffffffffffffffffffffffffffffffffffff160217905550600b60009054906101000a900473ffffffffffffffffffffffffffffffffffffffff16600c60006101000a81548173ffffffffffffffffffffffffffffffffffffffff021916908373ffffffffffffffffffffffffffffffffffffffff1602179055506005600d556003600e556001600f55731c53954455a6796723b52021c034964dd9e329de601060006101000a81548173ffffffffffffffffffffffffffffffffffffffff021916908373ffffffffffffffffffffffffffffffffffffffff1602179055503480156200016c57600080fd5b506040518060400160405280600981526020017f43617274614974656d00000000000000000000000000000000000000000000008152506040518060400160405280600481526020017f4349544d000000000000000000000000000000000000000000000000000000008152506000620001eb620002c360201b60201c565b9050806000806101000a81548173ffffffffffffffffffffffffffffffffffffffff021916908373ffffffffffffffffffffffffffffffffffffffff1602179055508073ffffffffffffffffffffffffffffffffffffffff16600073ffffffffffffffffffffffffffffffffffffffff167f8be0079c531659141344cd1fd0a4f28419497f9722a3daafe3b4186f6b6457e060405160405180910390a3508160099080519060200190620002a1929190620002cb565b5080600a9080519060200190620002ba929190620002cb565b505050620005be565b600033905090565b828054620002d9906200051d565b90600052602060002090601f016020900481019282620002fd576000855562000349565b82601f106200031857805160ff191683800117855562000349565b8280016001018555821562000349579182015b82811115620003485782518255916020019190600101906200032b565b5b5090506200035891906200035c565b5090565b5b80821115620003775760008160009055506001016200035d565b5090565b6000808291508390505b6001851115620003cd57808604811115620003a557620003a462000553565b5b6001851615620003b55780820291505b8081029050620003c585620005b1565b945062000385565b94509492505050565b6000620003e38262000513565b9150620003f08362000513565b92506200041f7fffffffffffffffffffffffffffffffffffffffffffffffffffffffffffffffff848462000427565b905092915050565b6000826200043957600190506200050c565b816200044957600090506200050c565b81600181146200046257600281146200046d57620004a3565b60019150506200050c565b60ff84111562000482576200048162000553565b5b8360020a9150848211156200049c576200049b62000553565b5b506200050c565b5060208310610133831016604e8410600b8410161715620004dd5782820a905083811115620004d757620004d662000553565b5b6200050c565b620004ec84848460016200037b565b9250905081840481111562000506576200050562000553565b5b81810290505b9392505050565b6000819050919050565b600060028204905060018216806200053657607f821691505b602082108114156200054d576200054c62000582565b5b50919050565b7f4e487b7100000000000000000000000000000000000000000000000000000000600052601160045260246000fd5b7f4e487b7100000000000000000000000000000000000000000000000000000000600052602260045260246000fd5b60008160011c9050919050565b61268b80620005ce6000396000f3fe608060405234801561001057600080fd5b50600436106101165760003560e01c80637e5f9591116100a2578063b2e6ceeb11610071578063b2e6ceeb146102e4578063bc24b16a14610300578063c1bf40591461031e578063c2fcde891461033a578063f2fde38b1461035957610116565b80637e5f95911461026e5780638da5cb5b1461028c57806395d89b41146102aa578063a9059cbb146102c857610116565b806358a8788f116100e957806358a8788f146101b75780635b102ab8146101d35780636352211e1461020457806370a0823114610234578063715018a61461026457610116565b806306fdde031461011b578063095ea7b3146101395780634a358c1e14610155578063582ddb3814610187575b600080fd5b610123610375565b60405161013091906121da565b60405180910390f35b610153600480360381019061014e9190611c9b565b610407565b005b61016f600480360381019061016a9190611c72565b610565565b60405161017e93929190612157565b60405180910390f35b6101a1600480360381019061019c9190611d00565b610934565b6040516101ae9190612105565b60405180910390f35b6101d160048036038101906101cc9190611c72565b610967565b005b6101ed60048036038101906101e89190611d00565b610a8a565b6040516101fb9291906122ee565b60405180910390f35b61021e60048036038101906102199190611d00565b610acb565b60405161022b9190612105565b60405180910390f35b61024e60048036038101906102499190611c72565b610b08565b60405161025b919061229c565b60405180910390f35b61026c610b51565b005b610276610c8b565b604051610283919061229c565b60405180910390f35b610294610d3d565b6040516102a19190612105565b60405180910390f35b6102b2610d66565b6040516102bf91906121da565b60405180910390f35b6102e260048036038101906102dd9190611c9b565b610df8565b005b6102fe60048036038101906102f99190611d00565b610eaa565b005b610308610f31565b604051610315919061229c565b60405180910390f35b61033860048036038101906103339190611c72565b611133565b005b6103426111f3565b6040516103509291906121a3565b60405180910390f35b610373600480360381019061036e9190611c72565b61144d565b005b6060600980546103849061248b565b80601f01602080910402602001604051908101604052809291908181526020018280546103b09061248b565b80156103fd5780601f106103d2576101008083540402835291602001916103fd565b820191906000526020600020905b8154815290600101906020018083116103e057829003601f168201915b5050505050905090565b806007600082815260200190815260200160002060009054906101000a900473ffffffffffffffffffffffffffffffffffffffff1673ffffffffffffffffffffffffffffffffffffffff163373ffffffffffffffffffffffffffffffffffffffff16146104a9576040517f08c379a00000000000000000000000000000000000000000000000000000000081526004016104a09061221c565b60405180910390fd5b826011600084815260200190815260200160002060006101000a81548173ffffffffffffffffffffffffffffffffffffffff021916908373ffffffffffffffffffffffffffffffffffffffff1602179055508273ffffffffffffffffffffffffffffffffffffffff163373ffffffffffffffffffffffffffffffffffffffff167f8c5be1e5ebec7d5bd14f71427d1e84f3dd0314c0f7b2291e5b200ac8c7c3b92584604051610558919061229c565b60405180910390a3505050565b60608060606000600860008673ffffffffffffffffffffffffffffffffffffffff1673ffffffffffffffffffffffffffffffffffffffff16815260200190815260200160002054905060008167ffffffffffffffff8111156105f0577f4e487b7100000000000000000000000000000000000000000000000000000000600052604160045260246000fd5b60405190808252806020026020018201604052801561061e5781602001602082028036833780820191505090505b50905060008267ffffffffffffffff811115610663577f4e487b7100000000000000000000000000000000000000000000000000000000600052604160045260246000fd5b6040519080825280602002602001820160405280156106915781602001602082028036833780820191505090505b50905060008367ffffffffffffffff8111156106d6577f4e487b7100000000000000000000000000000000000000000000000000000000600052604160045260246000fd5b6040519080825280602002602001820160405280156107045781602001602082028036833780820191505090505b5090506000805b60068054905081101561091e578973ffffffffffffffffffffffffffffffffffffffff166007600083815260200190815260200160002060009054906101000a900473ffffffffffffffffffffffffffffffffffffffff1673ffffffffffffffffffffffffffffffffffffffff16141561090b57808583815181106107b9577f4e487b7100000000000000000000000000000000000000000000000000000000600052603260045260246000fd5b602002602001018181525050600681815481106107ff577f4e487b7100000000000000000000000000000000000000000000000000000000600052603260045260246000fd5b90600052602060002090600202016000015484838151811061084a577f4e487b7100000000000000000000000000000000000000000000000000000000600052603260045260246000fd5b60200260200101818152505060068181548110610890577f4e487b7100000000000000000000000000000000000000000000000000000000600052603260045260246000fd5b906000526020600020906002020160010160009054906101000a900460ff168383815181106108e8577f4e487b7100000000000000000000000000000000000000000000000000000000600052603260045260246000fd5b602002602001019060ff16908160ff16815250508180610907906124bd565b9250505b8080610916906124bd565b91505061070b565b5083838397509750975050505050509193909250565b60076020528060005260406000206000915054906101000a900473ffffffffffffffffffffffffffffffffffffffff1681565b61096f6115f6565b73ffffffffffffffffffffffffffffffffffffffff1661098d610d3d565b73ffffffffffffffffffffffffffffffffffffffff16146109e3576040517f08c379a00000000000000000000000000000000000000000000000000000000081526004016109da9061225c565b60405180910390fd5b80600b60006101000a81548173ffffffffffffffffffffffffffffffffffffffff021916908373ffffffffffffffffffffffffffffffffffffffff160217905550600b60009054906101000a900473ffffffffffffffffffffffffffffffffffffffff16600c60006101000a81548173ffffffffffffffffffffffffffffffffffffffff021916908373ffffffffffffffffffffffffffffffffffffffff16021790555050565b60068181548110610a9a57600080fd5b90600052602060002090600202016000915090508060000154908060010160009054906101000a900460ff16905082565b60006007600083815260200190815260200160002060009054906101000a900473ffffffffffffffffffffffffffffffffffffffff169050919050565b6000600860008373ffffffffffffffffffffffffffffffffffffffff1673ffffffffffffffffffffffffffffffffffffffff168152602001908152602001600020549050919050565b610b596115f6565b73ffffffffffffffffffffffffffffffffffffffff16610b77610d3d565b73ffffffffffffffffffffffffffffffffffffffff1614610bcd576040517f08c379a0000000000000000000000000000000000000000000000000000000008152600401610bc49061225c565b60405180910390fd5b600073ffffffffffffffffffffffffffffffffffffffff1660008054906101000a900473ffffffffffffffffffffffffffffffffffffffff1673ffffffffffffffffffffffffffffffffffffffff167f8be0079c531659141344cd1fd0a4f28419497f9722a3daafe3b4186f6b6457e060405160405180910390a360008060006101000a81548173ffffffffffffffffffffffffffffffffffffffff021916908373ffffffffffffffffffffffffffffffffffffffff160217905550565b6000600c60009054906101000a900473ffffffffffffffffffffffffffffffffffffffff1673ffffffffffffffffffffffffffffffffffffffff166370a08231336040518263ffffffff1660e01b8152600401610ce89190612105565b60206040518083038186803b158015610d0057600080fd5b505afa158015610d14573d6000803e3d6000fd5b505050506040513d601f19601f82011682018060405250810190610d389190611d29565b905090565b60008060009054906101000a900473ffffffffffffffffffffffffffffffffffffffff16905090565b6060600a8054610d759061248b565b80601f0160208091040260200160405190810160405280929190818152602001828054610da19061248b565b8015610dee5780601f10610dc357610100808354040283529160200191610dee565b820191906000526020600020905b815481529060010190602001808311610dd157829003601f168201915b5050505050905090565b806007600082815260200190815260200160002060009054906101000a900473ffffffffffffffffffffffffffffffffffffffff1673ffffffffffffffffffffffffffffffffffffffff163373ffffffffffffffffffffffffffffffffffffffff1614610e9a576040517f08c379a0000000000000000000000000000000000000000000000000000000008152600401610e919061221c565b60405180910390fd5b610ea53384846115fe565b505050565b3373ffffffffffffffffffffffffffffffffffffffff166011600083815260200190815260200160002060009054906101000a900473ffffffffffffffffffffffffffffffffffffffff1673ffffffffffffffffffffffffffffffffffffffff1614610f1557600080fd5b6000610f2082610acb565b9050610f2d8133846115fe565b5050565b6000600d54600c60009054906101000a900473ffffffffffffffffffffffffffffffffffffffff1673ffffffffffffffffffffffffffffffffffffffff166370a08231336040518263ffffffff1660e01b8152600401610f919190612105565b60206040518083038186803b158015610fa957600080fd5b505afa158015610fbd573d6000803e3d6000fd5b505050506040513d601f19601f82011682018060405250810190610fe19190611d29565b1015611022576040517f08c379a00000000000000000000000000000000000000000000000000000000081526004016110199061223c565b60405180910390fd5b600c60009054906101000a900473ffffffffffffffffffffffffffffffffffffffff1673ffffffffffffffffffffffffffffffffffffffff166323b872dd33601060009054906101000a900473ffffffffffffffffffffffffffffffffffffffff16600d546040518463ffffffff1660e01b81526004016110a593929190612120565b602060405180830381600087803b1580156110bf57600080fd5b505af11580156110d3573d6000803e3d6000fd5b505050506040513d601f19601f820116820180604052508101906110f79190611cd7565b5060006111026119dd565b9050600061110e611a3f565b905061111a8282611ab1565b600160068054905061112c91906123a5565b9250505090565b61113b6115f6565b73ffffffffffffffffffffffffffffffffffffffff16611159610d3d565b73ffffffffffffffffffffffffffffffffffffffff16146111af576040517f08c379a00000000000000000000000000000000000000000000000000000000081526004016111a69061225c565b60405180910390fd5b80601060006101000a81548173ffffffffffffffffffffffffffffffffffffffff021916908373ffffffffffffffffffffffffffffffffffffffff16021790555050565b606080600060068054905067ffffffffffffffff81111561123d577f4e487b7100000000000000000000000000000000000000000000000000000000600052604160045260246000fd5b60405190808252806020026020018201604052801561126b5781602001602082028036833780820191505090505b509050600060068054905067ffffffffffffffff8111156112b5577f4e487b7100000000000000000000000000000000000000000000000000000000600052604160045260246000fd5b6040519080825280602002602001820160405280156112e35781602001602082028036833780820191505090505b50905060005b6006805490508110156114405760068181548110611330577f4e487b7100000000000000000000000000000000000000000000000000000000600052603260045260246000fd5b90600052602060002090600202016000015483828151811061137b577f4e487b7100000000000000000000000000000000000000000000000000000000600052603260045260246000fd5b602002602001018181525050600681815481106113c1577f4e487b7100000000000000000000000000000000000000000000000000000000600052603260045260246000fd5b906000526020600020906002020160010160009054906101000a900460ff16828281518110611419577f4e487b7100000000000000000000000000000000000000000000000000000000600052603260045260246000fd5b602002602001019060ff16908160ff16815250508080611438906124bd565b9150506112e9565b5081819350935050509091565b6114556115f6565b73ffffffffffffffffffffffffffffffffffffffff16611473610d3d565b73ffffffffffffffffffffffffffffffffffffffff16146114c9576040517f08c379a00000000000000000000000000000000000000000000000000000000081526004016114c09061225c565b60405180910390fd5b600073ffffffffffffffffffffffffffffffffffffffff168173ffffffffffffffffffffffffffffffffffffffff161415611539576040517f08c379a0000000000000000000000000000000000000000000000000000000008152600401611530906121fc565b60405180910390fd5b8073ffffffffffffffffffffffffffffffffffffffff1660008054906101000a900473ffffffffffffffffffffffffffffffffffffffff1673ffffffffffffffffffffffffffffffffffffffff167f8be0079c531659141344cd1fd0a4f28419497f9722a3daafe3b4186f6b6457e060405160405180910390a3806000806101000a81548173ffffffffffffffffffffffffffffffffffffffff021916908373ffffffffffffffffffffffffffffffffffffffff16021790555050565b600033905090565b600e54600c60009054906101000a900473ffffffffffffffffffffffffffffffffffffffff1673ffffffffffffffffffffffffffffffffffffffff166370a08231846040518263ffffffff1660e01b815260040161165c9190612105565b60206040518083038186803b15801561167457600080fd5b505afa158015611688573d6000803e3d6000fd5b505050506040513d601f19601f820116820180604052508101906116ac9190611d29565b10156116ed576040517f08c379a00000000000000000000000000000000000000000000000000000000081526004016116e49061227c565b60405180910390fd5b600c60009054906101000a900473ffffffffffffffffffffffffffffffffffffffff1673ffffffffffffffffffffffffffffffffffffffff166323b872dd8385600e546040518463ffffffff1660e01b815260040161174e93929190612120565b602060405180830381600087803b15801561176857600080fd5b505af115801561177c573d6000803e3d6000fd5b505050506040513d601f19601f820116820180604052508101906117a09190611cd7565b50600c60009054906101000a900473ffffffffffffffffffffffffffffffffffffffff1673ffffffffffffffffffffffffffffffffffffffff166323b872dd84601060009054906101000a900473ffffffffffffffffffffffffffffffffffffffff16600f546040518463ffffffff1660e01b815260040161182493929190612120565b602060405180830381600087803b15801561183e57600080fd5b505af1158015611852573d6000803e3d6000fd5b505050506040513d601f19601f820116820180604052508101906118769190611cd7565b50600860008373ffffffffffffffffffffffffffffffffffffffff1673ffffffffffffffffffffffffffffffffffffffff16815260200190815260200160002060008154809291906118c7906124bd565b9190505550600860008473ffffffffffffffffffffffffffffffffffffffff1673ffffffffffffffffffffffffffffffffffffffff168152602001908152602001600020600081548092919061191c90612461565b9190505550816007600083815260200190815260200160002060006101000a81548173ffffffffffffffffffffffffffffffffffffffff021916908373ffffffffffffffffffffffffffffffffffffffff1602179055508173ffffffffffffffffffffffffffffffffffffffff168373ffffffffffffffffffffffffffffffffffffffff167fddf252ad1be2c89b69c2b068fc378daa952ba7f163c4a11628f55a4df523b3ef836040516119d0919061229c565b60405180910390a3505050565b6000600360008154809291906119f2906124bd565b919050555060004233600354604051602001611a10939291906120c8565b6040516020818303038152906040528051906020012060001c905060025481611a399190612534565b91505090565b600060046000815480929190611a54906124bd565b919050555060004233600454604051602001611a72939291906120c8565b6040516020818303038152906040528051906020012060001c9050600560009054906101000a900460ff1660ff1681611aab9190612534565b91505090565b600660405180604001604052808481526020018360ff1681525090806001815401808255809150506001900390600052602060002090600202016000909190919091506000820151816000015560208201518160010160006101000a81548160ff021916908360ff160217905550505060006001600680549050611b3591906123a5565b9050336007600083815260200190815260200160002060006101000a81548173ffffffffffffffffffffffffffffffffffffffff021916908373ffffffffffffffffffffffffffffffffffffffff160217905550600860003373ffffffffffffffffffffffffffffffffffffffff1673ffffffffffffffffffffffffffffffffffffffff1681526020019081526020016000206000815480929190611bd9906124bd565b91905055507f6ca85b4ba4ace1b9d8e266c2cb00dcb3314c66609fd525cfab3301b2e306748d818484604051611c11939291906122b7565b60405180910390a1505050565b600081359050611c2d81612610565b92915050565b600081519050611c4281612627565b92915050565b600081359050611c578161263e565b92915050565b600081519050611c6c8161263e565b92915050565b600060208284031215611c8457600080fd5b6000611c9284828501611c1e565b91505092915050565b60008060408385031215611cae57600080fd5b6000611cbc85828601611c1e565b9250506020611ccd85828601611c48565b9150509250929050565b600060208284031215611ce957600080fd5b6000611cf784828501611c33565b91505092915050565b600060208284031215611d1257600080fd5b6000611d2084828501611c48565b91505092915050565b600060208284031215611d3b57600080fd5b6000611d4984828501611c5d565b91505092915050565b6000611d5e8383612075565b60208301905092915050565b6000611d7683836120aa565b60208301905092915050565b611d8b816123d9565b82525050565b611da2611d9d826123d9565b612506565b82525050565b6000611db382612337565b611dbd8185612372565b9350611dc883612317565b8060005b83811015611df9578151611de08882611d52565b9750611deb83612358565b925050600181019050611dcc565b5085935050505092915050565b6000611e1182612342565b611e1b8185612383565b9350611e2683612327565b8060005b83811015611e57578151611e3e8882611d6a565b9750611e4983612365565b925050600181019050611e2a565b5085935050505092915050565b6000611e6f8261234d565b611e798185612394565b9350611e8981856020860161242e565b611e92816125f2565b840191505092915050565b6000611eaa602683612394565b91507f4f776e61626c653a206e6577206f776e657220697320746865207a65726f206160008301527f64647265737300000000000000000000000000000000000000000000000000006020830152604082019050919050565b6000611f10603a83612394565b91507f536f6c6f20656c206475656e696f206465206c6120636172746120707565646560008301527f207265616c697a61722065737461207472616e73616363696f6e0000000000006020830152604082019050919050565b6000611f76603083612394565b91507f4e6f207469656e652073616c646f20737566696369656e74652070617261207260008301527f65616c697a6172206c61206361727461000000000000000000000000000000006020830152604082019050919050565b6000611fdc602083612394565b91507f4f776e61626c653a2063616c6c6572206973206e6f7420746865206f776e65726000830152602082019050919050565b600061201c603883612394565b91507f4e6f207469656e652073616c646f20737566696369656e74652070617261207260008301527f65616c697a6172206c61207472616e73666572656e63696100000000000000006020830152604082019050919050565b61207e81612417565b82525050565b61208d81612417565b82525050565b6120a461209f82612417565b61252a565b82525050565b6120b381612421565b82525050565b6120c281612421565b82525050565b60006120d48286612093565b6020820191506120e48285611d91565b6014820191506120f48284612093565b602082019150819050949350505050565b600060208201905061211a6000830184611d82565b92915050565b60006060820190506121356000830186611d82565b6121426020830185611d82565b61214f6040830184612084565b949350505050565b600060608201905081810360008301526121718186611da8565b905081810360208301526121858185611da8565b905081810360408301526121998184611e06565b9050949350505050565b600060408201905081810360008301526121bd8185611da8565b905081810360208301526121d18184611e06565b90509392505050565b600060208201905081810360008301526121f48184611e64565b905092915050565b6000602082019050818103600083015261221581611e9d565b9050919050565b6000602082019050818103600083015261223581611f03565b9050919050565b6000602082019050818103600083015261225581611f69565b9050919050565b6000602082019050818103600083015261227581611fcf565b9050919050565b600060208201905081810360008301526122958161200f565b9050919050565b60006020820190506122b16000830184612084565b92915050565b60006060820190506122cc6000830186612084565b6122d96020830185612084565b6122e660408301846120b9565b949350505050565b60006040820190506123036000830185612084565b61231060208301846120b9565b9392505050565b6000819050602082019050919050565b6000819050602082019050919050565b600081519050919050565b600081519050919050565b600081519050919050565b6000602082019050919050565b6000602082019050919050565b600082825260208201905092915050565b600082825260208201905092915050565b600082825260208201905092915050565b60006123b082612417565b91506123bb83612417565b9250828210156123ce576123cd612565565b5b828203905092915050565b60006123e4826123f7565b9050919050565b60008115159050919050565b600073ffffffffffffffffffffffffffffffffffffffff82169050919050565b6000819050919050565b600060ff82169050919050565b60005b8381101561244c578082015181840152602081019050612431565b8381111561245b576000848401525b50505050565b600061246c82612417565b915060008214156124805761247f612565565b5b600182039050919050565b600060028204905060018216806124a357607f821691505b602082108114156124b7576124b66125c3565b5b50919050565b60006124c882612417565b91507fffffffffffffffffffffffffffffffffffffffffffffffffffffffffffffffff8214156124fb576124fa612565565b5b600182019050919050565b600061251182612518565b9050919050565b600061252382612603565b9050919050565b6000819050919050565b600061253f82612417565b915061254a83612417565b92508261255a57612559612594565b5b828206905092915050565b7f4e487b7100000000000000000000000000000000000000000000000000000000600052601160045260246000fd5b7f4e487b7100000000000000000000000000000000000000000000000000000000600052601260045260246000fd5b7f4e487b7100000000000000000000000000000000000000000000000000000000600052602260045260246000fd5b6000601f19601f8301169050919050565b60008160601b9050919050565b612619816123d9565b811461262457600080fd5b50565b612630816123eb565b811461263b57600080fd5b50565b61264781612417565b811461265257600080fd5b5056fea26469706673582212209fd3a9d0b4af8ffe8a07a6af4cc5352c91c9c034e33c827363738feb8f97ef7864736f6c63430008000033",
  "immutableReferences": {},
  "source": "pragma solidity ^0.8.0;\n\nimport \"./CartaHelper.sol\";\nimport \"./erc721.sol\";\n\ninterface OzInterface {\n    function balanceOf(address account) external view returns (uint);\n    function transfer(address recipient, uint amount) external returns (bool);\n    function approve(address spender, uint amount) external returns (bool);\n    function transferFrom(address sender, address recipient, uint amount) external returns (bool);\n}\n\n/**\n * @title CartaItem\n * @dev Funciones de administracion de cartas como \n * compra de las mismas o transferencia de ownership\n */\ncontract CartaItem is CartaHelper, ERC721, ERC721Metadata {\n    address ozAddress = 0xC3D1131420135b246B155BA17e32ba9f48c4D6A2;\n    OzInterface ozContract = OzInterface(ozAddress);\n\n    uint costoCarta = 5;\n    uint costoTransferencia = 3;\n    uint comisionTransferencia = 1;\n    address ozAccount = 0x1C53954455A6796723B52021c034964DD9E329dE;\n\n    mapping (uint => address) cartaApprovals;\n\n    constructor() public ERC721Metadata(\"CartaItem\", \"CITM\") {}\n\n    /**\n     * @dev Crea una carta aleatoria\n     * @return id de la carta creada\n     */\n    function crearCartaAleatoria() public returns (uint256) {\n        require(ozContract.balanceOf(msg.sender) >= costoCarta, \"No tiene saldo suficiente para realizar la carta\");\n        ozContract.transferFrom(msg.sender, ozAccount, costoCarta);\n        uint256 descripcionAleatoria = _crearDescripcionAleatoria();\n        uint8 tipoAleatorio = _crearTipoAleatorio();\n        _crearCarta(descripcionAleatoria, tipoAleatorio);\n        return cartas.length - 1;\n    }\n\n    function balanceOf(address _owner) public view override returns (uint256 _balance) {\n        return personaCantidadCartas[_owner];\n    }\n\n    function ownerOf(uint256 _tokenId) public view override returns (address _owner) {\n        return cartaAPersona[_tokenId];\n    }\n\n    /**\n     * @dev Se transfiere una carta determinada\n     * @param _from dueo actua de la carta, quien recibe OZT a cambio de la carta\n     * @param _to quien paga la transferencia y quiere obtener la carta\n     * @param _tokenId el id de la carta a transferir\n     */\n    function _transfer(address _from, address _to, uint256 _tokenId) private {\n        require(ozContract.balanceOf(_to) >= costoTransferencia, \"No tiene saldo suficiente para realizar la transferencia\");\n        ozContract.transferFrom(_to, _from, costoTransferencia);\n        ozContract.transferFrom(_from, ozAccount, comisionTransferencia); // Comision\n        \n        personaCantidadCartas[_to]++;\n        personaCantidadCartas[_from]--;\n        cartaAPersona[_tokenId] = _to;\n        Transfer(_from, _to, _tokenId);\n    }\n\n    function transfer(address _to, uint256 _tokenId) public override soloDuenioDe(_tokenId) {\n        _transfer(msg.sender, _to, _tokenId);\n    }\n\n    function approve(address _to, uint256 _tokenId) public override soloDuenioDe(_tokenId) {\n        cartaApprovals[_tokenId] = _to;\n        Approval(msg.sender, _to, _tokenId);\n    }\n\n    function takeOwnership(uint256 _tokenId) public override {\n        require(cartaApprovals[_tokenId] == msg.sender);\n        address owner = ownerOf(_tokenId);\n        _transfer(owner, msg.sender, _tokenId);\n    }\n\n    function balanceOzToken() external view returns (uint) {\n        return ozContract.balanceOf(msg.sender);\n    }\n\n    /**\n     * @dev Para cambiar la direccion del contrato OzToken\n     */\n    function setOzTokenAddress(address _ozTokenAddress) public onlyOwner {\n        ozAddress = _ozTokenAddress;\n        ozContract = OzInterface(ozAddress);\n    }\n\n    /**\n     * @dev Se setea la cuenta a la cual se le va a depositar el pago     \n     */\n    function setOzAccountAddress(address _ozAccountAddress) public onlyOwner {\n        ozAccount = _ozAccountAddress;\n    }\n}",
  "sourcePath": "/home/miki_mustard/Desktop/Personal/Facultad/tdl/nuevo-tdl/teoria-del-lenguaje/truffle-project/contracts/CartaItem.sol",
  "compiler": {
    "name": "solc",
    "version": "0.8.0+commit.c7dfd78e.Emscripten.clang"
  },
  "schemaVersion": "3.4.1",
  "updatedAt": "2021-06-28T22:26:31.173Z",
  "networkType": "ethereum",
  "devdoc": {
    "details": "Funciones de administracion de cartas como  compra de las mismas o transferencia de ownership",
    "kind": "dev",
    "methods": {
      "crearCartaAleatoria()": {
        "details": "Crea una carta aleatoria",
        "returns": {
          "_0": "id de la carta creada"
        }
      },
      "owner()": {
        "details": "Returns the address of the current owner."
      },
      "renounceOwnership()": {
        "details": "Leaves the contract without owner. It will not be possible to call `onlyOwner` functions anymore. Can only be called by the current owner. NOTE: Renouncing ownership will leave the contract without an owner, thereby removing any functionality that is only available to the owner."
      },
      "setOzAccountAddress(address)": {
        "details": "Se setea la cuenta a la cual se le va a depositar el pago     "
      },
      "setOzTokenAddress(address)": {
        "details": "Para cambiar la direccion del contrato OzToken"
      },
      "transferOwnership(address)": {
        "details": "Transfers ownership of the contract to a new account (`newOwner`). Can only be called by the current owner."
      }
    },
    "title": "CartaItem",
    "version": 1
  },
  "userdoc": {
    "kind": "user",
    "methods": {
      "getCartas()": {
        "notice": "Para obtener todas las cartas"
      },
      "getCartasDe(address)": {
        "notice": "Para obtener todas las cartas correspondientes a un address"
      }
    },
    "version": 1
  }
}