{
  "contractName": "CartaItem",
  "abi": [
    {
      "inputs": [],
      "stateMutability": "nonpayable",
      "type": "constructor"
    },
    {
      "anonymous": false,
      "inputs": [
        {
          "indexed": true,
          "internalType": "address",
          "name": "_owner",
          "type": "address"
        },
        {
          "indexed": true,
          "internalType": "address",
          "name": "_approved",
          "type": "address"
        },
        {
          "indexed": false,
          "internalType": "uint256",
          "name": "_tokenId",
          "type": "uint256"
        }
      ],
      "name": "Approval",
      "type": "event"
    },
    {
      "anonymous": false,
      "inputs": [
        {
          "indexed": false,
          "internalType": "uint256",
          "name": "cartaId",
          "type": "uint256"
        },
        {
          "indexed": false,
          "internalType": "uint256",
          "name": "descripcion",
          "type": "uint256"
        },
        {
          "indexed": false,
          "internalType": "uint8",
          "name": "tipo",
          "type": "uint8"
        }
      ],
      "name": "NuevaCarta",
      "type": "event"
    },
    {
      "anonymous": false,
      "inputs": [
        {
          "indexed": true,
          "internalType": "address",
          "name": "previousOwner",
          "type": "address"
        },
        {
          "indexed": true,
          "internalType": "address",
          "name": "newOwner",
          "type": "address"
        }
      ],
      "name": "OwnershipTransferred",
      "type": "event"
    },
    {
      "anonymous": false,
      "inputs": [
        {
          "indexed": true,
          "internalType": "address",
          "name": "_from",
          "type": "address"
        },
        {
          "indexed": true,
          "internalType": "address",
          "name": "_to",
          "type": "address"
        },
        {
          "indexed": false,
          "internalType": "uint256",
          "name": "_tokenId",
          "type": "uint256"
        }
      ],
      "name": "Transfer",
      "type": "event"
    },
    {
      "inputs": [
        {
          "internalType": "uint256",
          "name": "",
          "type": "uint256"
        }
      ],
      "name": "cartaAPersona",
      "outputs": [
        {
          "internalType": "address",
          "name": "",
          "type": "address"
        }
      ],
      "stateMutability": "view",
      "type": "function",
      "constant": true
    },
    {
      "inputs": [
        {
          "internalType": "uint256",
          "name": "",
          "type": "uint256"
        }
      ],
      "name": "cartas",
      "outputs": [
        {
          "internalType": "uint256",
          "name": "descripcion",
          "type": "uint256"
        },
        {
          "internalType": "uint8",
          "name": "tipo",
          "type": "uint8"
        }
      ],
      "stateMutability": "view",
      "type": "function",
      "constant": true
    },
    {
      "inputs": [],
      "name": "getCartas",
      "outputs": [
        {
          "internalType": "uint256[]",
          "name": "",
          "type": "uint256[]"
        },
        {
          "internalType": "uint8[]",
          "name": "",
          "type": "uint8[]"
        }
      ],
      "stateMutability": "view",
      "type": "function",
      "constant": true
    },
    {
      "inputs": [
        {
          "internalType": "address",
          "name": "_owner",
          "type": "address"
        }
      ],
      "name": "getCartasDe",
      "outputs": [
        {
          "internalType": "uint256[]",
          "name": "",
          "type": "uint256[]"
        },
        {
          "internalType": "uint256[]",
          "name": "",
          "type": "uint256[]"
        },
        {
          "internalType": "uint8[]",
          "name": "",
          "type": "uint8[]"
        }
      ],
      "stateMutability": "view",
      "type": "function",
      "constant": true
    },
    {
      "inputs": [],
      "name": "name",
      "outputs": [
        {
          "internalType": "string",
          "name": "",
          "type": "string"
        }
      ],
      "stateMutability": "view",
      "type": "function",
      "constant": true
    },
    {
      "inputs": [],
      "name": "owner",
      "outputs": [
        {
          "internalType": "address",
          "name": "",
          "type": "address"
        }
      ],
      "stateMutability": "view",
      "type": "function",
      "constant": true
    },
    {
      "inputs": [],
      "name": "renounceOwnership",
      "outputs": [],
      "stateMutability": "nonpayable",
      "type": "function"
    },
    {
      "inputs": [],
      "name": "symbol",
      "outputs": [
        {
          "internalType": "string",
          "name": "",
          "type": "string"
        }
      ],
      "stateMutability": "view",
      "type": "function",
      "constant": true
    },
    {
      "inputs": [
        {
          "internalType": "address",
          "name": "newOwner",
          "type": "address"
        }
      ],
      "name": "transferOwnership",
      "outputs": [],
      "stateMutability": "nonpayable",
      "type": "function"
    },
    {
      "inputs": [],
      "name": "crearCartaAleatoria",
      "outputs": [
        {
          "internalType": "uint256",
          "name": "",
          "type": "uint256"
        }
      ],
      "stateMutability": "nonpayable",
      "type": "function"
    },
    {
      "inputs": [
        {
          "internalType": "address",
          "name": "_duenio",
          "type": "address"
        },
        {
          "internalType": "uint256",
          "name": "_idCarta",
          "type": "uint256"
        },
        {
          "internalType": "uint256",
          "name": "_incrementoOferta",
          "type": "uint256"
        },
        {
          "internalType": "uint256",
          "name": "_tiempoInicial",
          "type": "uint256"
        },
        {
          "internalType": "uint256",
          "name": "_tiempoFinal",
          "type": "uint256"
        }
      ],
      "name": "subastarCarta",
      "outputs": [
        {
          "internalType": "uint256",
          "name": "",
          "type": "uint256"
        }
      ],
      "stateMutability": "nonpayable",
      "type": "function"
    },
    {
      "inputs": [
        {
          "internalType": "address",
          "name": "_owner",
          "type": "address"
        }
      ],
      "name": "balanceOf",
      "outputs": [
        {
          "internalType": "uint256",
          "name": "_balance",
          "type": "uint256"
        }
      ],
      "stateMutability": "view",
      "type": "function",
      "constant": true
    },
    {
      "inputs": [
        {
          "internalType": "uint256",
          "name": "_tokenId",
          "type": "uint256"
        }
      ],
      "name": "ownerOf",
      "outputs": [
        {
          "internalType": "address",
          "name": "_owner",
          "type": "address"
        }
      ],
      "stateMutability": "view",
      "type": "function",
      "constant": true
    },
    {
      "inputs": [
        {
          "internalType": "address",
          "name": "_to",
          "type": "address"
        },
        {
          "internalType": "uint256",
          "name": "_tokenId",
          "type": "uint256"
        }
      ],
      "name": "transfer",
      "outputs": [],
      "stateMutability": "nonpayable",
      "type": "function"
    },
    {
      "inputs": [
        {
          "internalType": "address",
          "name": "_to",
          "type": "address"
        },
        {
          "internalType": "uint256",
          "name": "_tokenId",
          "type": "uint256"
        }
      ],
      "name": "approve",
      "outputs": [],
      "stateMutability": "nonpayable",
      "type": "function"
    },
    {
      "inputs": [
        {
          "internalType": "uint256",
          "name": "_tokenId",
          "type": "uint256"
        }
      ],
      "name": "takeOwnership",
      "outputs": [],
      "stateMutability": "nonpayable",
      "type": "function"
    },
    {
      "inputs": [],
      "name": "balanceOzToken",
      "outputs": [
        {
          "internalType": "uint256",
          "name": "",
          "type": "uint256"
        }
      ],
      "stateMutability": "view",
      "type": "function",
      "constant": true
    },
    {
      "inputs": [
        {
          "internalType": "address",
          "name": "_ozTokenAddress",
          "type": "address"
        }
      ],
      "name": "setOzTokenAddress",
      "outputs": [],
      "stateMutability": "nonpayable",
      "type": "function"
    },
    {
      "inputs": [
        {
          "internalType": "address",
          "name": "_ozAccountAddress",
          "type": "address"
        }
      ],
      "name": "setOzAccountAddress",
      "outputs": [],
      "stateMutability": "nonpayable",
      "type": "function"
    },
    {
      "inputs": [
        {
          "internalType": "address",
          "name": "_subastaFactoryAddress",
          "type": "address"
        }
      ],
      "name": "setSubastaFactoryAddress",
      "outputs": [],
      "stateMutability": "nonpayable",
      "type": "function"
    }
  ],
  "bytecode": "0x60806040526010600155600154600a6200001a91906200043e565b600255600060035560006004556003600560006101000a81548160ff021916908360ff16021790555073c3d1131420135b246b155ba17e32ba9f48c4d6a2600b60006101000a81548173ffffffffffffffffffffffffffffffffffffffff021916908373ffffffffffffffffffffffffffffffffffffffff160217905550600b60009054906101000a900473ffffffffffffffffffffffffffffffffffffffff16600c60006101000a81548173ffffffffffffffffffffffffffffffffffffffff021916908373ffffffffffffffffffffffffffffffffffffffff160217905550600d60009054906101000a900473ffffffffffffffffffffffffffffffffffffffff16600e60006101000a81548173ffffffffffffffffffffffffffffffffffffffff021916908373ffffffffffffffffffffffffffffffffffffffff1602179055506005600f55600360105560016011556003601255731c53954455a6796723b52021c034964dd9e329de601360006101000a81548173ffffffffffffffffffffffffffffffffffffffff021916908373ffffffffffffffffffffffffffffffffffffffff160217905550348015620001d457600080fd5b506040518060400160405280600981526020017f43617274614974656d00000000000000000000000000000000000000000000008152506040518060400160405280600481526020017f4349544d000000000000000000000000000000000000000000000000000000008152506000620002536200032b60201b60201c565b9050806000806101000a81548173ffffffffffffffffffffffffffffffffffffffff021916908373ffffffffffffffffffffffffffffffffffffffff1602179055508073ffffffffffffffffffffffffffffffffffffffff16600073ffffffffffffffffffffffffffffffffffffffff167f8be0079c531659141344cd1fd0a4f28419497f9722a3daafe3b4186f6b6457e060405160405180910390a35081600990805190602001906200030992919062000333565b5080600a90805190602001906200032292919062000333565b50505062000626565b600033905090565b828054620003419062000585565b90600052602060002090601f016020900481019282620003655760008555620003b1565b82601f106200038057805160ff1916838001178555620003b1565b82800160010185558215620003b1579182015b82811115620003b057825182559160200191906001019062000393565b5b509050620003c09190620003c4565b5090565b5b80821115620003df576000816000905550600101620003c5565b5090565b6000808291508390505b600185111562000435578086048111156200040d576200040c620005bb565b5b60018516156200041d5780820291505b80810290506200042d8562000619565b9450620003ed565b94509492505050565b60006200044b826200057b565b915062000458836200057b565b9250620004877fffffffffffffffffffffffffffffffffffffffffffffffffffffffffffffffff84846200048f565b905092915050565b600082620004a1576001905062000574565b81620004b1576000905062000574565b8160018114620004ca5760028114620004d5576200050b565b600191505062000574565b60ff841115620004ea57620004e9620005bb565b5b8360020a915084821115620005045762000503620005bb565b5b5062000574565b5060208310610133831016604e8410600b8410161715620005455782820a9050838111156200053f576200053e620005bb565b5b62000574565b620005548484846001620003e3565b925090508184048111156200056e576200056d620005bb565b5b81810290505b9392505050565b6000819050919050565b600060028204905060018216806200059e57607f821691505b60208210811415620005b557620005b4620005ea565b5b50919050565b7f4e487b7100000000000000000000000000000000000000000000000000000000600052601160045260246000fd5b7f4e487b7100000000000000000000000000000000000000000000000000000000600052602260045260246000fd5b60008160011c9050919050565b612fc580620006366000396000f3fe608060405234801561001057600080fd5b506004361061012c5760003560e01c80638da5cb5b116100ad578063c1bf405911610071578063c1bf405914610334578063c2fcde8914610350578063c53714fb1461036f578063d2a10c481461038b578063f2fde38b146103bb5761012c565b80638da5cb5b146102a257806395d89b41146102c0578063a9059cbb146102de578063b2e6ceeb146102fa578063bc24b16a146103165761012c565b80635b102ab8116100f45780635b102ab8146101e95780636352211e1461021a57806370a082311461024a578063715018a61461027a5780637e5f9591146102845761012c565b806306fdde0314610131578063095ea7b31461014f5780634a358c1e1461016b578063582ddb381461019d57806358a8788f146101cd575b600080fd5b6101396103d7565b6040516101469190612a82565b60405180910390f35b610169600480360381019061016491906122dd565b610469565b005b610185600480360381019061018091906122b4565b6105c7565b604051610194939291906129e4565b60405180910390f35b6101b760048036038101906101b291906123b9565b610996565b6040516101c4919061293f565b60405180910390f35b6101e760048036038101906101e291906122b4565b6109c9565b005b61020360048036038101906101fe91906123b9565b610aec565b604051610211929190612c16565b60405180910390f35b610234600480360381019061022f91906123b9565b610b2d565b604051610241919061293f565b60405180910390f35b610264600480360381019061025f91906122b4565b610b6a565b6040516102719190612bc4565b60405180910390f35b610282610bb3565b005b61028c610ced565b6040516102999190612bc4565b60405180910390f35b6102aa610d9f565b6040516102b7919061293f565b60405180910390f35b6102c8610dc8565b6040516102d59190612a82565b60405180910390f35b6102f860048036038101906102f391906122dd565b610e5a565b005b610314600480360381019061030f91906123b9565b610f0c565b005b61031e610f93565b60405161032b9190612bc4565b60405180910390f35b61034e600480360381019061034991906122b4565b61126b565b005b61035861132b565b604051610366929190612a30565b60405180910390f35b610389600480360381019061038491906122b4565b611585565b005b6103a560048036038101906103a09190612319565b6116a8565b6040516103b29190612bc4565b60405180910390f35b6103d560048036038101906103d091906122b4565b611a8f565b005b6060600980546103e690612dc5565b80601f016020809104026020016040519081016040528092919081815260200182805461041290612dc5565b801561045f5780601f106104345761010080835404028352916020019161045f565b820191906000526020600020905b81548152906001019060200180831161044257829003601f168201915b5050505050905090565b806007600082815260200190815260200160002060009054906101000a900473ffffffffffffffffffffffffffffffffffffffff1673ffffffffffffffffffffffffffffffffffffffff163373ffffffffffffffffffffffffffffffffffffffff161461050b576040517f08c379a000000000000000000000000000000000000000000000000000000000815260040161050290612ae4565b60405180910390fd5b826014600084815260200190815260200160002060006101000a81548173ffffffffffffffffffffffffffffffffffffffff021916908373ffffffffffffffffffffffffffffffffffffffff1602179055508273ffffffffffffffffffffffffffffffffffffffff163373ffffffffffffffffffffffffffffffffffffffff167f8c5be1e5ebec7d5bd14f71427d1e84f3dd0314c0f7b2291e5b200ac8c7c3b925846040516105ba9190612bc4565b60405180910390a3505050565b60608060606000600860008673ffffffffffffffffffffffffffffffffffffffff1673ffffffffffffffffffffffffffffffffffffffff16815260200190815260200160002054905060008167ffffffffffffffff811115610652577f4e487b7100000000000000000000000000000000000000000000000000000000600052604160045260246000fd5b6040519080825280602002602001820160405280156106805781602001602082028036833780820191505090505b50905060008267ffffffffffffffff8111156106c5577f4e487b7100000000000000000000000000000000000000000000000000000000600052604160045260246000fd5b6040519080825280602002602001820160405280156106f35781602001602082028036833780820191505090505b50905060008367ffffffffffffffff811115610738577f4e487b7100000000000000000000000000000000000000000000000000000000600052604160045260246000fd5b6040519080825280602002602001820160405280156107665781602001602082028036833780820191505090505b5090506000805b600680549050811015610980578973ffffffffffffffffffffffffffffffffffffffff166007600083815260200190815260200160002060009054906101000a900473ffffffffffffffffffffffffffffffffffffffff1673ffffffffffffffffffffffffffffffffffffffff16141561096d578085838151811061081b577f4e487b7100000000000000000000000000000000000000000000000000000000600052603260045260246000fd5b60200260200101818152505060068181548110610861577f4e487b7100000000000000000000000000000000000000000000000000000000600052603260045260246000fd5b9060005260206000209060020201600001548483815181106108ac577f4e487b7100000000000000000000000000000000000000000000000000000000600052603260045260246000fd5b602002602001018181525050600681815481106108f2577f4e487b7100000000000000000000000000000000000000000000000000000000600052603260045260246000fd5b906000526020600020906002020160010160009054906101000a900460ff1683838151811061094a577f4e487b7100000000000000000000000000000000000000000000000000000000600052603260045260246000fd5b602002602001019060ff16908160ff1681525050818061096990612df7565b9250505b808061097890612df7565b91505061076d565b5083838397509750975050505050509193909250565b60076020528060005260406000206000915054906101000a900473ffffffffffffffffffffffffffffffffffffffff1681565b6109d1611c38565b73ffffffffffffffffffffffffffffffffffffffff166109ef610d9f565b73ffffffffffffffffffffffffffffffffffffffff1614610a45576040517f08c379a0000000000000000000000000000000000000000000000000000000008152600401610a3c90612b24565b60405180910390fd5b80600b60006101000a81548173ffffffffffffffffffffffffffffffffffffffff021916908373ffffffffffffffffffffffffffffffffffffffff160217905550600b60009054906101000a900473ffffffffffffffffffffffffffffffffffffffff16600c60006101000a81548173ffffffffffffffffffffffffffffffffffffffff021916908373ffffffffffffffffffffffffffffffffffffffff16021790555050565b60068181548110610afc57600080fd5b90600052602060002090600202016000915090508060000154908060010160009054906101000a900460ff16905082565b60006007600083815260200190815260200160002060009054906101000a900473ffffffffffffffffffffffffffffffffffffffff169050919050565b6000600860008373ffffffffffffffffffffffffffffffffffffffff1673ffffffffffffffffffffffffffffffffffffffff168152602001908152602001600020549050919050565b610bbb611c38565b73ffffffffffffffffffffffffffffffffffffffff16610bd9610d9f565b73ffffffffffffffffffffffffffffffffffffffff1614610c2f576040517f08c379a0000000000000000000000000000000000000000000000000000000008152600401610c2690612b24565b60405180910390fd5b600073ffffffffffffffffffffffffffffffffffffffff1660008054906101000a900473ffffffffffffffffffffffffffffffffffffffff1673ffffffffffffffffffffffffffffffffffffffff167f8be0079c531659141344cd1fd0a4f28419497f9722a3daafe3b4186f6b6457e060405160405180910390a360008060006101000a81548173ffffffffffffffffffffffffffffffffffffffff021916908373ffffffffffffffffffffffffffffffffffffffff160217905550565b6000600c60009054906101000a900473ffffffffffffffffffffffffffffffffffffffff1673ffffffffffffffffffffffffffffffffffffffff166370a08231336040518263ffffffff1660e01b8152600401610d4a919061293f565b60206040518083038186803b158015610d6257600080fd5b505afa158015610d76573d6000803e3d6000fd5b505050506040513d601f19601f82011682018060405250810190610d9a91906123e2565b905090565b60008060009054906101000a900473ffffffffffffffffffffffffffffffffffffffff16905090565b6060600a8054610dd790612dc5565b80601f0160208091040260200160405190810160405280929190818152602001828054610e0390612dc5565b8015610e505780601f10610e2557610100808354040283529160200191610e50565b820191906000526020600020905b815481529060010190602001808311610e3357829003601f168201915b5050505050905090565b806007600082815260200190815260200160002060009054906101000a900473ffffffffffffffffffffffffffffffffffffffff1673ffffffffffffffffffffffffffffffffffffffff163373ffffffffffffffffffffffffffffffffffffffff1614610efc576040517f08c379a0000000000000000000000000000000000000000000000000000000008152600401610ef390612ae4565b60405180910390fd5b610f07338484611c40565b505050565b3373ffffffffffffffffffffffffffffffffffffffff166014600083815260200190815260200160002060009054906101000a900473ffffffffffffffffffffffffffffffffffffffff1673ffffffffffffffffffffffffffffffffffffffff1614610f7757600080fd5b6000610f8282610b2d565b9050610f8f813384611c40565b5050565b60008073ffffffffffffffffffffffffffffffffffffffff163373ffffffffffffffffffffffffffffffffffffffff161415611004576040517f08c379a0000000000000000000000000000000000000000000000000000000008152600401610ffb90612b84565b60405180910390fd5b600f54600c60009054906101000a900473ffffffffffffffffffffffffffffffffffffffff1673ffffffffffffffffffffffffffffffffffffffff166370a08231336040518263ffffffff1660e01b8152600401611062919061293f565b60206040518083038186803b15801561107a57600080fd5b505afa15801561108e573d6000803e3d6000fd5b505050506040513d601f19601f820116820180604052508101906110b291906123e2565b10156110f3576040517f08c379a00000000000000000000000000000000000000000000000000000000081526004016110ea90612b04565b60405180910390fd5b600c60009054906101000a900473ffffffffffffffffffffffffffffffffffffffff1673ffffffffffffffffffffffffffffffffffffffff166323b872dd33601360009054906101000a900473ffffffffffffffffffffffffffffffffffffffff16600f546040518463ffffffff1660e01b81526004016111769392919061295a565b602060405180830381600087803b15801561119057600080fd5b505af11580156111a4573d6000803e3d6000fd5b505050506040513d601f19601f820116820180604052508101906111c89190612390565b5060006111d361201f565b905060006111df612081565b90506111eb82826120f3565b3373ffffffffffffffffffffffffffffffffffffffff16600073ffffffffffffffffffffffffffffffffffffffff167fddf252ad1be2c89b69c2b068fc378daa952ba7f163c4a11628f55a4df523b3ef600160405161124a9190612a67565b60405180910390a360016006805490506112649190612ccd565b9250505090565b611273611c38565b73ffffffffffffffffffffffffffffffffffffffff16611291610d9f565b73ffffffffffffffffffffffffffffffffffffffff16146112e7576040517f08c379a00000000000000000000000000000000000000000000000000000000081526004016112de90612b24565b60405180910390fd5b80601360006101000a81548173ffffffffffffffffffffffffffffffffffffffff021916908373ffffffffffffffffffffffffffffffffffffffff16021790555050565b606080600060068054905067ffffffffffffffff811115611375577f4e487b7100000000000000000000000000000000000000000000000000000000600052604160045260246000fd5b6040519080825280602002602001820160405280156113a35781602001602082028036833780820191505090505b509050600060068054905067ffffffffffffffff8111156113ed577f4e487b7100000000000000000000000000000000000000000000000000000000600052604160045260246000fd5b60405190808252806020026020018201604052801561141b5781602001602082028036833780820191505090505b50905060005b6006805490508110156115785760068181548110611468577f4e487b7100000000000000000000000000000000000000000000000000000000600052603260045260246000fd5b9060005260206000209060020201600001548382815181106114b3577f4e487b7100000000000000000000000000000000000000000000000000000000600052603260045260246000fd5b602002602001018181525050600681815481106114f9577f4e487b7100000000000000000000000000000000000000000000000000000000600052603260045260246000fd5b906000526020600020906002020160010160009054906101000a900460ff16828281518110611551577f4e487b7100000000000000000000000000000000000000000000000000000000600052603260045260246000fd5b602002602001019060ff16908160ff1681525050808061157090612df7565b915050611421565b5081819350935050509091565b61158d611c38565b73ffffffffffffffffffffffffffffffffffffffff166115ab610d9f565b73ffffffffffffffffffffffffffffffffffffffff1614611601576040517f08c379a00000000000000000000000000000000000000000000000000000000081526004016115f890612b24565b60405180910390fd5b80600d60006101000a81548173ffffffffffffffffffffffffffffffffffffffff021916908373ffffffffffffffffffffffffffffffffffffffff160217905550600d60009054906101000a900473ffffffffffffffffffffffffffffffffffffffff16600e60006101000a81548173ffffffffffffffffffffffffffffffffffffffff021916908373ffffffffffffffffffffffffffffffffffffffff16021790555050565b6000846007600082815260200190815260200160002060009054906101000a900473ffffffffffffffffffffffffffffffffffffffff1673ffffffffffffffffffffffffffffffffffffffff163373ffffffffffffffffffffffffffffffffffffffff161461174c576040517f08c379a000000000000000000000000000000000000000000000000000000000815260040161174390612ae4565b60405180910390fd5b6006805490508610611793576040517f08c379a000000000000000000000000000000000000000000000000000000000815260040161178a90612ba4565b60405180910390fd5b600073ffffffffffffffffffffffffffffffffffffffff163373ffffffffffffffffffffffffffffffffffffffff161415611803576040517f08c379a00000000000000000000000000000000000000000000000000000000081526004016117fa90612b64565b60405180910390fd5b601254600c60009054906101000a900473ffffffffffffffffffffffffffffffffffffffff1673ffffffffffffffffffffffffffffffffffffffff166370a08231336040518263ffffffff1660e01b8152600401611861919061293f565b60206040518083038186803b15801561187957600080fd5b505afa15801561188d573d6000803e3d6000fd5b505050506040513d601f19601f820116820180604052508101906118b191906123e2565b10156118f2576040517f08c379a00000000000000000000000000000000000000000000000000000000081526004016118e990612ac4565b60405180910390fd5b6000600e60009054906101000a900473ffffffffffffffffffffffffffffffffffffffff1673ffffffffffffffffffffffffffffffffffffffff16630ddaf58589898989896040518663ffffffff1660e01b8152600401611957959493929190612991565b602060405180830381600087803b15801561197157600080fd5b505af1158015611985573d6000803e3d6000fd5b505050506040513d601f19601f820116820180604052508101906119a991906123e2565b9050600c60009054906101000a900473ffffffffffffffffffffffffffffffffffffffff1673ffffffffffffffffffffffffffffffffffffffff166323b872dd33601360009054906101000a900473ffffffffffffffffffffffffffffffffffffffff166012546040518463ffffffff1660e01b8152600401611a2e9392919061295a565b602060405180830381600087803b158015611a4857600080fd5b505af1158015611a5c573d6000803e3d6000fd5b505050506040513d601f19601f82011682018060405250810190611a809190612390565b50809250505095945050505050565b611a97611c38565b73ffffffffffffffffffffffffffffffffffffffff16611ab5610d9f565b73ffffffffffffffffffffffffffffffffffffffff1614611b0b576040517f08c379a0000000000000000000000000000000000000000000000000000000008152600401611b0290612b24565b60405180910390fd5b600073ffffffffffffffffffffffffffffffffffffffff168173ffffffffffffffffffffffffffffffffffffffff161415611b7b576040517f08c379a0000000000000000000000000000000000000000000000000000000008152600401611b7290612aa4565b60405180910390fd5b8073ffffffffffffffffffffffffffffffffffffffff1660008054906101000a900473ffffffffffffffffffffffffffffffffffffffff1673ffffffffffffffffffffffffffffffffffffffff167f8be0079c531659141344cd1fd0a4f28419497f9722a3daafe3b4186f6b6457e060405160405180910390a3806000806101000a81548173ffffffffffffffffffffffffffffffffffffffff021916908373ffffffffffffffffffffffffffffffffffffffff16021790555050565b600033905090565b601054600c60009054906101000a900473ffffffffffffffffffffffffffffffffffffffff1673ffffffffffffffffffffffffffffffffffffffff166370a08231846040518263ffffffff1660e01b8152600401611c9e919061293f565b60206040518083038186803b158015611cb657600080fd5b505afa158015611cca573d6000803e3d6000fd5b505050506040513d601f19601f82011682018060405250810190611cee91906123e2565b1015611d2f576040517f08c379a0000000000000000000000000000000000000000000000000000000008152600401611d2690612b44565b60405180910390fd5b600c60009054906101000a900473ffffffffffffffffffffffffffffffffffffffff1673ffffffffffffffffffffffffffffffffffffffff166323b872dd83856010546040518463ffffffff1660e01b8152600401611d909392919061295a565b602060405180830381600087803b158015611daa57600080fd5b505af1158015611dbe573d6000803e3d6000fd5b505050506040513d601f19601f82011682018060405250810190611de29190612390565b50600c60009054906101000a900473ffffffffffffffffffffffffffffffffffffffff1673ffffffffffffffffffffffffffffffffffffffff166323b872dd84601360009054906101000a900473ffffffffffffffffffffffffffffffffffffffff166011546040518463ffffffff1660e01b8152600401611e669392919061295a565b602060405180830381600087803b158015611e8057600080fd5b505af1158015611e94573d6000803e3d6000fd5b505050506040513d601f19601f82011682018060405250810190611eb89190612390565b50600860008373ffffffffffffffffffffffffffffffffffffffff1673ffffffffffffffffffffffffffffffffffffffff1681526020019081526020016000206000815480929190611f0990612df7565b9190505550600860008473ffffffffffffffffffffffffffffffffffffffff1673ffffffffffffffffffffffffffffffffffffffff1681526020019081526020016000206000815480929190611f5e90612d9b565b9190505550816007600083815260200190815260200160002060006101000a81548173ffffffffffffffffffffffffffffffffffffffff021916908373ffffffffffffffffffffffffffffffffffffffff1602179055508173ffffffffffffffffffffffffffffffffffffffff168373ffffffffffffffffffffffffffffffffffffffff167fddf252ad1be2c89b69c2b068fc378daa952ba7f163c4a11628f55a4df523b3ef836040516120129190612bc4565b60405180910390a3505050565b60006003600081548092919061203490612df7565b91905055506000423360035460405160200161205293929190612902565b6040516020818303038152906040528051906020012060001c90506002548161207b9190612e6e565b91505090565b60006004600081548092919061209690612df7565b9190505550600042336004546040516020016120b493929190612902565b6040516020818303038152906040528051906020012060001c9050600560009054906101000a900460ff1660ff16816120ed9190612e6e565b91505090565b600660405180604001604052808481526020018360ff1681525090806001815401808255809150506001900390600052602060002090600202016000909190919091506000820151816000015560208201518160010160006101000a81548160ff021916908360ff1602179055505050600060016006805490506121779190612ccd565b9050336007600083815260200190815260200160002060006101000a81548173ffffffffffffffffffffffffffffffffffffffff021916908373ffffffffffffffffffffffffffffffffffffffff160217905550600860003373ffffffffffffffffffffffffffffffffffffffff1673ffffffffffffffffffffffffffffffffffffffff168152602001908152602001600020600081548092919061221b90612df7565b91905055507f6ca85b4ba4ace1b9d8e266c2cb00dcb3314c66609fd525cfab3301b2e306748d81848460405161225393929190612bdf565b60405180910390a1505050565b60008135905061226f81612f4a565b92915050565b60008151905061228481612f61565b92915050565b60008135905061229981612f78565b92915050565b6000815190506122ae81612f78565b92915050565b6000602082840312156122c657600080fd5b60006122d484828501612260565b91505092915050565b600080604083850312156122f057600080fd5b60006122fe85828601612260565b925050602061230f8582860161228a565b9150509250929050565b600080600080600060a0868803121561233157600080fd5b600061233f88828901612260565b95505060206123508882890161228a565b94505060406123618882890161228a565b93505060606123728882890161228a565b92505060806123838882890161228a565b9150509295509295909350565b6000602082840312156123a257600080fd5b60006123b084828501612275565b91505092915050565b6000602082840312156123cb57600080fd5b60006123d98482850161228a565b91505092915050565b6000602082840312156123f457600080fd5b60006124028482850161229f565b91505092915050565b600061241783836128af565b60208301905092915050565b600061242f83836128e4565b60208301905092915050565b61244481612d01565b82525050565b61245b61245682612d01565b612e40565b82525050565b600061246c82612c5f565b6124768185612c9a565b935061248183612c3f565b8060005b838110156124b2578151612499888261240b565b97506124a483612c80565b925050600181019050612485565b5085935050505092915050565b60006124ca82612c6a565b6124d48185612cab565b93506124df83612c4f565b8060005b838110156125105781516124f78882612423565b975061250283612c8d565b9250506001810190506124e3565b5085935050505092915050565b61252681612d56565b82525050565b600061253782612c75565b6125418185612cbc565b9350612551818560208601612d68565b61255a81612f2c565b840191505092915050565b6000612572602683612cbc565b91507f4f776e61626c653a206e6577206f776e657220697320746865207a65726f206160008301527f64647265737300000000000000000000000000000000000000000000000000006020830152604082019050919050565b60006125d8603083612cbc565b91507f4e6f207469656e652073616c646f20737566696369656e74652070617261207360008301527f75626173746172206c61206361727461000000000000000000000000000000006020830152604082019050919050565b600061263e603a83612cbc565b91507f536f6c6f20656c206475656e696f206465206c6120636172746120707565646560008301527f207265616c697a61722065737461207472616e73616363696f6e0000000000006020830152604082019050919050565b60006126a4603083612cbc565b91507f4e6f207469656e652073616c646f20737566696369656e74652070617261207260008301527f65616c697a6172206c61206361727461000000000000000000000000000000006020830152604082019050919050565b600061270a602083612cbc565b91507f4f776e61626c653a2063616c6c6572206973206e6f7420746865206f776e65726000830152602082019050919050565b600061274a603883612cbc565b91507f4e6f207469656e652073616c646f20737566696369656e74652070617261207260008301527f65616c697a6172206c61207472616e73666572656e63696100000000000000006020830152604082019050919050565b60006127b0602683612cbc565b91507f4572726f723a20646972656363696f6e206365726f20737562617374616e646f60008301527f20636172746100000000000000000000000000000000000000000000000000006020830152604082019050919050565b6000612816602383612cbc565b91507f4572726f723a20646972656363696f6e206365726f20637265616e646f20636160008301527f72746100000000000000000000000000000000000000000000000000000000006020830152604082019050919050565b600061287c601983612cbc565b91507f4572726f723a206c61206361727461206e6f20657869737465000000000000006000830152602082019050919050565b6128b881612d3f565b82525050565b6128c781612d3f565b82525050565b6128de6128d982612d3f565b612e64565b82525050565b6128ed81612d49565b82525050565b6128fc81612d49565b82525050565b600061290e82866128cd565b60208201915061291e828561244a565b60148201915061292e82846128cd565b602082019150819050949350505050565b6000602082019050612954600083018461243b565b92915050565b600060608201905061296f600083018661243b565b61297c602083018561243b565b61298960408301846128be565b949350505050565b600060a0820190506129a6600083018861243b565b6129b360208301876128be565b6129c060408301866128be565b6129cd60608301856128be565b6129da60808301846128be565b9695505050505050565b600060608201905081810360008301526129fe8186612461565b90508181036020830152612a128185612461565b90508181036040830152612a2681846124bf565b9050949350505050565b60006040820190508181036000830152612a4a8185612461565b90508181036020830152612a5e81846124bf565b90509392505050565b6000602082019050612a7c600083018461251d565b92915050565b60006020820190508181036000830152612a9c818461252c565b905092915050565b60006020820190508181036000830152612abd81612565565b9050919050565b60006020820190508181036000830152612add816125cb565b9050919050565b60006020820190508181036000830152612afd81612631565b9050919050565b60006020820190508181036000830152612b1d81612697565b9050919050565b60006020820190508181036000830152612b3d816126fd565b9050919050565b60006020820190508181036000830152612b5d8161273d565b9050919050565b60006020820190508181036000830152612b7d816127a3565b9050919050565b60006020820190508181036000830152612b9d81612809565b9050919050565b60006020820190508181036000830152612bbd8161286f565b9050919050565b6000602082019050612bd960008301846128be565b92915050565b6000606082019050612bf460008301866128be565b612c0160208301856128be565b612c0e60408301846128f3565b949350505050565b6000604082019050612c2b60008301856128be565b612c3860208301846128f3565b9392505050565b6000819050602082019050919050565b6000819050602082019050919050565b600081519050919050565b600081519050919050565b600081519050919050565b6000602082019050919050565b6000602082019050919050565b600082825260208201905092915050565b600082825260208201905092915050565b600082825260208201905092915050565b6000612cd882612d3f565b9150612ce383612d3f565b925082821015612cf657612cf5612e9f565b5b828203905092915050565b6000612d0c82612d1f565b9050919050565b60008115159050919050565b600073ffffffffffffffffffffffffffffffffffffffff82169050919050565b6000819050919050565b600060ff82169050919050565b6000612d6182612d3f565b9050919050565b60005b83811015612d86578082015181840152602081019050612d6b565b83811115612d95576000848401525b50505050565b6000612da682612d3f565b91506000821415612dba57612db9612e9f565b5b600182039050919050565b60006002820490506001821680612ddd57607f821691505b60208210811415612df157612df0612efd565b5b50919050565b6000612e0282612d3f565b91507fffffffffffffffffffffffffffffffffffffffffffffffffffffffffffffffff821415612e3557612e34612e9f565b5b600182019050919050565b6000612e4b82612e52565b9050919050565b6000612e5d82612f3d565b9050919050565b6000819050919050565b6000612e7982612d3f565b9150612e8483612d3f565b925082612e9457612e93612ece565b5b828206905092915050565b7f4e487b7100000000000000000000000000000000000000000000000000000000600052601160045260246000fd5b7f4e487b7100000000000000000000000000000000000000000000000000000000600052601260045260246000fd5b7f4e487b7100000000000000000000000000000000000000000000000000000000600052602260045260246000fd5b6000601f19601f8301169050919050565b60008160601b9050919050565b612f5381612d01565b8114612f5e57600080fd5b50565b612f6a81612d13565b8114612f7557600080fd5b50565b612f8181612d3f565b8114612f8c57600080fd5b5056fea26469706673582212202e1a4ca237d9695b324efb7a4a30168e6b3107f17322db03f24e0876cbf44f7d64736f6c63430008000033",
  "immutableReferences": {},
  "source": "pragma solidity ^0.8.0;\n\nimport \"./CartaHelper.sol\";\nimport \"./erc721.sol\";\n\ninterface OzInterface {\n    function balanceOf(address account) external view returns (uint);\n    function transfer(address recipient, uint amount) external returns (bool);\n    function approve(address spender, uint amount) external returns (bool);\n    function transferFrom(address sender, address recipient, uint amount) external returns (bool);\n}\n\ninterface ISubastaFactory {\n    function crearSubasta(address _duenio, uint _idCarta, uint _incrementoOferta, uint _tiempoInicial, uint _tiempoFinal) external returns(uint);\n}\n\n/**\n * @title CartaItem\n * @dev Funciones de administracion de cartas como \n * compra de las mismas o transferencia de ownership\n */\ncontract CartaItem is CartaHelper, ERC721, ERC721Metadata {\n    address ozAddress = 0xC3D1131420135b246B155BA17e32ba9f48c4D6A2;\n    OzInterface ozContract = OzInterface(ozAddress);\n\n    address subastaFactoryAddress;\n    ISubastaFactory subastaFactory = ISubastaFactory(subastaFactoryAddress);\n\n    uint costoCarta = 5;\n    uint costoTransferencia = 3;\n    uint comisionTransferencia = 1;\n    uint costoSubastarCarta = 3;\n    address ozAccount = 0x1C53954455A6796723B52021c034964DD9E329dE;\n\n    mapping (uint => address) cartaApprovals;\n\n    constructor() public ERC721Metadata(\"CartaItem\", \"CITM\") {}\n\n    /**\n     * @dev Crea una carta aleatoria\n     * @return id de la carta creada\n     */\n    function crearCartaAleatoria() public returns (uint256) {\n        require(msg.sender != address(0), \"Error: direccion cero creando carta\");\n        require(ozContract.balanceOf(msg.sender) >= costoCarta, \"No tiene saldo suficiente para realizar la carta\");\n        ozContract.transferFrom(msg.sender, ozAccount, costoCarta);\n        uint256 descripcionAleatoria = _crearDescripcionAleatoria();\n        uint8 tipoAleatorio = _crearTipoAleatorio();\n        _crearCarta(descripcionAleatoria, tipoAleatorio);\n        emit Transfer(address(0), msg.sender, 1);\n        return cartas.length - 1;\n    }\n\n    /**\n     * @dev Se subasta una carta\n     * @return id de la subasta\n     */\n    function subastarCarta(address _duenio, uint _idCarta, uint _incrementoOferta, uint _tiempoInicial, uint _tiempoFinal) public soloDuenioDe(_idCarta) returns (uint) {\n        require(_idCarta < cartas.length, \"Error: la carta no existe\");\n        require(msg.sender != address(0), \"Error: direccion cero subastando carta\");\n        require(ozContract.balanceOf(msg.sender) >= costoSubastarCarta, \"No tiene saldo suficiente para subastar la carta\");\n        uint idSubasta = subastaFactory.crearSubasta(_duenio, _idCarta, _incrementoOferta, _tiempoInicial, _tiempoFinal);\n        ozContract.transferFrom(msg.sender, ozAccount, costoSubastarCarta);\n        return idSubasta;\n    }\n\n    function balanceOf(address _owner) public view override returns (uint256 _balance) {\n        return personaCantidadCartas[_owner];\n    }\n\n    function ownerOf(uint256 _tokenId) public view override returns (address _owner) {\n        return cartaAPersona[_tokenId];\n    }\n\n    /**\n     * @dev Se transfiere una carta determinada\n     * @param _from dueo actua de la carta, quien recibe OZT a cambio de la carta\n     * @param _to quien paga la transferencia y quiere obtener la carta\n     * @param _tokenId el id de la carta a transferir\n     */\n    function _transfer(address _from, address _to, uint256 _tokenId) private {\n        require(ozContract.balanceOf(_to) >= costoTransferencia, \"No tiene saldo suficiente para realizar la transferencia\");\n        ozContract.transferFrom(_to, _from, costoTransferencia);\n        ozContract.transferFrom(_from, ozAccount, comisionTransferencia); // Comision\n        \n        personaCantidadCartas[_to]++;\n        personaCantidadCartas[_from]--;\n        cartaAPersona[_tokenId] = _to;\n        Transfer(_from, _to, _tokenId);\n    }\n\n    function transfer(address _to, uint256 _tokenId) public override soloDuenioDe(_tokenId) {\n        _transfer(msg.sender, _to, _tokenId);\n    }\n\n    function approve(address _to, uint256 _tokenId) public override soloDuenioDe(_tokenId) {\n        cartaApprovals[_tokenId] = _to;\n        Approval(msg.sender, _to, _tokenId);\n    }\n\n    function takeOwnership(uint256 _tokenId) public override {\n        require(cartaApprovals[_tokenId] == msg.sender);\n        address owner = ownerOf(_tokenId);\n        _transfer(owner, msg.sender, _tokenId);\n    }\n\n    function balanceOzToken() external view returns (uint) {\n        return ozContract.balanceOf(msg.sender);\n    }\n\n    /**\n     * @dev Para cambiar la direccion del contrato OzToken\n     */\n    function setOzTokenAddress(address _ozTokenAddress) public onlyOwner {\n        ozAddress = _ozTokenAddress;\n        ozContract = OzInterface(ozAddress);\n    }\n\n    /**\n     * @dev Se setea la cuenta a la cual se le va a depositar el pago     \n     */\n    function setOzAccountAddress(address _ozAccountAddress) public onlyOwner {\n        ozAccount = _ozAccountAddress;\n    }\n\n    /**\n     * @dev Para cambiar la direccion del contrato de subasta factory\n     */\n    function setSubastaFactoryAddress(address _subastaFactoryAddress) public onlyOwner {\n        subastaFactoryAddress = _subastaFactoryAddress;\n        subastaFactory = ISubastaFactory(subastaFactoryAddress);\n    }\n}",
  "sourcePath": "/home/miki_mustard/Desktop/Personal/Facultad/tdl/nuevo-tdl/teoria-del-lenguaje/truffle-project/contracts/CartaItem.sol",
  "compiler": {
    "name": "solc",
    "version": "0.8.0+commit.c7dfd78e.Emscripten.clang"
  },
  "schemaVersion": "3.4.1",
  "updatedAt": "2021-07-11T17:41:59.897Z",
  "networkType": "ethereum",
  "devdoc": {
    "details": "Funciones de administracion de cartas como  compra de las mismas o transferencia de ownership",
    "kind": "dev",
    "methods": {
      "crearCartaAleatoria()": {
        "details": "Crea una carta aleatoria",
        "returns": {
          "_0": "id de la carta creada"
        }
      },
      "owner()": {
        "details": "Returns the address of the current owner."
      },
      "renounceOwnership()": {
        "details": "Leaves the contract without owner. It will not be possible to call `onlyOwner` functions anymore. Can only be called by the current owner. NOTE: Renouncing ownership will leave the contract without an owner, thereby removing any functionality that is only available to the owner."
      },
      "setOzAccountAddress(address)": {
        "details": "Se setea la cuenta a la cual se le va a depositar el pago     "
      },
      "setOzTokenAddress(address)": {
        "details": "Para cambiar la direccion del contrato OzToken"
      },
      "setSubastaFactoryAddress(address)": {
        "details": "Para cambiar la direccion del contrato de subasta factory"
      },
      "subastarCarta(address,uint256,uint256,uint256,uint256)": {
        "details": "Se subasta una carta",
        "returns": {
          "_0": "id de la subasta"
        }
      },
      "transferOwnership(address)": {
        "details": "Transfers ownership of the contract to a new account (`newOwner`). Can only be called by the current owner."
      }
    },
    "title": "CartaItem",
    "version": 1
  },
  "userdoc": {
    "kind": "user",
    "methods": {
      "getCartas()": {
        "notice": "Para obtener todas las cartas"
      },
      "getCartasDe(address)": {
        "notice": "Para obtener todas las cartas correspondientes a un address"
      }
    },
    "version": 1
  }
}