{
  "contractName": "CartaItem",
  "abi": [
    {
      "inputs": [],
      "stateMutability": "nonpayable",
      "type": "constructor"
    },
    {
      "anonymous": false,
      "inputs": [
        {
          "indexed": true,
          "internalType": "address",
          "name": "_owner",
          "type": "address"
        },
        {
          "indexed": true,
          "internalType": "address",
          "name": "_approved",
          "type": "address"
        },
        {
          "indexed": false,
          "internalType": "uint256",
          "name": "_tokenId",
          "type": "uint256"
        }
      ],
      "name": "Approval",
      "type": "event"
    },
    {
      "anonymous": false,
      "inputs": [
        {
          "indexed": false,
          "internalType": "uint256",
          "name": "cartaId",
          "type": "uint256"
        },
        {
          "indexed": false,
          "internalType": "uint256",
          "name": "descripcion",
          "type": "uint256"
        },
        {
          "indexed": false,
          "internalType": "uint8",
          "name": "tipo",
          "type": "uint8"
        }
      ],
      "name": "NuevaCarta",
      "type": "event"
    },
    {
      "anonymous": false,
      "inputs": [
        {
          "indexed": true,
          "internalType": "address",
          "name": "previousOwner",
          "type": "address"
        },
        {
          "indexed": true,
          "internalType": "address",
          "name": "newOwner",
          "type": "address"
        }
      ],
      "name": "OwnershipTransferred",
      "type": "event"
    },
    {
      "anonymous": false,
      "inputs": [
        {
          "indexed": true,
          "internalType": "address",
          "name": "_from",
          "type": "address"
        },
        {
          "indexed": true,
          "internalType": "address",
          "name": "_to",
          "type": "address"
        },
        {
          "indexed": false,
          "internalType": "uint256",
          "name": "_tokenId",
          "type": "uint256"
        }
      ],
      "name": "Transfer",
      "type": "event"
    },
    {
      "inputs": [
        {
          "internalType": "uint256",
          "name": "",
          "type": "uint256"
        }
      ],
      "name": "cartaAPersona",
      "outputs": [
        {
          "internalType": "address",
          "name": "",
          "type": "address"
        }
      ],
      "stateMutability": "view",
      "type": "function",
      "constant": true
    },
    {
      "inputs": [
        {
          "internalType": "uint256",
          "name": "",
          "type": "uint256"
        }
      ],
      "name": "cartas",
      "outputs": [
        {
          "internalType": "uint256",
          "name": "descripcion",
          "type": "uint256"
        },
        {
          "internalType": "uint8",
          "name": "tipo",
          "type": "uint8"
        },
        {
          "internalType": "bool",
          "name": "enSubasta",
          "type": "bool"
        }
      ],
      "stateMutability": "view",
      "type": "function",
      "constant": true
    },
    {
      "inputs": [],
      "name": "getCartas",
      "outputs": [
        {
          "internalType": "uint256[]",
          "name": "",
          "type": "uint256[]"
        },
        {
          "internalType": "uint8[]",
          "name": "",
          "type": "uint8[]"
        }
      ],
      "stateMutability": "view",
      "type": "function",
      "constant": true
    },
    {
      "inputs": [
        {
          "internalType": "address",
          "name": "_owner",
          "type": "address"
        }
      ],
      "name": "getCartasDe",
      "outputs": [
        {
          "internalType": "uint256[]",
          "name": "",
          "type": "uint256[]"
        },
        {
          "internalType": "uint256[]",
          "name": "",
          "type": "uint256[]"
        },
        {
          "internalType": "uint8[]",
          "name": "",
          "type": "uint8[]"
        }
      ],
      "stateMutability": "view",
      "type": "function",
      "constant": true
    },
    {
      "inputs": [],
      "name": "name",
      "outputs": [
        {
          "internalType": "string",
          "name": "",
          "type": "string"
        }
      ],
      "stateMutability": "view",
      "type": "function",
      "constant": true
    },
    {
      "inputs": [],
      "name": "owner",
      "outputs": [
        {
          "internalType": "address",
          "name": "",
          "type": "address"
        }
      ],
      "stateMutability": "view",
      "type": "function",
      "constant": true
    },
    {
      "inputs": [],
      "name": "renounceOwnership",
      "outputs": [],
      "stateMutability": "nonpayable",
      "type": "function"
    },
    {
      "inputs": [],
      "name": "symbol",
      "outputs": [
        {
          "internalType": "string",
          "name": "",
          "type": "string"
        }
      ],
      "stateMutability": "view",
      "type": "function",
      "constant": true
    },
    {
      "inputs": [
        {
          "internalType": "address",
          "name": "newOwner",
          "type": "address"
        }
      ],
      "name": "transferOwnership",
      "outputs": [],
      "stateMutability": "nonpayable",
      "type": "function"
    },
    {
      "inputs": [],
      "name": "crearCartaAleatoria",
      "outputs": [
        {
          "internalType": "uint256",
          "name": "",
          "type": "uint256"
        }
      ],
      "stateMutability": "nonpayable",
      "type": "function"
    },
    {
      "inputs": [
        {
          "internalType": "address",
          "name": "_duenio",
          "type": "address"
        },
        {
          "internalType": "uint256",
          "name": "_idCarta",
          "type": "uint256"
        },
        {
          "internalType": "uint256",
          "name": "_incrementoOferta",
          "type": "uint256"
        },
        {
          "internalType": "uint256",
          "name": "_tiempoInicial",
          "type": "uint256"
        },
        {
          "internalType": "uint256",
          "name": "_tiempoFinal",
          "type": "uint256"
        }
      ],
      "name": "subastarCarta",
      "outputs": [
        {
          "internalType": "uint256",
          "name": "",
          "type": "uint256"
        }
      ],
      "stateMutability": "nonpayable",
      "type": "function"
    },
    {
      "inputs": [
        {
          "internalType": "address",
          "name": "_owner",
          "type": "address"
        }
      ],
      "name": "balanceOf",
      "outputs": [
        {
          "internalType": "uint256",
          "name": "_balance",
          "type": "uint256"
        }
      ],
      "stateMutability": "view",
      "type": "function",
      "constant": true
    },
    {
      "inputs": [
        {
          "internalType": "uint256",
          "name": "_tokenId",
          "type": "uint256"
        }
      ],
      "name": "ownerOf",
      "outputs": [
        {
          "internalType": "address",
          "name": "_owner",
          "type": "address"
        }
      ],
      "stateMutability": "view",
      "type": "function",
      "constant": true
    },
    {
      "inputs": [
        {
          "internalType": "address",
          "name": "_to",
          "type": "address"
        },
        {
          "internalType": "uint256",
          "name": "_tokenId",
          "type": "uint256"
        }
      ],
      "name": "transfer",
      "outputs": [],
      "stateMutability": "nonpayable",
      "type": "function"
    },
    {
      "inputs": [
        {
          "internalType": "address",
          "name": "_to",
          "type": "address"
        },
        {
          "internalType": "uint256",
          "name": "_tokenId",
          "type": "uint256"
        }
      ],
      "name": "approve",
      "outputs": [],
      "stateMutability": "nonpayable",
      "type": "function"
    },
    {
      "inputs": [
        {
          "internalType": "uint256",
          "name": "_tokenId",
          "type": "uint256"
        }
      ],
      "name": "takeOwnership",
      "outputs": [],
      "stateMutability": "nonpayable",
      "type": "function"
    },
    {
      "inputs": [],
      "name": "balanceOzToken",
      "outputs": [
        {
          "internalType": "uint256",
          "name": "",
          "type": "uint256"
        }
      ],
      "stateMutability": "view",
      "type": "function",
      "constant": true
    },
    {
      "inputs": [
        {
          "internalType": "address",
          "name": "_ozTokenAddress",
          "type": "address"
        }
      ],
      "name": "setOzTokenAddress",
      "outputs": [],
      "stateMutability": "nonpayable",
      "type": "function"
    },
    {
      "inputs": [
        {
          "internalType": "address",
          "name": "_ozAccountAddress",
          "type": "address"
        }
      ],
      "name": "setOzAccountAddress",
      "outputs": [],
      "stateMutability": "nonpayable",
      "type": "function"
    },
    {
      "inputs": [
        {
          "internalType": "address",
          "name": "_subastaFactoryAddress",
          "type": "address"
        }
      ],
      "name": "setSubastaFactoryAddress",
      "outputs": [],
      "stateMutability": "nonpayable",
      "type": "function"
    }
  ],
  "bytecode": "0x60806040526010600155600154600a6200001a919062000472565b600255600060035560006004556003600560006101000a81548160ff021916908360ff16021790555073c3d1131420135b246b155ba17e32ba9f48c4d6a2600b60006101000a81548173ffffffffffffffffffffffffffffffffffffffff021916908373ffffffffffffffffffffffffffffffffffffffff160217905550600b60009054906101000a900473ffffffffffffffffffffffffffffffffffffffff16600c60006101000a81548173ffffffffffffffffffffffffffffffffffffffff021916908373ffffffffffffffffffffffffffffffffffffffff160217905550600d60009054906101000a900473ffffffffffffffffffffffffffffffffffffffff16600e60006101000a81548173ffffffffffffffffffffffffffffffffffffffff021916908373ffffffffffffffffffffffffffffffffffffffff1602179055506005600f55600360105560016011556003601255731c53954455a6796723b52021c034964dd9e329de601360006101000a81548173ffffffffffffffffffffffffffffffffffffffff021916908373ffffffffffffffffffffffffffffffffffffffff160217905550348015620001d457600080fd5b506040518060400160405280600981526020017f43617274614974656d00000000000000000000000000000000000000000000008152506040518060400160405280600481526020017f4349544d0000000000000000000000000000000000000000000000000000000081525062000261620002556200029b60201b60201c565b620002a360201b60201c565b81600990805190602001906200027992919062000367565b5080600a90805190602001906200029292919062000367565b5050506200065a565b600033905090565b60008060009054906101000a900473ffffffffffffffffffffffffffffffffffffffff169050816000806101000a81548173ffffffffffffffffffffffffffffffffffffffff021916908373ffffffffffffffffffffffffffffffffffffffff1602179055508173ffffffffffffffffffffffffffffffffffffffff168173ffffffffffffffffffffffffffffffffffffffff167f8be0079c531659141344cd1fd0a4f28419497f9722a3daafe3b4186f6b6457e060405160405180910390a35050565b8280546200037590620005b9565b90600052602060002090601f016020900481019282620003995760008555620003e5565b82601f10620003b457805160ff1916838001178555620003e5565b82800160010185558215620003e5579182015b82811115620003e4578251825591602001919060010190620003c7565b5b509050620003f49190620003f8565b5090565b5b8082111562000413576000816000905550600101620003f9565b5090565b6000808291508390505b60018511156200046957808604811115620004415762000440620005ef565b5b6001851615620004515780820291505b808102905062000461856200064d565b945062000421565b94509492505050565b60006200047f82620005af565b91506200048c83620005af565b9250620004bb7fffffffffffffffffffffffffffffffffffffffffffffffffffffffffffffffff8484620004c3565b905092915050565b600082620004d55760019050620005a8565b81620004e55760009050620005a8565b8160018114620004fe576002811462000509576200053f565b6001915050620005a8565b60ff8411156200051e576200051d620005ef565b5b8360020a915084821115620005385762000537620005ef565b5b50620005a8565b5060208310610133831016604e8410600b8410161715620005795782820a905083811115620005735762000572620005ef565b5b620005a8565b62000588848484600162000417565b92509050818404811115620005a257620005a1620005ef565b5b81810290505b9392505050565b6000819050919050565b60006002820490506001821680620005d257607f821691505b60208210811415620005e957620005e86200061e565b5b50919050565b7f4e487b7100000000000000000000000000000000000000000000000000000000600052601160045260246000fd5b7f4e487b7100000000000000000000000000000000000000000000000000000000600052602260045260246000fd5b60008160011c9050919050565b6130e7806200066a6000396000f3fe608060405234801561001057600080fd5b506004361061012c5760003560e01c80638da5cb5b116100ad578063c1bf405911610071578063c1bf405914610335578063c2fcde8914610351578063c53714fb14610370578063d2a10c481461038c578063f2fde38b146103bc5761012c565b80638da5cb5b146102a357806395d89b41146102c1578063a9059cbb146102df578063b2e6ceeb146102fb578063bc24b16a146103175761012c565b80635b102ab8116100f45780635b102ab8146101e95780636352211e1461021b57806370a082311461024b578063715018a61461027b5780637e5f9591146102855761012c565b806306fdde0314610131578063095ea7b31461014f5780634a358c1e1461016b578063582ddb381461019d57806358a8788f146101cd575b600080fd5b6101396103d8565b6040516101469190612b76565b60405180910390f35b61016960048036038101906101649190612382565b61046a565b005b61018560048036038101906101809190612359565b6105c8565b60405161019493929190612ad8565b60405180910390f35b6101b760048036038101906101b2919061245e565b610997565b6040516101c49190612a33565b60405180910390f35b6101e760048036038101906101e29190612359565b6109ca565b005b61020360048036038101906101fe919061245e565b610aed565b60405161021293929190612d2a565b60405180910390f35b6102356004803603810190610230919061245e565b610b41565b6040516102429190612a33565b60405180910390f35b61026560048036038101906102609190612359565b610b7e565b6040516102729190612cd8565b60405180910390f35b610283610bc7565b005b61028d610c4f565b60405161029a9190612cd8565b60405180910390f35b6102ab610d01565b6040516102b89190612a33565b60405180910390f35b6102c9610d2a565b6040516102d69190612b76565b60405180910390f35b6102f960048036038101906102f49190612382565b610dbc565b005b6103156004803603810190610310919061245e565b610e6e565b005b61031f610ef5565b60405161032c9190612cd8565b60405180910390f35b61034f600480360381019061034a9190612359565b6111cd565b005b61035961128d565b604051610367929190612b24565b60405180910390f35b61038a60048036038101906103859190612359565b6114e7565b005b6103a660048036038101906103a191906123be565b61160a565b6040516103b39190612cd8565b60405180910390f35b6103d660048036038101906103d19190612359565b611af8565b005b6060600980546103e790612ee7565b80601f016020809104026020016040519081016040528092919081815260200182805461041390612ee7565b80156104605780601f1061043557610100808354040283529160200191610460565b820191906000526020600020905b81548152906001019060200180831161044357829003601f168201915b5050505050905090565b806007600082815260200190815260200160002060009054906101000a900473ffffffffffffffffffffffffffffffffffffffff1673ffffffffffffffffffffffffffffffffffffffff163373ffffffffffffffffffffffffffffffffffffffff161461050c576040517f08c379a000000000000000000000000000000000000000000000000000000000815260040161050390612bf8565b60405180910390fd5b826014600084815260200190815260200160002060006101000a81548173ffffffffffffffffffffffffffffffffffffffff021916908373ffffffffffffffffffffffffffffffffffffffff1602179055508273ffffffffffffffffffffffffffffffffffffffff163373ffffffffffffffffffffffffffffffffffffffff167f8c5be1e5ebec7d5bd14f71427d1e84f3dd0314c0f7b2291e5b200ac8c7c3b925846040516105bb9190612cd8565b60405180910390a3505050565b60608060606000600860008673ffffffffffffffffffffffffffffffffffffffff1673ffffffffffffffffffffffffffffffffffffffff16815260200190815260200160002054905060008167ffffffffffffffff811115610653577f4e487b7100000000000000000000000000000000000000000000000000000000600052604160045260246000fd5b6040519080825280602002602001820160405280156106815781602001602082028036833780820191505090505b50905060008267ffffffffffffffff8111156106c6577f4e487b7100000000000000000000000000000000000000000000000000000000600052604160045260246000fd5b6040519080825280602002602001820160405280156106f45781602001602082028036833780820191505090505b50905060008367ffffffffffffffff811115610739577f4e487b7100000000000000000000000000000000000000000000000000000000600052604160045260246000fd5b6040519080825280602002602001820160405280156107675781602001602082028036833780820191505090505b5090506000805b600680549050811015610981578973ffffffffffffffffffffffffffffffffffffffff166007600083815260200190815260200160002060009054906101000a900473ffffffffffffffffffffffffffffffffffffffff1673ffffffffffffffffffffffffffffffffffffffff16141561096e578085838151811061081c577f4e487b7100000000000000000000000000000000000000000000000000000000600052603260045260246000fd5b60200260200101818152505060068181548110610862577f4e487b7100000000000000000000000000000000000000000000000000000000600052603260045260246000fd5b9060005260206000209060020201600001548483815181106108ad577f4e487b7100000000000000000000000000000000000000000000000000000000600052603260045260246000fd5b602002602001018181525050600681815481106108f3577f4e487b7100000000000000000000000000000000000000000000000000000000600052603260045260246000fd5b906000526020600020906002020160010160009054906101000a900460ff1683838151811061094b577f4e487b7100000000000000000000000000000000000000000000000000000000600052603260045260246000fd5b602002602001019060ff16908160ff1681525050818061096a90612f19565b9250505b808061097990612f19565b91505061076e565b5083838397509750975050505050509193909250565b60076020528060005260406000206000915054906101000a900473ffffffffffffffffffffffffffffffffffffffff1681565b6109d2611bf0565b73ffffffffffffffffffffffffffffffffffffffff166109f0610d01565b73ffffffffffffffffffffffffffffffffffffffff1614610a46576040517f08c379a0000000000000000000000000000000000000000000000000000000008152600401610a3d90612c38565b60405180910390fd5b80600b60006101000a81548173ffffffffffffffffffffffffffffffffffffffff021916908373ffffffffffffffffffffffffffffffffffffffff160217905550600b60009054906101000a900473ffffffffffffffffffffffffffffffffffffffff16600c60006101000a81548173ffffffffffffffffffffffffffffffffffffffff021916908373ffffffffffffffffffffffffffffffffffffffff16021790555050565b60068181548110610afd57600080fd5b90600052602060002090600202016000915090508060000154908060010160009054906101000a900460ff16908060010160019054906101000a900460ff16905083565b60006007600083815260200190815260200160002060009054906101000a900473ffffffffffffffffffffffffffffffffffffffff169050919050565b6000600860008373ffffffffffffffffffffffffffffffffffffffff1673ffffffffffffffffffffffffffffffffffffffff168152602001908152602001600020549050919050565b610bcf611bf0565b73ffffffffffffffffffffffffffffffffffffffff16610bed610d01565b73ffffffffffffffffffffffffffffffffffffffff1614610c43576040517f08c379a0000000000000000000000000000000000000000000000000000000008152600401610c3a90612c38565b60405180910390fd5b610c4d6000611bf8565b565b6000600c60009054906101000a900473ffffffffffffffffffffffffffffffffffffffff1673ffffffffffffffffffffffffffffffffffffffff166370a08231336040518263ffffffff1660e01b8152600401610cac9190612a33565b60206040518083038186803b158015610cc457600080fd5b505afa158015610cd8573d6000803e3d6000fd5b505050506040513d601f19601f82011682018060405250810190610cfc9190612487565b905090565b60008060009054906101000a900473ffffffffffffffffffffffffffffffffffffffff16905090565b6060600a8054610d3990612ee7565b80601f0160208091040260200160405190810160405280929190818152602001828054610d6590612ee7565b8015610db25780601f10610d8757610100808354040283529160200191610db2565b820191906000526020600020905b815481529060010190602001808311610d9557829003601f168201915b5050505050905090565b806007600082815260200190815260200160002060009054906101000a900473ffffffffffffffffffffffffffffffffffffffff1673ffffffffffffffffffffffffffffffffffffffff163373ffffffffffffffffffffffffffffffffffffffff1614610e5e576040517f08c379a0000000000000000000000000000000000000000000000000000000008152600401610e5590612bf8565b60405180910390fd5b610e69338484611cbc565b505050565b3373ffffffffffffffffffffffffffffffffffffffff166014600083815260200190815260200160002060009054906101000a900473ffffffffffffffffffffffffffffffffffffffff1673ffffffffffffffffffffffffffffffffffffffff1614610ed957600080fd5b6000610ee482610b41565b9050610ef1813384611cbc565b5050565b60008073ffffffffffffffffffffffffffffffffffffffff163373ffffffffffffffffffffffffffffffffffffffff161415610f66576040517f08c379a0000000000000000000000000000000000000000000000000000000008152600401610f5d90612cb8565b60405180910390fd5b600f54600c60009054906101000a900473ffffffffffffffffffffffffffffffffffffffff1673ffffffffffffffffffffffffffffffffffffffff166370a08231336040518263ffffffff1660e01b8152600401610fc49190612a33565b60206040518083038186803b158015610fdc57600080fd5b505afa158015610ff0573d6000803e3d6000fd5b505050506040513d601f19601f820116820180604052508101906110149190612487565b1015611055576040517f08c379a000000000000000000000000000000000000000000000000000000000815260040161104c90612c18565b60405180910390fd5b600c60009054906101000a900473ffffffffffffffffffffffffffffffffffffffff1673ffffffffffffffffffffffffffffffffffffffff166323b872dd33601360009054906101000a900473ffffffffffffffffffffffffffffffffffffffff16600f546040518463ffffffff1660e01b81526004016110d893929190612a4e565b602060405180830381600087803b1580156110f257600080fd5b505af1158015611106573d6000803e3d6000fd5b505050506040513d601f19601f8201168201806040525081019061112a9190612435565b50600061113561209b565b905060006111416120fd565b905061114d828261216f565b3373ffffffffffffffffffffffffffffffffffffffff16600073ffffffffffffffffffffffffffffffffffffffff167fddf252ad1be2c89b69c2b068fc378daa952ba7f163c4a11628f55a4df523b3ef60016040516111ac9190612b5b565b60405180910390a360016006805490506111c69190612def565b9250505090565b6111d5611bf0565b73ffffffffffffffffffffffffffffffffffffffff166111f3610d01565b73ffffffffffffffffffffffffffffffffffffffff1614611249576040517f08c379a000000000000000000000000000000000000000000000000000000000815260040161124090612c38565b60405180910390fd5b80601360006101000a81548173ffffffffffffffffffffffffffffffffffffffff021916908373ffffffffffffffffffffffffffffffffffffffff16021790555050565b606080600060068054905067ffffffffffffffff8111156112d7577f4e487b7100000000000000000000000000000000000000000000000000000000600052604160045260246000fd5b6040519080825280602002602001820160405280156113055781602001602082028036833780820191505090505b509050600060068054905067ffffffffffffffff81111561134f577f4e487b7100000000000000000000000000000000000000000000000000000000600052604160045260246000fd5b60405190808252806020026020018201604052801561137d5781602001602082028036833780820191505090505b50905060005b6006805490508110156114da57600681815481106113ca577f4e487b7100000000000000000000000000000000000000000000000000000000600052603260045260246000fd5b906000526020600020906002020160000154838281518110611415577f4e487b7100000000000000000000000000000000000000000000000000000000600052603260045260246000fd5b6020026020010181815250506006818154811061145b577f4e487b7100000000000000000000000000000000000000000000000000000000600052603260045260246000fd5b906000526020600020906002020160010160009054906101000a900460ff168282815181106114b3577f4e487b7100000000000000000000000000000000000000000000000000000000600052603260045260246000fd5b602002602001019060ff16908160ff168152505080806114d290612f19565b915050611383565b5081819350935050509091565b6114ef611bf0565b73ffffffffffffffffffffffffffffffffffffffff1661150d610d01565b73ffffffffffffffffffffffffffffffffffffffff1614611563576040517f08c379a000000000000000000000000000000000000000000000000000000000815260040161155a90612c38565b60405180910390fd5b80600d60006101000a81548173ffffffffffffffffffffffffffffffffffffffff021916908373ffffffffffffffffffffffffffffffffffffffff160217905550600d60009054906101000a900473ffffffffffffffffffffffffffffffffffffffff16600e60006101000a81548173ffffffffffffffffffffffffffffffffffffffff021916908373ffffffffffffffffffffffffffffffffffffffff16021790555050565b6000846007600082815260200190815260200160002060009054906101000a900473ffffffffffffffffffffffffffffffffffffffff1673ffffffffffffffffffffffffffffffffffffffff163373ffffffffffffffffffffffffffffffffffffffff16146116ae576040517f08c379a00000000000000000000000000000000000000000000000000000000081526004016116a590612bf8565b60405180910390fd5b85600681815481106116e9577f4e487b7100000000000000000000000000000000000000000000000000000000600052603260045260246000fd5b906000526020600020906002020160010160019054906101000a900460ff1615611748576040517f08c379a000000000000000000000000000000000000000000000000000000000815260040161173f90612c58565b60405180910390fd5b866006805490508110611790576040517f08c379a000000000000000000000000000000000000000000000000000000000815260040161178790612bd8565b60405180910390fd5b600073ffffffffffffffffffffffffffffffffffffffff163373ffffffffffffffffffffffffffffffffffffffff161415611800576040517f08c379a00000000000000000000000000000000000000000000000000000000081526004016117f790612c98565b60405180910390fd5b601254600c60009054906101000a900473ffffffffffffffffffffffffffffffffffffffff1673ffffffffffffffffffffffffffffffffffffffff166370a08231336040518263ffffffff1660e01b815260040161185e9190612a33565b60206040518083038186803b15801561187657600080fd5b505afa15801561188a573d6000803e3d6000fd5b505050506040513d601f19601f820116820180604052508101906118ae9190612487565b10156118ef576040517f08c379a00000000000000000000000000000000000000000000000000000000081526004016118e690612bb8565b60405180910390fd5b6000600e60009054906101000a900473ffffffffffffffffffffffffffffffffffffffff1673ffffffffffffffffffffffffffffffffffffffff16630ddaf5858b8b8b8b8b6040518663ffffffff1660e01b8152600401611954959493929190612a85565b602060405180830381600087803b15801561196e57600080fd5b505af1158015611982573d6000803e3d6000fd5b505050506040513d601f19601f820116820180604052508101906119a69190612487565b9050600c60009054906101000a900473ffffffffffffffffffffffffffffffffffffffff1673ffffffffffffffffffffffffffffffffffffffff166323b872dd33601360009054906101000a900473ffffffffffffffffffffffffffffffffffffffff166012546040518463ffffffff1660e01b8152600401611a2b93929190612a4e565b602060405180830381600087803b158015611a4557600080fd5b505af1158015611a59573d6000803e3d6000fd5b505050506040513d601f19601f82011682018060405250810190611a7d9190612435565b50600060068a81548110611aba577f4e487b7100000000000000000000000000000000000000000000000000000000600052603260045260246000fd5b9060005260206000209060020201905060018160010160016101000a81548160ff021916908315150217905550819550505050505095945050505050565b611b00611bf0565b73ffffffffffffffffffffffffffffffffffffffff16611b1e610d01565b73ffffffffffffffffffffffffffffffffffffffff1614611b74576040517f08c379a0000000000000000000000000000000000000000000000000000000008152600401611b6b90612c38565b60405180910390fd5b600073ffffffffffffffffffffffffffffffffffffffff168173ffffffffffffffffffffffffffffffffffffffff161415611be4576040517f08c379a0000000000000000000000000000000000000000000000000000000008152600401611bdb90612b98565b60405180910390fd5b611bed81611bf8565b50565b600033905090565b60008060009054906101000a900473ffffffffffffffffffffffffffffffffffffffff169050816000806101000a81548173ffffffffffffffffffffffffffffffffffffffff021916908373ffffffffffffffffffffffffffffffffffffffff1602179055508173ffffffffffffffffffffffffffffffffffffffff168173ffffffffffffffffffffffffffffffffffffffff167f8be0079c531659141344cd1fd0a4f28419497f9722a3daafe3b4186f6b6457e060405160405180910390a35050565b601054600c60009054906101000a900473ffffffffffffffffffffffffffffffffffffffff1673ffffffffffffffffffffffffffffffffffffffff166370a08231846040518263ffffffff1660e01b8152600401611d1a9190612a33565b60206040518083038186803b158015611d3257600080fd5b505afa158015611d46573d6000803e3d6000fd5b505050506040513d601f19601f82011682018060405250810190611d6a9190612487565b1015611dab576040517f08c379a0000000000000000000000000000000000000000000000000000000008152600401611da290612c78565b60405180910390fd5b600c60009054906101000a900473ffffffffffffffffffffffffffffffffffffffff1673ffffffffffffffffffffffffffffffffffffffff166323b872dd83856010546040518463ffffffff1660e01b8152600401611e0c93929190612a4e565b602060405180830381600087803b158015611e2657600080fd5b505af1158015611e3a573d6000803e3d6000fd5b505050506040513d601f19601f82011682018060405250810190611e5e9190612435565b50600c60009054906101000a900473ffffffffffffffffffffffffffffffffffffffff1673ffffffffffffffffffffffffffffffffffffffff166323b872dd84601360009054906101000a900473ffffffffffffffffffffffffffffffffffffffff166011546040518463ffffffff1660e01b8152600401611ee293929190612a4e565b602060405180830381600087803b158015611efc57600080fd5b505af1158015611f10573d6000803e3d6000fd5b505050506040513d601f19601f82011682018060405250810190611f349190612435565b50600860008373ffffffffffffffffffffffffffffffffffffffff1673ffffffffffffffffffffffffffffffffffffffff1681526020019081526020016000206000815480929190611f8590612f19565b9190505550600860008473ffffffffffffffffffffffffffffffffffffffff1673ffffffffffffffffffffffffffffffffffffffff1681526020019081526020016000206000815480929190611fda90612ebd565b9190505550816007600083815260200190815260200160002060006101000a81548173ffffffffffffffffffffffffffffffffffffffff021916908373ffffffffffffffffffffffffffffffffffffffff1602179055508173ffffffffffffffffffffffffffffffffffffffff168373ffffffffffffffffffffffffffffffffffffffff167fddf252ad1be2c89b69c2b068fc378daa952ba7f163c4a11628f55a4df523b3ef8360405161208e9190612cd8565b60405180910390a3505050565b6000600360008154809291906120b090612f19565b9190505550600042336003546040516020016120ce939291906129f6565b6040516020818303038152906040528051906020012060001c9050600254816120f79190612f90565b91505090565b60006004600081548092919061211290612f19565b919050555060004233600454604051602001612130939291906129f6565b6040516020818303038152906040528051906020012060001c9050600560009054906101000a900460ff1660ff16816121699190612f90565b91505090565b600660405180606001604052808481526020018360ff1681526020016000151581525090806001815401808255809150506001900390600052602060002090600202016000909190919091506000820151816000015560208201518160010160006101000a81548160ff021916908360ff16021790555060408201518160010160016101000a81548160ff02191690831515021790555050506000600160068054905061221c9190612def565b9050336007600083815260200190815260200160002060006101000a81548173ffffffffffffffffffffffffffffffffffffffff021916908373ffffffffffffffffffffffffffffffffffffffff160217905550600860003373ffffffffffffffffffffffffffffffffffffffff1673ffffffffffffffffffffffffffffffffffffffff16815260200190815260200160002060008154809291906122c090612f19565b91905055507f6ca85b4ba4ace1b9d8e266c2cb00dcb3314c66609fd525cfab3301b2e306748d8184846040516122f893929190612cf3565b60405180910390a1505050565b6000813590506123148161306c565b92915050565b60008151905061232981613083565b92915050565b60008135905061233e8161309a565b92915050565b6000815190506123538161309a565b92915050565b60006020828403121561236b57600080fd5b600061237984828501612305565b91505092915050565b6000806040838503121561239557600080fd5b60006123a385828601612305565b92505060206123b48582860161232f565b9150509250929050565b600080600080600060a086880312156123d657600080fd5b60006123e488828901612305565b95505060206123f58882890161232f565b94505060406124068882890161232f565b93505060606124178882890161232f565b92505060806124288882890161232f565b9150509295509295909350565b60006020828403121561244757600080fd5b60006124558482850161231a565b91505092915050565b60006020828403121561247057600080fd5b600061247e8482850161232f565b91505092915050565b60006020828403121561249957600080fd5b60006124a784828501612344565b91505092915050565b60006124bc83836129a3565b60208301905092915050565b60006124d483836129d8565b60208301905092915050565b6124e981612e23565b82525050565b6125006124fb82612e23565b612f62565b82525050565b600061251182612d81565b61251b8185612dbc565b935061252683612d61565b8060005b8381101561255757815161253e88826124b0565b975061254983612da2565b92505060018101905061252a565b5085935050505092915050565b600061256f82612d8c565b6125798185612dcd565b935061258483612d71565b8060005b838110156125b557815161259c88826124c8565b97506125a783612daf565b925050600181019050612588565b5085935050505092915050565b6125cb81612e35565b82525050565b6125da81612e78565b82525050565b60006125eb82612d97565b6125f58185612dde565b9350612605818560208601612e8a565b61260e8161304e565b840191505092915050565b6000612626602683612dde565b91507f4f776e61626c653a206e6577206f776e657220697320746865207a65726f206160008301527f64647265737300000000000000000000000000000000000000000000000000006020830152604082019050919050565b600061268c603083612dde565b91507f4e6f207469656e652073616c646f20737566696369656e74652070617261207360008301527f75626173746172206c61206361727461000000000000000000000000000000006020830152604082019050919050565b60006126f2601283612dde565b91507f4c61206361727461206e6f2065786973746500000000000000000000000000006000830152602082019050919050565b6000612732603a83612dde565b91507f536f6c6f20656c206475656e696f206465206c6120636172746120707565646560008301527f207265616c697a61722065737461207472616e73616363696f6e0000000000006020830152604082019050919050565b6000612798603083612dde565b91507f4e6f207469656e652073616c646f20737566696369656e74652070617261207260008301527f65616c697a6172206c61206361727461000000000000000000000000000000006020830152604082019050919050565b60006127fe602083612dde565b91507f4f776e61626c653a2063616c6c6572206973206e6f7420746865206f776e65726000830152602082019050919050565b600061283e601e83612dde565b91507f4c612063617274612065737461207369656e646f2073756261737461646100006000830152602082019050919050565b600061287e603883612dde565b91507f4e6f207469656e652073616c646f20737566696369656e74652070617261207260008301527f65616c697a6172206c61207472616e73666572656e63696100000000000000006020830152604082019050919050565b60006128e4602683612dde565b91507f4572726f723a20646972656363696f6e206365726f20737562617374616e646f60008301527f20636172746100000000000000000000000000000000000000000000000000006020830152604082019050919050565b600061294a602383612dde565b91507f4572726f723a20646972656363696f6e206365726f20637265616e646f20636160008301527f72746100000000000000000000000000000000000000000000000000000000006020830152604082019050919050565b6129ac81612e61565b82525050565b6129bb81612e61565b82525050565b6129d26129cd82612e61565b612f86565b82525050565b6129e181612e6b565b82525050565b6129f081612e6b565b82525050565b6000612a0282866129c1565b602082019150612a1282856124ef565b601482019150612a2282846129c1565b602082019150819050949350505050565b6000602082019050612a4860008301846124e0565b92915050565b6000606082019050612a6360008301866124e0565b612a7060208301856124e0565b612a7d60408301846129b2565b949350505050565b600060a082019050612a9a60008301886124e0565b612aa760208301876129b2565b612ab460408301866129b2565b612ac160608301856129b2565b612ace60808301846129b2565b9695505050505050565b60006060820190508181036000830152612af28186612506565b90508181036020830152612b068185612506565b90508181036040830152612b1a8184612564565b9050949350505050565b60006040820190508181036000830152612b3e8185612506565b90508181036020830152612b528184612564565b90509392505050565b6000602082019050612b7060008301846125d1565b92915050565b60006020820190508181036000830152612b9081846125e0565b905092915050565b60006020820190508181036000830152612bb181612619565b9050919050565b60006020820190508181036000830152612bd18161267f565b9050919050565b60006020820190508181036000830152612bf1816126e5565b9050919050565b60006020820190508181036000830152612c1181612725565b9050919050565b60006020820190508181036000830152612c318161278b565b9050919050565b60006020820190508181036000830152612c51816127f1565b9050919050565b60006020820190508181036000830152612c7181612831565b9050919050565b60006020820190508181036000830152612c9181612871565b9050919050565b60006020820190508181036000830152612cb1816128d7565b9050919050565b60006020820190508181036000830152612cd18161293d565b9050919050565b6000602082019050612ced60008301846129b2565b92915050565b6000606082019050612d0860008301866129b2565b612d1560208301856129b2565b612d2260408301846129e7565b949350505050565b6000606082019050612d3f60008301866129b2565b612d4c60208301856129e7565b612d5960408301846125c2565b949350505050565b6000819050602082019050919050565b6000819050602082019050919050565b600081519050919050565b600081519050919050565b600081519050919050565b6000602082019050919050565b6000602082019050919050565b600082825260208201905092915050565b600082825260208201905092915050565b600082825260208201905092915050565b6000612dfa82612e61565b9150612e0583612e61565b925082821015612e1857612e17612fc1565b5b828203905092915050565b6000612e2e82612e41565b9050919050565b60008115159050919050565b600073ffffffffffffffffffffffffffffffffffffffff82169050919050565b6000819050919050565b600060ff82169050919050565b6000612e8382612e61565b9050919050565b60005b83811015612ea8578082015181840152602081019050612e8d565b83811115612eb7576000848401525b50505050565b6000612ec882612e61565b91506000821415612edc57612edb612fc1565b5b600182039050919050565b60006002820490506001821680612eff57607f821691505b60208210811415612f1357612f1261301f565b5b50919050565b6000612f2482612e61565b91507fffffffffffffffffffffffffffffffffffffffffffffffffffffffffffffffff821415612f5757612f56612fc1565b5b600182019050919050565b6000612f6d82612f74565b9050919050565b6000612f7f8261305f565b9050919050565b6000819050919050565b6000612f9b82612e61565b9150612fa683612e61565b925082612fb657612fb5612ff0565b5b828206905092915050565b7f4e487b7100000000000000000000000000000000000000000000000000000000600052601160045260246000fd5b7f4e487b7100000000000000000000000000000000000000000000000000000000600052601260045260246000fd5b7f4e487b7100000000000000000000000000000000000000000000000000000000600052602260045260246000fd5b6000601f19601f8301169050919050565b60008160601b9050919050565b61307581612e23565b811461308057600080fd5b50565b61308c81612e35565b811461309757600080fd5b50565b6130a381612e61565b81146130ae57600080fd5b5056fea2646970667358221220e6ca46e2ae6906a1a0b90e1a9fceab570292083bf3911c5e3b0c0b651f3ae09664736f6c63430008000033",
  "immutableReferences": {},
  "source": "pragma solidity ^0.8.0;\n\nimport \"./CartaHelper.sol\";\nimport \"./erc721.sol\";\n\ninterface OzInterface {\n    function balanceOf(address account) external view returns (uint);\n    function transfer(address recipient, uint amount) external returns (bool);\n    function approve(address spender, uint amount) external returns (bool);\n    function transferFrom(address sender, address recipient, uint amount) external returns (bool);\n}\n\ninterface ISubastaFactory {\n    function crearSubasta(address _duenio, uint _idCarta, uint _incrementoOferta, uint _tiempoInicial, uint _tiempoFinal) external returns(uint);\n}\n\n/**\n * @title CartaItem\n * @dev Funciones de administracion de cartas como \n * compra de las mismas o transferencia de ownership\n */\ncontract CartaItem is CartaHelper, ERC721, ERC721Metadata {\n    address ozAddress = 0xC3D1131420135b246B155BA17e32ba9f48c4D6A2;\n    OzInterface ozContract = OzInterface(ozAddress);\n\n    address subastaFactoryAddress;\n    ISubastaFactory subastaFactory = ISubastaFactory(subastaFactoryAddress);\n\n    uint costoCarta = 5;\n    uint costoTransferencia = 3;\n    uint comisionTransferencia = 1;\n    uint costoSubastarCarta = 3;\n    address ozAccount = 0x1C53954455A6796723B52021c034964DD9E329dE;\n\n    mapping (uint => address) cartaApprovals;\n\n    constructor() public ERC721Metadata(\"CartaItem\", \"CITM\") {}\n\n    /**\n     * @dev Crea una carta aleatoria\n     * @return id de la carta creada\n     */\n    function crearCartaAleatoria() public returns (uint256) {\n        require(msg.sender != address(0), \"Error: direccion cero creando carta\");\n        require(ozContract.balanceOf(msg.sender) >= costoCarta, \"No tiene saldo suficiente para realizar la carta\");\n        ozContract.transferFrom(msg.sender, ozAccount, costoCarta);\n        uint256 descripcionAleatoria = _crearDescripcionAleatoria();\n        uint8 tipoAleatorio = _crearTipoAleatorio();\n        _crearCarta(descripcionAleatoria, tipoAleatorio);\n        emit Transfer(address(0), msg.sender, 1);\n        return cartas.length - 1;\n    }\n\n    /**\n     * @dev Se subasta una carta\n     * @return id de la subasta\n     */\n    function subastarCarta(address _duenio, uint _idCarta, uint _incrementoOferta, uint _tiempoInicial, uint _tiempoFinal) public \n    soloDuenioDe(_idCarta) cartaNoEnSubasta(_idCarta) cartaExiste(_idCarta) returns (uint) {\n        require(msg.sender != address(0), \"Error: direccion cero subastando carta\");\n        require(ozContract.balanceOf(msg.sender) >= costoSubastarCarta, \"No tiene saldo suficiente para subastar la carta\");\n        uint idSubasta = subastaFactory.crearSubasta(_duenio, _idCarta, _incrementoOferta, _tiempoInicial, _tiempoFinal);\n        ozContract.transferFrom(msg.sender, ozAccount, costoSubastarCarta);\n        Carta storage carta = cartas[_idCarta];\n        carta.enSubasta = true;\n        return idSubasta;\n    }\n\n    function balanceOf(address _owner) public view override returns (uint256 _balance) {\n        return personaCantidadCartas[_owner];\n    }\n\n    function ownerOf(uint256 _tokenId) public view override returns (address _owner) {\n        return cartaAPersona[_tokenId];\n    }\n\n    /**\n     * @dev Se transfiere una carta determinada\n     * @param _from dueo actua de la carta, quien recibe OZT a cambio de la carta\n     * @param _to quien paga la transferencia y quiere obtener la carta\n     * @param _tokenId el id de la carta a transferir\n     */\n    function _transfer(address _from, address _to, uint256 _tokenId) private {\n        require(ozContract.balanceOf(_to) >= costoTransferencia, \"No tiene saldo suficiente para realizar la transferencia\");\n        ozContract.transferFrom(_to, _from, costoTransferencia);\n        ozContract.transferFrom(_from, ozAccount, comisionTransferencia); // Comision\n        \n        personaCantidadCartas[_to]++;\n        personaCantidadCartas[_from]--;\n        cartaAPersona[_tokenId] = _to;\n        Transfer(_from, _to, _tokenId);\n    }\n\n    function transfer(address _to, uint256 _tokenId) public override soloDuenioDe(_tokenId) {\n        _transfer(msg.sender, _to, _tokenId);\n    }\n\n    function approve(address _to, uint256 _tokenId) public override soloDuenioDe(_tokenId) {\n        cartaApprovals[_tokenId] = _to;\n        Approval(msg.sender, _to, _tokenId);\n    }\n\n    function takeOwnership(uint256 _tokenId) public override {\n        require(cartaApprovals[_tokenId] == msg.sender);\n        address owner = ownerOf(_tokenId);\n        _transfer(owner, msg.sender, _tokenId);\n    }\n\n    function balanceOzToken() external view returns (uint) {\n        return ozContract.balanceOf(msg.sender);\n    }\n\n    /**\n     * @dev Para cambiar la direccion del contrato OzToken\n     */\n    function setOzTokenAddress(address _ozTokenAddress) public onlyOwner {\n        ozAddress = _ozTokenAddress;\n        ozContract = OzInterface(ozAddress);\n    }\n\n    /**\n     * @dev Se setea la cuenta a la cual se le va a depositar el pago     \n     */\n    function setOzAccountAddress(address _ozAccountAddress) public onlyOwner {\n        ozAccount = _ozAccountAddress;\n    }\n\n    /**\n     * @dev Para cambiar la direccion del contrato de subasta factory\n     */\n    function setSubastaFactoryAddress(address _subastaFactoryAddress) public onlyOwner {\n        subastaFactoryAddress = _subastaFactoryAddress;\n        subastaFactory = ISubastaFactory(subastaFactoryAddress);\n    }\n}",
  "sourcePath": "/Users/filyankaragoz/Documents/teoria-del-lenguaje/truffle-project/contracts/CartaItem.sol",
  "compiler": {
    "name": "solc",
    "version": "0.8.0+commit.c7dfd78e.Emscripten.clang"
  },
  "schemaVersion": "3.4.1",
  "updatedAt": "2021-07-12T03:43:28.488Z",
  "networkType": "ethereum",
  "devdoc": {
    "details": "Funciones de administracion de cartas como  compra de las mismas o transferencia de ownership",
    "kind": "dev",
    "methods": {
      "crearCartaAleatoria()": {
        "details": "Crea una carta aleatoria",
        "returns": {
          "_0": "id de la carta creada"
        }
      },
      "owner()": {
        "details": "Returns the address of the current owner."
      },
      "renounceOwnership()": {
        "details": "Leaves the contract without owner. It will not be possible to call `onlyOwner` functions anymore. Can only be called by the current owner. NOTE: Renouncing ownership will leave the contract without an owner, thereby removing any functionality that is only available to the owner."
      },
      "setOzAccountAddress(address)": {
        "details": "Se setea la cuenta a la cual se le va a depositar el pago     "
      },
      "setOzTokenAddress(address)": {
        "details": "Para cambiar la direccion del contrato OzToken"
      },
      "setSubastaFactoryAddress(address)": {
        "details": "Para cambiar la direccion del contrato de subasta factory"
      },
      "subastarCarta(address,uint256,uint256,uint256,uint256)": {
        "details": "Se subasta una carta",
        "returns": {
          "_0": "id de la subasta"
        }
      },
      "transferOwnership(address)": {
        "details": "Transfers ownership of the contract to a new account (`newOwner`). Can only be called by the current owner."
      }
    },
    "title": "CartaItem",
    "version": 1
  },
  "userdoc": {
    "kind": "user",
    "methods": {
      "getCartas()": {
        "notice": "Para obtener todas las cartas"
      },
      "getCartasDe(address)": {
        "notice": "Para obtener todas las cartas correspondientes a un address"
      }
    },
    "version": 1
  }
}