{
  "contractName": "CartaFactory",
  "abi": [
    {
      "anonymous": false,
      "inputs": [
        {
          "indexed": false,
          "internalType": "uint256",
          "name": "cartaId",
          "type": "uint256"
        },
        {
          "indexed": false,
          "internalType": "uint256",
          "name": "descripcion",
          "type": "uint256"
        },
        {
          "indexed": false,
          "internalType": "uint8",
          "name": "tipo",
          "type": "uint8"
        }
      ],
      "name": "NuevaCarta",
      "type": "event"
    },
    {
      "anonymous": false,
      "inputs": [
        {
          "indexed": true,
          "internalType": "address",
          "name": "previousOwner",
          "type": "address"
        },
        {
          "indexed": true,
          "internalType": "address",
          "name": "newOwner",
          "type": "address"
        }
      ],
      "name": "OwnershipTransferred",
      "type": "event"
    },
    {
      "inputs": [
        {
          "internalType": "uint256",
          "name": "",
          "type": "uint256"
        }
      ],
      "name": "cartaAPersona",
      "outputs": [
        {
          "internalType": "address",
          "name": "",
          "type": "address"
        }
      ],
      "stateMutability": "view",
      "type": "function"
    },
    {
      "inputs": [
        {
          "internalType": "uint256",
          "name": "",
          "type": "uint256"
        }
      ],
      "name": "cartas",
      "outputs": [
        {
          "internalType": "uint256",
          "name": "descripcion",
          "type": "uint256"
        },
        {
          "internalType": "uint8",
          "name": "tipo",
          "type": "uint8"
        }
      ],
      "stateMutability": "view",
      "type": "function"
    },
    {
      "inputs": [],
      "name": "owner",
      "outputs": [
        {
          "internalType": "address",
          "name": "",
          "type": "address"
        }
      ],
      "stateMutability": "view",
      "type": "function"
    },
    {
      "inputs": [],
      "name": "renounceOwnership",
      "outputs": [],
      "stateMutability": "nonpayable",
      "type": "function"
    },
    {
      "inputs": [
        {
          "internalType": "address",
          "name": "newOwner",
          "type": "address"
        }
      ],
      "name": "transferOwnership",
      "outputs": [],
      "stateMutability": "nonpayable",
      "type": "function"
    }
  ],
  "bytecode": "0x60806040526010600155600154600a6200001a91906200019e565b600255600060035560006004556003600560006101000a81548160ff021916908360ff1602179055503480156200005057600080fd5b5062000071620000656200007760201b60201c565b6200007f60201b60201c565b62000321565b600033905090565b60008060009054906101000a900473ffffffffffffffffffffffffffffffffffffffff169050816000806101000a81548173ffffffffffffffffffffffffffffffffffffffff021916908373ffffffffffffffffffffffffffffffffffffffff1602179055508173ffffffffffffffffffffffffffffffffffffffff168173ffffffffffffffffffffffffffffffffffffffff167f8be0079c531659141344cd1fd0a4f28419497f9722a3daafe3b4186f6b6457e060405160405180910390a35050565b6000808291508390505b600185111562000195578086048111156200016d576200016c620002e5565b5b60018516156200017d5780820291505b80810290506200018d8562000314565b94506200014d565b94509492505050565b6000620001ab82620002db565b9150620001b883620002db565b9250620001e77fffffffffffffffffffffffffffffffffffffffffffffffffffffffffffffffff8484620001ef565b905092915050565b600082620002015760019050620002d4565b81620002115760009050620002d4565b81600181146200022a576002811462000235576200026b565b6001915050620002d4565b60ff8411156200024a5762000249620002e5565b5b8360020a915084821115620002645762000263620002e5565b5b50620002d4565b5060208310610133831016604e8410600b8410161715620002a55782820a9050838111156200029f576200029e620002e5565b5b620002d4565b620002b4848484600162000143565b92509050818404811115620002ce57620002cd620002e5565b5b81810290505b9392505050565b6000819050919050565b7f4e487b7100000000000000000000000000000000000000000000000000000000600052601160045260246000fd5b60008160011c9050919050565b61067b80620003316000396000f3fe608060405234801561001057600080fd5b50600436106100575760003560e01c8063582ddb381461005c5780635b102ab81461008c578063715018a6146100bd5780638da5cb5b146100c7578063f2fde38b146100e5575b600080fd5b6100766004803603810190610071919061043d565b610101565b6040516100839190610539565b60405180910390f35b6100a660048036038101906100a1919061043d565b610134565b6040516100b4929190610594565b60405180910390f35b6100c5610175565b005b6100cf6101fd565b6040516100dc9190610539565b60405180910390f35b6100ff60048036038101906100fa9190610414565b610226565b005b60076020528060005260406000206000915054906101000a900473ffffffffffffffffffffffffffffffffffffffff1681565b6006818154811061014457600080fd5b90600052602060002090600202016000915090508060000154908060010160009054906101000a900460ff16905082565b61017d61031e565b73ffffffffffffffffffffffffffffffffffffffff1661019b6101fd565b73ffffffffffffffffffffffffffffffffffffffff16146101f1576040517f08c379a00000000000000000000000000000000000000000000000000000000081526004016101e890610574565b60405180910390fd5b6101fb6000610326565b565b60008060009054906101000a900473ffffffffffffffffffffffffffffffffffffffff16905090565b61022e61031e565b73ffffffffffffffffffffffffffffffffffffffff1661024c6101fd565b73ffffffffffffffffffffffffffffffffffffffff16146102a2576040517f08c379a000000000000000000000000000000000000000000000000000000000815260040161029990610574565b60405180910390fd5b600073ffffffffffffffffffffffffffffffffffffffff168173ffffffffffffffffffffffffffffffffffffffff161415610312576040517f08c379a000000000000000000000000000000000000000000000000000000000815260040161030990610554565b60405180910390fd5b61031b81610326565b50565b600033905090565b60008060009054906101000a900473ffffffffffffffffffffffffffffffffffffffff169050816000806101000a81548173ffffffffffffffffffffffffffffffffffffffff021916908373ffffffffffffffffffffffffffffffffffffffff1602179055508173ffffffffffffffffffffffffffffffffffffffff168173ffffffffffffffffffffffffffffffffffffffff167f8be0079c531659141344cd1fd0a4f28419497f9722a3daafe3b4186f6b6457e060405160405180910390a35050565b6000813590506103f981610617565b92915050565b60008135905061040e8161062e565b92915050565b60006020828403121561042657600080fd5b6000610434848285016103ea565b91505092915050565b60006020828403121561044f57600080fd5b600061045d848285016103ff565b91505092915050565b61046f816105ce565b82525050565b60006104826026836105bd565b91507f4f776e61626c653a206e6577206f776e657220697320746865207a65726f206160008301527f64647265737300000000000000000000000000000000000000000000000000006020830152604082019050919050565b60006104e86020836105bd565b91507f4f776e61626c653a2063616c6c6572206973206e6f7420746865206f776e65726000830152602082019050919050565b61052481610600565b82525050565b6105338161060a565b82525050565b600060208201905061054e6000830184610466565b92915050565b6000602082019050818103600083015261056d81610475565b9050919050565b6000602082019050818103600083015261058d816104db565b9050919050565b60006040820190506105a9600083018561051b565b6105b6602083018461052a565b9392505050565b600082825260208201905092915050565b60006105d9826105e0565b9050919050565b600073ffffffffffffffffffffffffffffffffffffffff82169050919050565b6000819050919050565b600060ff82169050919050565b610620816105ce565b811461062b57600080fd5b50565b61063781610600565b811461064257600080fd5b5056fea2646970667358221220908bba1c5770e82f0c3910769186c542bdbc3539f0511f5a39a822453bea455764736f6c63430008000033",
  "immutableReferences": {},
  "source": "pragma solidity ^0.8.0;\npragma experimental ABIEncoderV2;\n\nimport \"@openzeppelin/contracts/access/Ownable.sol\";\n\n/**\n * @title CartaFactory\n * @dev Generacion aleatoria de cartas\n */\ncontract CartaFactory is Ownable {\n\n    event NuevaCarta(uint cartaId, uint256 descripcion, uint8 tipo);\n\n    uint256 cantidadDigitos = 16;\n    uint256 modulo = 10 ** cantidadDigitos;\n    uint256 semillaDescripcion = 0;\n    uint256 semillaTipo = 0;\n    uint8 cantidadTipos = 3;\n\n    /**\n    * Tipos:\n    * 1: normal\n    * 2: rara\n    * 3: epica\n    */\n    struct Carta {\n        uint256 descripcion;\n        uint8 tipo;\n    }\n    \n    Carta[] public cartas;\n\n    mapping (uint => address) public cartaAPersona;\n    mapping (address => uint) personaCantidadCartas;\n    \n    /**\n     * @dev Crea una instancia de carta\n     * @param _descripcion descripcion para crear la carta\n     */\n    function _crearCarta(uint256 _descripcion, uint8 _tipo) internal {\n        cartas.push(Carta(_descripcion, _tipo));\n        uint id = cartas.length - 1;\n        cartaAPersona[id] = msg.sender;\n        personaCantidadCartas[msg.sender] ++;\n        emit NuevaCarta(id, _descripcion, _tipo);\n    }\n\n    /**\n     * @dev Crea un valor aleatorio de descripcion \n     * @return valor aleatorio de descripcion\n     */\n    function _crearDescripcionAleatoria() internal returns (uint256){\n        semillaDescripcion ++;\n        uint256 descripcionAleatoria = uint256(keccak256(abi.encodePacked(block.timestamp, msg.sender, semillaDescripcion)));\n        return descripcionAleatoria % modulo;\n    }\n\n    /**\n     * @dev Crea un tipo de carta aleatorio\n     * @return valor aleatorio de tipo de carta\n     */\n    function _crearTipoAleatorio() internal returns (uint8){\n        semillaTipo ++;\n        uint256 tipoAleatorio = uint256(keccak256(abi.encodePacked(block.timestamp, msg.sender, semillaTipo)));\n        return uint8(tipoAleatorio % cantidadTipos);\n    }\n\n    modifier soloDuenioDe(uint _cartaId) {\n        require (msg.sender == cartaAPersona[_cartaId], \"Solo el duenio de la carta puede realizar esta transaccion\");\n        _;\n    }\n\n}\n",
  "sourcePath": "/Users/filyankaragoz/Documents/TDL/teoria-del-lenguaje/truffle-project/contracts/CartaFactory.sol",
  "compiler": {
    "name": "solc",
    "version": "0.8.0+commit.c7dfd78e.Emscripten.clang"
  },
  "schemaVersion": "3.4.1",
  "updatedAt": "2021-07-02T02:33:08.810Z",
  "devdoc": {
    "details": "Generacion aleatoria de cartas",
    "kind": "dev",
    "methods": {
      "owner()": {
        "details": "Returns the address of the current owner."
      },
      "renounceOwnership()": {
        "details": "Leaves the contract without owner. It will not be possible to call `onlyOwner` functions anymore. Can only be called by the current owner. NOTE: Renouncing ownership will leave the contract without an owner, thereby removing any functionality that is only available to the owner."
      },
      "transferOwnership(address)": {
        "details": "Transfers ownership of the contract to a new account (`newOwner`). Can only be called by the current owner."
      }
    },
    "title": "CartaFactory",
    "version": 1
  },
  "userdoc": {
    "kind": "user",
    "methods": {},
    "version": 1
  }
}