{
  "contractName": "CartaHelper",
  "abi": [
    {
      "anonymous": false,
      "inputs": [
        {
          "indexed": false,
          "internalType": "uint256",
          "name": "cartaId",
          "type": "uint256"
        },
        {
          "indexed": false,
          "internalType": "uint256",
          "name": "descripcion",
          "type": "uint256"
        },
        {
          "indexed": false,
          "internalType": "uint8",
          "name": "tipo",
          "type": "uint8"
        }
      ],
      "name": "NuevaCarta",
      "type": "event"
    },
    {
      "anonymous": false,
      "inputs": [
        {
          "indexed": true,
          "internalType": "address",
          "name": "previousOwner",
          "type": "address"
        },
        {
          "indexed": true,
          "internalType": "address",
          "name": "newOwner",
          "type": "address"
        }
      ],
      "name": "OwnershipTransferred",
      "type": "event"
    },
    {
      "inputs": [
        {
          "internalType": "uint256",
          "name": "",
          "type": "uint256"
        }
      ],
      "name": "cartaAPersona",
      "outputs": [
        {
          "internalType": "address",
          "name": "",
          "type": "address"
        }
      ],
      "stateMutability": "view",
      "type": "function"
    },
    {
      "inputs": [
        {
          "internalType": "uint256",
          "name": "",
          "type": "uint256"
        }
      ],
      "name": "cartas",
      "outputs": [
        {
          "internalType": "uint256",
          "name": "descripcion",
          "type": "uint256"
        },
        {
          "internalType": "uint8",
          "name": "tipo",
          "type": "uint8"
        }
      ],
      "stateMutability": "view",
      "type": "function"
    },
    {
      "inputs": [],
      "name": "crearCartaAleatoria",
      "outputs": [
        {
          "internalType": "uint256",
          "name": "",
          "type": "uint256"
        }
      ],
      "stateMutability": "nonpayable",
      "type": "function"
    },
    {
      "inputs": [],
      "name": "owner",
      "outputs": [
        {
          "internalType": "address",
          "name": "",
          "type": "address"
        }
      ],
      "stateMutability": "view",
      "type": "function"
    },
    {
      "inputs": [],
      "name": "renounceOwnership",
      "outputs": [],
      "stateMutability": "nonpayable",
      "type": "function"
    },
    {
      "inputs": [
        {
          "internalType": "address",
          "name": "newOwner",
          "type": "address"
        }
      ],
      "name": "transferOwnership",
      "outputs": [],
      "stateMutability": "nonpayable",
      "type": "function"
    },
    {
      "inputs": [],
      "name": "getCartas",
      "outputs": [
        {
          "internalType": "uint256[]",
          "name": "",
          "type": "uint256[]"
        },
        {
          "internalType": "uint8[]",
          "name": "",
          "type": "uint8[]"
        }
      ],
      "stateMutability": "view",
      "type": "function"
    },
    {
      "inputs": [
        {
          "internalType": "address",
          "name": "_owner",
          "type": "address"
        }
      ],
      "name": "getCartasDe",
      "outputs": [
        {
          "internalType": "uint256[]",
          "name": "",
          "type": "uint256[]"
        },
        {
          "internalType": "uint8[]",
          "name": "",
          "type": "uint8[]"
        }
      ],
      "stateMutability": "view",
      "type": "function"
    }
  ],
  "bytecode": "0x60806040526010600155600154600a6200001a91906200016a565b600255600060035560006004556003600560006101000a81548160ff021916908360ff1602179055503480156200005057600080fd5b506000620000636200010760201b60201c565b9050806000806101000a81548173ffffffffffffffffffffffffffffffffffffffff021916908373ffffffffffffffffffffffffffffffffffffffff1602179055508073ffffffffffffffffffffffffffffffffffffffff16600073ffffffffffffffffffffffffffffffffffffffff167f8be0079c531659141344cd1fd0a4f28419497f9722a3daafe3b4186f6b6457e060405160405180910390a350620002ed565b600033905090565b6000808291508390505b60018511156200016157808604811115620001395762000138620002b1565b5b6001851615620001495780820291505b80810290506200015985620002e0565b945062000119565b94509492505050565b60006200017782620002a7565b91506200018483620002a7565b9250620001b37fffffffffffffffffffffffffffffffffffffffffffffffffffffffffffffffff8484620001bb565b905092915050565b600082620001cd5760019050620002a0565b81620001dd5760009050620002a0565b8160018114620001f65760028114620002015762000237565b6001915050620002a0565b60ff841115620002165762000215620002b1565b5b8360020a91508482111562000230576200022f620002b1565b5b50620002a0565b5060208310610133831016604e8410600b8410161715620002715782820a9050838111156200026b576200026a620002b1565b5b620002a0565b6200028084848460016200010f565b925090508184048111156200029a5762000299620002b1565b5b81810290505b9392505050565b6000819050919050565b7f4e487b7100000000000000000000000000000000000000000000000000000000600052601160045260246000fd5b60008160011c9050919050565b61135580620002fd6000396000f3fe608060405234801561001057600080fd5b50600436106100885760003560e01c80638da5cb5b1161005b5780638da5cb5b14610129578063bc24b16a14610147578063c2fcde8914610165578063f2fde38b1461018457610088565b80634a358c1e1461008d578063582ddb38146100be5780635b102ab8146100ee578063715018a61461011f575b600080fd5b6100a760048036038101906100a29190610d37565b6101a0565b6040516100b5929190610fec565b60405180910390f35b6100d860048036038101906100d39190610d60565b6104ae565b6040516100e59190610fd1565b60405180910390f35b61010860048036038101906101039190610d60565b6104e1565b6040516101169291906110b5565b60405180910390f35b610127610522565b005b61013161065c565b60405161013e9190610fd1565b60405180910390f35b61014f610685565b60405161015c9190611063565b60405180910390f35b61016d6106c1565b60405161017b929190610fec565b60405180910390f35b61019e60048036038101906101999190610d37565b61091b565b005b6060806000600860008573ffffffffffffffffffffffffffffffffffffffff1673ffffffffffffffffffffffffffffffffffffffff16815260200190815260200160002054905060008167ffffffffffffffff811115610229577f4e487b7100000000000000000000000000000000000000000000000000000000600052604160045260246000fd5b6040519080825280602002602001820160405280156102575781602001602082028036833780820191505090505b50905060008267ffffffffffffffff81111561029c577f4e487b7100000000000000000000000000000000000000000000000000000000600052604160045260246000fd5b6040519080825280602002602001820160405280156102ca5781602001602082028036833780820191505090505b5090506000805b60068054905081101561049e578773ffffffffffffffffffffffffffffffffffffffff166007600083815260200190815260200160002060009054906101000a900473ffffffffffffffffffffffffffffffffffffffff1673ffffffffffffffffffffffffffffffffffffffff16141561048b576006818154811061037f577f4e487b7100000000000000000000000000000000000000000000000000000000600052603260045260246000fd5b9060005260206000209060020201600001548483815181106103ca577f4e487b7100000000000000000000000000000000000000000000000000000000600052603260045260246000fd5b60200260200101818152505060068181548110610410577f4e487b7100000000000000000000000000000000000000000000000000000000600052603260045260246000fd5b906000526020600020906002020160010160009054906101000a900460ff16838381518110610468577f4e487b7100000000000000000000000000000000000000000000000000000000600052603260045260246000fd5b602002602001019060ff16908160ff16815250508180610487906111de565b9250505b8080610496906111de565b9150506102d1565b5082829550955050505050915091565b60076020528060005260406000206000915054906101000a900473ffffffffffffffffffffffffffffffffffffffff1681565b600681815481106104f157600080fd5b90600052602060002090600202016000915090508060000154908060010160009054906101000a900460ff16905082565b61052a610ac4565b73ffffffffffffffffffffffffffffffffffffffff1661054861065c565b73ffffffffffffffffffffffffffffffffffffffff161461059e576040517f08c379a000000000000000000000000000000000000000000000000000000000815260040161059590611043565b60405180910390fd5b600073ffffffffffffffffffffffffffffffffffffffff1660008054906101000a900473ffffffffffffffffffffffffffffffffffffffff1673ffffffffffffffffffffffffffffffffffffffff167f8be0079c531659141344cd1fd0a4f28419497f9722a3daafe3b4186f6b6457e060405160405180910390a360008060006101000a81548173ffffffffffffffffffffffffffffffffffffffff021916908373ffffffffffffffffffffffffffffffffffffffff160217905550565b60008060009054906101000a900473ffffffffffffffffffffffffffffffffffffffff16905090565b600080610690610acc565b9050600061069c610b2e565b90506106a88282610ba0565b60016006805490506106ba9190611161565b9250505090565b606080600060068054905067ffffffffffffffff81111561070b577f4e487b7100000000000000000000000000000000000000000000000000000000600052604160045260246000fd5b6040519080825280602002602001820160405280156107395781602001602082028036833780820191505090505b509050600060068054905067ffffffffffffffff811115610783577f4e487b7100000000000000000000000000000000000000000000000000000000600052604160045260246000fd5b6040519080825280602002602001820160405280156107b15781602001602082028036833780820191505090505b50905060005b60068054905081101561090e57600681815481106107fe577f4e487b7100000000000000000000000000000000000000000000000000000000600052603260045260246000fd5b906000526020600020906002020160000154838281518110610849577f4e487b7100000000000000000000000000000000000000000000000000000000600052603260045260246000fd5b6020026020010181815250506006818154811061088f577f4e487b7100000000000000000000000000000000000000000000000000000000600052603260045260246000fd5b906000526020600020906002020160010160009054906101000a900460ff168282815181106108e7577f4e487b7100000000000000000000000000000000000000000000000000000000600052603260045260246000fd5b602002602001019060ff16908160ff16815250508080610906906111de565b9150506107b7565b5081819350935050509091565b610923610ac4565b73ffffffffffffffffffffffffffffffffffffffff1661094161065c565b73ffffffffffffffffffffffffffffffffffffffff1614610997576040517f08c379a000000000000000000000000000000000000000000000000000000000815260040161098e90611043565b60405180910390fd5b600073ffffffffffffffffffffffffffffffffffffffff168173ffffffffffffffffffffffffffffffffffffffff161415610a07576040517f08c379a00000000000000000000000000000000000000000000000000000000081526004016109fe90611023565b60405180910390fd5b8073ffffffffffffffffffffffffffffffffffffffff1660008054906101000a900473ffffffffffffffffffffffffffffffffffffffff1673ffffffffffffffffffffffffffffffffffffffff167f8be0079c531659141344cd1fd0a4f28419497f9722a3daafe3b4186f6b6457e060405160405180910390a3806000806101000a81548173ffffffffffffffffffffffffffffffffffffffff021916908373ffffffffffffffffffffffffffffffffffffffff16021790555050565b600033905090565b600060036000815480929190610ae1906111de565b919050555060004233600354604051602001610aff93929190610f94565b6040516020818303038152906040528051906020012060001c905060025481610b289190611255565b91505090565b600060046000815480929190610b43906111de565b919050555060004233600454604051602001610b6193929190610f94565b6040516020818303038152906040528051906020012060001c9050600560009054906101000a900460ff1660ff1681610b9a9190611255565b91505090565b600660405180604001604052808481526020018360ff1681525090806001815401808255809150506001900390600052602060002090600202016000909190919091506000820151816000015560208201518160010160006101000a81548160ff021916908360ff160217905550505060006001600680549050610c249190611161565b9050336007600083815260200190815260200160002060006101000a81548173ffffffffffffffffffffffffffffffffffffffff021916908373ffffffffffffffffffffffffffffffffffffffff160217905550600860003373ffffffffffffffffffffffffffffffffffffffff1673ffffffffffffffffffffffffffffffffffffffff1681526020019081526020016000206000815480929190610cc8906111de565b91905055507f6ca85b4ba4ace1b9d8e266c2cb00dcb3314c66609fd525cfab3301b2e306748d818484604051610d009392919061107e565b60405180910390a1505050565b600081359050610d1c816112f1565b92915050565b600081359050610d3181611308565b92915050565b600060208284031215610d4957600080fd5b6000610d5784828501610d0d565b91505092915050565b600060208284031215610d7257600080fd5b6000610d8084828501610d22565b91505092915050565b6000610d958383610f41565b60208301905092915050565b6000610dad8383610f76565b60208301905092915050565b610dc281611195565b82525050565b610dd9610dd482611195565b611227565b82525050565b6000610dea826110fe565b610df4818561112e565b9350610dff836110de565b8060005b83811015610e30578151610e178882610d89565b9750610e2283611114565b925050600181019050610e03565b5085935050505092915050565b6000610e4882611109565b610e52818561113f565b9350610e5d836110ee565b8060005b83811015610e8e578151610e758882610da1565b9750610e8083611121565b925050600181019050610e61565b5085935050505092915050565b6000610ea8602683611150565b91507f4f776e61626c653a206e6577206f776e657220697320746865207a65726f206160008301527f64647265737300000000000000000000000000000000000000000000000000006020830152604082019050919050565b6000610f0e602083611150565b91507f4f776e61626c653a2063616c6c6572206973206e6f7420746865206f776e65726000830152602082019050919050565b610f4a816111c7565b82525050565b610f59816111c7565b82525050565b610f70610f6b826111c7565b61124b565b82525050565b610f7f816111d1565b82525050565b610f8e816111d1565b82525050565b6000610fa08286610f5f565b602082019150610fb08285610dc8565b601482019150610fc08284610f5f565b602082019150819050949350505050565b6000602082019050610fe66000830184610db9565b92915050565b600060408201905081810360008301526110068185610ddf565b9050818103602083015261101a8184610e3d565b90509392505050565b6000602082019050818103600083015261103c81610e9b565b9050919050565b6000602082019050818103600083015261105c81610f01565b9050919050565b60006020820190506110786000830184610f50565b92915050565b60006060820190506110936000830186610f50565b6110a06020830185610f50565b6110ad6040830184610f85565b949350505050565b60006040820190506110ca6000830185610f50565b6110d76020830184610f85565b9392505050565b6000819050602082019050919050565b6000819050602082019050919050565b600081519050919050565b600081519050919050565b6000602082019050919050565b6000602082019050919050565b600082825260208201905092915050565b600082825260208201905092915050565b600082825260208201905092915050565b600061116c826111c7565b9150611177836111c7565b92508282101561118a57611189611286565b5b828203905092915050565b60006111a0826111a7565b9050919050565b600073ffffffffffffffffffffffffffffffffffffffff82169050919050565b6000819050919050565b600060ff82169050919050565b60006111e9826111c7565b91507fffffffffffffffffffffffffffffffffffffffffffffffffffffffffffffffff82141561121c5761121b611286565b5b600182019050919050565b600061123282611239565b9050919050565b6000611244826112e4565b9050919050565b6000819050919050565b6000611260826111c7565b915061126b836111c7565b92508261127b5761127a6112b5565b5b828206905092915050565b7f4e487b7100000000000000000000000000000000000000000000000000000000600052601160045260246000fd5b7f4e487b7100000000000000000000000000000000000000000000000000000000600052601260045260246000fd5b60008160601b9050919050565b6112fa81611195565b811461130557600080fd5b50565b611311816111c7565b811461131c57600080fd5b5056fea2646970667358221220c8af620db51b866ed5153144bfd3b999aaf60311559be99a430a3a03e5347d5a64736f6c63430008000033",
  "immutableReferences": {},
  "source": "pragma solidity ^0.8.0;\n\nimport \"./CartaFactory.sol\";\n\n/**\n * @title CartaHelper\n * @dev Funciones auxiliares\n */\ncontract CartaHelper is CartaFactory {\n\n    /**\n     * Para obtener todas las cartas\n     */\n    function getCartas() external view returns (uint256[] memory, uint8[] memory) {\n        uint256[] memory descripciones = new uint256[](cartas.length);\n        uint8[] memory tipos = new uint8[](cartas.length);\n        for (uint i = 0; i < cartas.length; i++) {\n            descripciones[i] = (cartas[i].descripcion);\n            tipos[i] = (cartas[i].tipo);\n        }\n        return (descripciones, tipos);\n    }\n\n    /**\n     * Para obtener todas las cartas correspondientes a un address\n     */\n    function getCartasDe(address _owner) external view returns (uint256[] memory, uint8[] memory) {\n        uint cantidadCartas = personaCantidadCartas[_owner];\n        uint256[] memory descripciones = new uint256[](cantidadCartas);\n        uint8[] memory tipos = new uint8[](cantidadCartas);\n\n        uint contador = 0;\n        for (uint i = 0; i < cartas.length; i++) {\n            if (cartaAPersona[i] == _owner) {\n                descripciones[contador] = cartas[i].descripcion;\n                tipos[contador] = cartas[i].tipo;\n                contador ++;\n            }\n        }\n        return (descripciones, tipos);\n    }\n\n}",
  "sourcePath": "/home/miki_mustard/Desktop/Personal/Facultad/tdl/nuevo-tdl/teoria-del-lenguaje/truffle-project/contracts/CartaHelper.sol",
  "compiler": {
    "name": "solc",
    "version": "0.8.0+commit.c7dfd78e.Emscripten.clang"
  },
  "schemaVersion": "3.4.1",
  "updatedAt": "2021-06-21T03:37:20.193Z",
  "devdoc": {
    "details": "Funciones auxiliares",
    "kind": "dev",
    "methods": {
      "crearCartaAleatoria()": {
        "details": "Crea una carta aleatoria",
        "returns": {
          "_0": "id de la carta creada"
        }
      },
      "owner()": {
        "details": "Returns the address of the current owner."
      },
      "renounceOwnership()": {
        "details": "Leaves the contract without owner. It will not be possible to call `onlyOwner` functions anymore. Can only be called by the current owner. NOTE: Renouncing ownership will leave the contract without an owner, thereby removing any functionality that is only available to the owner."
      },
      "transferOwnership(address)": {
        "details": "Transfers ownership of the contract to a new account (`newOwner`). Can only be called by the current owner."
      }
    },
    "title": "CartaHelper",
    "version": 1
  },
  "userdoc": {
    "kind": "user",
    "methods": {
      "getCartas()": {
        "notice": "Para obtener todas las cartas"
      },
      "getCartasDe(address)": {
        "notice": "Para obtener todas las cartas correspondientes a un address"
      }
    },
    "version": 1
  }
}