{
  "contractName": "CartaFactory",
  "abi": [
    {
      "anonymous": false,
      "inputs": [
        {
          "indexed": false,
          "internalType": "uint256",
          "name": "cartaId",
          "type": "uint256"
        },
        {
          "indexed": false,
          "internalType": "uint256",
          "name": "descripcion",
          "type": "uint256"
        },
        {
          "indexed": false,
          "internalType": "uint8",
          "name": "tipo",
          "type": "uint8"
        }
      ],
      "name": "NuevaCarta",
      "type": "event"
    },
    {
      "anonymous": false,
      "inputs": [
        {
          "indexed": true,
          "internalType": "address",
          "name": "previousOwner",
          "type": "address"
        },
        {
          "indexed": true,
          "internalType": "address",
          "name": "newOwner",
          "type": "address"
        }
      ],
      "name": "OwnershipTransferred",
      "type": "event"
    },
    {
      "inputs": [
        {
          "internalType": "uint256",
          "name": "",
          "type": "uint256"
        }
      ],
      "name": "cartaAPersona",
      "outputs": [
        {
          "internalType": "address",
          "name": "",
          "type": "address"
        }
      ],
      "stateMutability": "view",
      "type": "function"
    },
    {
      "inputs": [
        {
          "internalType": "uint256",
          "name": "",
          "type": "uint256"
        }
      ],
      "name": "cartas",
      "outputs": [
        {
          "internalType": "uint256",
          "name": "descripcion",
          "type": "uint256"
        },
        {
          "internalType": "uint8",
          "name": "tipo",
          "type": "uint8"
        },
        {
          "internalType": "bool",
          "name": "enSubasta",
          "type": "bool"
        }
      ],
      "stateMutability": "view",
      "type": "function"
    },
    {
      "inputs": [],
      "name": "owner",
      "outputs": [
        {
          "internalType": "address",
          "name": "",
          "type": "address"
        }
      ],
      "stateMutability": "view",
      "type": "function"
    },
    {
      "inputs": [],
      "name": "renounceOwnership",
      "outputs": [],
      "stateMutability": "nonpayable",
      "type": "function"
    },
    {
      "inputs": [
        {
          "internalType": "address",
          "name": "newOwner",
          "type": "address"
        }
      ],
      "name": "transferOwnership",
      "outputs": [],
      "stateMutability": "nonpayable",
      "type": "function"
    }
  ],
  "bytecode": "0x60806040526010600155600154600a6200001a91906200019e565b600255600060035560006004556003600560006101000a81548160ff021916908360ff1602179055503480156200005057600080fd5b5062000071620000656200007760201b60201c565b6200007f60201b60201c565b62000321565b600033905090565b60008060009054906101000a900473ffffffffffffffffffffffffffffffffffffffff169050816000806101000a81548173ffffffffffffffffffffffffffffffffffffffff021916908373ffffffffffffffffffffffffffffffffffffffff1602179055508173ffffffffffffffffffffffffffffffffffffffff168173ffffffffffffffffffffffffffffffffffffffff167f8be0079c531659141344cd1fd0a4f28419497f9722a3daafe3b4186f6b6457e060405160405180910390a35050565b6000808291508390505b600185111562000195578086048111156200016d576200016c620002e5565b5b60018516156200017d5780820291505b80810290506200018d8562000314565b94506200014d565b94509492505050565b6000620001ab82620002db565b9150620001b883620002db565b9250620001e77fffffffffffffffffffffffffffffffffffffffffffffffffffffffffffffffff8484620001ef565b905092915050565b600082620002015760019050620002d4565b81620002115760009050620002d4565b81600181146200022a576002811462000235576200026b565b6001915050620002d4565b60ff8411156200024a5762000249620002e5565b5b8360020a915084821115620002645762000263620002e5565b5b50620002d4565b5060208310610133831016604e8410600b8410161715620002a55782820a9050838111156200029f576200029e620002e5565b5b620002d4565b620002b4848484600162000143565b92509050818404811115620002ce57620002cd620002e5565b5b81810290505b9392505050565b6000819050919050565b7f4e487b7100000000000000000000000000000000000000000000000000000000600052601160045260246000fd5b60008160011c9050919050565b6106b880620003316000396000f3fe608060405234801561001057600080fd5b50600436106100575760003560e01c8063582ddb381461005c5780635b102ab81461008c578063715018a6146100be5780638da5cb5b146100c8578063f2fde38b146100e6575b600080fd5b61007660048036038101906100719190610451565b610102565b604051610083919061055c565b60405180910390f35b6100a660048036038101906100a19190610451565b610135565b6040516100b5939291906105b7565b60405180910390f35b6100c6610189565b005b6100d0610211565b6040516100dd919061055c565b60405180910390f35b61010060048036038101906100fb9190610428565b61023a565b005b60076020528060005260406000206000915054906101000a900473ffffffffffffffffffffffffffffffffffffffff1681565b6006818154811061014557600080fd5b90600052602060002090600202016000915090508060000154908060010160009054906101000a900460ff16908060010160019054906101000a900460ff16905083565b610191610332565b73ffffffffffffffffffffffffffffffffffffffff166101af610211565b73ffffffffffffffffffffffffffffffffffffffff1614610205576040517f08c379a00000000000000000000000000000000000000000000000000000000081526004016101fc90610597565b60405180910390fd5b61020f600061033a565b565b60008060009054906101000a900473ffffffffffffffffffffffffffffffffffffffff16905090565b610242610332565b73ffffffffffffffffffffffffffffffffffffffff16610260610211565b73ffffffffffffffffffffffffffffffffffffffff16146102b6576040517f08c379a00000000000000000000000000000000000000000000000000000000081526004016102ad90610597565b60405180910390fd5b600073ffffffffffffffffffffffffffffffffffffffff168173ffffffffffffffffffffffffffffffffffffffff161415610326576040517f08c379a000000000000000000000000000000000000000000000000000000000815260040161031d90610577565b60405180910390fd5b61032f8161033a565b50565b600033905090565b60008060009054906101000a900473ffffffffffffffffffffffffffffffffffffffff169050816000806101000a81548173ffffffffffffffffffffffffffffffffffffffff021916908373ffffffffffffffffffffffffffffffffffffffff1602179055508173ffffffffffffffffffffffffffffffffffffffff168173ffffffffffffffffffffffffffffffffffffffff167f8be0079c531659141344cd1fd0a4f28419497f9722a3daafe3b4186f6b6457e060405160405180910390a35050565b60008135905061040d81610654565b92915050565b6000813590506104228161066b565b92915050565b60006020828403121561043a57600080fd5b6000610448848285016103fe565b91505092915050565b60006020828403121561046357600080fd5b600061047184828501610413565b91505092915050565b610483816105ff565b82525050565b61049281610611565b82525050565b60006104a56026836105ee565b91507f4f776e61626c653a206e6577206f776e657220697320746865207a65726f206160008301527f64647265737300000000000000000000000000000000000000000000000000006020830152604082019050919050565b600061050b6020836105ee565b91507f4f776e61626c653a2063616c6c6572206973206e6f7420746865206f776e65726000830152602082019050919050565b6105478161063d565b82525050565b61055681610647565b82525050565b6000602082019050610571600083018461047a565b92915050565b6000602082019050818103600083015261059081610498565b9050919050565b600060208201905081810360008301526105b0816104fe565b9050919050565b60006060820190506105cc600083018661053e565b6105d9602083018561054d565b6105e66040830184610489565b949350505050565b600082825260208201905092915050565b600061060a8261061d565b9050919050565b60008115159050919050565b600073ffffffffffffffffffffffffffffffffffffffff82169050919050565b6000819050919050565b600060ff82169050919050565b61065d816105ff565b811461066857600080fd5b50565b6106748161063d565b811461067f57600080fd5b5056fea26469706673582212204acf760a673aac4d9da8383a0f7a3c449ff19828a4901f3267beb19ed20fecfa64736f6c63430008000033",
  "immutableReferences": {},
  "source": "pragma solidity ^0.8.0;\npragma experimental ABIEncoderV2;\n\nimport \"@openzeppelin/contracts/access/Ownable.sol\";\n\n/**\n * @title CartaFactory\n * @dev Generacion aleatoria de cartas\n */\ncontract CartaFactory is Ownable {\n\n    event NuevaCarta(uint cartaId, uint256 descripcion, uint8 tipo);\n\n    uint256 cantidadDigitos = 16;\n    uint256 modulo = 10 ** cantidadDigitos;\n    uint256 semillaDescripcion = 0;\n    uint256 semillaTipo = 0;\n    uint8 cantidadTipos = 3;\n\n    /**\n    * Tipos:\n    * 1: normal\n    * 2: rara\n    * 3: epica\n    */\n    struct Carta {\n        uint256 descripcion;\n        uint8 tipo;\n        bool enSubasta;\n    }\n    \n    Carta[] public cartas;\n\n    mapping (uint => address) public cartaAPersona;\n    mapping (address => uint) personaCantidadCartas;\n    \n    /**\n     * @dev Crea una instancia de carta\n     * @param _descripcion descripcion para crear la carta\n     */\n    function _crearCarta(uint256 _descripcion, uint8 _tipo) internal {\n        cartas.push(Carta(_descripcion, _tipo, false));\n        uint id = cartas.length - 1;\n        cartaAPersona[id] = msg.sender;\n        personaCantidadCartas[msg.sender] ++;\n        emit NuevaCarta(id, _descripcion, _tipo);\n    }\n\n    /**\n     * @dev Crea un valor aleatorio de descripcion \n     * @return valor aleatorio de descripcion\n     */\n    function _crearDescripcionAleatoria() internal returns (uint256){\n        semillaDescripcion ++;\n        uint256 descripcionAleatoria = uint256(keccak256(abi.encodePacked(block.timestamp, msg.sender, semillaDescripcion)));\n        return descripcionAleatoria % modulo;\n    }\n\n    /**\n     * @dev Crea un tipo de carta aleatorio\n     * @return valor aleatorio de tipo de carta\n     */\n    function _crearTipoAleatorio() internal returns (uint8){\n        semillaTipo ++;\n        uint256 tipoAleatorio = uint256(keccak256(abi.encodePacked(block.timestamp, msg.sender, semillaTipo)));\n        return uint8(tipoAleatorio % cantidadTipos);\n    }\n\n    modifier soloDuenioDe(uint _cartaId) {\n        require (msg.sender == cartaAPersona[_cartaId], \"Solo el duenio de la carta puede realizar esta transaccion\");\n        _;\n    }\n\n    modifier cartaNoEnSubasta(uint _cartaId) {\n        require (!cartas[_cartaId].enSubasta, \"La carta esta siendo subastada\");\n        _;\n    }\n\n    modifier cartaExiste(uint _cartaId) {\n        require (_cartaId < cartas.length, \"La carta no existe\");\n        _;\n    }\n\n}\n",
  "sourcePath": "/Users/filyankaragoz/Documents/teoria-del-lenguaje/truffle-project/contracts/CartaFactory.sol",
  "compiler": {
    "name": "solc",
    "version": "0.8.0+commit.c7dfd78e.Emscripten.clang"
  },
  "schemaVersion": "3.4.1",
  "updatedAt": "2021-07-12T00:00:34.350Z",
  "devdoc": {
    "details": "Generacion aleatoria de cartas",
    "kind": "dev",
    "methods": {
      "owner()": {
        "details": "Returns the address of the current owner."
      },
      "renounceOwnership()": {
        "details": "Leaves the contract without owner. It will not be possible to call `onlyOwner` functions anymore. Can only be called by the current owner. NOTE: Renouncing ownership will leave the contract without an owner, thereby removing any functionality that is only available to the owner."
      },
      "transferOwnership(address)": {
        "details": "Transfers ownership of the contract to a new account (`newOwner`). Can only be called by the current owner."
      }
    },
    "title": "CartaFactory",
    "version": 1
  },
  "userdoc": {
    "kind": "user",
    "methods": {},
    "version": 1
  }
}