{
  "contractName": "CartaFactory",
  "abi": [
    {
      "anonymous": false,
      "inputs": [
        {
          "indexed": false,
          "internalType": "uint256",
          "name": "cartaId",
          "type": "uint256"
        },
        {
          "indexed": false,
          "internalType": "uint256",
          "name": "descripcion",
          "type": "uint256"
        },
        {
          "indexed": false,
          "internalType": "uint8",
          "name": "tipo",
          "type": "uint8"
        }
      ],
      "name": "NuevaCarta",
      "type": "event"
    },
    {
      "anonymous": false,
      "inputs": [
        {
          "indexed": true,
          "internalType": "address",
          "name": "previousOwner",
          "type": "address"
        },
        {
          "indexed": true,
          "internalType": "address",
          "name": "newOwner",
          "type": "address"
        }
      ],
      "name": "OwnershipTransferred",
      "type": "event"
    },
    {
      "constant": true,
      "inputs": [
        {
          "internalType": "uint256",
          "name": "",
          "type": "uint256"
        }
      ],
      "name": "cartaAPersona",
      "outputs": [
        {
          "internalType": "address",
          "name": "",
          "type": "address"
        }
      ],
      "payable": false,
      "stateMutability": "view",
      "type": "function"
    },
    {
      "constant": true,
      "inputs": [
        {
          "internalType": "uint256",
          "name": "",
          "type": "uint256"
        }
      ],
      "name": "cartas",
      "outputs": [
        {
          "internalType": "uint256",
          "name": "descripcion",
          "type": "uint256"
        },
        {
          "internalType": "uint8",
          "name": "tipo",
          "type": "uint8"
        }
      ],
      "payable": false,
      "stateMutability": "view",
      "type": "function"
    },
    {
      "constant": true,
      "inputs": [],
      "name": "owner",
      "outputs": [
        {
          "internalType": "address",
          "name": "",
          "type": "address"
        }
      ],
      "payable": false,
      "stateMutability": "view",
      "type": "function"
    },
    {
      "constant": false,
      "inputs": [
        {
          "internalType": "address",
          "name": "newOwner",
          "type": "address"
        }
      ],
      "name": "transferOwnership",
      "outputs": [],
      "payable": false,
      "stateMutability": "nonpayable",
      "type": "function"
    },
    {
      "constant": false,
      "inputs": [],
      "name": "crearCartaAleatoria",
      "outputs": [],
      "payable": false,
      "stateMutability": "nonpayable",
      "type": "function"
    }
  ],
  "bytecode": "0x60806040526010600155600154600a0a600255600060035560006004556003600560006101000a81548160ff021916908360ff1602179055506000600655336000806101000a81548173ffffffffffffffffffffffffffffffffffffffff021916908373ffffffffffffffffffffffffffffffffffffffff1602179055506107d48061008c6000396000f3fe608060405234801561001057600080fd5b50600436106100575760003560e01c8063582ddb381461005c5780635b102ab81461008c5780638da5cb5b146100bd578063bc24b16a146100db578063f2fde38b146100e5575b600080fd5b61007660048036036100719190810190610591565b610101565b6040516100839190610652565b60405180910390f35b6100a660048036036100a19190810190610591565b610134565b6040516100b49291906106a4565b60405180910390f35b6100c5610172565b6040516100d29190610652565b60405180910390f35b6100e3610197565b005b6100ff60048036036100fa9190810190610568565b6101bd565b005b60086020528060005260406000206000915054906101000a900473ffffffffffffffffffffffffffffffffffffffff1681565b6007818154811061014157fe5b90600052602060002090600202016000915090508060000154908060010160009054906101000a900460ff16905082565b6000809054906101000a900473ffffffffffffffffffffffffffffffffffffffff1681565b60006101a161030e565b905060006101ad610368565b90506101b982826103d2565b5050565b6000809054906101000a900473ffffffffffffffffffffffffffffffffffffffff1673ffffffffffffffffffffffffffffffffffffffff163373ffffffffffffffffffffffffffffffffffffffff161461021657600080fd5b600073ffffffffffffffffffffffffffffffffffffffff168173ffffffffffffffffffffffffffffffffffffffff16141561025057600080fd5b8073ffffffffffffffffffffffffffffffffffffffff166000809054906101000a900473ffffffffffffffffffffffffffffffffffffffff1673ffffffffffffffffffffffffffffffffffffffff167f8be0079c531659141344cd1fd0a4f28419497f9722a3daafe3b4186f6b6457e060405160405180910390a3806000806101000a81548173ffffffffffffffffffffffffffffffffffffffff021916908373ffffffffffffffffffffffffffffffffffffffff16021790555050565b60006003600081548092919060010191905055506000423360035460405160200161033b93929190610615565b6040516020818303038152906040528051906020012060001c9050600254818161036157fe5b0691505090565b60006004600081548092919060010191905055506000423360045460405160200161039593929190610615565b6040516020818303038152906040528051906020012060001c9050600560009054906101000a900460ff1660ff1681816103cb57fe5b0691505090565b60006001600760405180604001604052808681526020018560ff16815250908060018154018082558091505090600182039060005260206000209060020201600090919290919091506000820151816000015560208201518160010160006101000a81548160ff021916908360ff1602179055505050039050336008600083815260200190815260200160002060006101000a81548173ffffffffffffffffffffffffffffffffffffffff021916908373ffffffffffffffffffffffffffffffffffffffff160217905550600960003373ffffffffffffffffffffffffffffffffffffffff1673ffffffffffffffffffffffffffffffffffffffff168152602001908152602001600020600081548092919060010191905055506006600081548092919060010191905055507f6ca85b4ba4ace1b9d8e266c2cb00dcb3314c66609fd525cfab3301b2e306748d8184846040516105319392919061066d565b60405180910390a1505050565b60008135905061054d81610763565b92915050565b6000813590506105628161077a565b92915050565b60006020828403121561057a57600080fd5b60006105888482850161053e565b91505092915050565b6000602082840312156105a357600080fd5b60006105b184828501610553565b91505092915050565b6105cb6105c6826106df565b610728565b82525050565b6105da816106cd565b82525050565b6105e981610711565b82525050565b6106006105fb82610711565b61074c565b82525050565b61060f8161071b565b82525050565b600061062182866105ef565b60208201915061063182856105ba565b60148201915061064182846105ef565b602082019150819050949350505050565b600060208201905061066760008301846105d1565b92915050565b600060608201905061068260008301866105e0565b61068f60208301856105e0565b61069c6040830184610606565b949350505050565b60006040820190506106b960008301856105e0565b6106c66020830184610606565b9392505050565b60006106d8826106f1565b9050919050565b60006106ea826106f1565b9050919050565b600073ffffffffffffffffffffffffffffffffffffffff82169050919050565b6000819050919050565b600060ff82169050919050565b60006107338261073a565b9050919050565b600061074582610756565b9050919050565b6000819050919050565b60008160601b9050919050565b61076c816106cd565b811461077757600080fd5b50565b61078381610711565b811461078e57600080fd5b5056fea365627a7a72315820d22cb344f2096da509c6c58e313109c7d491be2080a00f9d34b2807ad6c6b8066c6578706572696d656e74616cf564736f6c63430005100040",
  "source": "pragma solidity 0.5.16;\npragma experimental ABIEncoderV2;\n\nimport \"./Ownable.sol\";\n\n/**\n * @title CartaFactory\n * @dev Generacion aleatoria de cartas\n */\ncontract CartaFactory is Ownable {\n\n    event NuevaCarta(uint cartaId, uint256 descripcion, uint8 tipo);\n\n    uint256 cantidadDigitos = 16;\n    uint256 modulo = 10 ** cantidadDigitos;\n    uint256 semillaDescripcion = 0;\n    uint256 semillaTipo = 0;\n    uint8 cantidadTipos = 3;\n\n    uint256 cantidadCartas = 0;\n\n    /**\n    * Tipos:\n    * 1: normal\n    * 2: rara\n    * 3: epica\n    */\n    struct Carta {\n        uint256 descripcion;\n        uint8 tipo;\n    }\n    \n    Carta[] public cartas;\n\n    mapping (uint => address) public cartaAPersona;\n    mapping (address => uint) personaCantidadCartas;\n    \n    /**\n     * @dev Crea una instancia de carta\n     * @param _descripcion descripcion para crear la carta\n     */\n    function _crearCarta(uint256 _descripcion, uint8 _tipo) private {\n        uint id = cartas.push(Carta(_descripcion, _tipo)) - 1;\n        cartaAPersona[id] = msg.sender;\n        personaCantidadCartas[msg.sender] ++;\n        cantidadCartas ++;\n        emit NuevaCarta(id, _descripcion, _tipo);\n    }\n\n    /**\n     * @dev Crea un valor aleatorio de descripcion \n     * @return valor aleatorio de descripcion\n     */\n    function _crearDescripcionAleatoria() private returns (uint256){\n        semillaDescripcion ++;\n        uint256 descripcionAleatoria = uint256(keccak256(abi.encodePacked(block.timestamp, msg.sender, semillaDescripcion)));\n        return descripcionAleatoria % modulo;\n    }\n\n    /**\n     * @dev Crea un tipo de carta aleatorio\n     * @return valor aleatorio de tipo de carta\n     */\n    function _crearTipoAleatorio() private returns (uint8){\n        semillaTipo ++;\n        uint256 tipoAleatorio = uint256(keccak256(abi.encodePacked(block.timestamp, msg.sender, semillaTipo)));\n        return uint8(tipoAleatorio % cantidadTipos);\n    }\n    \n    /**\n     * @dev Crea una carta aleatoria\n     */\n    function crearCartaAleatoria() public {\n        uint256 descripcionAleatoria = _crearDescripcionAleatoria();\n        uint8 tipoAleatorio = _crearTipoAleatorio();\n        _crearCarta(descripcionAleatoria, tipoAleatorio);\n    }\n\n}\n",
  "sourcePath": "/home/miki_mustard/Desktop/Personal/Facultad/tdl/teoria-del-lenguaje/truffle-project/contracts/CartaFactory.sol",
  "compiler": {
    "name": "solc",
    "version": "0.5.16+commit.9c3226ce.Emscripten.clang"
  },
  "schemaVersion": "3.4.1",
  "updatedAt": "2021-06-20T00:25:03.853Z",
  "devdoc": {
    "details": "Generacion aleatoria de cartas",
    "methods": {
      "crearCartaAleatoria()": {
        "details": "Crea una carta aleatoria"
      },
      "transferOwnership(address)": {
        "details": "Permite que el owner actual transfiera control de la cuenta a un nuevoOwner",
        "params": {
          "newOwner": "La direccion a la cual se transfiere el ownership"
        }
      }
    },
    "title": "CartaFactory"
  },
  "userdoc": {
    "methods": {}
  }
}