{
  "contractName": "CartaItem",
  "abi": [
    {
      "anonymous": false,
      "inputs": [
        {
          "indexed": true,
          "internalType": "address",
          "name": "_owner",
          "type": "address"
        },
        {
          "indexed": true,
          "internalType": "address",
          "name": "_approved",
          "type": "address"
        },
        {
          "indexed": false,
          "internalType": "uint256",
          "name": "_tokenId",
          "type": "uint256"
        }
      ],
      "name": "Approval",
      "type": "event"
    },
    {
      "anonymous": false,
      "inputs": [
        {
          "indexed": false,
          "internalType": "uint256",
          "name": "cartaId",
          "type": "uint256"
        },
        {
          "indexed": false,
          "internalType": "uint256",
          "name": "descripcion",
          "type": "uint256"
        },
        {
          "indexed": false,
          "internalType": "uint8",
          "name": "tipo",
          "type": "uint8"
        }
      ],
      "name": "NuevaCarta",
      "type": "event"
    },
    {
      "anonymous": false,
      "inputs": [
        {
          "indexed": true,
          "internalType": "address",
          "name": "previousOwner",
          "type": "address"
        },
        {
          "indexed": true,
          "internalType": "address",
          "name": "newOwner",
          "type": "address"
        }
      ],
      "name": "OwnershipTransferred",
      "type": "event"
    },
    {
      "anonymous": false,
      "inputs": [
        {
          "indexed": true,
          "internalType": "address",
          "name": "_from",
          "type": "address"
        },
        {
          "indexed": true,
          "internalType": "address",
          "name": "_to",
          "type": "address"
        },
        {
          "indexed": false,
          "internalType": "uint256",
          "name": "_tokenId",
          "type": "uint256"
        }
      ],
      "name": "Transfer",
      "type": "event"
    },
    {
      "inputs": [
        {
          "internalType": "uint256",
          "name": "",
          "type": "uint256"
        }
      ],
      "name": "cartaAPersona",
      "outputs": [
        {
          "internalType": "address",
          "name": "",
          "type": "address"
        }
      ],
      "stateMutability": "view",
      "type": "function",
      "constant": true
    },
    {
      "inputs": [
        {
          "internalType": "uint256",
          "name": "",
          "type": "uint256"
        }
      ],
      "name": "cartas",
      "outputs": [
        {
          "internalType": "uint256",
          "name": "descripcion",
          "type": "uint256"
        },
        {
          "internalType": "uint8",
          "name": "tipo",
          "type": "uint8"
        }
      ],
      "stateMutability": "view",
      "type": "function",
      "constant": true
    },
    {
      "inputs": [],
      "name": "getCartas",
      "outputs": [
        {
          "internalType": "uint256[]",
          "name": "",
          "type": "uint256[]"
        },
        {
          "internalType": "uint8[]",
          "name": "",
          "type": "uint8[]"
        }
      ],
      "stateMutability": "view",
      "type": "function",
      "constant": true
    },
    {
      "inputs": [
        {
          "internalType": "address",
          "name": "_owner",
          "type": "address"
        }
      ],
      "name": "getCartasDe",
      "outputs": [
        {
          "internalType": "uint256[]",
          "name": "",
          "type": "uint256[]"
        },
        {
          "internalType": "uint8[]",
          "name": "",
          "type": "uint8[]"
        }
      ],
      "stateMutability": "view",
      "type": "function",
      "constant": true
    },
    {
      "inputs": [],
      "name": "owner",
      "outputs": [
        {
          "internalType": "address",
          "name": "",
          "type": "address"
        }
      ],
      "stateMutability": "view",
      "type": "function",
      "constant": true
    },
    {
      "inputs": [],
      "name": "renounceOwnership",
      "outputs": [],
      "stateMutability": "nonpayable",
      "type": "function"
    },
    {
      "inputs": [
        {
          "internalType": "address",
          "name": "newOwner",
          "type": "address"
        }
      ],
      "name": "transferOwnership",
      "outputs": [],
      "stateMutability": "nonpayable",
      "type": "function"
    },
    {
      "inputs": [],
      "name": "crearCartaAleatoria",
      "outputs": [
        {
          "internalType": "uint256",
          "name": "",
          "type": "uint256"
        }
      ],
      "stateMutability": "nonpayable",
      "type": "function"
    },
    {
      "inputs": [
        {
          "internalType": "address",
          "name": "_owner",
          "type": "address"
        }
      ],
      "name": "balanceOf",
      "outputs": [
        {
          "internalType": "uint256",
          "name": "_balance",
          "type": "uint256"
        }
      ],
      "stateMutability": "view",
      "type": "function",
      "constant": true
    },
    {
      "inputs": [
        {
          "internalType": "uint256",
          "name": "_tokenId",
          "type": "uint256"
        }
      ],
      "name": "ownerOf",
      "outputs": [
        {
          "internalType": "address",
          "name": "_owner",
          "type": "address"
        }
      ],
      "stateMutability": "view",
      "type": "function",
      "constant": true
    },
    {
      "inputs": [
        {
          "internalType": "address",
          "name": "_to",
          "type": "address"
        },
        {
          "internalType": "uint256",
          "name": "_tokenId",
          "type": "uint256"
        }
      ],
      "name": "transfer",
      "outputs": [],
      "stateMutability": "nonpayable",
      "type": "function"
    },
    {
      "inputs": [
        {
          "internalType": "address",
          "name": "_to",
          "type": "address"
        },
        {
          "internalType": "uint256",
          "name": "_tokenId",
          "type": "uint256"
        }
      ],
      "name": "approve",
      "outputs": [],
      "stateMutability": "nonpayable",
      "type": "function"
    },
    {
      "inputs": [
        {
          "internalType": "uint256",
          "name": "_tokenId",
          "type": "uint256"
        }
      ],
      "name": "takeOwnership",
      "outputs": [],
      "stateMutability": "nonpayable",
      "type": "function"
    },
    {
      "inputs": [],
      "name": "balanceOzToken",
      "outputs": [
        {
          "internalType": "uint256",
          "name": "",
          "type": "uint256"
        }
      ],
      "stateMutability": "view",
      "type": "function",
      "constant": true
    },
    {
      "inputs": [
        {
          "internalType": "address",
          "name": "_ozTokenAddress",
          "type": "address"
        }
      ],
      "name": "setOzTokenAddress",
      "outputs": [],
      "stateMutability": "nonpayable",
      "type": "function"
    }
  ],
  "bytecode": "0x60806040526010600155600154600a6200001a919062000281565b600255600060035560006004556003600560006101000a81548160ff021916908360ff16021790555073c3d1131420135b246b155ba17e32ba9f48c4d6a2600960006101000a81548173ffffffffffffffffffffffffffffffffffffffff021916908373ffffffffffffffffffffffffffffffffffffffff160217905550600960009054906101000a900473ffffffffffffffffffffffffffffffffffffffff16600a60006101000a81548173ffffffffffffffffffffffffffffffffffffffff021916908373ffffffffffffffffffffffffffffffffffffffff1602179055506002600b556001600c55731c53954455a6796723b52021c034964dd9e329de600d60006101000a81548173ffffffffffffffffffffffffffffffffffffffff021916908373ffffffffffffffffffffffffffffffffffffffff1602179055503480156200016757600080fd5b5060006200017a6200021e60201b60201c565b9050806000806101000a81548173ffffffffffffffffffffffffffffffffffffffff021916908373ffffffffffffffffffffffffffffffffffffffff1602179055508073ffffffffffffffffffffffffffffffffffffffff16600073ffffffffffffffffffffffffffffffffffffffff167f8be0079c531659141344cd1fd0a4f28419497f9722a3daafe3b4186f6b6457e060405160405180910390a35062000404565b600033905090565b6000808291508390505b6001851115620002785780860481111562000250576200024f620003c8565b5b6001851615620002605780820291505b80810290506200027085620003f7565b945062000230565b94509492505050565b60006200028e82620003be565b91506200029b83620003be565b9250620002ca7fffffffffffffffffffffffffffffffffffffffffffffffffffffffffffffffff8484620002d2565b905092915050565b600082620002e45760019050620003b7565b81620002f45760009050620003b7565b81600181146200030d576002811462000318576200034e565b6001915050620003b7565b60ff8411156200032d576200032c620003c8565b5b8360020a915084821115620003475762000346620003c8565b5b50620003b7565b5060208310610133831016604e8410600b8410161715620003885782820a905083811115620003825762000381620003c8565b5b620003b7565b62000397848484600162000226565b92509050818404811115620003b157620003b0620003c8565b5b81810290505b9392505050565b6000819050919050565b7f4e487b7100000000000000000000000000000000000000000000000000000000600052601160045260246000fd5b60008160011c9050919050565b61202880620004146000396000f3fe608060405234801561001057600080fd5b50600436106100f55760003560e01c8063715018a611610097578063b2e6ceeb11610066578063b2e6ceeb14610286578063bc24b16a146102a2578063c2fcde89146102c0578063f2fde38b146102df576100f5565b8063715018a6146102245780637e5f95911461022e5780638da5cb5b1461024c578063a9059cbb1461026a576100f5565b806358a8788f116100d357806358a8788f146101775780635b102ab8146101935780636352211e146101c457806370a08231146101f4576100f5565b8063095ea7b3146100fa5780634a358c1e14610116578063582ddb3814610147575b600080fd5b610114600480360381019061010f9190611838565b6102fb565b005b610130600480360381019061012b919061180f565b610423565b60405161013e929190611c32565b60405180910390f35b610161600480360381019061015c919061189d565b610731565b60405161016e9190611bb7565b60405180910390f35b610191600480360381019061018c919061180f565b610764565b005b6101ad60048036038101906101a8919061189d565b610887565b6040516101bb929190611d3b565b60405180910390f35b6101de60048036038101906101d9919061189d565b6108c8565b6040516101eb9190611bb7565b60405180910390f35b61020e6004803603810190610209919061180f565b610905565b60405161021b9190611ce9565b60405180910390f35b61022c61094e565b005b610236610a88565b6040516102439190611ce9565b60405180910390f35b610254610b3a565b6040516102619190611bb7565b60405180910390f35b610284600480360381019061027f9190611838565b610b63565b005b6102a0600480360381019061029b919061189d565b610bdf565b005b6102aa610c66565b6040516102b79190611ce9565b60405180910390f35b6102c8610e66565b6040516102d6929190611c32565b60405180910390f35b6102f960048036038101906102f4919061180f565b6110c0565b005b806007600082815260200190815260200160002060009054906101000a900473ffffffffffffffffffffffffffffffffffffffff1673ffffffffffffffffffffffffffffffffffffffff163373ffffffffffffffffffffffffffffffffffffffff161461036757600080fd5b82600e600084815260200190815260200160002060006101000a81548173ffffffffffffffffffffffffffffffffffffffff021916908373ffffffffffffffffffffffffffffffffffffffff1602179055508273ffffffffffffffffffffffffffffffffffffffff163373ffffffffffffffffffffffffffffffffffffffff167f8c5be1e5ebec7d5bd14f71427d1e84f3dd0314c0f7b2291e5b200ac8c7c3b925846040516104169190611ce9565b60405180910390a3505050565b6060806000600860008573ffffffffffffffffffffffffffffffffffffffff1673ffffffffffffffffffffffffffffffffffffffff16815260200190815260200160002054905060008167ffffffffffffffff8111156104ac577f4e487b7100000000000000000000000000000000000000000000000000000000600052604160045260246000fd5b6040519080825280602002602001820160405280156104da5781602001602082028036833780820191505090505b50905060008267ffffffffffffffff81111561051f577f4e487b7100000000000000000000000000000000000000000000000000000000600052604160045260246000fd5b60405190808252806020026020018201604052801561054d5781602001602082028036833780820191505090505b5090506000805b600680549050811015610721578773ffffffffffffffffffffffffffffffffffffffff166007600083815260200190815260200160002060009054906101000a900473ffffffffffffffffffffffffffffffffffffffff1673ffffffffffffffffffffffffffffffffffffffff16141561070e5760068181548110610602577f4e487b7100000000000000000000000000000000000000000000000000000000600052603260045260246000fd5b90600052602060002090600202016000015484838151811061064d577f4e487b7100000000000000000000000000000000000000000000000000000000600052603260045260246000fd5b60200260200101818152505060068181548110610693577f4e487b7100000000000000000000000000000000000000000000000000000000600052603260045260246000fd5b906000526020600020906002020160010160009054906101000a900460ff168383815181106106eb577f4e487b7100000000000000000000000000000000000000000000000000000000600052603260045260246000fd5b602002602001019060ff16908160ff1681525050818061070a90611e9a565b9250505b808061071990611e9a565b915050610554565b5082829550955050505050915091565b60076020528060005260406000206000915054906101000a900473ffffffffffffffffffffffffffffffffffffffff1681565b61076c611269565b73ffffffffffffffffffffffffffffffffffffffff1661078a610b3a565b73ffffffffffffffffffffffffffffffffffffffff16146107e0576040517f08c379a00000000000000000000000000000000000000000000000000000000081526004016107d790611ca9565b60405180910390fd5b80600960006101000a81548173ffffffffffffffffffffffffffffffffffffffff021916908373ffffffffffffffffffffffffffffffffffffffff160217905550600960009054906101000a900473ffffffffffffffffffffffffffffffffffffffff16600a60006101000a81548173ffffffffffffffffffffffffffffffffffffffff021916908373ffffffffffffffffffffffffffffffffffffffff16021790555050565b6006818154811061089757600080fd5b90600052602060002090600202016000915090508060000154908060010160009054906101000a900460ff16905082565b60006007600083815260200190815260200160002060009054906101000a900473ffffffffffffffffffffffffffffffffffffffff169050919050565b6000600860008373ffffffffffffffffffffffffffffffffffffffff1673ffffffffffffffffffffffffffffffffffffffff168152602001908152602001600020549050919050565b610956611269565b73ffffffffffffffffffffffffffffffffffffffff16610974610b3a565b73ffffffffffffffffffffffffffffffffffffffff16146109ca576040517f08c379a00000000000000000000000000000000000000000000000000000000081526004016109c190611ca9565b60405180910390fd5b600073ffffffffffffffffffffffffffffffffffffffff1660008054906101000a900473ffffffffffffffffffffffffffffffffffffffff1673ffffffffffffffffffffffffffffffffffffffff167f8be0079c531659141344cd1fd0a4f28419497f9722a3daafe3b4186f6b6457e060405160405180910390a360008060006101000a81548173ffffffffffffffffffffffffffffffffffffffff021916908373ffffffffffffffffffffffffffffffffffffffff160217905550565b6000600a60009054906101000a900473ffffffffffffffffffffffffffffffffffffffff1673ffffffffffffffffffffffffffffffffffffffff166370a08231336040518263ffffffff1660e01b8152600401610ae59190611bb7565b60206040518083038186803b158015610afd57600080fd5b505afa158015610b11573d6000803e3d6000fd5b505050506040513d601f19601f82011682018060405250810190610b3591906118c6565b905090565b60008060009054906101000a900473ffffffffffffffffffffffffffffffffffffffff16905090565b806007600082815260200190815260200160002060009054906101000a900473ffffffffffffffffffffffffffffffffffffffff1673ffffffffffffffffffffffffffffffffffffffff163373ffffffffffffffffffffffffffffffffffffffff1614610bcf57600080fd5b610bda338484611271565b505050565b3373ffffffffffffffffffffffffffffffffffffffff16600e600083815260200190815260200160002060009054906101000a900473ffffffffffffffffffffffffffffffffffffffff1673ffffffffffffffffffffffffffffffffffffffff1614610c4a57600080fd5b6000610c55826108c8565b9050610c62813384611271565b5050565b6000600b54600a60009054906101000a900473ffffffffffffffffffffffffffffffffffffffff1673ffffffffffffffffffffffffffffffffffffffff166370a08231336040518263ffffffff1660e01b8152600401610cc69190611bb7565b60206040518083038186803b158015610cde57600080fd5b505afa158015610cf2573d6000803e3d6000fd5b505050506040513d601f19601f82011682018060405250810190610d1691906118c6565b1015610d57576040517f08c379a0000000000000000000000000000000000000000000000000000000008152600401610d4e90611c89565b60405180910390fd5b600a60009054906101000a900473ffffffffffffffffffffffffffffffffffffffff1673ffffffffffffffffffffffffffffffffffffffff1663a9059cbb600d60009054906101000a900473ffffffffffffffffffffffffffffffffffffffff16600b546040518363ffffffff1660e01b8152600401610dd8929190611c09565b602060405180830381600087803b158015610df257600080fd5b505af1158015610e06573d6000803e3d6000fd5b505050506040513d601f19601f82011682018060405250810190610e2a9190611874565b506000610e3561157a565b90506000610e416115dc565b9050610e4d828261164e565b6001600680549050610e5f9190611de7565b9250505090565b606080600060068054905067ffffffffffffffff811115610eb0577f4e487b7100000000000000000000000000000000000000000000000000000000600052604160045260246000fd5b604051908082528060200260200182016040528015610ede5781602001602082028036833780820191505090505b509050600060068054905067ffffffffffffffff811115610f28577f4e487b7100000000000000000000000000000000000000000000000000000000600052604160045260246000fd5b604051908082528060200260200182016040528015610f565781602001602082028036833780820191505090505b50905060005b6006805490508110156110b35760068181548110610fa3577f4e487b7100000000000000000000000000000000000000000000000000000000600052603260045260246000fd5b906000526020600020906002020160000154838281518110610fee577f4e487b7100000000000000000000000000000000000000000000000000000000600052603260045260246000fd5b60200260200101818152505060068181548110611034577f4e487b7100000000000000000000000000000000000000000000000000000000600052603260045260246000fd5b906000526020600020906002020160010160009054906101000a900460ff1682828151811061108c577f4e487b7100000000000000000000000000000000000000000000000000000000600052603260045260246000fd5b602002602001019060ff16908160ff168152505080806110ab90611e9a565b915050610f5c565b5081819350935050509091565b6110c8611269565b73ffffffffffffffffffffffffffffffffffffffff166110e6610b3a565b73ffffffffffffffffffffffffffffffffffffffff161461113c576040517f08c379a000000000000000000000000000000000000000000000000000000000815260040161113390611ca9565b60405180910390fd5b600073ffffffffffffffffffffffffffffffffffffffff168173ffffffffffffffffffffffffffffffffffffffff1614156111ac576040517f08c379a00000000000000000000000000000000000000000000000000000000081526004016111a390611c69565b60405180910390fd5b8073ffffffffffffffffffffffffffffffffffffffff1660008054906101000a900473ffffffffffffffffffffffffffffffffffffffff1673ffffffffffffffffffffffffffffffffffffffff167f8be0079c531659141344cd1fd0a4f28419497f9722a3daafe3b4186f6b6457e060405160405180910390a3806000806101000a81548173ffffffffffffffffffffffffffffffffffffffff021916908373ffffffffffffffffffffffffffffffffffffffff16021790555050565b600033905090565b600c54600a60009054906101000a900473ffffffffffffffffffffffffffffffffffffffff1673ffffffffffffffffffffffffffffffffffffffff166370a08231856040518263ffffffff1660e01b81526004016112cf9190611bb7565b60206040518083038186803b1580156112e757600080fd5b505afa1580156112fb573d6000803e3d6000fd5b505050506040513d601f19601f8201168201806040525081019061131f91906118c6565b1015611360576040517f08c379a000000000000000000000000000000000000000000000000000000000815260040161135790611cc9565b60405180910390fd5b600a60009054906101000a900473ffffffffffffffffffffffffffffffffffffffff1673ffffffffffffffffffffffffffffffffffffffff166323b872dd3384600c546040518463ffffffff1660e01b81526004016113c193929190611bd2565b602060405180830381600087803b1580156113db57600080fd5b505af11580156113ef573d6000803e3d6000fd5b505050506040513d601f19601f820116820180604052508101906114139190611874565b50600860008373ffffffffffffffffffffffffffffffffffffffff1673ffffffffffffffffffffffffffffffffffffffff168152602001908152602001600020600081548092919061146490611e9a565b9190505550600860008473ffffffffffffffffffffffffffffffffffffffff1673ffffffffffffffffffffffffffffffffffffffff16815260200190815260200160002060008154809291906114b990611e70565b9190505550816007600083815260200190815260200160002060006101000a81548173ffffffffffffffffffffffffffffffffffffffff021916908373ffffffffffffffffffffffffffffffffffffffff1602179055508173ffffffffffffffffffffffffffffffffffffffff168373ffffffffffffffffffffffffffffffffffffffff167fddf252ad1be2c89b69c2b068fc378daa952ba7f163c4a11628f55a4df523b3ef8360405161156d9190611ce9565b60405180910390a3505050565b60006003600081548092919061158f90611e9a565b9190505550600042336003546040516020016115ad93929190611b7a565b6040516020818303038152906040528051906020012060001c9050600254816115d69190611f11565b91505090565b6000600460008154809291906115f190611e9a565b91905055506000423360045460405160200161160f93929190611b7a565b6040516020818303038152906040528051906020012060001c9050600560009054906101000a900460ff1660ff16816116489190611f11565b91505090565b600660405180604001604052808481526020018360ff1681525090806001815401808255809150506001900390600052602060002090600202016000909190919091506000820151816000015560208201518160010160006101000a81548160ff021916908360ff1602179055505050600060016006805490506116d29190611de7565b9050336007600083815260200190815260200160002060006101000a81548173ffffffffffffffffffffffffffffffffffffffff021916908373ffffffffffffffffffffffffffffffffffffffff160217905550600860003373ffffffffffffffffffffffffffffffffffffffff1673ffffffffffffffffffffffffffffffffffffffff168152602001908152602001600020600081548092919061177690611e9a565b91905055507f6ca85b4ba4ace1b9d8e266c2cb00dcb3314c66609fd525cfab3301b2e306748d8184846040516117ae93929190611d04565b60405180910390a1505050565b6000813590506117ca81611fad565b92915050565b6000815190506117df81611fc4565b92915050565b6000813590506117f481611fdb565b92915050565b60008151905061180981611fdb565b92915050565b60006020828403121561182157600080fd5b600061182f848285016117bb565b91505092915050565b6000806040838503121561184b57600080fd5b6000611859858286016117bb565b925050602061186a858286016117e5565b9150509250929050565b60006020828403121561188657600080fd5b6000611894848285016117d0565b91505092915050565b6000602082840312156118af57600080fd5b60006118bd848285016117e5565b91505092915050565b6000602082840312156118d857600080fd5b60006118e6848285016117fa565b91505092915050565b60006118fb8383611b27565b60208301905092915050565b60006119138383611b5c565b60208301905092915050565b61192881611e1b565b82525050565b61193f61193a82611e1b565b611ee3565b82525050565b600061195082611d84565b61195a8185611db4565b935061196583611d64565b8060005b8381101561199657815161197d88826118ef565b975061198883611d9a565b925050600181019050611969565b5085935050505092915050565b60006119ae82611d8f565b6119b88185611dc5565b93506119c383611d74565b8060005b838110156119f45781516119db8882611907565b97506119e683611da7565b9250506001810190506119c7565b5085935050505092915050565b6000611a0e602683611dd6565b91507f4f776e61626c653a206e6577206f776e657220697320746865207a65726f206160008301527f64647265737300000000000000000000000000000000000000000000000000006020830152604082019050919050565b6000611a74601983611dd6565b91507f4e6f207469656e652073616c646f20737566696369656e7465000000000000006000830152602082019050919050565b6000611ab4602083611dd6565b91507f4f776e61626c653a2063616c6c6572206973206e6f7420746865206f776e65726000830152602082019050919050565b6000611af4601983611dd6565b91507f4e6f207469656e652073616c646f20646973706f6e69626c65000000000000006000830152602082019050919050565b611b3081611e59565b82525050565b611b3f81611e59565b82525050565b611b56611b5182611e59565b611f07565b82525050565b611b6581611e63565b82525050565b611b7481611e63565b82525050565b6000611b868286611b45565b602082019150611b96828561192e565b601482019150611ba68284611b45565b602082019150819050949350505050565b6000602082019050611bcc600083018461191f565b92915050565b6000606082019050611be7600083018661191f565b611bf4602083018561191f565b611c016040830184611b36565b949350505050565b6000604082019050611c1e600083018561191f565b611c2b6020830184611b36565b9392505050565b60006040820190508181036000830152611c4c8185611945565b90508181036020830152611c6081846119a3565b90509392505050565b60006020820190508181036000830152611c8281611a01565b9050919050565b60006020820190508181036000830152611ca281611a67565b9050919050565b60006020820190508181036000830152611cc281611aa7565b9050919050565b60006020820190508181036000830152611ce281611ae7565b9050919050565b6000602082019050611cfe6000830184611b36565b92915050565b6000606082019050611d196000830186611b36565b611d266020830185611b36565b611d336040830184611b6b565b949350505050565b6000604082019050611d506000830185611b36565b611d5d6020830184611b6b565b9392505050565b6000819050602082019050919050565b6000819050602082019050919050565b600081519050919050565b600081519050919050565b6000602082019050919050565b6000602082019050919050565b600082825260208201905092915050565b600082825260208201905092915050565b600082825260208201905092915050565b6000611df282611e59565b9150611dfd83611e59565b925082821015611e1057611e0f611f42565b5b828203905092915050565b6000611e2682611e39565b9050919050565b60008115159050919050565b600073ffffffffffffffffffffffffffffffffffffffff82169050919050565b6000819050919050565b600060ff82169050919050565b6000611e7b82611e59565b91506000821415611e8f57611e8e611f42565b5b600182039050919050565b6000611ea582611e59565b91507fffffffffffffffffffffffffffffffffffffffffffffffffffffffffffffffff821415611ed857611ed7611f42565b5b600182019050919050565b6000611eee82611ef5565b9050919050565b6000611f0082611fa0565b9050919050565b6000819050919050565b6000611f1c82611e59565b9150611f2783611e59565b925082611f3757611f36611f71565b5b828206905092915050565b7f4e487b7100000000000000000000000000000000000000000000000000000000600052601160045260246000fd5b7f4e487b7100000000000000000000000000000000000000000000000000000000600052601260045260246000fd5b60008160601b9050919050565b611fb681611e1b565b8114611fc157600080fd5b50565b611fcd81611e2d565b8114611fd857600080fd5b50565b611fe481611e59565b8114611fef57600080fd5b5056fea2646970667358221220debafdb65c20178df2ef7b930d4db2dd09ee145097b555f921a80e59e6b1eea064736f6c63430008000033",
  "immutableReferences": {},
  "source": "pragma solidity ^0.8.0;\n\nimport \"./CartaHelper.sol\";\nimport \"./erc721.sol\";\n\ninterface OzInterface {\n    function balanceOf(address account) external view returns (uint);\n    function transfer(address recipient, uint amount) external returns (bool);\n    function approve(address spender, uint amount) external returns (bool);\n    function transferFrom(address sender, address recipient, uint amount) external returns (bool);\n}\n\n/**\n * @title CartaItem\n * @dev Funciones de administracion de cartas como \n * compra de las mismas o transferencia de ownership\n */\ncontract CartaItem is CartaHelper, ERC721 {\n\n    address ozAddress = 0xC3D1131420135b246B155BA17e32ba9f48c4D6A2;\n    OzInterface ozContract = OzInterface(ozAddress);\n\n    uint costoCarta = 2;\n    uint costoTransferencia = 1;\n    address ozAccount = 0x1C53954455A6796723B52021c034964DD9E329dE;\n\n    mapping (uint => address) cartaApprovals;\n\n    /**\n     * @dev Crea una carta aleatoria\n     * @return id de la carta creada\n     */\n    function crearCartaAleatoria() public returns (uint256) {\n        require(ozContract.balanceOf(msg.sender) >= costoCarta, \"No tiene saldo suficiente\");\n        ozContract.transfer(ozAccount, costoCarta);\n        uint256 descripcionAleatoria = _crearDescripcionAleatoria();\n        uint8 tipoAleatorio = _crearTipoAleatorio();\n        _crearCarta(descripcionAleatoria, tipoAleatorio);\n        return cartas.length - 1;\n    }\n\n    function balanceOf(address _owner) public view override returns (uint256 _balance) {\n        return personaCantidadCartas[_owner];\n    }\n\n    function ownerOf(uint256 _tokenId) public view override returns (address _owner) {\n        return cartaAPersona[_tokenId];\n    }\n\n    function _transfer(address _from, address _to, uint256 _tokenId) private {\n        require(ozContract.balanceOf(_from) >= costoTransferencia, \"No tiene saldo disponible\");\n        ozContract.transferFrom(msg.sender, _to, costoTransferencia);\n        //Agregamos comision?\n        personaCantidadCartas[_to]++;\n        personaCantidadCartas[_from]--;\n        cartaAPersona[_tokenId] = _to;\n        Transfer(_from, _to, _tokenId);\n    }\n\n    function transfer(address _to, uint256 _tokenId) public override soloDuenioDe(_tokenId) {\n        _transfer(msg.sender, _to, _tokenId);\n    }\n\n    function approve(address _to, uint256 _tokenId) public override soloDuenioDe(_tokenId) {\n        cartaApprovals[_tokenId] = _to;\n        Approval(msg.sender, _to, _tokenId);\n    }\n\n    function takeOwnership(uint256 _tokenId) public override {\n        require(cartaApprovals[_tokenId] == msg.sender);\n        address owner = ownerOf(_tokenId);\n        _transfer(owner, msg.sender, _tokenId);\n    }\n\n    function balanceOzToken() external view returns (uint) {\n        return ozContract.balanceOf(msg.sender);\n    }\n\n    function setOzTokenAddress(address _ozTokenAddress) public onlyOwner {\n        ozAddress = _ozTokenAddress;\n        ozContract = OzInterface(ozAddress);\n    }\n}",
  "sourcePath": "/home/miki_mustard/Desktop/Personal/Facultad/tdl/nuevo-tdl/teoria-del-lenguaje/truffle-project/contracts/CartaItem.sol",
  "compiler": {
    "name": "solc",
    "version": "0.8.0+commit.c7dfd78e.Emscripten.clang"
  },
  "schemaVersion": "3.4.1",
  "updatedAt": "2021-06-26T19:18:36.330Z",
  "networkType": "ethereum",
  "devdoc": {
    "details": "Funciones de administracion de cartas como  compra de las mismas o transferencia de ownership",
    "kind": "dev",
    "methods": {
      "crearCartaAleatoria()": {
        "details": "Crea una carta aleatoria",
        "returns": {
          "_0": "id de la carta creada"
        }
      },
      "owner()": {
        "details": "Returns the address of the current owner."
      },
      "renounceOwnership()": {
        "details": "Leaves the contract without owner. It will not be possible to call `onlyOwner` functions anymore. Can only be called by the current owner. NOTE: Renouncing ownership will leave the contract without an owner, thereby removing any functionality that is only available to the owner."
      },
      "transferOwnership(address)": {
        "details": "Transfers ownership of the contract to a new account (`newOwner`). Can only be called by the current owner."
      }
    },
    "title": "CartaItem",
    "version": 1
  },
  "userdoc": {
    "kind": "user",
    "methods": {
      "getCartas()": {
        "notice": "Para obtener todas las cartas"
      },
      "getCartasDe(address)": {
        "notice": "Para obtener todas las cartas correspondientes a un address"
      }
    },
    "version": 1
  }
}