{
  "contractName": "CartaItem",
  "abi": [
    {
      "inputs": [],
      "stateMutability": "nonpayable",
      "type": "constructor"
    },
    {
      "anonymous": false,
      "inputs": [
        {
          "indexed": true,
          "internalType": "address",
          "name": "owner",
          "type": "address"
        },
        {
          "indexed": true,
          "internalType": "address",
          "name": "approved",
          "type": "address"
        },
        {
          "indexed": true,
          "internalType": "uint256",
          "name": "tokenId",
          "type": "uint256"
        }
      ],
      "name": "Approval",
      "type": "event"
    },
    {
      "anonymous": false,
      "inputs": [
        {
          "indexed": true,
          "internalType": "address",
          "name": "owner",
          "type": "address"
        },
        {
          "indexed": true,
          "internalType": "address",
          "name": "operator",
          "type": "address"
        },
        {
          "indexed": false,
          "internalType": "bool",
          "name": "approved",
          "type": "bool"
        }
      ],
      "name": "ApprovalForAll",
      "type": "event"
    },
    {
      "anonymous": false,
      "inputs": [
        {
          "indexed": false,
          "internalType": "uint256",
          "name": "cartaId",
          "type": "uint256"
        },
        {
          "indexed": false,
          "internalType": "uint256",
          "name": "descripcion",
          "type": "uint256"
        },
        {
          "indexed": false,
          "internalType": "uint8",
          "name": "tipo",
          "type": "uint8"
        }
      ],
      "name": "NuevaCarta",
      "type": "event"
    },
    {
      "anonymous": false,
      "inputs": [
        {
          "indexed": true,
          "internalType": "address",
          "name": "previousOwner",
          "type": "address"
        },
        {
          "indexed": true,
          "internalType": "address",
          "name": "newOwner",
          "type": "address"
        }
      ],
      "name": "OwnershipTransferred",
      "type": "event"
    },
    {
      "anonymous": false,
      "inputs": [
        {
          "indexed": true,
          "internalType": "address",
          "name": "from",
          "type": "address"
        },
        {
          "indexed": true,
          "internalType": "address",
          "name": "to",
          "type": "address"
        },
        {
          "indexed": true,
          "internalType": "uint256",
          "name": "tokenId",
          "type": "uint256"
        }
      ],
      "name": "Transfer",
      "type": "event"
    },
    {
      "inputs": [
        {
          "internalType": "address",
          "name": "to",
          "type": "address"
        },
        {
          "internalType": "uint256",
          "name": "tokenId",
          "type": "uint256"
        }
      ],
      "name": "approve",
      "outputs": [],
      "stateMutability": "nonpayable",
      "type": "function"
    },
    {
      "inputs": [
        {
          "internalType": "address",
          "name": "owner",
          "type": "address"
        }
      ],
      "name": "balanceOf",
      "outputs": [
        {
          "internalType": "uint256",
          "name": "",
          "type": "uint256"
        }
      ],
      "stateMutability": "view",
      "type": "function",
      "constant": true
    },
    {
      "inputs": [
        {
          "internalType": "uint256",
          "name": "",
          "type": "uint256"
        }
      ],
      "name": "cartaAPersona",
      "outputs": [
        {
          "internalType": "address",
          "name": "",
          "type": "address"
        }
      ],
      "stateMutability": "view",
      "type": "function",
      "constant": true
    },
    {
      "inputs": [
        {
          "internalType": "uint256",
          "name": "",
          "type": "uint256"
        }
      ],
      "name": "cartas",
      "outputs": [
        {
          "internalType": "uint256",
          "name": "descripcion",
          "type": "uint256"
        },
        {
          "internalType": "uint8",
          "name": "tipo",
          "type": "uint8"
        }
      ],
      "stateMutability": "view",
      "type": "function",
      "constant": true
    },
    {
      "inputs": [],
      "name": "crearCartaAleatoria",
      "outputs": [
        {
          "internalType": "uint256",
          "name": "",
          "type": "uint256"
        }
      ],
      "stateMutability": "nonpayable",
      "type": "function"
    },
    {
      "inputs": [
        {
          "internalType": "uint256",
          "name": "tokenId",
          "type": "uint256"
        }
      ],
      "name": "getApproved",
      "outputs": [
        {
          "internalType": "address",
          "name": "",
          "type": "address"
        }
      ],
      "stateMutability": "view",
      "type": "function",
      "constant": true
    },
    {
      "inputs": [],
      "name": "getCartas",
      "outputs": [
        {
          "internalType": "uint256[]",
          "name": "",
          "type": "uint256[]"
        },
        {
          "internalType": "uint8[]",
          "name": "",
          "type": "uint8[]"
        }
      ],
      "stateMutability": "view",
      "type": "function",
      "constant": true
    },
    {
      "inputs": [
        {
          "internalType": "address",
          "name": "_owner",
          "type": "address"
        }
      ],
      "name": "getCartasDe",
      "outputs": [
        {
          "internalType": "uint256[]",
          "name": "",
          "type": "uint256[]"
        },
        {
          "internalType": "uint8[]",
          "name": "",
          "type": "uint8[]"
        }
      ],
      "stateMutability": "view",
      "type": "function",
      "constant": true
    },
    {
      "inputs": [
        {
          "internalType": "address",
          "name": "owner",
          "type": "address"
        },
        {
          "internalType": "address",
          "name": "operator",
          "type": "address"
        }
      ],
      "name": "isApprovedForAll",
      "outputs": [
        {
          "internalType": "bool",
          "name": "",
          "type": "bool"
        }
      ],
      "stateMutability": "view",
      "type": "function",
      "constant": true
    },
    {
      "inputs": [],
      "name": "name",
      "outputs": [
        {
          "internalType": "string",
          "name": "",
          "type": "string"
        }
      ],
      "stateMutability": "view",
      "type": "function",
      "constant": true
    },
    {
      "inputs": [],
      "name": "owner",
      "outputs": [
        {
          "internalType": "address",
          "name": "",
          "type": "address"
        }
      ],
      "stateMutability": "view",
      "type": "function",
      "constant": true
    },
    {
      "inputs": [
        {
          "internalType": "uint256",
          "name": "tokenId",
          "type": "uint256"
        }
      ],
      "name": "ownerOf",
      "outputs": [
        {
          "internalType": "address",
          "name": "",
          "type": "address"
        }
      ],
      "stateMutability": "view",
      "type": "function",
      "constant": true
    },
    {
      "inputs": [],
      "name": "renounceOwnership",
      "outputs": [],
      "stateMutability": "nonpayable",
      "type": "function"
    },
    {
      "inputs": [
        {
          "internalType": "address",
          "name": "from",
          "type": "address"
        },
        {
          "internalType": "address",
          "name": "to",
          "type": "address"
        },
        {
          "internalType": "uint256",
          "name": "tokenId",
          "type": "uint256"
        }
      ],
      "name": "safeTransferFrom",
      "outputs": [],
      "stateMutability": "nonpayable",
      "type": "function"
    },
    {
      "inputs": [
        {
          "internalType": "address",
          "name": "from",
          "type": "address"
        },
        {
          "internalType": "address",
          "name": "to",
          "type": "address"
        },
        {
          "internalType": "uint256",
          "name": "tokenId",
          "type": "uint256"
        },
        {
          "internalType": "bytes",
          "name": "_data",
          "type": "bytes"
        }
      ],
      "name": "safeTransferFrom",
      "outputs": [],
      "stateMutability": "nonpayable",
      "type": "function"
    },
    {
      "inputs": [
        {
          "internalType": "address",
          "name": "operator",
          "type": "address"
        },
        {
          "internalType": "bool",
          "name": "approved",
          "type": "bool"
        }
      ],
      "name": "setApprovalForAll",
      "outputs": [],
      "stateMutability": "nonpayable",
      "type": "function"
    },
    {
      "inputs": [
        {
          "internalType": "bytes4",
          "name": "interfaceId",
          "type": "bytes4"
        }
      ],
      "name": "supportsInterface",
      "outputs": [
        {
          "internalType": "bool",
          "name": "",
          "type": "bool"
        }
      ],
      "stateMutability": "view",
      "type": "function",
      "constant": true
    },
    {
      "inputs": [],
      "name": "symbol",
      "outputs": [
        {
          "internalType": "string",
          "name": "",
          "type": "string"
        }
      ],
      "stateMutability": "view",
      "type": "function",
      "constant": true
    },
    {
      "inputs": [
        {
          "internalType": "uint256",
          "name": "tokenId",
          "type": "uint256"
        }
      ],
      "name": "tokenURI",
      "outputs": [
        {
          "internalType": "string",
          "name": "",
          "type": "string"
        }
      ],
      "stateMutability": "view",
      "type": "function",
      "constant": true
    },
    {
      "inputs": [
        {
          "internalType": "address",
          "name": "from",
          "type": "address"
        },
        {
          "internalType": "address",
          "name": "to",
          "type": "address"
        },
        {
          "internalType": "uint256",
          "name": "tokenId",
          "type": "uint256"
        }
      ],
      "name": "transferFrom",
      "outputs": [],
      "stateMutability": "nonpayable",
      "type": "function"
    },
    {
      "inputs": [
        {
          "internalType": "address",
          "name": "newOwner",
          "type": "address"
        }
      ],
      "name": "transferOwnership",
      "outputs": [],
      "stateMutability": "nonpayable",
      "type": "function"
    },
    {
      "inputs": [
        {
          "internalType": "address",
          "name": "_owner",
          "type": "address"
        }
      ],
      "name": "awardItem",
      "outputs": [
        {
          "internalType": "uint256",
          "name": "",
          "type": "uint256"
        }
      ],
      "stateMutability": "nonpayable",
      "type": "function"
    },
    {
      "inputs": [
        {
          "internalType": "address",
          "name": "_to",
          "type": "address"
        },
        {
          "internalType": "uint256",
          "name": "_tokenId",
          "type": "uint256"
        }
      ],
      "name": "transferItem",
      "outputs": [],
      "stateMutability": "nonpayable",
      "type": "function"
    }
  ],
  "bytecode": "0x60806040526010600155600154600a6200001a9190620002ba565b600255600060035560006004556003600560006101000a81548160ff021916908360ff1602179055503480156200005057600080fd5b506040518060400160405280600881526020017f436172644974656d0000000000000000000000000000000000000000000000008152506040518060400160405280600481526020017f4349544d000000000000000000000000000000000000000000000000000000008152506000620000cf620001a760201b60201c565b9050806000806101000a81548173ffffffffffffffffffffffffffffffffffffffff021916908373ffffffffffffffffffffffffffffffffffffffff1602179055508073ffffffffffffffffffffffffffffffffffffffff16600073ffffffffffffffffffffffffffffffffffffffff167f8be0079c531659141344cd1fd0a4f28419497f9722a3daafe3b4186f6b6457e060405160405180910390a350816009908051906020019062000185929190620001af565b5080600a90805190602001906200019e929190620001af565b505050620004a2565b600033905090565b828054620001bd9062000401565b90600052602060002090601f016020900481019282620001e157600085556200022d565b82601f10620001fc57805160ff19168380011785556200022d565b828001600101855582156200022d579182015b828111156200022c5782518255916020019190600101906200020f565b5b5090506200023c919062000240565b5090565b5b808211156200025b57600081600090555060010162000241565b5090565b6000808291508390505b6001851115620002b15780860481111562000289576200028862000437565b5b6001851615620002995780820291505b8081029050620002a98562000495565b945062000269565b94509492505050565b6000620002c782620003f7565b9150620002d483620003f7565b9250620003037fffffffffffffffffffffffffffffffffffffffffffffffffffffffffffffffff84846200030b565b905092915050565b6000826200031d5760019050620003f0565b816200032d5760009050620003f0565b8160018114620003465760028114620003515762000387565b6001915050620003f0565b60ff84111562000366576200036562000437565b5b8360020a91508482111562000380576200037f62000437565b5b50620003f0565b5060208310610133831016604e8410600b8410161715620003c15782820a905083811115620003bb57620003ba62000437565b5b620003f0565b620003d084848460016200025f565b92509050818404811115620003ea57620003e962000437565b5b81810290505b9392505050565b6000819050919050565b600060028204905060018216806200041a57607f821691505b6020821081141562000431576200043062000466565b5b50919050565b7f4e487b7100000000000000000000000000000000000000000000000000000000600052601160045260246000fd5b7f4e487b7100000000000000000000000000000000000000000000000000000000600052602260045260246000fd5b60008160011c9050919050565b6138d080620004b26000396000f3fe608060405234801561001057600080fd5b506004361061014d5760003560e01c806370a08231116100c3578063bc24b16a1161007c578063bc24b16a146103b0578063c2fcde89146103ce578063c87b56dd146103ed578063e985e9c51461041d578063f2fb21201461044d578063f2fde38b1461047d5761014d565b806370a0823114610302578063715018a6146103325780638da5cb5b1461033c57806395d89b411461035a578063a22cb46514610378578063b88d4fde146103945761014d565b806342842e0e1161011557806342842e0e146102085780634a358c1e14610224578063582ddb38146102555780635b102ab8146102855780636352211e146102b657806367c65e99146102e65761014d565b806301ffc9a71461015257806306fdde0314610182578063081812fc146101a0578063095ea7b3146101d057806323b872dd146101ec575b600080fd5b61016c600480360381019061016791906127bb565b610499565b6040516101799190613114565b60405180910390f35b61018a61057b565b604051610197919061312f565b60405180910390f35b6101ba60048036038101906101b5919061280d565b61060d565b6040516101c79190613076565b60405180910390f35b6101ea60048036038101906101e5919061277f565b610692565b005b61020660048036038101906102019190612679565b6107aa565b005b610222600480360381019061021d9190612679565b61080a565b005b61023e60048036038101906102399190612614565b61082a565b60405161024c9291906130dd565b60405180910390f35b61026f600480360381019061026a919061280d565b610afd565b60405161027c9190613076565b60405180910390f35b61029f600480360381019061029a919061280d565b610b30565b6040516102ad9291906133a3565b60405180910390f35b6102d060048036038101906102cb919061280d565b610b71565b6040516102dd9190613076565b60405180910390f35b61030060048036038101906102fb919061277f565b610c23565b005b61031c60048036038101906103179190612614565b610d9b565b6040516103299190613351565b60405180910390f35b61033a610e53565b005b610344610f8d565b6040516103519190613076565b60405180910390f35b610362610fb6565b60405161036f919061312f565b60405180910390f35b610392600480360381019061038d9190612743565b611048565b005b6103ae60048036038101906103a991906126c8565b6111c9565b005b6103b861122b565b6040516103c59190613351565b60405180910390f35b6103d6611267565b6040516103e49291906130dd565b60405180910390f35b6104076004803603810190610402919061280d565b6114c1565b604051610414919061312f565b60405180910390f35b6104376004803603810190610432919061263d565b611568565b6040516104449190613114565b60405180910390f35b61046760048036038101906104629190612614565b6115fc565b6040516104749190613351565b60405180910390f35b61049760048036038101906104929190612614565b611672565b005b60007f80ac58cd000000000000000000000000000000000000000000000000000000007bffffffffffffffffffffffffffffffffffffffffffffffffffffffff1916827bffffffffffffffffffffffffffffffffffffffffffffffffffffffff1916148061056457507f5b5e139f000000000000000000000000000000000000000000000000000000007bffffffffffffffffffffffffffffffffffffffffffffffffffffffff1916827bffffffffffffffffffffffffffffffffffffffffffffffffffffffff1916145b8061057457506105738261181b565b5b9050919050565b60606009805461058a9061368a565b80601f01602080910402602001604051908101604052809291908181526020018280546105b69061368a565b80156106035780601f106105d857610100808354040283529160200191610603565b820191906000526020600020905b8154815290600101906020018083116105e657829003601f168201915b5050505050905090565b600061061882611885565b610657576040517f08c379a000000000000000000000000000000000000000000000000000000000815260040161064e90613291565b60405180910390fd5b600d600083815260200190815260200160002060009054906101000a900473ffffffffffffffffffffffffffffffffffffffff169050919050565b600061069d82610b71565b90508073ffffffffffffffffffffffffffffffffffffffff168373ffffffffffffffffffffffffffffffffffffffff16141561070e576040517f08c379a000000000000000000000000000000000000000000000000000000000815260040161070590613311565b60405180910390fd5b8073ffffffffffffffffffffffffffffffffffffffff1661072d6118f1565b73ffffffffffffffffffffffffffffffffffffffff16148061075c575061075b816107566118f1565b611568565b5b61079b576040517f08c379a000000000000000000000000000000000000000000000000000000000815260040161079290613211565b60405180910390fd5b6107a583836118f9565b505050565b6107bb6107b56118f1565b826119b2565b6107fa576040517f08c379a00000000000000000000000000000000000000000000000000000000081526004016107f190613331565b60405180910390fd5b610805838383611a90565b505050565b610825838383604051806020016040528060008152506111c9565b505050565b606080600060068054905067ffffffffffffffff811115610874577f4e487b7100000000000000000000000000000000000000000000000000000000600052604160045260246000fd5b6040519080825280602002602001820160405280156108a25781602001602082028036833780820191505090505b509050600060068054905067ffffffffffffffff8111156108ec577f4e487b7100000000000000000000000000000000000000000000000000000000600052604160045260246000fd5b60405190808252806020026020018201604052801561091a5781602001602082028036833780820191505090505b5090506000805b600680549050811015610aee578673ffffffffffffffffffffffffffffffffffffffff166007600083815260200190815260200160002060009054906101000a900473ffffffffffffffffffffffffffffffffffffffff1673ffffffffffffffffffffffffffffffffffffffff161415610adb57600681815481106109cf577f4e487b7100000000000000000000000000000000000000000000000000000000600052603260045260246000fd5b906000526020600020906002020160000154848381518110610a1a577f4e487b7100000000000000000000000000000000000000000000000000000000600052603260045260246000fd5b60200260200101818152505060068181548110610a60577f4e487b7100000000000000000000000000000000000000000000000000000000600052603260045260246000fd5b906000526020600020906002020160010160009054906101000a900460ff16838381518110610ab8577f4e487b7100000000000000000000000000000000000000000000000000000000600052603260045260246000fd5b602002602001019060ff16908160ff16815250508180610ad7906136bc565b9250505b8080610ae6906136bc565b915050610921565b50828294509450505050915091565b60076020528060005260406000206000915054906101000a900473ffffffffffffffffffffffffffffffffffffffff1681565b60068181548110610b4057600080fd5b90600052602060002090600202016000915090508060000154908060010160009054906101000a900460ff16905082565b600080600b600084815260200190815260200160002060009054906101000a900473ffffffffffffffffffffffffffffffffffffffff169050600073ffffffffffffffffffffffffffffffffffffffff168173ffffffffffffffffffffffffffffffffffffffff161415610c1a576040517f08c379a0000000000000000000000000000000000000000000000000000000008152600401610c1190613251565b60405180910390fd5b80915050919050565b806007600082815260200190815260200160002060009054906101000a900473ffffffffffffffffffffffffffffffffffffffff1673ffffffffffffffffffffffffffffffffffffffff163373ffffffffffffffffffffffffffffffffffffffff1614610c8f57600080fd5b600860008473ffffffffffffffffffffffffffffffffffffffff1673ffffffffffffffffffffffffffffffffffffffff1681526020019081526020016000206000815480929190610cdf906136bc565b9190505550600860003373ffffffffffffffffffffffffffffffffffffffff1673ffffffffffffffffffffffffffffffffffffffff1681526020019081526020016000206000815480929190610d3490613660565b9190505550826007600084815260200190815260200160002060006101000a81548173ffffffffffffffffffffffffffffffffffffffff021916908373ffffffffffffffffffffffffffffffffffffffff160217905550610d96338484611a90565b505050565b60008073ffffffffffffffffffffffffffffffffffffffff168273ffffffffffffffffffffffffffffffffffffffff161415610e0c576040517f08c379a0000000000000000000000000000000000000000000000000000000008152600401610e0390613231565b60405180910390fd5b600c60008373ffffffffffffffffffffffffffffffffffffffff1673ffffffffffffffffffffffffffffffffffffffff168152602001908152602001600020549050919050565b610e5b6118f1565b73ffffffffffffffffffffffffffffffffffffffff16610e79610f8d565b73ffffffffffffffffffffffffffffffffffffffff1614610ecf576040517f08c379a0000000000000000000000000000000000000000000000000000000008152600401610ec6906132b1565b60405180910390fd5b600073ffffffffffffffffffffffffffffffffffffffff1660008054906101000a900473ffffffffffffffffffffffffffffffffffffffff1673ffffffffffffffffffffffffffffffffffffffff167f8be0079c531659141344cd1fd0a4f28419497f9722a3daafe3b4186f6b6457e060405160405180910390a360008060006101000a81548173ffffffffffffffffffffffffffffffffffffffff021916908373ffffffffffffffffffffffffffffffffffffffff160217905550565b60008060009054906101000a900473ffffffffffffffffffffffffffffffffffffffff16905090565b6060600a8054610fc59061368a565b80601f0160208091040260200160405190810160405280929190818152602001828054610ff19061368a565b801561103e5780601f106110135761010080835404028352916020019161103e565b820191906000526020600020905b81548152906001019060200180831161102157829003601f168201915b5050505050905090565b6110506118f1565b73ffffffffffffffffffffffffffffffffffffffff168273ffffffffffffffffffffffffffffffffffffffff1614156110be576040517f08c379a00000000000000000000000000000000000000000000000000000000081526004016110b5906131d1565b60405180910390fd5b80600e60006110cb6118f1565b73ffffffffffffffffffffffffffffffffffffffff1673ffffffffffffffffffffffffffffffffffffffff16815260200190815260200160002060008473ffffffffffffffffffffffffffffffffffffffff1673ffffffffffffffffffffffffffffffffffffffff16815260200190815260200160002060006101000a81548160ff0219169083151502179055508173ffffffffffffffffffffffffffffffffffffffff166111786118f1565b73ffffffffffffffffffffffffffffffffffffffff167f17307eab39ab6107e8899845ad3d59bd9653f200f220920489ca2b5937696c31836040516111bd9190613114565b60405180910390a35050565b6111da6111d46118f1565b836119b2565b611219576040517f08c379a000000000000000000000000000000000000000000000000000000000815260040161121090613331565b60405180910390fd5b61122584848484611cec565b50505050565b600080611236611d48565b90506000611242611daa565b905061124e8282611e1c565b60016006805490506112609190613569565b9250505090565b606080600060068054905067ffffffffffffffff8111156112b1577f4e487b7100000000000000000000000000000000000000000000000000000000600052604160045260246000fd5b6040519080825280602002602001820160405280156112df5781602001602082028036833780820191505090505b509050600060068054905067ffffffffffffffff811115611329577f4e487b7100000000000000000000000000000000000000000000000000000000600052604160045260246000fd5b6040519080825280602002602001820160405280156113575781602001602082028036833780820191505090505b50905060005b6006805490508110156114b457600681815481106113a4577f4e487b7100000000000000000000000000000000000000000000000000000000600052603260045260246000fd5b9060005260206000209060020201600001548382815181106113ef577f4e487b7100000000000000000000000000000000000000000000000000000000600052603260045260246000fd5b60200260200101818152505060068181548110611435577f4e487b7100000000000000000000000000000000000000000000000000000000600052603260045260246000fd5b906000526020600020906002020160010160009054906101000a900460ff1682828151811061148d577f4e487b7100000000000000000000000000000000000000000000000000000000600052603260045260246000fd5b602002602001019060ff16908160ff168152505080806114ac906136bc565b91505061135d565b5081819350935050509091565b60606114cc82611885565b61150b576040517f08c379a0000000000000000000000000000000000000000000000000000000008152600401611502906132f1565b60405180910390fd5b6000611515611f89565b905060008151116115355760405180602001604052806000815250611560565b8061153f84611fa0565b604051602001611550929190613015565b6040516020818303038152906040525b915050919050565b6000600e60008473ffffffffffffffffffffffffffffffffffffffff1673ffffffffffffffffffffffffffffffffffffffff16815260200190815260200160002060008373ffffffffffffffffffffffffffffffffffffffff1673ffffffffffffffffffffffffffffffffffffffff16815260200190815260200160002060009054906101000a900460ff16905092915050565b6000600860008373ffffffffffffffffffffffffffffffffffffffff1673ffffffffffffffffffffffffffffffffffffffff168152602001908152602001600020600081548092919061164e906136bc565b9190505550600061165d61122b565b9050611669838261214d565b80915050919050565b61167a6118f1565b73ffffffffffffffffffffffffffffffffffffffff16611698610f8d565b73ffffffffffffffffffffffffffffffffffffffff16146116ee576040517f08c379a00000000000000000000000000000000000000000000000000000000081526004016116e5906132b1565b60405180910390fd5b600073ffffffffffffffffffffffffffffffffffffffff168173ffffffffffffffffffffffffffffffffffffffff16141561175e576040517f08c379a000000000000000000000000000000000000000000000000000000000815260040161175590613171565b60405180910390fd5b8073ffffffffffffffffffffffffffffffffffffffff1660008054906101000a900473ffffffffffffffffffffffffffffffffffffffff1673ffffffffffffffffffffffffffffffffffffffff167f8be0079c531659141344cd1fd0a4f28419497f9722a3daafe3b4186f6b6457e060405160405180910390a3806000806101000a81548173ffffffffffffffffffffffffffffffffffffffff021916908373ffffffffffffffffffffffffffffffffffffffff16021790555050565b60007f01ffc9a7000000000000000000000000000000000000000000000000000000007bffffffffffffffffffffffffffffffffffffffffffffffffffffffff1916827bffffffffffffffffffffffffffffffffffffffffffffffffffffffff1916149050919050565b60008073ffffffffffffffffffffffffffffffffffffffff16600b600084815260200190815260200160002060009054906101000a900473ffffffffffffffffffffffffffffffffffffffff1673ffffffffffffffffffffffffffffffffffffffff1614159050919050565b600033905090565b81600d600083815260200190815260200160002060006101000a81548173ffffffffffffffffffffffffffffffffffffffff021916908373ffffffffffffffffffffffffffffffffffffffff160217905550808273ffffffffffffffffffffffffffffffffffffffff1661196c83610b71565b73ffffffffffffffffffffffffffffffffffffffff167f8c5be1e5ebec7d5bd14f71427d1e84f3dd0314c0f7b2291e5b200ac8c7c3b92560405160405180910390a45050565b60006119bd82611885565b6119fc576040517f08c379a00000000000000000000000000000000000000000000000000000000081526004016119f3906131f1565b60405180910390fd5b6000611a0783610b71565b90508073ffffffffffffffffffffffffffffffffffffffff168473ffffffffffffffffffffffffffffffffffffffff161480611a7657508373ffffffffffffffffffffffffffffffffffffffff16611a5e8461060d565b73ffffffffffffffffffffffffffffffffffffffff16145b80611a875750611a868185611568565b5b91505092915050565b8273ffffffffffffffffffffffffffffffffffffffff16611ab082610b71565b73ffffffffffffffffffffffffffffffffffffffff1614611b06576040517f08c379a0000000000000000000000000000000000000000000000000000000008152600401611afd906132d1565b60405180910390fd5b600073ffffffffffffffffffffffffffffffffffffffff168273ffffffffffffffffffffffffffffffffffffffff161415611b76576040517f08c379a0000000000000000000000000000000000000000000000000000000008152600401611b6d906131b1565b60405180910390fd5b611b8183838361216b565b611b8c6000826118f9565b6001600c60008573ffffffffffffffffffffffffffffffffffffffff1673ffffffffffffffffffffffffffffffffffffffff1681526020019081526020016000206000828254611bdc9190613569565b925050819055506001600c60008473ffffffffffffffffffffffffffffffffffffffff1673ffffffffffffffffffffffffffffffffffffffff1681526020019081526020016000206000828254611c3391906134e2565b9250508190555081600b600083815260200190815260200160002060006101000a81548173ffffffffffffffffffffffffffffffffffffffff021916908373ffffffffffffffffffffffffffffffffffffffff160217905550808273ffffffffffffffffffffffffffffffffffffffff168473ffffffffffffffffffffffffffffffffffffffff167fddf252ad1be2c89b69c2b068fc378daa952ba7f163c4a11628f55a4df523b3ef60405160405180910390a4505050565b611cf7848484611a90565b611d0384848484612170565b611d42576040517f08c379a0000000000000000000000000000000000000000000000000000000008152600401611d3990613151565b60405180910390fd5b50505050565b600060036000815480929190611d5d906136bc565b919050555060004233600354604051602001611d7b93929190613039565b6040516020818303038152906040528051906020012060001c905060025481611da49190613733565b91505090565b600060046000815480929190611dbf906136bc565b919050555060004233600454604051602001611ddd93929190613039565b6040516020818303038152906040528051906020012060001c9050600560009054906101000a900460ff1660ff1681611e169190613733565b91505090565b600660405180604001604052808481526020018360ff1681525090806001815401808255809150506001900390600052602060002090600202016000909190919091506000820151816000015560208201518160010160006101000a81548160ff021916908360ff160217905550505060006001600680549050611ea09190613569565b9050336007600083815260200190815260200160002060006101000a81548173ffffffffffffffffffffffffffffffffffffffff021916908373ffffffffffffffffffffffffffffffffffffffff160217905550600860003373ffffffffffffffffffffffffffffffffffffffff1673ffffffffffffffffffffffffffffffffffffffff1681526020019081526020016000206000815480929190611f44906136bc565b91905055507f6ca85b4ba4ace1b9d8e266c2cb00dcb3314c66609fd525cfab3301b2e306748d818484604051611f7c9392919061336c565b60405180910390a1505050565b606060405180602001604052806000815250905090565b60606000821415611fe8576040518060400160405280600181526020017f30000000000000000000000000000000000000000000000000000000000000008152509050612148565b600082905060005b6000821461201a578080612003906136bc565b915050600a826120139190613538565b9150611ff0565b60008167ffffffffffffffff81111561205c577f4e487b7100000000000000000000000000000000000000000000000000000000600052604160045260246000fd5b6040519080825280601f01601f19166020018201604052801561208e5781602001600182028036833780820191505090505b5090505b60008514612141576001826120a79190613569565b9150600a856120b69190613733565b60306120c291906134e2565b60f81b8183815181106120fe577f4e487b7100000000000000000000000000000000000000000000000000000000600052603260045260246000fd5b60200101907effffffffffffffffffffffffffffffffffffffffffffffffffffffffffffff1916908160001a905350600a8561213a9190613538565b9450612092565b8093505050505b919050565b612167828260405180602001604052806000815250612307565b5050565b505050565b60006121918473ffffffffffffffffffffffffffffffffffffffff16612362565b156122fa578373ffffffffffffffffffffffffffffffffffffffff1663150b7a026121ba6118f1565b8786866040518563ffffffff1660e01b81526004016121dc9493929190613091565b602060405180830381600087803b1580156121f657600080fd5b505af192505050801561222757506040513d601f19601f8201168201806040525081019061222491906127e4565b60015b6122aa573d8060008114612257576040519150601f19603f3d011682016040523d82523d6000602084013e61225c565b606091505b506000815114156122a2576040517f08c379a000000000000000000000000000000000000000000000000000000000815260040161229990613151565b60405180910390fd5b805181602001fd5b63150b7a0260e01b7bffffffffffffffffffffffffffffffffffffffffffffffffffffffff1916817bffffffffffffffffffffffffffffffffffffffffffffffffffffffff1916149150506122ff565b600190505b949350505050565b6123118383612375565b61231e6000848484612170565b61235d576040517f08c379a000000000000000000000000000000000000000000000000000000000815260040161235490613151565b60405180910390fd5b505050565b600080823b905060008111915050919050565b600073ffffffffffffffffffffffffffffffffffffffff168273ffffffffffffffffffffffffffffffffffffffff1614156123e5576040517f08c379a00000000000000000000000000000000000000000000000000000000081526004016123dc90613271565b60405180910390fd5b6123ee81611885565b1561242e576040517f08c379a000000000000000000000000000000000000000000000000000000000815260040161242590613191565b60405180910390fd5b61243a6000838361216b565b6001600c60008473ffffffffffffffffffffffffffffffffffffffff1673ffffffffffffffffffffffffffffffffffffffff168152602001908152602001600020600082825461248a91906134e2565b9250508190555081600b600083815260200190815260200160002060006101000a81548173ffffffffffffffffffffffffffffffffffffffff021916908373ffffffffffffffffffffffffffffffffffffffff160217905550808273ffffffffffffffffffffffffffffffffffffffff16600073ffffffffffffffffffffffffffffffffffffffff167fddf252ad1be2c89b69c2b068fc378daa952ba7f163c4a11628f55a4df523b3ef60405160405180910390a45050565b6000612556612551846133fd565b6133cc565b90508281526020810184848401111561256e57600080fd5b61257984828561361e565b509392505050565b6000813590506125908161383e565b92915050565b6000813590506125a581613855565b92915050565b6000813590506125ba8161386c565b92915050565b6000815190506125cf8161386c565b92915050565b600082601f8301126125e657600080fd5b81356125f6848260208601612543565b91505092915050565b60008135905061260e81613883565b92915050565b60006020828403121561262657600080fd5b600061263484828501612581565b91505092915050565b6000806040838503121561265057600080fd5b600061265e85828601612581565b925050602061266f85828601612581565b9150509250929050565b60008060006060848603121561268e57600080fd5b600061269c86828701612581565b93505060206126ad86828701612581565b92505060406126be868287016125ff565b9150509250925092565b600080600080608085870312156126de57600080fd5b60006126ec87828801612581565b94505060206126fd87828801612581565b935050604061270e878288016125ff565b925050606085013567ffffffffffffffff81111561272b57600080fd5b612737878288016125d5565b91505092959194509250565b6000806040838503121561275657600080fd5b600061276485828601612581565b925050602061277585828601612596565b9150509250929050565b6000806040838503121561279257600080fd5b60006127a085828601612581565b92505060206127b1858286016125ff565b9150509250929050565b6000602082840312156127cd57600080fd5b60006127db848285016125ab565b91505092915050565b6000602082840312156127f657600080fd5b6000612804848285016125c0565b91505092915050565b60006020828403121561281f57600080fd5b600061282d848285016125ff565b91505092915050565b60006128428383612fc2565b60208301905092915050565b600061285a8383612ff7565b60208301905092915050565b61286f8161359d565b82525050565b6128866128818261359d565b613705565b82525050565b60006128978261344d565b6128a18185613493565b93506128ac8361342d565b8060005b838110156128dd5781516128c48882612836565b97506128cf83613479565b9250506001810190506128b0565b5085935050505092915050565b60006128f582613458565b6128ff81856134a4565b935061290a8361343d565b8060005b8381101561293b578151612922888261284e565b975061292d83613486565b92505060018101905061290e565b5085935050505092915050565b612951816135af565b82525050565b600061296282613463565b61296c81856134b5565b935061297c81856020860161362d565b61298581613820565b840191505092915050565b600061299b8261346e565b6129a581856134c6565b93506129b581856020860161362d565b6129be81613820565b840191505092915050565b60006129d48261346e565b6129de81856134d7565b93506129ee81856020860161362d565b80840191505092915050565b6000612a076032836134c6565b91507f4552433732313a207472616e7366657220746f206e6f6e20455243373231526560008301527f63656976657220696d706c656d656e74657200000000000000000000000000006020830152604082019050919050565b6000612a6d6026836134c6565b91507f4f776e61626c653a206e6577206f776e657220697320746865207a65726f206160008301527f64647265737300000000000000000000000000000000000000000000000000006020830152604082019050919050565b6000612ad3601c836134c6565b91507f4552433732313a20746f6b656e20616c7265616479206d696e746564000000006000830152602082019050919050565b6000612b136024836134c6565b91507f4552433732313a207472616e7366657220746f20746865207a65726f2061646460008301527f72657373000000000000000000000000000000000000000000000000000000006020830152604082019050919050565b6000612b796019836134c6565b91507f4552433732313a20617070726f766520746f2063616c6c6572000000000000006000830152602082019050919050565b6000612bb9602c836134c6565b91507f4552433732313a206f70657261746f7220717565727920666f72206e6f6e657860008301527f697374656e7420746f6b656e00000000000000000000000000000000000000006020830152604082019050919050565b6000612c1f6038836134c6565b91507f4552433732313a20617070726f76652063616c6c6572206973206e6f74206f7760008301527f6e6572206e6f7220617070726f76656420666f7220616c6c00000000000000006020830152604082019050919050565b6000612c85602a836134c6565b91507f4552433732313a2062616c616e636520717565727920666f7220746865207a6560008301527f726f2061646472657373000000000000000000000000000000000000000000006020830152604082019050919050565b6000612ceb6029836134c6565b91507f4552433732313a206f776e657220717565727920666f72206e6f6e657869737460008301527f656e7420746f6b656e00000000000000000000000000000000000000000000006020830152604082019050919050565b6000612d516020836134c6565b91507f4552433732313a206d696e7420746f20746865207a65726f20616464726573736000830152602082019050919050565b6000612d91602c836134c6565b91507f4552433732313a20617070726f76656420717565727920666f72206e6f6e657860008301527f697374656e7420746f6b656e00000000000000000000000000000000000000006020830152604082019050919050565b6000612df76020836134c6565b91507f4f776e61626c653a2063616c6c6572206973206e6f7420746865206f776e65726000830152602082019050919050565b6000612e376029836134c6565b91507f4552433732313a207472616e73666572206f6620746f6b656e2074686174206960008301527f73206e6f74206f776e00000000000000000000000000000000000000000000006020830152604082019050919050565b6000612e9d602f836134c6565b91507f4552433732314d657461646174613a2055524920717565727920666f72206e6f60008301527f6e6578697374656e7420746f6b656e00000000000000000000000000000000006020830152604082019050919050565b6000612f036021836134c6565b91507f4552433732313a20617070726f76616c20746f2063757272656e74206f776e6560008301527f72000000000000000000000000000000000000000000000000000000000000006020830152604082019050919050565b6000612f696031836134c6565b91507f4552433732313a207472616e736665722063616c6c6572206973206e6f74206f60008301527f776e6572206e6f7220617070726f7665640000000000000000000000000000006020830152604082019050919050565b612fcb81613607565b82525050565b612fda81613607565b82525050565b612ff1612fec82613607565b613729565b82525050565b61300081613611565b82525050565b61300f81613611565b82525050565b600061302182856129c9565b915061302d82846129c9565b91508190509392505050565b60006130458286612fe0565b6020820191506130558285612875565b6014820191506130658284612fe0565b602082019150819050949350505050565b600060208201905061308b6000830184612866565b92915050565b60006080820190506130a66000830187612866565b6130b36020830186612866565b6130c06040830185612fd1565b81810360608301526130d28184612957565b905095945050505050565b600060408201905081810360008301526130f7818561288c565b9050818103602083015261310b81846128ea565b90509392505050565b60006020820190506131296000830184612948565b92915050565b600060208201905081810360008301526131498184612990565b905092915050565b6000602082019050818103600083015261316a816129fa565b9050919050565b6000602082019050818103600083015261318a81612a60565b9050919050565b600060208201905081810360008301526131aa81612ac6565b9050919050565b600060208201905081810360008301526131ca81612b06565b9050919050565b600060208201905081810360008301526131ea81612b6c565b9050919050565b6000602082019050818103600083015261320a81612bac565b9050919050565b6000602082019050818103600083015261322a81612c12565b9050919050565b6000602082019050818103600083015261324a81612c78565b9050919050565b6000602082019050818103600083015261326a81612cde565b9050919050565b6000602082019050818103600083015261328a81612d44565b9050919050565b600060208201905081810360008301526132aa81612d84565b9050919050565b600060208201905081810360008301526132ca81612dea565b9050919050565b600060208201905081810360008301526132ea81612e2a565b9050919050565b6000602082019050818103600083015261330a81612e90565b9050919050565b6000602082019050818103600083015261332a81612ef6565b9050919050565b6000602082019050818103600083015261334a81612f5c565b9050919050565b60006020820190506133666000830184612fd1565b92915050565b60006060820190506133816000830186612fd1565b61338e6020830185612fd1565b61339b6040830184613006565b949350505050565b60006040820190506133b86000830185612fd1565b6133c56020830184613006565b9392505050565b6000604051905081810181811067ffffffffffffffff821117156133f3576133f26137f1565b5b8060405250919050565b600067ffffffffffffffff821115613418576134176137f1565b5b601f19601f8301169050602081019050919050565b6000819050602082019050919050565b6000819050602082019050919050565b600081519050919050565b600081519050919050565b600081519050919050565b600081519050919050565b6000602082019050919050565b6000602082019050919050565b600082825260208201905092915050565b600082825260208201905092915050565b600082825260208201905092915050565b600082825260208201905092915050565b600081905092915050565b60006134ed82613607565b91506134f883613607565b9250827fffffffffffffffffffffffffffffffffffffffffffffffffffffffffffffffff0382111561352d5761352c613764565b5b828201905092915050565b600061354382613607565b915061354e83613607565b92508261355e5761355d613793565b5b828204905092915050565b600061357482613607565b915061357f83613607565b92508282101561359257613591613764565b5b828203905092915050565b60006135a8826135e7565b9050919050565b60008115159050919050565b60007fffffffff0000000000000000000000000000000000000000000000000000000082169050919050565b600073ffffffffffffffffffffffffffffffffffffffff82169050919050565b6000819050919050565b600060ff82169050919050565b82818337600083830152505050565b60005b8381101561364b578082015181840152602081019050613630565b8381111561365a576000848401525b50505050565b600061366b82613607565b9150600082141561367f5761367e613764565b5b600182039050919050565b600060028204905060018216806136a257607f821691505b602082108114156136b6576136b56137c2565b5b50919050565b60006136c782613607565b91507fffffffffffffffffffffffffffffffffffffffffffffffffffffffffffffffff8214156136fa576136f9613764565b5b600182019050919050565b600061371082613717565b9050919050565b600061372282613831565b9050919050565b6000819050919050565b600061373e82613607565b915061374983613607565b92508261375957613758613793565b5b828206905092915050565b7f4e487b7100000000000000000000000000000000000000000000000000000000600052601160045260246000fd5b7f4e487b7100000000000000000000000000000000000000000000000000000000600052601260045260246000fd5b7f4e487b7100000000000000000000000000000000000000000000000000000000600052602260045260246000fd5b7f4e487b7100000000000000000000000000000000000000000000000000000000600052604160045260246000fd5b6000601f19601f8301169050919050565b60008160601b9050919050565b6138478161359d565b811461385257600080fd5b50565b61385e816135af565b811461386957600080fd5b50565b613875816135bb565b811461388057600080fd5b50565b61388c81613607565b811461389757600080fd5b5056fea26469706673582212207888029f807dedb64743453d6694053d0d4c1a10e4e7b4ffd0a7157ee38b30ad64736f6c63430008000033",
  "immutableReferences": {},
  "source": "pragma solidity ^0.8.0;\n\nimport \"./CartaHelper.sol\";\nimport \"@openzeppelin/contracts/token/ERC721/ERC721.sol\";\n\n/**\n * @title CartaItem\n * @dev Funciones de administracion de cartas como \n * compra de las mismas o transferencia de ownership\n */\ncontract CartaItem is CartaHelper, ERC721 {\n\n    constructor() public ERC721(\"CardItem\", \"CITM\") {}\n\n    function awardItem(address _owner) public returns (uint256) {\n        personaCantidadCartas[_owner] ++;\n        uint _tokenId = crearCartaAleatoria();\n\n        _safeMint(_owner, _tokenId);\n        return _tokenId;\n    }\n\n    function transferItem(address _to, uint256 _tokenId) public soloDuenioDe(_tokenId) {\n        personaCantidadCartas[_to] ++;\n        personaCantidadCartas[msg.sender] --;\n        cartaAPersona[_tokenId] = _to;\n        _transfer(msg.sender, _to, _tokenId);\n    }\n\n}",
  "sourcePath": "/home/miki_mustard/Desktop/Personal/Facultad/tdl/nuevo-tdl/teoria-del-lenguaje/truffle-project/contracts/CartaItem.sol",
  "compiler": {
    "name": "solc",
    "version": "0.8.0+commit.c7dfd78e.Emscripten.clang"
  },
  "schemaVersion": "3.4.1",
  "updatedAt": "2021-06-20T20:56:38.027Z",
  "networkType": "ethereum",
  "devdoc": {
    "details": "Funciones de administracion de cartas como  compra de las mismas o transferencia de ownership",
    "kind": "dev",
    "methods": {
      "approve(address,uint256)": {
        "details": "See {IERC721-approve}."
      },
      "balanceOf(address)": {
        "details": "See {IERC721-balanceOf}."
      },
      "crearCartaAleatoria()": {
        "details": "Crea una carta aleatoria",
        "returns": {
          "_0": "id de la carta creada"
        }
      },
      "getApproved(uint256)": {
        "details": "See {IERC721-getApproved}."
      },
      "isApprovedForAll(address,address)": {
        "details": "See {IERC721-isApprovedForAll}."
      },
      "name()": {
        "details": "See {IERC721Metadata-name}."
      },
      "owner()": {
        "details": "Returns the address of the current owner."
      },
      "ownerOf(uint256)": {
        "details": "See {IERC721-ownerOf}."
      },
      "renounceOwnership()": {
        "details": "Leaves the contract without owner. It will not be possible to call `onlyOwner` functions anymore. Can only be called by the current owner. NOTE: Renouncing ownership will leave the contract without an owner, thereby removing any functionality that is only available to the owner."
      },
      "safeTransferFrom(address,address,uint256)": {
        "details": "See {IERC721-safeTransferFrom}."
      },
      "safeTransferFrom(address,address,uint256,bytes)": {
        "details": "See {IERC721-safeTransferFrom}."
      },
      "setApprovalForAll(address,bool)": {
        "details": "See {IERC721-setApprovalForAll}."
      },
      "supportsInterface(bytes4)": {
        "details": "See {IERC165-supportsInterface}."
      },
      "symbol()": {
        "details": "See {IERC721Metadata-symbol}."
      },
      "tokenURI(uint256)": {
        "details": "See {IERC721Metadata-tokenURI}."
      },
      "transferFrom(address,address,uint256)": {
        "details": "See {IERC721-transferFrom}."
      },
      "transferOwnership(address)": {
        "details": "Transfers ownership of the contract to a new account (`newOwner`). Can only be called by the current owner."
      }
    },
    "title": "CartaItem",
    "version": 1
  },
  "userdoc": {
    "kind": "user",
    "methods": {
      "getCartas()": {
        "notice": "Para obtener todas las cartas"
      },
      "getCartasDe(address)": {
        "notice": "Para obtener todas las cartas correspondientes a un address"
      }
    },
    "version": 1
  }
}