{
  "contractName": "CartaFactory",
  "abi": [
    {
      "anonymous": false,
      "inputs": [
        {
          "indexed": false,
          "internalType": "uint256",
          "name": "cartaId",
          "type": "uint256"
        },
        {
          "indexed": false,
          "internalType": "uint256",
          "name": "descripcion",
          "type": "uint256"
        },
        {
          "indexed": false,
          "internalType": "uint8",
          "name": "tipo",
          "type": "uint8"
        }
      ],
      "name": "NuevaCarta",
      "type": "event"
    },
    {
      "constant": true,
      "inputs": [
        {
          "internalType": "uint256",
          "name": "",
          "type": "uint256"
        }
      ],
      "name": "cartaAPersona",
      "outputs": [
        {
          "internalType": "address",
          "name": "",
          "type": "address"
        }
      ],
      "payable": false,
      "stateMutability": "view",
      "type": "function"
    },
    {
      "constant": true,
      "inputs": [
        {
          "internalType": "uint256",
          "name": "",
          "type": "uint256"
        }
      ],
      "name": "cartas",
      "outputs": [
        {
          "internalType": "uint256",
          "name": "descripcion",
          "type": "uint256"
        },
        {
          "internalType": "uint8",
          "name": "tipo",
          "type": "uint8"
        }
      ],
      "payable": false,
      "stateMutability": "view",
      "type": "function"
    },
    {
      "constant": false,
      "inputs": [],
      "name": "crearCartaAleatoria",
      "outputs": [],
      "payable": false,
      "stateMutability": "nonpayable",
      "type": "function"
    },
    {
      "constant": true,
      "inputs": [],
      "name": "getCartas",
      "outputs": [
        {
          "internalType": "uint256[]",
          "name": "",
          "type": "uint256[]"
        },
        {
          "internalType": "uint8[]",
          "name": "",
          "type": "uint8[]"
        }
      ],
      "payable": false,
      "stateMutability": "view",
      "type": "function"
    }
  ],
  "bytecode": "0x60806040526010600055600054600a0a600155600060025560006003556003600460006101000a81548160ff021916908360ff160217905550600060055534801561004957600080fd5b506108b2806100596000396000f3fe608060405234801561001057600080fd5b506004361061004c5760003560e01c8063582ddb38146100515780635b102ab814610081578063bc24b16a146100b2578063c2fcde89146100bc575b600080fd5b61006b600480360361006691908101906104d3565b6100db565b604051610078919061069e565b60405180910390f35b61009b600480360361009691908101906104d3565b61010e565b6040516100a9929190610727565b60405180910390f35b6100ba61014c565b005b6100c4610172565b6040516100d29291906106b9565b60405180910390f35b60076020528060005260406000206000915054906101000a900473ffffffffffffffffffffffffffffffffffffffff1681565b6006818154811061011b57fe5b90600052602060002090600202016000915090508060000154908060010160009054906101000a900460ff16905082565b600061015661028e565b905060006101626102e8565b905061016e8282610352565b5050565b60608060606005546040519080825280602002602001820160405280156101a85781602001602082028038833980820191505090505b50905060606005546040519080825280602002602001820160405280156101de5781602001602082028038833980820191505090505b50905060008090505b60055481101561028157600681815481106101fe57fe5b90600052602060002090600202016000015483828151811061021c57fe5b6020026020010181815250506006818154811061023557fe5b906000526020600020906002020160010160009054906101000a900460ff1682828151811061026057fe5b602002602001019060ff16908160ff168152505080806001019150506101e7565b5081819350935050509091565b6000600260008154809291906001019190505550600042336002546040516020016102bb93929190610661565b6040516020818303038152906040528051906020012060001c905060015481816102e157fe5b0691505090565b60006003600081548092919060010191905055506000423360035460405160200161031593929190610661565b6040516020818303038152906040528051906020012060001c9050600460009054906101000a900460ff1660ff16818161034b57fe5b0691505090565b60006001600660405180604001604052808681526020018560ff16815250908060018154018082558091505090600182039060005260206000209060020201600090919290919091506000820151816000015560208201518160010160006101000a81548160ff021916908360ff1602179055505050039050336007600083815260200190815260200160002060006101000a81548173ffffffffffffffffffffffffffffffffffffffff021916908373ffffffffffffffffffffffffffffffffffffffff160217905550600860003373ffffffffffffffffffffffffffffffffffffffff1673ffffffffffffffffffffffffffffffffffffffff168152602001908152602001600020600081548092919060010191905055506005600081548092919060010191905055507f6ca85b4ba4ace1b9d8e266c2cb00dcb3314c66609fd525cfab3301b2e306748d8184846040516104b1939291906106f0565b60405180910390a1505050565b6000813590506104cd81610858565b92915050565b6000602082840312156104e557600080fd5b60006104f3848285016104be565b91505092915050565b6000610508838361060e565b60208301905092915050565b60006105208383610643565b60208301905092915050565b61053d610538826107d4565b61081d565b82525050565b61054c816107c2565b82525050565b600061055d82610770565b61056781856107a0565b935061057283610750565b8060005b838110156105a357815161058a88826104fc565b975061059583610786565b925050600181019050610576565b5085935050505092915050565b60006105bb8261077b565b6105c581856107b1565b93506105d083610760565b8060005b838110156106015781516105e88882610514565b97506105f383610793565b9250506001810190506105d4565b5085935050505092915050565b61061781610806565b82525050565b61062681610806565b82525050565b61063d61063882610806565b610841565b82525050565b61064c81610810565b82525050565b61065b81610810565b82525050565b600061066d828661062c565b60208201915061067d828561052c565b60148201915061068d828461062c565b602082019150819050949350505050565b60006020820190506106b36000830184610543565b92915050565b600060408201905081810360008301526106d38185610552565b905081810360208301526106e781846105b0565b90509392505050565b6000606082019050610705600083018661061d565b610712602083018561061d565b61071f6040830184610652565b949350505050565b600060408201905061073c600083018561061d565b6107496020830184610652565b9392505050565b6000819050602082019050919050565b6000819050602082019050919050565b600081519050919050565b600081519050919050565b6000602082019050919050565b6000602082019050919050565b600082825260208201905092915050565b600082825260208201905092915050565b60006107cd826107e6565b9050919050565b60006107df826107e6565b9050919050565b600073ffffffffffffffffffffffffffffffffffffffff82169050919050565b6000819050919050565b600060ff82169050919050565b60006108288261082f565b9050919050565b600061083a8261084b565b9050919050565b6000819050919050565b60008160601b9050919050565b61086181610806565b811461086c57600080fd5b5056fea365627a7a723158209005721548e9967b28e4a397387e4b9bebbe1b57d520199daaa712915afa849b6c6578706572696d656e74616cf564736f6c63430005100040",
  "source": "pragma solidity 0.5.16;\npragma experimental ABIEncoderV2;\n\n/**\n * @title CartaFactory\n * @dev Generacion aleatoria de cartas\n */\ncontract CartaFactory {\n\n    event NuevaCarta(uint cartaId, uint256 descripcion, uint8 tipo);\n\n    uint256 cantidadDigitos = 16;\n    uint256 modulo = 10 ** cantidadDigitos;\n    uint256 semillaDescripcion = 0;\n    uint256 semillaTipo = 0;\n    uint8 cantidadTipos = 3;\n\n    uint256 cantidadCartas = 0;\n\n    /**\n    * Tipos:\n    * 1: normal\n    * 2: rara\n    * 3: epica\n    */\n    struct Carta {\n        uint256 descripcion;\n        uint8 tipo;\n    }\n    \n    Carta[] public cartas;\n\n    mapping (uint => address) public cartaAPersona;\n    mapping (address => uint) personaCantidadCartas;\n    \n    /**\n     * @dev Crea una instancia de carta\n     * @param _descripcion descripcion para crear la carta\n     */\n    function _crearCarta(uint256 _descripcion, uint8 _tipo) private {\n        uint id = cartas.push(Carta(_descripcion, _tipo)) - 1;\n        cartaAPersona[id] = msg.sender;\n        personaCantidadCartas[msg.sender] ++;\n        cantidadCartas ++;\n        emit NuevaCarta(id, _descripcion, _tipo);\n    }\n\n    /**\n     * @dev Crea un valor aleatorio de descripcion \n     * @return valor aleatorio de descripcion\n     */\n    function _crearDescripcionAleatoria() private returns (uint256){\n        semillaDescripcion ++;\n        uint256 descripcionAleatoria = uint256(keccak256(abi.encodePacked(block.timestamp, msg.sender, semillaDescripcion)));\n        return descripcionAleatoria % modulo;\n    }\n\n    /**\n     * @dev Crea un tipo de carta aleatorio\n     * @return valor aleatorio de tipo de carta\n     */\n    function _crearTipoAleatorio() private returns (uint8){\n        semillaTipo ++;\n        uint256 tipoAleatorio = uint256(keccak256(abi.encodePacked(block.timestamp, msg.sender, semillaTipo)));\n        return uint8(tipoAleatorio % cantidadTipos);\n    }\n    \n    /**\n     * @dev Crea una carta aleatoria\n     */\n    function crearCartaAleatoria() public {\n        uint256 descripcionAleatoria = _crearDescripcionAleatoria();\n        uint8 tipoAleatorio = _crearTipoAleatorio();\n        _crearCarta(descripcionAleatoria, tipoAleatorio);\n    }\n\n    /**\n     * Para obtener todas las cartas\n     */\n    function getCartas() external view returns (uint256[] memory, uint8[] memory) {\n        uint256[] memory descripciones = new uint256[](cantidadCartas);\n        uint8[] memory tipos = new uint8[](cantidadCartas);\n        for (uint i = 0; i < cantidadCartas; i++) {\n            descripciones[i] = (cartas[i].descripcion);\n            tipos[i] = (cartas[i].tipo);\n        }\n        return (descripciones, tipos);\n    }\n\n}\n",
  "sourcePath": "/home/miki_mustard/Desktop/Personal/Facultad/tdl/teoria-del-lenguaje/truffle-project/contracts/CartaFactory.sol",
  "compiler": {
    "name": "solc",
    "version": "0.5.16+commit.9c3226ce.Emscripten.clang"
  },
  "schemaVersion": "3.4.1",
  "updatedAt": "2021-06-15T00:49:22.756Z",
  "networkType": "ethereum",
  "devdoc": {
    "details": "Generacion aleatoria de cartas",
    "methods": {
      "crearCartaAleatoria()": {
        "details": "Crea una carta aleatoria"
      }
    },
    "title": "CartaFactory"
  },
  "userdoc": {
    "methods": {
      "getCartas()": {
        "notice": "Para obtener todas las cartas"
      }
    }
  }
}