{
  "contractName": "CartaHelper",
  "abi": [
    {
      "anonymous": false,
      "inputs": [
        {
          "indexed": false,
          "internalType": "uint256",
          "name": "cartaId",
          "type": "uint256"
        },
        {
          "indexed": false,
          "internalType": "uint256",
          "name": "descripcion",
          "type": "uint256"
        },
        {
          "indexed": false,
          "internalType": "uint8",
          "name": "tipo",
          "type": "uint8"
        }
      ],
      "name": "NuevaCarta",
      "type": "event"
    },
    {
      "anonymous": false,
      "inputs": [
        {
          "indexed": true,
          "internalType": "address",
          "name": "previousOwner",
          "type": "address"
        },
        {
          "indexed": true,
          "internalType": "address",
          "name": "newOwner",
          "type": "address"
        }
      ],
      "name": "OwnershipTransferred",
      "type": "event"
    },
    {
      "inputs": [
        {
          "internalType": "uint256",
          "name": "",
          "type": "uint256"
        }
      ],
      "name": "cartaAPersona",
      "outputs": [
        {
          "internalType": "address",
          "name": "",
          "type": "address"
        }
      ],
      "stateMutability": "view",
      "type": "function",
      "constant": true
    },
    {
      "inputs": [
        {
          "internalType": "uint256",
          "name": "",
          "type": "uint256"
        }
      ],
      "name": "cartas",
      "outputs": [
        {
          "internalType": "uint256",
          "name": "descripcion",
          "type": "uint256"
        },
        {
          "internalType": "uint8",
          "name": "tipo",
          "type": "uint8"
        }
      ],
      "stateMutability": "view",
      "type": "function",
      "constant": true
    },
    {
      "inputs": [],
      "name": "crearCartaAleatoria",
      "outputs": [],
      "stateMutability": "nonpayable",
      "type": "function"
    },
    {
      "inputs": [],
      "name": "owner",
      "outputs": [
        {
          "internalType": "address",
          "name": "",
          "type": "address"
        }
      ],
      "stateMutability": "view",
      "type": "function",
      "constant": true
    },
    {
      "inputs": [],
      "name": "renounceOwnership",
      "outputs": [],
      "stateMutability": "nonpayable",
      "type": "function"
    },
    {
      "inputs": [
        {
          "internalType": "address",
          "name": "newOwner",
          "type": "address"
        }
      ],
      "name": "transferOwnership",
      "outputs": [],
      "stateMutability": "nonpayable",
      "type": "function"
    },
    {
      "inputs": [],
      "name": "getCartas",
      "outputs": [
        {
          "internalType": "uint256[]",
          "name": "",
          "type": "uint256[]"
        },
        {
          "internalType": "uint8[]",
          "name": "",
          "type": "uint8[]"
        }
      ],
      "stateMutability": "view",
      "type": "function",
      "constant": true
    },
    {
      "inputs": [
        {
          "internalType": "address",
          "name": "_owner",
          "type": "address"
        }
      ],
      "name": "getCartasDe",
      "outputs": [
        {
          "internalType": "uint256[]",
          "name": "",
          "type": "uint256[]"
        },
        {
          "internalType": "uint8[]",
          "name": "",
          "type": "uint8[]"
        }
      ],
      "stateMutability": "view",
      "type": "function",
      "constant": true
    }
  ],
  "bytecode": "0x60806040526010600155600154600a6200001a91906200016a565b600255600060035560006004556003600560006101000a81548160ff021916908360ff1602179055503480156200005057600080fd5b506000620000636200010760201b60201c565b9050806000806101000a81548173ffffffffffffffffffffffffffffffffffffffff021916908373ffffffffffffffffffffffffffffffffffffffff1602179055508073ffffffffffffffffffffffffffffffffffffffff16600073ffffffffffffffffffffffffffffffffffffffff167f8be0079c531659141344cd1fd0a4f28419497f9722a3daafe3b4186f6b6457e060405160405180910390a350620002ed565b600033905090565b6000808291508390505b60018511156200016157808604811115620001395762000138620002b1565b5b6001851615620001495780820291505b80810290506200015985620002e0565b945062000119565b94509492505050565b60006200017782620002a7565b91506200018483620002a7565b9250620001b37fffffffffffffffffffffffffffffffffffffffffffffffffffffffffffffffff8484620001bb565b905092915050565b600082620001cd5760019050620002a0565b81620001dd5760009050620002a0565b8160018114620001f65760028114620002015762000237565b6001915050620002a0565b60ff841115620002165762000215620002b1565b5b8360020a91508482111562000230576200022f620002b1565b5b50620002a0565b5060208310610133831016604e8410600b8410161715620002715782820a9050838111156200026b576200026a620002b1565b5b620002a0565b6200028084848460016200010f565b925090508184048111156200029a5762000299620002b1565b5b81810290505b9392505050565b6000819050919050565b7f4e487b7100000000000000000000000000000000000000000000000000000000600052601160045260246000fd5b60008160011c9050919050565b6112d580620002fd6000396000f3fe608060405234801561001057600080fd5b50600436106100885760003560e01c80638da5cb5b1161005b5780638da5cb5b14610129578063bc24b16a14610147578063c2fcde8914610151578063f2fde38b1461017057610088565b80634a358c1e1461008d578063582ddb38146100be5780635b102ab8146100ee578063715018a61461011f575b600080fd5b6100a760048036038101906100a29190610cd2565b61018c565b6040516100b5929190610f87565b60405180910390f35b6100d860048036038101906100d39190610cfb565b61045f565b6040516100e59190610f6c565b60405180910390f35b61010860048036038101906101039190610cfb565b610492565b604051610116929190611035565b60405180910390f35b6101276104d3565b005b61013161060d565b60405161013e9190610f6c565b60405180910390f35b61014f610636565b005b61015961065c565b604051610167929190610f87565b60405180910390f35b61018a60048036038101906101859190610cd2565b6108b6565b005b606080600060068054905067ffffffffffffffff8111156101d6577f4e487b7100000000000000000000000000000000000000000000000000000000600052604160045260246000fd5b6040519080825280602002602001820160405280156102045781602001602082028036833780820191505090505b509050600060068054905067ffffffffffffffff81111561024e577f4e487b7100000000000000000000000000000000000000000000000000000000600052604160045260246000fd5b60405190808252806020026020018201604052801561027c5781602001602082028036833780820191505090505b5090506000805b600680549050811015610450578673ffffffffffffffffffffffffffffffffffffffff166007600083815260200190815260200160002060009054906101000a900473ffffffffffffffffffffffffffffffffffffffff1673ffffffffffffffffffffffffffffffffffffffff16141561043d5760068181548110610331577f4e487b7100000000000000000000000000000000000000000000000000000000600052603260045260246000fd5b90600052602060002090600202016000015484838151811061037c577f4e487b7100000000000000000000000000000000000000000000000000000000600052603260045260246000fd5b602002602001018181525050600681815481106103c2577f4e487b7100000000000000000000000000000000000000000000000000000000600052603260045260246000fd5b906000526020600020906002020160010160009054906101000a900460ff1683838151811061041a577f4e487b7100000000000000000000000000000000000000000000000000000000600052603260045260246000fd5b602002602001019060ff16908160ff168152505081806104399061115e565b9250505b80806104489061115e565b915050610283565b50828294509450505050915091565b60076020528060005260406000206000915054906101000a900473ffffffffffffffffffffffffffffffffffffffff1681565b600681815481106104a257600080fd5b90600052602060002090600202016000915090508060000154908060010160009054906101000a900460ff16905082565b6104db610a5f565b73ffffffffffffffffffffffffffffffffffffffff166104f961060d565b73ffffffffffffffffffffffffffffffffffffffff161461054f576040517f08c379a000000000000000000000000000000000000000000000000000000000815260040161054690610fde565b60405180910390fd5b600073ffffffffffffffffffffffffffffffffffffffff1660008054906101000a900473ffffffffffffffffffffffffffffffffffffffff1673ffffffffffffffffffffffffffffffffffffffff167f8be0079c531659141344cd1fd0a4f28419497f9722a3daafe3b4186f6b6457e060405160405180910390a360008060006101000a81548173ffffffffffffffffffffffffffffffffffffffff021916908373ffffffffffffffffffffffffffffffffffffffff160217905550565b60008060009054906101000a900473ffffffffffffffffffffffffffffffffffffffff16905090565b6000610640610a67565b9050600061064c610ac9565b90506106588282610b3b565b5050565b606080600060068054905067ffffffffffffffff8111156106a6577f4e487b7100000000000000000000000000000000000000000000000000000000600052604160045260246000fd5b6040519080825280602002602001820160405280156106d45781602001602082028036833780820191505090505b509050600060068054905067ffffffffffffffff81111561071e577f4e487b7100000000000000000000000000000000000000000000000000000000600052604160045260246000fd5b60405190808252806020026020018201604052801561074c5781602001602082028036833780820191505090505b50905060005b6006805490508110156108a95760068181548110610799577f4e487b7100000000000000000000000000000000000000000000000000000000600052603260045260246000fd5b9060005260206000209060020201600001548382815181106107e4577f4e487b7100000000000000000000000000000000000000000000000000000000600052603260045260246000fd5b6020026020010181815250506006818154811061082a577f4e487b7100000000000000000000000000000000000000000000000000000000600052603260045260246000fd5b906000526020600020906002020160010160009054906101000a900460ff16828281518110610882577f4e487b7100000000000000000000000000000000000000000000000000000000600052603260045260246000fd5b602002602001019060ff16908160ff168152505080806108a19061115e565b915050610752565b5081819350935050509091565b6108be610a5f565b73ffffffffffffffffffffffffffffffffffffffff166108dc61060d565b73ffffffffffffffffffffffffffffffffffffffff1614610932576040517f08c379a000000000000000000000000000000000000000000000000000000000815260040161092990610fde565b60405180910390fd5b600073ffffffffffffffffffffffffffffffffffffffff168173ffffffffffffffffffffffffffffffffffffffff1614156109a2576040517f08c379a000000000000000000000000000000000000000000000000000000000815260040161099990610fbe565b60405180910390fd5b8073ffffffffffffffffffffffffffffffffffffffff1660008054906101000a900473ffffffffffffffffffffffffffffffffffffffff1673ffffffffffffffffffffffffffffffffffffffff167f8be0079c531659141344cd1fd0a4f28419497f9722a3daafe3b4186f6b6457e060405160405180910390a3806000806101000a81548173ffffffffffffffffffffffffffffffffffffffff021916908373ffffffffffffffffffffffffffffffffffffffff16021790555050565b600033905090565b600060036000815480929190610a7c9061115e565b919050555060004233600354604051602001610a9a93929190610f2f565b6040516020818303038152906040528051906020012060001c905060025481610ac391906111d5565b91505090565b600060046000815480929190610ade9061115e565b919050555060004233600454604051602001610afc93929190610f2f565b6040516020818303038152906040528051906020012060001c9050600560009054906101000a900460ff1660ff1681610b3591906111d5565b91505090565b600660405180604001604052808481526020018360ff1681525090806001815401808255809150506001900390600052602060002090600202016000909190919091506000820151816000015560208201518160010160006101000a81548160ff021916908360ff160217905550505060006001600680549050610bbf91906110e1565b9050336007600083815260200190815260200160002060006101000a81548173ffffffffffffffffffffffffffffffffffffffff021916908373ffffffffffffffffffffffffffffffffffffffff160217905550600860003373ffffffffffffffffffffffffffffffffffffffff1673ffffffffffffffffffffffffffffffffffffffff1681526020019081526020016000206000815480929190610c639061115e565b91905055507f6ca85b4ba4ace1b9d8e266c2cb00dcb3314c66609fd525cfab3301b2e306748d818484604051610c9b93929190610ffe565b60405180910390a1505050565b600081359050610cb781611271565b92915050565b600081359050610ccc81611288565b92915050565b600060208284031215610ce457600080fd5b6000610cf284828501610ca8565b91505092915050565b600060208284031215610d0d57600080fd5b6000610d1b84828501610cbd565b91505092915050565b6000610d308383610edc565b60208301905092915050565b6000610d488383610f11565b60208301905092915050565b610d5d81611115565b82525050565b610d74610d6f82611115565b6111a7565b82525050565b6000610d858261107e565b610d8f81856110ae565b9350610d9a8361105e565b8060005b83811015610dcb578151610db28882610d24565b9750610dbd83611094565b925050600181019050610d9e565b5085935050505092915050565b6000610de382611089565b610ded81856110bf565b9350610df88361106e565b8060005b83811015610e29578151610e108882610d3c565b9750610e1b836110a1565b925050600181019050610dfc565b5085935050505092915050565b6000610e436026836110d0565b91507f4f776e61626c653a206e6577206f776e657220697320746865207a65726f206160008301527f64647265737300000000000000000000000000000000000000000000000000006020830152604082019050919050565b6000610ea96020836110d0565b91507f4f776e61626c653a2063616c6c6572206973206e6f7420746865206f776e65726000830152602082019050919050565b610ee581611147565b82525050565b610ef481611147565b82525050565b610f0b610f0682611147565b6111cb565b82525050565b610f1a81611151565b82525050565b610f2981611151565b82525050565b6000610f3b8286610efa565b602082019150610f4b8285610d63565b601482019150610f5b8284610efa565b602082019150819050949350505050565b6000602082019050610f816000830184610d54565b92915050565b60006040820190508181036000830152610fa18185610d7a565b90508181036020830152610fb58184610dd8565b90509392505050565b60006020820190508181036000830152610fd781610e36565b9050919050565b60006020820190508181036000830152610ff781610e9c565b9050919050565b60006060820190506110136000830186610eeb565b6110206020830185610eeb565b61102d6040830184610f20565b949350505050565b600060408201905061104a6000830185610eeb565b6110576020830184610f20565b9392505050565b6000819050602082019050919050565b6000819050602082019050919050565b600081519050919050565b600081519050919050565b6000602082019050919050565b6000602082019050919050565b600082825260208201905092915050565b600082825260208201905092915050565b600082825260208201905092915050565b60006110ec82611147565b91506110f783611147565b92508282101561110a57611109611206565b5b828203905092915050565b600061112082611127565b9050919050565b600073ffffffffffffffffffffffffffffffffffffffff82169050919050565b6000819050919050565b600060ff82169050919050565b600061116982611147565b91507fffffffffffffffffffffffffffffffffffffffffffffffffffffffffffffffff82141561119c5761119b611206565b5b600182019050919050565b60006111b2826111b9565b9050919050565b60006111c482611264565b9050919050565b6000819050919050565b60006111e082611147565b91506111eb83611147565b9250826111fb576111fa611235565b5b828206905092915050565b7f4e487b7100000000000000000000000000000000000000000000000000000000600052601160045260246000fd5b7f4e487b7100000000000000000000000000000000000000000000000000000000600052601260045260246000fd5b60008160601b9050919050565b61127a81611115565b811461128557600080fd5b50565b61129181611147565b811461129c57600080fd5b5056fea26469706673582212209f2b0f639a999ce7ee6b4a00ec586aac3a4b42ebf03214b0f0b0a6d97af2b25064736f6c63430008000033",
  "immutableReferences": {},
  "source": "pragma solidity ^0.8.0;\n\nimport \"./CartaFactory.sol\";\n\n/**\n * @title CartaHelper\n * @dev Funciones auxiliares\n */\ncontract CartaHelper is CartaFactory {\n\n    /**\n     * Para obtener todas las cartas\n     */\n    function getCartas() external view returns (uint256[] memory, uint8[] memory) {\n        uint256[] memory descripciones = new uint256[](cartas.length);\n        uint8[] memory tipos = new uint8[](cartas.length);\n        for (uint i = 0; i < cartas.length; i++) {\n            descripciones[i] = (cartas[i].descripcion);\n            tipos[i] = (cartas[i].tipo);\n        }\n        return (descripciones, tipos);\n    }\n\n    /**\n     * Para obtener todas las cartas correspondientes a un address\n     */\n    function getCartasDe(address _owner) external view returns (uint256[] memory, uint8[] memory) {\n        uint256[] memory descripciones = new uint256[](cartas.length);\n        uint8[] memory tipos = new uint8[](cartas.length);\n\n        uint contador = 0;\n        for (uint i = 0; i < cartas.length; i++) {\n            if (cartaAPersona[i] == _owner) {\n                descripciones[contador] = cartas[i].descripcion;\n                tipos[contador] = cartas[i].tipo;\n                contador ++;\n            }\n        }\n        return (descripciones, tipos);\n    }\n\n}",
  "sourcePath": "/home/miki_mustard/Desktop/Personal/Facultad/tdl/nuevo-tdl/teoria-del-lenguaje/truffle-project/contracts/CartaHelper.sol",
  "compiler": {
    "name": "solc",
    "version": "0.8.0+commit.c7dfd78e.Emscripten.clang"
  },
  "schemaVersion": "3.4.1",
  "updatedAt": "2021-06-20T20:01:18.220Z",
  "networkType": "ethereum",
  "devdoc": {
    "details": "Funciones auxiliares",
    "kind": "dev",
    "methods": {
      "crearCartaAleatoria()": {
        "details": "Crea una carta aleatoria"
      },
      "owner()": {
        "details": "Returns the address of the current owner."
      },
      "renounceOwnership()": {
        "details": "Leaves the contract without owner. It will not be possible to call `onlyOwner` functions anymore. Can only be called by the current owner. NOTE: Renouncing ownership will leave the contract without an owner, thereby removing any functionality that is only available to the owner."
      },
      "transferOwnership(address)": {
        "details": "Transfers ownership of the contract to a new account (`newOwner`). Can only be called by the current owner."
      }
    },
    "title": "CartaHelper",
    "version": 1
  },
  "userdoc": {
    "kind": "user",
    "methods": {
      "getCartas()": {
        "notice": "Para obtener todas las cartas"
      },
      "getCartasDe(address)": {
        "notice": "Para obtener todas las cartas correspondientes a un address"
      }
    },
    "version": 1
  }
}