{
  "contractName": "CartaFactory",
  "abi": [
    {
      "anonymous": false,
      "inputs": [
        {
          "indexed": false,
          "internalType": "uint256",
          "name": "cartaId",
          "type": "uint256"
        },
        {
          "indexed": false,
          "internalType": "uint256",
          "name": "descripcion",
          "type": "uint256"
        },
        {
          "indexed": false,
          "internalType": "uint8",
          "name": "tipo",
          "type": "uint8"
        }
      ],
      "name": "NuevaCarta",
      "type": "event"
    },
    {
      "anonymous": false,
      "inputs": [
        {
          "indexed": true,
          "internalType": "address",
          "name": "previousOwner",
          "type": "address"
        },
        {
          "indexed": true,
          "internalType": "address",
          "name": "newOwner",
          "type": "address"
        }
      ],
      "name": "OwnershipTransferred",
      "type": "event"
    },
    {
      "constant": true,
      "inputs": [
        {
          "internalType": "uint256",
          "name": "",
          "type": "uint256"
        }
      ],
      "name": "cartaAPersona",
      "outputs": [
        {
          "internalType": "address",
          "name": "",
          "type": "address"
        }
      ],
      "payable": false,
      "stateMutability": "view",
      "type": "function"
    },
    {
      "constant": true,
      "inputs": [
        {
          "internalType": "uint256",
          "name": "",
          "type": "uint256"
        }
      ],
      "name": "cartas",
      "outputs": [
        {
          "internalType": "uint256",
          "name": "descripcion",
          "type": "uint256"
        },
        {
          "internalType": "uint8",
          "name": "tipo",
          "type": "uint8"
        }
      ],
      "payable": false,
      "stateMutability": "view",
      "type": "function"
    },
    {
      "constant": true,
      "inputs": [],
      "name": "owner",
      "outputs": [
        {
          "internalType": "address",
          "name": "",
          "type": "address"
        }
      ],
      "payable": false,
      "stateMutability": "view",
      "type": "function"
    },
    {
      "constant": false,
      "inputs": [
        {
          "internalType": "address",
          "name": "newOwner",
          "type": "address"
        }
      ],
      "name": "transferOwnership",
      "outputs": [],
      "payable": false,
      "stateMutability": "nonpayable",
      "type": "function"
    },
    {
      "constant": false,
      "inputs": [],
      "name": "crearCartaAleatoria",
      "outputs": [],
      "payable": false,
      "stateMutability": "nonpayable",
      "type": "function"
    },
    {
      "constant": true,
      "inputs": [],
      "name": "getCartas",
      "outputs": [
        {
          "internalType": "uint256[]",
          "name": "",
          "type": "uint256[]"
        },
        {
          "internalType": "uint8[]",
          "name": "",
          "type": "uint8[]"
        }
      ],
      "payable": false,
      "stateMutability": "view",
      "type": "function"
    }
  ],
  "bytecode": "0x60806040526010600155600154600a0a600255600060035560006004556003600560006101000a81548160ff021916908360ff1602179055506000600655336000806101000a81548173ffffffffffffffffffffffffffffffffffffffff021916908373ffffffffffffffffffffffffffffffffffffffff160217905550610acd8061008c6000396000f3fe608060405234801561001057600080fd5b50600436106100625760003560e01c8063582ddb38146100675780635b102ab8146100975780638da5cb5b146100c8578063bc24b16a146100e6578063c2fcde89146100f0578063f2fde38b1461010f575b600080fd5b610081600480360361007c91908101906106d7565b61012b565b60405161008e91906108a2565b60405180910390f35b6100b160048036036100ac91908101906106d7565b61015e565b6040516100bf92919061092b565b60405180910390f35b6100d061019c565b6040516100dd91906108a2565b60405180910390f35b6100ee6101c1565b005b6100f86101e7565b6040516101069291906108bd565b60405180910390f35b610129600480360361012491908101906106ae565b610303565b005b60086020528060005260406000206000915054906101000a900473ffffffffffffffffffffffffffffffffffffffff1681565b6007818154811061016b57fe5b90600052602060002090600202016000915090508060000154908060010160009054906101000a900460ff16905082565b6000809054906101000a900473ffffffffffffffffffffffffffffffffffffffff1681565b60006101cb610454565b905060006101d76104ae565b90506101e38282610518565b5050565b606080606060065460405190808252806020026020018201604052801561021d5781602001602082028038833980820191505090505b50905060606006546040519080825280602002602001820160405280156102535781602001602082028038833980820191505090505b50905060008090505b6006548110156102f6576007818154811061027357fe5b90600052602060002090600202016000015483828151811061029157fe5b602002602001018181525050600781815481106102aa57fe5b906000526020600020906002020160010160009054906101000a900460ff168282815181106102d557fe5b602002602001019060ff16908160ff1681525050808060010191505061025c565b5081819350935050509091565b6000809054906101000a900473ffffffffffffffffffffffffffffffffffffffff1673ffffffffffffffffffffffffffffffffffffffff163373ffffffffffffffffffffffffffffffffffffffff161461035c57600080fd5b600073ffffffffffffffffffffffffffffffffffffffff168173ffffffffffffffffffffffffffffffffffffffff16141561039657600080fd5b8073ffffffffffffffffffffffffffffffffffffffff166000809054906101000a900473ffffffffffffffffffffffffffffffffffffffff1673ffffffffffffffffffffffffffffffffffffffff167f8be0079c531659141344cd1fd0a4f28419497f9722a3daafe3b4186f6b6457e060405160405180910390a3806000806101000a81548173ffffffffffffffffffffffffffffffffffffffff021916908373ffffffffffffffffffffffffffffffffffffffff16021790555050565b60006003600081548092919060010191905055506000423360035460405160200161048193929190610865565b6040516020818303038152906040528051906020012060001c905060025481816104a757fe5b0691505090565b6000600460008154809291906001019190505550600042336004546040516020016104db93929190610865565b6040516020818303038152906040528051906020012060001c9050600560009054906101000a900460ff1660ff16818161051157fe5b0691505090565b60006001600760405180604001604052808681526020018560ff16815250908060018154018082558091505090600182039060005260206000209060020201600090919290919091506000820151816000015560208201518160010160006101000a81548160ff021916908360ff1602179055505050039050336008600083815260200190815260200160002060006101000a81548173ffffffffffffffffffffffffffffffffffffffff021916908373ffffffffffffffffffffffffffffffffffffffff160217905550600960003373ffffffffffffffffffffffffffffffffffffffff1673ffffffffffffffffffffffffffffffffffffffff168152602001908152602001600020600081548092919060010191905055506006600081548092919060010191905055507f6ca85b4ba4ace1b9d8e266c2cb00dcb3314c66609fd525cfab3301b2e306748d818484604051610677939291906108f4565b60405180910390a1505050565b60008135905061069381610a5c565b92915050565b6000813590506106a881610a73565b92915050565b6000602082840312156106c057600080fd5b60006106ce84828501610684565b91505092915050565b6000602082840312156106e957600080fd5b60006106f784828501610699565b91505092915050565b600061070c8383610812565b60208301905092915050565b60006107248383610847565b60208301905092915050565b61074161073c826109d8565b610a21565b82525050565b610750816109c6565b82525050565b600061076182610974565b61076b81856109a4565b935061077683610954565b8060005b838110156107a757815161078e8882610700565b97506107998361098a565b92505060018101905061077a565b5085935050505092915050565b60006107bf8261097f565b6107c981856109b5565b93506107d483610964565b8060005b838110156108055781516107ec8882610718565b97506107f783610997565b9250506001810190506107d8565b5085935050505092915050565b61081b81610a0a565b82525050565b61082a81610a0a565b82525050565b61084161083c82610a0a565b610a45565b82525050565b61085081610a14565b82525050565b61085f81610a14565b82525050565b60006108718286610830565b6020820191506108818285610730565b6014820191506108918284610830565b602082019150819050949350505050565b60006020820190506108b76000830184610747565b92915050565b600060408201905081810360008301526108d78185610756565b905081810360208301526108eb81846107b4565b90509392505050565b60006060820190506109096000830186610821565b6109166020830185610821565b6109236040830184610856565b949350505050565b60006040820190506109406000830185610821565b61094d6020830184610856565b9392505050565b6000819050602082019050919050565b6000819050602082019050919050565b600081519050919050565b600081519050919050565b6000602082019050919050565b6000602082019050919050565b600082825260208201905092915050565b600082825260208201905092915050565b60006109d1826109ea565b9050919050565b60006109e3826109ea565b9050919050565b600073ffffffffffffffffffffffffffffffffffffffff82169050919050565b6000819050919050565b600060ff82169050919050565b6000610a2c82610a33565b9050919050565b6000610a3e82610a4f565b9050919050565b6000819050919050565b60008160601b9050919050565b610a65816109c6565b8114610a7057600080fd5b50565b610a7c81610a0a565b8114610a8757600080fd5b5056fea365627a7a72315820573748154cdefdcd276b5a5a61ff71808ab9d17de260bd377c765992337457a56c6578706572696d656e74616cf564736f6c63430005100040",
  "source": "pragma solidity 0.5.16;\npragma experimental ABIEncoderV2;\n\nimport \"./Ownable.sol\";\n\n/**\n * @title CartaFactory\n * @dev Generacion aleatoria de cartas\n */\ncontract CartaFactory is Ownable {\n\n    event NuevaCarta(uint cartaId, uint256 descripcion, uint8 tipo);\n\n    uint256 cantidadDigitos = 16;\n    uint256 modulo = 10 ** cantidadDigitos;\n    uint256 semillaDescripcion = 0;\n    uint256 semillaTipo = 0;\n    uint8 cantidadTipos = 3;\n\n    uint256 cantidadCartas = 0;\n\n    /**\n    * Tipos:\n    * 1: normal\n    * 2: rara\n    * 3: epica\n    */\n    struct Carta {\n        uint256 descripcion;\n        uint8 tipo;\n    }\n    \n    Carta[] public cartas;\n\n    mapping (uint => address) public cartaAPersona;\n    mapping (address => uint) personaCantidadCartas;\n    \n    /**\n     * @dev Crea una instancia de carta\n     * @param _descripcion descripcion para crear la carta\n     */\n    function _crearCarta(uint256 _descripcion, uint8 _tipo) private {\n        uint id = cartas.push(Carta(_descripcion, _tipo)) - 1;\n        cartaAPersona[id] = msg.sender;\n        personaCantidadCartas[msg.sender] ++;\n        cantidadCartas ++;\n        emit NuevaCarta(id, _descripcion, _tipo);\n    }\n\n    /**\n     * @dev Crea un valor aleatorio de descripcion \n     * @return valor aleatorio de descripcion\n     */\n    function _crearDescripcionAleatoria() private returns (uint256){\n        semillaDescripcion ++;\n        uint256 descripcionAleatoria = uint256(keccak256(abi.encodePacked(block.timestamp, msg.sender, semillaDescripcion)));\n        return descripcionAleatoria % modulo;\n    }\n\n    /**\n     * @dev Crea un tipo de carta aleatorio\n     * @return valor aleatorio de tipo de carta\n     */\n    function _crearTipoAleatorio() private returns (uint8){\n        semillaTipo ++;\n        uint256 tipoAleatorio = uint256(keccak256(abi.encodePacked(block.timestamp, msg.sender, semillaTipo)));\n        return uint8(tipoAleatorio % cantidadTipos);\n    }\n    \n    /**\n     * @dev Crea una carta aleatoria\n     */\n    function crearCartaAleatoria() public {\n        uint256 descripcionAleatoria = _crearDescripcionAleatoria();\n        uint8 tipoAleatorio = _crearTipoAleatorio();\n        _crearCarta(descripcionAleatoria, tipoAleatorio);\n    }\n\n    /**\n     * Para obtener todas las cartas\n     */\n    function getCartas() external view returns (uint256[] memory, uint8[] memory) {\n        uint256[] memory descripciones = new uint256[](cantidadCartas);\n        uint8[] memory tipos = new uint8[](cantidadCartas);\n        for (uint i = 0; i < cantidadCartas; i++) {\n            descripciones[i] = (cartas[i].descripcion);\n            tipos[i] = (cartas[i].tipo);\n        }\n        return (descripciones, tipos);\n    }\n\n}\n",
  "sourcePath": "/home/miki_mustard/Desktop/Personal/Facultad/tdl/teoria-del-lenguaje/truffle-project/contracts/CartaFactory.sol",
  "compiler": {
    "name": "solc",
    "version": "0.5.16+commit.9c3226ce.Emscripten.clang"
  },
  "schemaVersion": "3.4.1",
  "updatedAt": "2021-06-19T20:43:08.726Z",
  "devdoc": {
    "details": "Generacion aleatoria de cartas",
    "methods": {
      "crearCartaAleatoria()": {
        "details": "Crea una carta aleatoria"
      },
      "transferOwnership(address)": {
        "details": "Permite que el owner actual transfiera control de la cuenta a un nuevoOwner",
        "params": {
          "newOwner": "La direccion a la cual se transfiere el ownership"
        }
      }
    },
    "title": "CartaFactory"
  },
  "userdoc": {
    "methods": {
      "getCartas()": {
        "notice": "Para obtener todas las cartas"
      }
    }
  }
}