{
  "contractName": "CartaFactory",
  "abi": [
    {
      "anonymous": false,
      "inputs": [
        {
          "indexed": false,
          "internalType": "uint256",
          "name": "cartaId",
          "type": "uint256"
        },
        {
          "indexed": false,
          "internalType": "uint256",
          "name": "descripcion",
          "type": "uint256"
        },
        {
          "indexed": false,
          "internalType": "uint8",
          "name": "tipo",
          "type": "uint8"
        }
      ],
      "name": "NuevaCarta",
      "type": "event"
    },
    {
      "anonymous": false,
      "inputs": [
        {
          "indexed": true,
          "internalType": "address",
          "name": "previousOwner",
          "type": "address"
        },
        {
          "indexed": true,
          "internalType": "address",
          "name": "newOwner",
          "type": "address"
        }
      ],
      "name": "OwnershipTransferred",
      "type": "event"
    },
    {
      "constant": true,
      "inputs": [],
      "name": "cantidadCartas",
      "outputs": [
        {
          "internalType": "uint256",
          "name": "",
          "type": "uint256"
        }
      ],
      "payable": false,
      "stateMutability": "view",
      "type": "function"
    },
    {
      "constant": true,
      "inputs": [
        {
          "internalType": "uint256",
          "name": "",
          "type": "uint256"
        }
      ],
      "name": "cartaAPersona",
      "outputs": [
        {
          "internalType": "address",
          "name": "",
          "type": "address"
        }
      ],
      "payable": false,
      "stateMutability": "view",
      "type": "function"
    },
    {
      "constant": true,
      "inputs": [
        {
          "internalType": "uint256",
          "name": "",
          "type": "uint256"
        }
      ],
      "name": "cartas",
      "outputs": [
        {
          "internalType": "uint256",
          "name": "descripcion",
          "type": "uint256"
        },
        {
          "internalType": "uint8",
          "name": "tipo",
          "type": "uint8"
        }
      ],
      "payable": false,
      "stateMutability": "view",
      "type": "function"
    },
    {
      "constant": true,
      "inputs": [],
      "name": "owner",
      "outputs": [
        {
          "internalType": "address",
          "name": "",
          "type": "address"
        }
      ],
      "payable": false,
      "stateMutability": "view",
      "type": "function"
    },
    {
      "constant": false,
      "inputs": [
        {
          "internalType": "address",
          "name": "newOwner",
          "type": "address"
        }
      ],
      "name": "transferOwnership",
      "outputs": [],
      "payable": false,
      "stateMutability": "nonpayable",
      "type": "function"
    },
    {
      "constant": false,
      "inputs": [],
      "name": "crearCartaAleatoria",
      "outputs": [],
      "payable": false,
      "stateMutability": "nonpayable",
      "type": "function"
    },
    {
      "constant": true,
      "inputs": [],
      "name": "getCartas",
      "outputs": [
        {
          "internalType": "uint256[]",
          "name": "",
          "type": "uint256[]"
        },
        {
          "internalType": "uint8[]",
          "name": "",
          "type": "uint8[]"
        }
      ],
      "payable": false,
      "stateMutability": "view",
      "type": "function"
    },
    {
      "constant": true,
      "inputs": [
        {
          "internalType": "address",
          "name": "_owner",
          "type": "address"
        }
      ],
      "name": "getCartasDe",
      "outputs": [
        {
          "internalType": "uint256[]",
          "name": "",
          "type": "uint256[]"
        },
        {
          "internalType": "uint8[]",
          "name": "",
          "type": "uint8[]"
        }
      ],
      "payable": false,
      "stateMutability": "view",
      "type": "function"
    }
  ],
  "bytecode": "0x60806040526010600155600154600a0a600255600060035560006004556003600560006101000a81548160ff021916908360ff1602179055506000600655336000806101000a81548173ffffffffffffffffffffffffffffffffffffffff021916908373ffffffffffffffffffffffffffffffffffffffff160217905550610d738061008c6000396000f3fe608060405234801561001057600080fd5b50600436106100885760003560e01c80638da5cb5b1161005b5780638da5cb5b1461013d578063bc24b16a1461015b578063c2fcde8914610165578063f2fde38b1461018457610088565b806340eefeba1461008d5780634a358c1e146100ab578063582ddb38146100dc5780635b102ab81461010c575b600080fd5b6100956101a0565b6040516100a29190610b7f565b60405180910390f35b6100c560048036036100c09190810190610939565b6101a6565b6040516100d3929190610b48565b60405180910390f35b6100f660048036036100f19190810190610962565b6103b6565b6040516101039190610b2d565b60405180910390f35b61012660048036036101219190810190610962565b6103e9565b604051610134929190610bd1565b60405180910390f35b610145610427565b6040516101529190610b2d565b60405180910390f35b61016361044c565b005b61016d610472565b60405161017b929190610b48565b60405180910390f35b61019e60048036036101999190810190610939565b61058e565b005b60065481565b6060806060600960008573ffffffffffffffffffffffffffffffffffffffff1673ffffffffffffffffffffffffffffffffffffffff168152602001908152602001600020546040519080825280602002602001820160405280156102195781602001602082028038833980820191505090505b5090506060600960008673ffffffffffffffffffffffffffffffffffffffff1673ffffffffffffffffffffffffffffffffffffffff1681526020019081526020016000205460405190808252806020026020018201604052801561028c5781602001602082028038833980820191505090505b509050600080905060008090505b6007805490508110156103a7578673ffffffffffffffffffffffffffffffffffffffff166008600083815260200190815260200160002060009054906101000a900473ffffffffffffffffffffffffffffffffffffffff1673ffffffffffffffffffffffffffffffffffffffff16141561039a576007818154811061031b57fe5b90600052602060002090600202016000015484838151811061033957fe5b6020026020010181815250506007818154811061035257fe5b906000526020600020906002020160010160009054906101000a900460ff1683838151811061037d57fe5b602002602001019060ff16908160ff168152505081806001019250505b808060010191505061029a565b50828294509450505050915091565b60086020528060005260406000206000915054906101000a900473ffffffffffffffffffffffffffffffffffffffff1681565b600781815481106103f657fe5b90600052602060002090600202016000915090508060000154908060010160009054906101000a900460ff16905082565b6000809054906101000a900473ffffffffffffffffffffffffffffffffffffffff1681565b60006104566106df565b90506000610462610739565b905061046e82826107a3565b5050565b60608060606006546040519080825280602002602001820160405280156104a85781602001602082028038833980820191505090505b50905060606006546040519080825280602002602001820160405280156104de5781602001602082028038833980820191505090505b50905060008090505b60065481101561058157600781815481106104fe57fe5b90600052602060002090600202016000015483828151811061051c57fe5b6020026020010181815250506007818154811061053557fe5b906000526020600020906002020160010160009054906101000a900460ff1682828151811061056057fe5b602002602001019060ff16908160ff168152505080806001019150506104e7565b5081819350935050509091565b6000809054906101000a900473ffffffffffffffffffffffffffffffffffffffff1673ffffffffffffffffffffffffffffffffffffffff163373ffffffffffffffffffffffffffffffffffffffff16146105e757600080fd5b600073ffffffffffffffffffffffffffffffffffffffff168173ffffffffffffffffffffffffffffffffffffffff16141561062157600080fd5b8073ffffffffffffffffffffffffffffffffffffffff166000809054906101000a900473ffffffffffffffffffffffffffffffffffffffff1673ffffffffffffffffffffffffffffffffffffffff167f8be0079c531659141344cd1fd0a4f28419497f9722a3daafe3b4186f6b6457e060405160405180910390a3806000806101000a81548173ffffffffffffffffffffffffffffffffffffffff021916908373ffffffffffffffffffffffffffffffffffffffff16021790555050565b60006003600081548092919060010191905055506000423360035460405160200161070c93929190610af0565b6040516020818303038152906040528051906020012060001c9050600254818161073257fe5b0691505090565b60006004600081548092919060010191905055506000423360045460405160200161076693929190610af0565b6040516020818303038152906040528051906020012060001c9050600560009054906101000a900460ff1660ff16818161079c57fe5b0691505090565b60006001600760405180604001604052808681526020018560ff16815250908060018154018082558091505090600182039060005260206000209060020201600090919290919091506000820151816000015560208201518160010160006101000a81548160ff021916908360ff1602179055505050039050336008600083815260200190815260200160002060006101000a81548173ffffffffffffffffffffffffffffffffffffffff021916908373ffffffffffffffffffffffffffffffffffffffff160217905550600960003373ffffffffffffffffffffffffffffffffffffffff1673ffffffffffffffffffffffffffffffffffffffff168152602001908152602001600020600081548092919060010191905055506006600081548092919060010191905055507f6ca85b4ba4ace1b9d8e266c2cb00dcb3314c66609fd525cfab3301b2e306748d81848460405161090293929190610b9a565b60405180910390a1505050565b60008135905061091e81610d02565b92915050565b60008135905061093381610d19565b92915050565b60006020828403121561094b57600080fd5b60006109598482850161090f565b91505092915050565b60006020828403121561097457600080fd5b600061098284828501610924565b91505092915050565b60006109978383610a9d565b60208301905092915050565b60006109af8383610ad2565b60208301905092915050565b6109cc6109c782610c7e565b610cc7565b82525050565b6109db81610c6c565b82525050565b60006109ec82610c1a565b6109f68185610c4a565b9350610a0183610bfa565b8060005b83811015610a32578151610a19888261098b565b9750610a2483610c30565b925050600181019050610a05565b5085935050505092915050565b6000610a4a82610c25565b610a548185610c5b565b9350610a5f83610c0a565b8060005b83811015610a90578151610a7788826109a3565b9750610a8283610c3d565b925050600181019050610a63565b5085935050505092915050565b610aa681610cb0565b82525050565b610ab581610cb0565b82525050565b610acc610ac782610cb0565b610ceb565b82525050565b610adb81610cba565b82525050565b610aea81610cba565b82525050565b6000610afc8286610abb565b602082019150610b0c82856109bb565b601482019150610b1c8284610abb565b602082019150819050949350505050565b6000602082019050610b4260008301846109d2565b92915050565b60006040820190508181036000830152610b6281856109e1565b90508181036020830152610b768184610a3f565b90509392505050565b6000602082019050610b946000830184610aac565b92915050565b6000606082019050610baf6000830186610aac565b610bbc6020830185610aac565b610bc96040830184610ae1565b949350505050565b6000604082019050610be66000830185610aac565b610bf36020830184610ae1565b9392505050565b6000819050602082019050919050565b6000819050602082019050919050565b600081519050919050565b600081519050919050565b6000602082019050919050565b6000602082019050919050565b600082825260208201905092915050565b600082825260208201905092915050565b6000610c7782610c90565b9050919050565b6000610c8982610c90565b9050919050565b600073ffffffffffffffffffffffffffffffffffffffff82169050919050565b6000819050919050565b600060ff82169050919050565b6000610cd282610cd9565b9050919050565b6000610ce482610cf5565b9050919050565b6000819050919050565b60008160601b9050919050565b610d0b81610c6c565b8114610d1657600080fd5b50565b610d2281610cb0565b8114610d2d57600080fd5b5056fea365627a7a723158207c16c95762e3fb337f6313b1ee796f651b86b17a16fb3cf2137d9b888670d1f16c6578706572696d656e74616cf564736f6c63430005100040",
  "source": "pragma solidity 0.5.16;\npragma experimental ABIEncoderV2;\n\nimport \"./Ownable.sol\";\n\n/**\n * @title CartaFactory\n * @dev Generacion aleatoria de cartas\n */\ncontract CartaFactory is Ownable {\n\n    event NuevaCarta(uint cartaId, uint256 descripcion, uint8 tipo);\n\n    uint256 cantidadDigitos = 16;\n    uint256 modulo = 10 ** cantidadDigitos;\n    uint256 semillaDescripcion = 0;\n    uint256 semillaTipo = 0;\n    uint8 cantidadTipos = 3;\n\n    uint256 public cantidadCartas = 0;\n\n    /**\n    * Tipos:\n    * 1: normal\n    * 2: rara\n    * 3: epica\n    */\n    struct Carta {\n        uint256 descripcion;\n        uint8 tipo;\n    }\n    \n    Carta[] public cartas;\n\n    mapping (uint => address) public cartaAPersona;\n    mapping (address => uint) personaCantidadCartas;\n    \n    /**\n     * @dev Crea una instancia de carta\n     * @param _descripcion descripcion para crear la carta\n     */\n    function _crearCarta(uint256 _descripcion, uint8 _tipo) private {\n        uint id = cartas.push(Carta(_descripcion, _tipo)) - 1;\n        cartaAPersona[id] = msg.sender;\n        personaCantidadCartas[msg.sender] ++;\n        cantidadCartas ++;\n        emit NuevaCarta(id, _descripcion, _tipo);\n    }\n\n    /**\n     * @dev Crea un valor aleatorio de descripcion \n     * @return valor aleatorio de descripcion\n     */\n    function _crearDescripcionAleatoria() private returns (uint256){\n        semillaDescripcion ++;\n        uint256 descripcionAleatoria = uint256(keccak256(abi.encodePacked(block.timestamp, msg.sender, semillaDescripcion)));\n        return descripcionAleatoria % modulo;\n    }\n\n    /**\n     * @dev Crea un tipo de carta aleatorio\n     * @return valor aleatorio de tipo de carta\n     */\n    function _crearTipoAleatorio() private returns (uint8){\n        semillaTipo ++;\n        uint256 tipoAleatorio = uint256(keccak256(abi.encodePacked(block.timestamp, msg.sender, semillaTipo)));\n        return uint8(tipoAleatorio % cantidadTipos);\n    }\n    \n    /**\n     * @dev Crea una carta aleatoria\n     */\n    function crearCartaAleatoria() public {\n        uint256 descripcionAleatoria = _crearDescripcionAleatoria();\n        uint8 tipoAleatorio = _crearTipoAleatorio();\n        _crearCarta(descripcionAleatoria, tipoAleatorio);\n    }\n\n    /**\n     * Para obtener todas las cartas\n     */\n    function getCartas() external view returns (uint256[] memory, uint8[] memory) {\n        uint256[] memory descripciones = new uint256[](cantidadCartas);\n        uint8[] memory tipos = new uint8[](cantidadCartas);\n        for (uint i = 0; i < cantidadCartas; i++) {\n            descripciones[i] = (cartas[i].descripcion);\n            tipos[i] = (cartas[i].tipo);\n        }\n        return (descripciones, tipos);\n    }\n\n    /**\n     * Para obtener todas las cartas correspondientes a un address\n     */\n    function getCartasDe(address _owner) external view returns (uint256[] memory, uint8[] memory) {\n        uint256[] memory descripciones = new uint256[](personaCantidadCartas[_owner]);\n        uint8[] memory tipos = new uint8[](personaCantidadCartas[_owner]);\n\n        uint contador = 0;\n        for (uint i = 0; i < cartas.length; i++) {\n            if (cartaAPersona[i] == _owner) {\n                descripciones[contador] = cartas[i].descripcion;\n                tipos[contador] = cartas[i].tipo;\n                contador ++;\n            }\n        }\n        return (descripciones, tipos);\n    }\n\n}\n",
  "sourcePath": "/home/miki_mustard/Desktop/Personal/Facultad/tdl/teoria-del-lenguaje/truffle-project/contracts/CartaFactory.sol",
  "compiler": {
    "name": "solc",
    "version": "0.5.16+commit.9c3226ce.Emscripten.clang"
  },
  "schemaVersion": "3.4.1",
  "updatedAt": "2021-06-20T02:30:37.255Z",
  "networkType": "ethereum",
  "devdoc": {
    "details": "Generacion aleatoria de cartas",
    "methods": {
      "crearCartaAleatoria()": {
        "details": "Crea una carta aleatoria"
      },
      "transferOwnership(address)": {
        "details": "Permite que el owner actual transfiera control de la cuenta a un nuevoOwner",
        "params": {
          "newOwner": "La direccion a la cual se transfiere el ownership"
        }
      }
    },
    "title": "CartaFactory"
  },
  "userdoc": {
    "methods": {
      "getCartas()": {
        "notice": "Para obtener todas las cartas"
      },
      "getCartasDe(address)": {
        "notice": "Para obtener todas las cartas correspondientes a un address"
      }
    }
  }
}