{
  "contractName": "ERC721Metadata",
  "abi": [
    {
      "inputs": [
        {
          "internalType": "string",
          "name": "name_",
          "type": "string"
        },
        {
          "internalType": "string",
          "name": "symbol_",
          "type": "string"
        }
      ],
      "stateMutability": "nonpayable",
      "type": "constructor"
    },
    {
      "inputs": [],
      "name": "name",
      "outputs": [
        {
          "internalType": "string",
          "name": "",
          "type": "string"
        }
      ],
      "stateMutability": "view",
      "type": "function"
    },
    {
      "inputs": [],
      "name": "symbol",
      "outputs": [
        {
          "internalType": "string",
          "name": "",
          "type": "string"
        }
      ],
      "stateMutability": "view",
      "type": "function"
    }
  ],
  "bytecode": "0x608060405234801561001057600080fd5b506040516105fe3803806105fe83398181016040528101906100329190610172565b8160009080519060200190610048929190610067565b50806001908051906020019061005f929190610067565b505050610302565b82805461007390610272565b90600052602060002090601f01602090048101928261009557600085556100dc565b82601f106100ae57805160ff19168380011785556100dc565b828001600101855582156100dc579182015b828111156100db5782518255916020019190600101906100c0565b5b5090506100e991906100ed565b5090565b5b808211156101065760008160009055506001016100ee565b5090565b600061011d6101188461020f565b6101de565b90508281526020810184848401111561013557600080fd5b61014084828561023f565b509392505050565b600082601f83011261015957600080fd5b815161016984826020860161010a565b91505092915050565b6000806040838503121561018557600080fd5b600083015167ffffffffffffffff81111561019f57600080fd5b6101ab85828601610148565b925050602083015167ffffffffffffffff8111156101c857600080fd5b6101d485828601610148565b9150509250929050565b6000604051905081810181811067ffffffffffffffff82111715610205576102046102d3565b5b8060405250919050565b600067ffffffffffffffff82111561022a576102296102d3565b5b601f19601f8301169050602081019050919050565b60005b8381101561025d578082015181840152602081019050610242565b8381111561026c576000848401525b50505050565b6000600282049050600182168061028a57607f821691505b6020821081141561029e5761029d6102a4565b5b50919050565b7f4e487b7100000000000000000000000000000000000000000000000000000000600052602260045260246000fd5b7f4e487b7100000000000000000000000000000000000000000000000000000000600052604160045260246000fd5b6102ed806103116000396000f3fe608060405234801561001057600080fd5b50600436106100365760003560e01c806306fdde031461003b57806395d89b4114610059575b600080fd5b610043610077565b60405161005091906101d4565b60405180910390f35b610061610109565b60405161006e91906101d4565b60405180910390f35b60606000805461008690610245565b80601f01602080910402602001604051908101604052809291908181526020018280546100b290610245565b80156100ff5780601f106100d4576101008083540402835291602001916100ff565b820191906000526020600020905b8154815290600101906020018083116100e257829003601f168201915b5050505050905090565b60606001805461011890610245565b80601f016020809104026020016040519081016040528092919081815260200182805461014490610245565b80156101915780601f1061016657610100808354040283529160200191610191565b820191906000526020600020905b81548152906001019060200180831161017457829003601f168201915b5050505050905090565b60006101a6826101f6565b6101b08185610201565b93506101c0818560208601610212565b6101c9816102a6565b840191505092915050565b600060208201905081810360008301526101ee818461019b565b905092915050565b600081519050919050565b600082825260208201905092915050565b60005b83811015610230578082015181840152602081019050610215565b8381111561023f576000848401525b50505050565b6000600282049050600182168061025d57607f821691505b6020821081141561027157610270610277565b5b50919050565b7f4e487b7100000000000000000000000000000000000000000000000000000000600052602260045260246000fd5b6000601f19601f830116905091905056fea26469706673582212205c3234dc4a65b30ea323c66495f8275bcfaa1333ff512ba02a06f7834fbcf99e64736f6c63430008000033",
  "immutableReferences": {},
  "source": "pragma solidity ^0.8.0;\n\ninterface ERC721 {\n  event Transfer(address indexed _from, address indexed _to, uint256 _tokenId);\n  event Approval(address indexed _owner, address indexed _approved, uint256 _tokenId);\n\n  function balanceOf(address _owner) external view returns (uint256);\n  function ownerOf(uint256 _tokenId) external view returns (address);\n  function transfer(address _to, uint256 _tokenId) external;\n  function approve(address _to, uint256 _tokenId) external;\n  function takeOwnership(uint256 _tokenId) external;\n}\n\ncontract ERC721Metadata {\n  // Nombre del token\n  string private _name;\n\n  // Simbolo del token\n  string private _symbol;\n\n  /**\n    * @dev Inicializa el contrato con un nombre y un simbolo\n    */\n  constructor(string memory name_, string memory symbol_) {\n      _name = name_;\n      _symbol = symbol_;\n  }\n\n  function name() public view returns (string memory) {\n      return _name;\n  }\n  \n  function symbol() public view returns (string memory) {\n      return _symbol;\n  }\n}\n",
  "sourcePath": "/Users/filyankaragoz/Documents/TDL/teoria-del-lenguaje/truffle-project/contracts/erc721.sol",
  "compiler": {
    "name": "solc",
    "version": "0.8.0+commit.c7dfd78e.Emscripten.clang"
  },
  "schemaVersion": "3.4.1",
  "updatedAt": "2021-07-05T22:32:37.713Z",
  "devdoc": {
    "kind": "dev",
    "methods": {
      "constructor": {
        "details": "Inicializa el contrato con un nombre y un simbolo"
      }
    },
    "version": 1
  },
  "userdoc": {
    "kind": "user",
    "methods": {},
    "version": 1
  }
}