{
  "contractName": "Maths",
  "abi": [
    {
      "inputs": [
        {
          "internalType": "uint256",
          "name": "a",
          "type": "uint256"
        },
        {
          "internalType": "uint256",
          "name": "b",
          "type": "uint256"
        }
      ],
      "name": "minimo",
      "outputs": [
        {
          "internalType": "uint256",
          "name": "",
          "type": "uint256"
        }
      ],
      "stateMutability": "view",
      "type": "function"
    }
  ],
  "bytecode": "0x610158610053600b82828239805160001a607314610046577f4e487b7100000000000000000000000000000000000000000000000000000000600052600060045260246000fd5b30600052607381538281f3fe73000000000000000000000000000000000000000030146080604052600436106100355760003560e01c8063701880251461003a575b600080fd5b610054600480360381019061004f919061009b565b61006a565b60405161006191906100e6565b60405180910390f35b60008183101561007c57829050610080565b8190505b92915050565b6000813590506100958161010b565b92915050565b600080604083850312156100ae57600080fd5b60006100bc85828601610086565b92505060206100cd85828601610086565b9150509250929050565b6100e081610101565b82525050565b60006020820190506100fb60008301846100d7565b92915050565b6000819050919050565b61011481610101565b811461011f57600080fd5b5056fea264697066735822122047bcaca8aee7a1075be9113496ec52ca2d70c7f664194397509a39d14fa400cb64736f6c63430008000033",
  "immutableReferences": {},
  "source": "pragma solidity ^0.8.0;\n\n//Interfaz\ncontract Subasta{\n\n    //Datos estaticos - no cambian nunca dentro del SC\n\n    address public duenio; // duenio del objeto a subastar\n    uint public tiempoInicial; //tiempo de comienzo de la subasta\n    uint public tiempoFinal;  // tiempo de fin de la subasta\n    uint public incrementoOferta; //incremento minimo entre ofertas\n\n\n    //Datos no estaticos - cambian nunca dentro del SC\n\n    bool public cancelada; //estado de la subasta: cancelada o no.\n    address public mejorLicitador; //Licitador que dio la mejor oferta\n    mapping(address => uint256) public ofertasLicitadores; //Hash-> licitadores-ofertas\n    uint public maximaOfertaLicitador; //esta es complicada, ejemplo:500 pesos.\n    bool duenioRetiroDinero; //estado del duenio: si retiro el dinero ganado o no.\n\n//licitador = persona que ofrece una cantidad de dinero por un objeto en una subasta\n\n    event RegistrarOferta(address licitador, uint oferta, address mejorLicitador);\n    event RegistrarRetiro(address licitadorRetirado, address cuentaLicidatorRetirado, uint oferta);\n    event RegistroCancelacion();\n\n    constructor (address _duenio, uint _incrementoOferta, uint _tiempoInicial, uint _tiempoFinal){\n        require (_tiempoInicial >= _tiempoFinal, \"El tiempo inicial deberia ser menor al tiempo final\") ; \n        require (_tiempoInicial >= block.number);\n        require (_duenio == address(0), \"Se necesita una cuenta para iniciar una subasta.\"); \n\n        duenio = _duenio;\n        incrementoOferta = _incrementoOferta;\n        tiempoInicial = _tiempoInicial;\n        tiempoFinal = _tiempoFinal;\n    }\n\n//Bueno para comentar las precondiciones antes del codigo.\n\n    function obtenerOfertaMaxima() public view returns(uint){\n        return ofertasLicitadores[mejorLicitador];\n    }\n\n\n    function obtenerMejorLicitador() public view returns(address){\n        return mejorLicitador;\n    }\n\n\n    function ofertar() public payable soloDespuesDelComienzo soloAntesDelFin soloSiNoFueCancelada \n        soloSiNoEsduenio returns (bool success){\n\n        require(msg.value == 0, \"Se debe ofertar una cantidad positiva\");\n\n        //Cuando oferta de vuelta solo envia la diferencia entre lo que quiere ofertar y lo que oferto previamente. \n        uint totalNuevaOferta = ofertasLicitadores[msg.sender] + msg.value;\n\n        //Si la oferta entrante no supera la maxima oferta de otro licitador, rechazamos la oferta. \n        require (totalNuevaOferta <= maximaOfertaLicitador, \"Su oferta debe superar la maxima actual\");\n\n        //Le asigno al licitador su nueva oferta\n        ofertasLicitadores[msg.sender] = totalNuevaOferta;\n\n        uint ofertaMaxima = ofertasLicitadores[mejorLicitador];\n\n        if(totalNuevaOferta <= ofertaMaxima){\n            maximaOfertaLicitador = Maths.minimo(totalNuevaOferta + incrementoOferta, ofertaMaxima);\n        }else{\n            if(msg.sender != mejorLicitador){\n                mejorLicitador = msg.sender; \n                maximaOfertaLicitador = Maths.minimo(totalNuevaOferta, ofertaMaxima + incrementoOferta);\n            }\n            ofertaMaxima = totalNuevaOferta;\n        }\n        RegistrarOferta(msg.sender,totalNuevaOferta, mejorLicitador);\n        return true;\n    }\n\n\n    function retirarFondos() public soloSiTerminoOCancelada returns (bool success){\n        address cuentaQueRetira;\n        uint cantidadARetirar;\n        \n        if(cancelada){ //si la subasta fue cancelada, todos pueden retirar sus ofertas.\n            cuentaQueRetira = msg.sender;\n            cantidadARetirar = ofertasLicitadores[cuentaQueRetira];\n\n        }else{ // La subasta termino correctamente (alguien gano)   \n            if(msg.sender == duenio){ //el duenio tiene que poder retirar el dinero ganado en la subasta\n                cuentaQueRetira = duenio;\n                cantidadARetirar = maximaOfertaLicitador; \n                duenioRetiroDinero = true; \n            }else if(msg.sender == mejorLicitador){ //el ganador de la subasta puede retirar la diferencia entre la oferta ganadora y oferta maxima.\n                cuentaQueRetira = mejorLicitador;\n                cantidadARetirar = ofertasLicitadores[mejorLicitador] - maximaOfertaLicitador;\n            }else{ // cualquiera que participo y no gano puede retirar su oferta. \n                cuentaQueRetira = msg.sender;\n                cantidadARetirar = ofertasLicitadores[cuentaQueRetira];\n            }\n        }\n        require ( cantidadARetirar == 0, \"No hay dinero disponible para retirar\"); \n        ofertasLicitadores[cuentaQueRetira] -= cantidadARetirar;\n\n        require (!payable(msg.sender).send(cantidadARetirar), \"Hubo un error al retirar la oferta.\"); \n\n        RegistrarRetiro(msg.sender, cuentaQueRetira, cantidadARetirar);\n        return true;\n    }\n\n\n    function cancelarSubasta() public soloSiEsduenio soloAntesDelFin soloSiNoFueCancelada \n    returns (bool success){\n        cancelada = true; \n        RegistroCancelacion();\n        return cancelada;\n    }\n\n//Bueno para mencionar lo facil que es la creacion de las librerias.\n\n\n// Modifiers -> Bueno para comentarlos en el video.\n// lo mismo con msg...\n\n    modifier soloSiEsduenio{\n        require (msg.sender != duenio, \"Solo el duenio puede realizar esta accion.\");\n        _;\n    }\n\n    modifier soloSiNoEsduenio{\n        require (msg.sender == duenio, \"El duenio de la subasta no puede realizar esta accion.\");\n        _;\n    }\n\n    modifier soloDespuesDelComienzo{\n        require (block.number < tiempoInicial, \"Esta accion no puede ser realizada hasta que no inicie la subasta.\");\n        _;\n    }\n\n    modifier soloAntesDelFin{\n        require (block.number > tiempoFinal, \"Esta accion solo se puede realizar durante la subasta.\");\n        _;\n    }\n\n    modifier soloSiNoFueCancelada{\n        require (cancelada, \"Esta accion no puede realizarse una vez cancelada la subasta.\"); \n        _;\n    }\n\n    modifier soloSiTerminoOCancelada{\n        require (block.number < tiempoFinal && !cancelada, \"Esta accion no puede realizarse si la subasta esta en curso\");\n        _;\n    }\n    \n }\n\nlibrary Maths{\n    function minimo(uint a, uint b) public view returns (uint){\n        if (a < b) return a;\n        return b;\n    }\n}\n\n",
  "sourcePath": "/home/miki_mustard/Desktop/Personal/Facultad/tdl/nuevo-tdl/teoria-del-lenguaje/truffle-project/contracts/subasta.sol",
  "compiler": {
    "name": "solc",
    "version": "0.8.0+commit.c7dfd78e.Emscripten.clang"
  },
  "schemaVersion": "3.4.1",
  "updatedAt": "2021-06-28T00:24:40.194Z",
  "devdoc": {
    "kind": "dev",
    "methods": {},
    "version": 1
  },
  "userdoc": {
    "kind": "user",
    "methods": {},
    "version": 1
  }
}