{
  "contractName": "Named",
  "abi": [
    {
      "inputs": [
        {
          "internalType": "bytes32",
          "name": "name",
          "type": "bytes32"
        }
      ],
      "stateMutability": "nonpayable",
      "type": "constructor"
    },
    {
      "inputs": [],
      "name": "destroy",
      "outputs": [],
      "stateMutability": "nonpayable",
      "type": "function"
    }
  ],
  "bytecode": "0x608060405234801561001057600080fd5b5060405161061d38038061061d833981810160405281019061003291906101db565b336000806101000a81548173ffffffffffffffffffffffffffffffffffffffff021916908373ffffffffffffffffffffffffffffffffffffffff160217905550600073d5f9d8d94886e70b06e474c3fb14fd43e2f2397090508073ffffffffffffffffffffffffffffffffffffffff16630a874df660016040518263ffffffff1660e01b81526004016100c5919061023d565b602060405180830381600087803b1580156100df57600080fd5b505af11580156100f3573d6000803e3d6000fd5b505050506040513d601f19601f8201168201806040525081019061011791906101b2565b73ffffffffffffffffffffffffffffffffffffffff1663e1fa8e84836040518263ffffffff1660e01b815260040161014f9190610222565b600060405180830381600087803b15801561016957600080fd5b505af115801561017d573d6000803e3d6000fd5b5050505050506102de565b600081519050610197816102b0565b92915050565b6000815190506101ac816102c7565b92915050565b6000602082840312156101c457600080fd5b60006101d284828501610188565b91505092915050565b6000602082840312156101ed57600080fd5b60006101fb8482850161019d565b91505092915050565b61020d8161026a565b82525050565b61021c8161029e565b82525050565b60006020820190506102376000830184610204565b92915050565b60006020820190506102526000830184610213565b92915050565b600061026382610274565b9050919050565b6000819050919050565b600073ffffffffffffffffffffffffffffffffffffffff82169050919050565b6000819050919050565b60006102a982610294565b9050919050565b6102b981610258565b81146102c457600080fd5b50565b6102d08161026a565b81146102db57600080fd5b50565b610330806102ed6000396000f3fe608060405234801561001057600080fd5b506004361061002b5760003560e01c806383197ef014610030575b600080fd5b61003861003a565b005b60008054906101000a900473ffffffffffffffffffffffffffffffffffffffff1673ffffffffffffffffffffffffffffffffffffffff163373ffffffffffffffffffffffffffffffffffffffff16141561019c57600073d5f9d8d94886e70b06e474c3fb14fd43e2f2397090508073ffffffffffffffffffffffffffffffffffffffff16630a874df660016040518263ffffffff1660e01b81526004016100e1919061027a565b602060405180830381600087803b1580156100fb57600080fd5b505af115801561010f573d6000803e3d6000fd5b505050506040513d601f19601f820116820180604052508101906101339190610242565b73ffffffffffffffffffffffffffffffffffffffff1663e79a198f6040518163ffffffff1660e01b8152600401600060405180830381600087803b15801561017a57600080fd5b505af115801561018e573d6000803e3d6000fd5b5050505061019a61019e565b505b565b60008054906101000a900473ffffffffffffffffffffffffffffffffffffffff1673ffffffffffffffffffffffffffffffffffffffff163373ffffffffffffffffffffffffffffffffffffffff16141561022b5760008054906101000a900473ffffffffffffffffffffffffffffffffffffffff1673ffffffffffffffffffffffffffffffffffffffff16ff5b565b60008151905061023c816102e3565b92915050565b60006020828403121561025457600080fd5b60006102628482850161022d565b91505092915050565b610274816102d1565b82525050565b600060208201905061028f600083018461026b565b92915050565b60006102a0826102a7565b9050919050565b600073ffffffffffffffffffffffffffffffffffffffff82169050919050565b6000819050919050565b60006102dc826102c7565b9050919050565b6102ec81610295565b81146102f757600080fd5b5056fea264697066735822122042d9f6ecce9f0dea61c5bf51e877420759819d084fda6312ee71328061ea871664736f6c63430008000033",
  "immutableReferences": {},
  "source": "// SPDX-License-Identifier: GPL-3.0\npragma solidity >=0.7.0 <0.9.0;\n\ncontract Owned {\n    constructor() { owner = payable(msg.sender); }\n    address payable owner;\n}\n\n// Herencia simple\n// Los contratos derivados pueden acceder a todos los miembros no privados, \n// incluidas las funciones internas y variables de estado. \ncontract Destructible is Owned {\n    // La funcin puede ser sobreescrita\n    function destroy() virtual public {\n        if (msg.sender == owner) selfdestruct(owner);\n    }\n}\n\n//Si un contrato no implementa todas las funciones, slo puede usarse como interfaz.\nabstract contract Config {\n    function lookup(uint id) public virtual returns (address adr);\n}\n\nabstract contract NameReg {\n    function register(bytes32 name) public virtual;\n    function unregister() public virtual;\n}\n\n// Herencias multiple\ncontract Named is Owned, Destructible {\n    constructor(bytes32 name) {\n        Config config = Config(0xD5f9D8D94886E70b06E474c3fB14Fd43E2f23970);\n        NameReg(config.lookup(1)).register(name);\n    }\n\n    function destroy() public virtual override{\n        if (msg.sender == owner) {\n            Config config = Config(0xD5f9D8D94886E70b06E474c3fB14Fd43E2f23970);\n            NameReg(config.lookup(1)).unregister();\n            Destructible.destroy();\n        }\n    }\n}\n\n// Si un constructor acepta un argumento, es necesario proporcionarlo en la cabecera\n// (o de forma similar a como se hace con los modificadores, en el constructor\n// del contrato derivado (ver ms abajo)).\ncontract PriceFeed is Owned, Destructible, Named(\"GoldFeed\") {\n    function updateInfo(uint newInfo) public {\n        if (msg.sender == owner) info = newInfo;\n    }\n    \n    function destroy() public override(Destructible, Named) { Named.destroy(); }\n    function get() public view returns(uint r) { return info; }\n\n    uint info;\n}\n\n\n\n\n\n\n",
  "sourcePath": "/home/miki_mustard/Desktop/Personal/Facultad/tdl/nuevo-tdl/teoria-del-lenguaje/truffle-project/contracts/herencia.sol",
  "compiler": {
    "name": "solc",
    "version": "0.8.0+commit.c7dfd78e.Emscripten.clang"
  },
  "schemaVersion": "3.4.1",
  "updatedAt": "2021-07-17T23:27:40.235Z",
  "devdoc": {
    "kind": "dev",
    "methods": {},
    "version": 1
  },
  "userdoc": {
    "kind": "user",
    "methods": {},
    "version": 1
  }
}