{
  "contractName": "OzToken",
  "abi": [
    {
      "inputs": [],
      "stateMutability": "nonpayable",
      "type": "constructor"
    },
    {
      "anonymous": false,
      "inputs": [
        {
          "indexed": true,
          "internalType": "address",
          "name": "owner",
          "type": "address"
        },
        {
          "indexed": true,
          "internalType": "address",
          "name": "spender",
          "type": "address"
        },
        {
          "indexed": false,
          "internalType": "uint256",
          "name": "value",
          "type": "uint256"
        }
      ],
      "name": "Approval",
      "type": "event"
    },
    {
      "anonymous": false,
      "inputs": [
        {
          "indexed": true,
          "internalType": "address",
          "name": "from",
          "type": "address"
        },
        {
          "indexed": true,
          "internalType": "address",
          "name": "to",
          "type": "address"
        },
        {
          "indexed": false,
          "internalType": "uint256",
          "name": "value",
          "type": "uint256"
        }
      ],
      "name": "Transfer",
      "type": "event"
    },
    {
      "inputs": [
        {
          "internalType": "address",
          "name": "owner",
          "type": "address"
        },
        {
          "internalType": "address",
          "name": "spender",
          "type": "address"
        }
      ],
      "name": "allowance",
      "outputs": [
        {
          "internalType": "uint256",
          "name": "",
          "type": "uint256"
        }
      ],
      "stateMutability": "view",
      "type": "function",
      "constant": true
    },
    {
      "inputs": [
        {
          "internalType": "address",
          "name": "spender",
          "type": "address"
        },
        {
          "internalType": "uint256",
          "name": "amount",
          "type": "uint256"
        }
      ],
      "name": "approve",
      "outputs": [
        {
          "internalType": "bool",
          "name": "",
          "type": "bool"
        }
      ],
      "stateMutability": "nonpayable",
      "type": "function"
    },
    {
      "inputs": [
        {
          "internalType": "address",
          "name": "account",
          "type": "address"
        }
      ],
      "name": "balanceOf",
      "outputs": [
        {
          "internalType": "uint256",
          "name": "",
          "type": "uint256"
        }
      ],
      "stateMutability": "view",
      "type": "function",
      "constant": true
    },
    {
      "inputs": [],
      "name": "decimals",
      "outputs": [
        {
          "internalType": "uint8",
          "name": "",
          "type": "uint8"
        }
      ],
      "stateMutability": "view",
      "type": "function",
      "constant": true
    },
    {
      "inputs": [
        {
          "internalType": "address",
          "name": "spender",
          "type": "address"
        },
        {
          "internalType": "uint256",
          "name": "subtractedValue",
          "type": "uint256"
        }
      ],
      "name": "decreaseAllowance",
      "outputs": [
        {
          "internalType": "bool",
          "name": "",
          "type": "bool"
        }
      ],
      "stateMutability": "nonpayable",
      "type": "function"
    },
    {
      "inputs": [
        {
          "internalType": "address",
          "name": "spender",
          "type": "address"
        },
        {
          "internalType": "uint256",
          "name": "addedValue",
          "type": "uint256"
        }
      ],
      "name": "increaseAllowance",
      "outputs": [
        {
          "internalType": "bool",
          "name": "",
          "type": "bool"
        }
      ],
      "stateMutability": "nonpayable",
      "type": "function"
    },
    {
      "inputs": [
        {
          "internalType": "address",
          "name": "",
          "type": "address"
        }
      ],
      "name": "minters",
      "outputs": [
        {
          "internalType": "bool",
          "name": "",
          "type": "bool"
        }
      ],
      "stateMutability": "view",
      "type": "function",
      "constant": true
    },
    {
      "inputs": [],
      "name": "name",
      "outputs": [
        {
          "internalType": "string",
          "name": "",
          "type": "string"
        }
      ],
      "stateMutability": "view",
      "type": "function",
      "constant": true
    },
    {
      "inputs": [],
      "name": "symbol",
      "outputs": [
        {
          "internalType": "string",
          "name": "",
          "type": "string"
        }
      ],
      "stateMutability": "view",
      "type": "function",
      "constant": true
    },
    {
      "inputs": [],
      "name": "tokenOwner",
      "outputs": [
        {
          "internalType": "address",
          "name": "",
          "type": "address"
        }
      ],
      "stateMutability": "view",
      "type": "function",
      "constant": true
    },
    {
      "inputs": [],
      "name": "totalSupply",
      "outputs": [
        {
          "internalType": "uint256",
          "name": "",
          "type": "uint256"
        }
      ],
      "stateMutability": "view",
      "type": "function",
      "constant": true
    },
    {
      "inputs": [
        {
          "internalType": "address",
          "name": "recipient",
          "type": "address"
        },
        {
          "internalType": "uint256",
          "name": "amount",
          "type": "uint256"
        }
      ],
      "name": "transfer",
      "outputs": [
        {
          "internalType": "bool",
          "name": "",
          "type": "bool"
        }
      ],
      "stateMutability": "nonpayable",
      "type": "function"
    },
    {
      "inputs": [
        {
          "internalType": "address",
          "name": "sender",
          "type": "address"
        },
        {
          "internalType": "address",
          "name": "recipient",
          "type": "address"
        },
        {
          "internalType": "uint256",
          "name": "amount",
          "type": "uint256"
        }
      ],
      "name": "transferFrom",
      "outputs": [
        {
          "internalType": "bool",
          "name": "",
          "type": "bool"
        }
      ],
      "stateMutability": "nonpayable",
      "type": "function"
    },
    {
      "inputs": [
        {
          "internalType": "address",
          "name": "account",
          "type": "address"
        },
        {
          "internalType": "uint256",
          "name": "amount",
          "type": "uint256"
        }
      ],
      "name": "mint",
      "outputs": [],
      "stateMutability": "nonpayable",
      "type": "function"
    },
    {
      "inputs": [
        {
          "internalType": "address",
          "name": "_tokenOwner",
          "type": "address"
        }
      ],
      "name": "setTokenOwner",
      "outputs": [],
      "stateMutability": "nonpayable",
      "type": "function"
    },
    {
      "inputs": [
        {
          "internalType": "address",
          "name": "_minter",
          "type": "address"
        }
      ],
      "name": "addMinter",
      "outputs": [],
      "stateMutability": "nonpayable",
      "type": "function"
    },
    {
      "inputs": [
        {
          "internalType": "address",
          "name": "_minter",
          "type": "address"
        }
      ],
      "name": "removeMinter",
      "outputs": [],
      "stateMutability": "nonpayable",
      "type": "function"
    },
    {
      "inputs": [
        {
          "internalType": "uint256",
          "name": "amount",
          "type": "uint256"
        }
      ],
      "name": "burn",
      "outputs": [],
      "stateMutability": "nonpayable",
      "type": "function"
    }
  ],
  "bytecode": "0x60806040523480156200001157600080fd5b506040518060400160405280600881526020017f4f7a20546f6b656e0000000000000000000000000000000000000000000000008152506040518060400160405280600381526020017f4f5a54000000000000000000000000000000000000000000000000000000000081525060008260039080519060200190620000989291906200056b565b508160049080519060200190620000b19291906200056b565b5080600560006101000a81548160ff021916908360ff16021790555050505033600560016101000a81548173ffffffffffffffffffffffffffffffffffffffff021916908373ffffffffffffffffffffffffffffffffffffffff16021790555062000144600560019054906101000a900473ffffffffffffffffffffffffffffffffffffffff166200018860201b60201c565b62000182600560019054906101000a900473ffffffffffffffffffffffffffffffffffffffff1669d3c21bcecceda10000006200027660201b60201c565b620009bb565b600560019054906101000a900473ffffffffffffffffffffffffffffffffffffffff1673ffffffffffffffffffffffffffffffffffffffff163373ffffffffffffffffffffffffffffffffffffffff16146200021b576040517f08c379a000000000000000000000000000000000000000000000000000000000815260040162000212906200082c565b60405180910390fd5b6001600660008373ffffffffffffffffffffffffffffffffffffffff1673ffffffffffffffffffffffffffffffffffffffff16815260200190815260200160002060006101000a81548160ff02191690831515021790555050565b600660003373ffffffffffffffffffffffffffffffffffffffff1673ffffffffffffffffffffffffffffffffffffffff16815260200190815260200160002060009054906101000a900460ff1662000305576040517f08c379a0000000000000000000000000000000000000000000000000000000008152600401620002fc9062000870565b60405180910390fd5b6200031782826200031b60201b60201c565b5050565b600073ffffffffffffffffffffffffffffffffffffffff168273ffffffffffffffffffffffffffffffffffffffff1614156200038e576040517f08c379a00000000000000000000000000000000000000000000000000000000081526004016200038590620007e8565b60405180910390fd5b620003aa816002546200050860201b62000bfd1790919060201c565b60028190555069d3c21bcecceda1000000600254111562000402576040517f08c379a0000000000000000000000000000000000000000000000000000000008152600401620003f9906200080a565b60405180910390fd5b6200045a816000808573ffffffffffffffffffffffffffffffffffffffff1673ffffffffffffffffffffffffffffffffffffffff168152602001908152602001600020546200050860201b62000bfd1790919060201c565b6000808473ffffffffffffffffffffffffffffffffffffffff1673ffffffffffffffffffffffffffffffffffffffff168152602001908152602001600020819055508173ffffffffffffffffffffffffffffffffffffffff16600073ffffffffffffffffffffffffffffffffffffffff167fddf252ad1be2c89b69c2b068fc378daa952ba7f163c4a11628f55a4df523b3ef83604051620004fc919062000892565b60405180910390a35050565b6000808284620005199190620008c0565b90508381101562000561576040517f08c379a000000000000000000000000000000000000000000000000000000000815260040162000558906200084e565b60405180910390fd5b8091505092915050565b828054620005799062000927565b90600052602060002090601f0160209004810192826200059d5760008555620005e9565b82601f10620005b857805160ff1916838001178555620005e9565b82800160010185558215620005e9579182015b82811115620005e8578251825591602001919060010190620005cb565b5b509050620005f89190620005fc565b5090565b5b8082111562000617576000816000905550600101620005fd565b5090565b60006200062a602183620008af565b91507f45524332303a206167656e74652061206c6120646972656363696f6e2063657260008301527f6f000000000000000000000000000000000000000000000000000000000000006020830152604082019050919050565b600062000692602983620008af565b91507f5f746f74616c537570706c7920706f72206578636564657220656c206c696d6960008301527f7465206d6178696d6f00000000000000000000000000000000000000000000006020830152604082019050919050565b6000620006fa601883620008af565b91507f53696e207065726d69736f7320657370656369616c65732100000000000000006000830152602082019050919050565b60006200073c602383620008af565b91507f536166654d6174683a20646573626f7264616d69656e746f20656e206c61207360008301527f756d6100000000000000000000000000000000000000000000000000000000006020830152604082019050919050565b6000620007a4600d83620008af565b91507f53696e207065726d69736f7321000000000000000000000000000000000000006000830152602082019050919050565b620007e2816200091d565b82525050565b6000602082019050818103600083015262000803816200061b565b9050919050565b60006020820190508181036000830152620008258162000683565b9050919050565b600060208201905081810360008301526200084781620006eb565b9050919050565b6000602082019050818103600083015262000869816200072d565b9050919050565b600060208201905081810360008301526200088b8162000795565b9050919050565b6000602082019050620008a96000830184620007d7565b92915050565b600082825260208201905092915050565b6000620008cd826200091d565b9150620008da836200091d565b9250827fffffffffffffffffffffffffffffffffffffffffffffffffffffffffffffffff038211156200091257620009116200095d565b5b828201905092915050565b6000819050919050565b600060028204905060018216806200094057607f821691505b602082108114156200095757620009566200098c565b5b50919050565b7f4e487b7100000000000000000000000000000000000000000000000000000000600052601160045260246000fd5b7f4e487b7100000000000000000000000000000000000000000000000000000000600052602260045260246000fd5b611e3a80620009cb6000396000f3fe608060405234801561001057600080fd5b50600436106101165760003560e01c806342966c68116100a2578063a3e6761011610071578063a3e67610146102df578063a457c2d7146102fd578063a9059cbb1461032d578063dd62ed3e1461035d578063f46eccc41461038d57610116565b806342966c681461025957806370a082311461027557806395d89b41146102a5578063983b2d56146102c357610116565b806323b872dd116100e957806323b872dd146101a35780633092afd5146101d3578063313ce567146101ef578063395093511461020d57806340c10f191461023d57610116565b806306fdde031461011b578063095ea7b31461013957806318160ddd1461016957806318e02bd914610187575b600080fd5b6101236103bd565b60405161013091906119b3565b60405180910390f35b610153600480360381019061014e91906114f3565b61044f565b6040516101609190611998565b60405180910390f35b61017161046d565b60405161017e9190611b15565b60405180910390f35b6101a1600480360381019061019c919061143f565b610477565b005b6101bd60048036038101906101b891906114a4565b61054b565b6040516101ca9190611998565b60405180910390f35b6101ed60048036038101906101e8919061143f565b610624565b005b6101f761070f565b6040516102049190611b30565b60405180910390f35b610227600480360381019061022291906114f3565b610726565b6040516102349190611998565b60405180910390f35b610257600480360381019061025291906114f3565b6107d9565b005b610273600480360381019061026e919061152f565b610873565b005b61028f600480360381019061028a919061143f565b610880565b60405161029c9190611b15565b60405180910390f35b6102ad6108c8565b6040516102ba91906119b3565b60405180910390f35b6102dd60048036038101906102d8919061143f565b61095a565b005b6102e7610a45565b6040516102f4919061197d565b60405180910390f35b610317600480360381019061031291906114f3565b610a6b565b6040516103249190611998565b60405180910390f35b610347600480360381019061034291906114f3565b610b38565b6040516103549190611998565b60405180910390f35b61037760048036038101906103729190611468565b610b56565b6040516103849190611b15565b60405180910390f35b6103a760048036038101906103a2919061143f565b610bdd565b6040516103b49190611998565b60405180910390f35b6060600380546103cc90611c79565b80601f01602080910402602001604051908101604052809291908181526020018280546103f890611c79565b80156104455780601f1061041a57610100808354040283529160200191610445565b820191906000526020600020905b81548152906001019060200180831161042857829003601f168201915b5050505050905090565b600061046361045c610c5b565b8484610c63565b6001905092915050565b6000600254905090565b600560019054906101000a900473ffffffffffffffffffffffffffffffffffffffff1673ffffffffffffffffffffffffffffffffffffffff163373ffffffffffffffffffffffffffffffffffffffff1614610507576040517f08c379a00000000000000000000000000000000000000000000000000000000081526004016104fe90611a95565b60405180910390fd5b80600560016101000a81548173ffffffffffffffffffffffffffffffffffffffff021916908373ffffffffffffffffffffffffffffffffffffffff16021790555050565b6000610558848484610e2e565b61061984610564610c5b565b61061485604051806060016040528060388152602001611dcd60389139600160008b73ffffffffffffffffffffffffffffffffffffffff1673ffffffffffffffffffffffffffffffffffffffff16815260200190815260200160002060006105ca610c5b565b73ffffffffffffffffffffffffffffffffffffffff1673ffffffffffffffffffffffffffffffffffffffff1681526020019081526020016000205461100b9092919063ffffffff16565b610c63565b600190509392505050565b600560019054906101000a900473ffffffffffffffffffffffffffffffffffffffff1673ffffffffffffffffffffffffffffffffffffffff163373ffffffffffffffffffffffffffffffffffffffff16146106b4576040517f08c379a00000000000000000000000000000000000000000000000000000000081526004016106ab90611a95565b60405180910390fd5b6000600660008373ffffffffffffffffffffffffffffffffffffffff1673ffffffffffffffffffffffffffffffffffffffff16815260200190815260200160002060006101000a81548160ff02191690831515021790555050565b6000600560009054906101000a900460ff16905090565b60006107cf610733610c5b565b846107ca8560016000610744610c5b565b73ffffffffffffffffffffffffffffffffffffffff1673ffffffffffffffffffffffffffffffffffffffff16815260200190815260200160002060008973ffffffffffffffffffffffffffffffffffffffff1673ffffffffffffffffffffffffffffffffffffffff16815260200190815260200160002054610bfd90919063ffffffff16565b610c63565b6001905092915050565b600660003373ffffffffffffffffffffffffffffffffffffffff1673ffffffffffffffffffffffffffffffffffffffff16815260200190815260200160002060009054906101000a900460ff16610865576040517f08c379a000000000000000000000000000000000000000000000000000000000815260040161085c90611af5565b60405180910390fd5b61086f828261106f565b5050565b61087d3382611246565b50565b60008060008373ffffffffffffffffffffffffffffffffffffffff1673ffffffffffffffffffffffffffffffffffffffff168152602001908152602001600020549050919050565b6060600480546108d790611c79565b80601f016020809104026020016040519081016040528092919081815260200182805461090390611c79565b80156109505780601f1061092557610100808354040283529160200191610950565b820191906000526020600020905b81548152906001019060200180831161093357829003601f168201915b5050505050905090565b600560019054906101000a900473ffffffffffffffffffffffffffffffffffffffff1673ffffffffffffffffffffffffffffffffffffffff163373ffffffffffffffffffffffffffffffffffffffff16146109ea576040517f08c379a00000000000000000000000000000000000000000000000000000000081526004016109e190611a95565b60405180910390fd5b6001600660008373ffffffffffffffffffffffffffffffffffffffff1673ffffffffffffffffffffffffffffffffffffffff16815260200190815260200160002060006101000a81548160ff02191690831515021790555050565b600560019054906101000a900473ffffffffffffffffffffffffffffffffffffffff1681565b6000610b2e610a78610c5b565b84610b2985604051806060016040528060368152602001611d496036913960016000610aa2610c5b565b73ffffffffffffffffffffffffffffffffffffffff1673ffffffffffffffffffffffffffffffffffffffff16815260200190815260200160002060008a73ffffffffffffffffffffffffffffffffffffffff1673ffffffffffffffffffffffffffffffffffffffff1681526020019081526020016000205461100b9092919063ffffffff16565b610c63565b6001905092915050565b6000610b4c610b45610c5b565b8484610e2e565b6001905092915050565b6000600160008473ffffffffffffffffffffffffffffffffffffffff1673ffffffffffffffffffffffffffffffffffffffff16815260200190815260200160002060008373ffffffffffffffffffffffffffffffffffffffff1673ffffffffffffffffffffffffffffffffffffffff16815260200190815260200160002054905092915050565b60066020528060005260406000206000915054906101000a900460ff1681565b6000808284610c0c9190611b67565b905083811015610c51576040517f08c379a0000000000000000000000000000000000000000000000000000000008152600401610c4890611ab5565b60405180910390fd5b8091505092915050565b600033905090565b600073ffffffffffffffffffffffffffffffffffffffff168373ffffffffffffffffffffffffffffffffffffffff161415610cd3576040517f08c379a0000000000000000000000000000000000000000000000000000000008152600401610cca906119f5565b60405180910390fd5b600073ffffffffffffffffffffffffffffffffffffffff168273ffffffffffffffffffffffffffffffffffffffff161415610d43576040517f08c379a0000000000000000000000000000000000000000000000000000000008152600401610d3a90611ad5565b60405180910390fd5b80600160008573ffffffffffffffffffffffffffffffffffffffff1673ffffffffffffffffffffffffffffffffffffffff16815260200190815260200160002060008473ffffffffffffffffffffffffffffffffffffffff1673ffffffffffffffffffffffffffffffffffffffff168152602001908152602001600020819055508173ffffffffffffffffffffffffffffffffffffffff168373ffffffffffffffffffffffffffffffffffffffff167f8c5be1e5ebec7d5bd14f71427d1e84f3dd0314c0f7b2291e5b200ac8c7c3b92583604051610e219190611b15565b60405180910390a3505050565b600073ffffffffffffffffffffffffffffffffffffffff168373ffffffffffffffffffffffffffffffffffffffff161415610e9e576040517f08c379a0000000000000000000000000000000000000000000000000000000008152600401610e9590611a35565b60405180910390fd5b600073ffffffffffffffffffffffffffffffffffffffff168273ffffffffffffffffffffffffffffffffffffffff161415610f0e576040517f08c379a0000000000000000000000000000000000000000000000000000000008152600401610f0590611a15565b60405180910390fd5b610f5f816000808573ffffffffffffffffffffffffffffffffffffffff1673ffffffffffffffffffffffffffffffffffffffff16815260200190815260200160002054610bfd90919063ffffffff16565b6000808473ffffffffffffffffffffffffffffffffffffffff1673ffffffffffffffffffffffffffffffffffffffff168152602001908152602001600020819055508173ffffffffffffffffffffffffffffffffffffffff168373ffffffffffffffffffffffffffffffffffffffff167fddf252ad1be2c89b69c2b068fc378daa952ba7f163c4a11628f55a4df523b3ef83604051610ffe9190611b15565b60405180910390a3505050565b6000838311158290611053576040517f08c379a000000000000000000000000000000000000000000000000000000000815260040161104a91906119b3565b60405180910390fd5b50600083856110629190611bbd565b9050809150509392505050565b600073ffffffffffffffffffffffffffffffffffffffff168273ffffffffffffffffffffffffffffffffffffffff1614156110df576040517f08c379a00000000000000000000000000000000000000000000000000000000081526004016110d6906119d5565b60405180910390fd5b6110f481600254610bfd90919063ffffffff16565b60028190555069d3c21bcecceda10000006002541115611149576040517f08c379a000000000000000000000000000000000000000000000000000000000815260040161114090611a75565b60405180910390fd5b61119a816000808573ffffffffffffffffffffffffffffffffffffffff1673ffffffffffffffffffffffffffffffffffffffff16815260200190815260200160002054610bfd90919063ffffffff16565b6000808473ffffffffffffffffffffffffffffffffffffffff1673ffffffffffffffffffffffffffffffffffffffff168152602001908152602001600020819055508173ffffffffffffffffffffffffffffffffffffffff16600073ffffffffffffffffffffffffffffffffffffffff167fddf252ad1be2c89b69c2b068fc378daa952ba7f163c4a11628f55a4df523b3ef8360405161123a9190611b15565b60405180910390a35050565b600073ffffffffffffffffffffffffffffffffffffffff168273ffffffffffffffffffffffffffffffffffffffff1614156112b6576040517f08c379a00000000000000000000000000000000000000000000000000000000081526004016112ad90611a55565b60405180910390fd5b611321816040518060600160405280602a8152602001611da3602a91396000808673ffffffffffffffffffffffffffffffffffffffff1673ffffffffffffffffffffffffffffffffffffffff1681526020019081526020016000205461100b9092919063ffffffff16565b6000808473ffffffffffffffffffffffffffffffffffffffff1673ffffffffffffffffffffffffffffffffffffffff16815260200190815260200160002081905550611378816002546113e890919063ffffffff16565b600281905550600073ffffffffffffffffffffffffffffffffffffffff168273ffffffffffffffffffffffffffffffffffffffff167fddf252ad1be2c89b69c2b068fc378daa952ba7f163c4a11628f55a4df523b3ef836040516113dc9190611b15565b60405180910390a35050565b600061140d8383604051806060016040528060248152602001611d7f6024913961100b565b905092915050565b60008135905061142481611d1a565b92915050565b60008135905061143981611d31565b92915050565b60006020828403121561145157600080fd5b600061145f84828501611415565b91505092915050565b6000806040838503121561147b57600080fd5b600061148985828601611415565b925050602061149a85828601611415565b9150509250929050565b6000806000606084860312156114b957600080fd5b60006114c786828701611415565b93505060206114d886828701611415565b92505060406114e98682870161142a565b9150509250925092565b6000806040838503121561150657600080fd5b600061151485828601611415565b92505060206115258582860161142a565b9150509250929050565b60006020828403121561154157600080fd5b600061154f8482850161142a565b91505092915050565b61156181611bf1565b82525050565b61157081611c03565b82525050565b600061158182611b4b565b61158b8185611b56565b935061159b818560208601611c46565b6115a481611d09565b840191505092915050565b60006115bc602183611b56565b91507f45524332303a206167656e74652061206c6120646972656363696f6e2063657260008301527f6f000000000000000000000000000000000000000000000000000000000000006020830152604082019050919050565b6000611622602683611b56565b91507f45524332303a206170726f626172206465736465206c6120646972656363696f60008301527f6e206365726f00000000000000000000000000000000000000000000000000006020830152604082019050919050565b6000611688602583611b56565b91507f45524332303a207472616e7366657269722061206c6120646972656363696f6e60008301527f206365726f0000000000000000000000000000000000000000000000000000006020830152604082019050919050565b60006116ee602c83611b56565b91507f45524332303a207472616e73666572656e636961206465736465206c6120646960008301527f72656363696f6e206365726f00000000000000000000000000000000000000006020830152604082019050919050565b6000611754602583611b56565b91507f45524332303a207175656d6172206465736465206c6120646972656363696f6e60008301527f206365726f0000000000000000000000000000000000000000000000000000006020830152604082019050919050565b60006117ba602983611b56565b91507f5f746f74616c537570706c7920706f72206578636564657220656c206c696d6960008301527f7465206d6178696d6f00000000000000000000000000000000000000000000006020830152604082019050919050565b6000611820601883611b56565b91507f53696e207065726d69736f7320657370656369616c65732100000000000000006000830152602082019050919050565b6000611860602383611b56565b91507f536166654d6174683a20646573626f7264616d69656e746f20656e206c61207360008301527f756d6100000000000000000000000000000000000000000000000000000000006020830152604082019050919050565b60006118c6602283611b56565b91507f45524332303a206170726f6261722061206c6120646972656363696f6e20636560008301527f726f0000000000000000000000000000000000000000000000000000000000006020830152604082019050919050565b600061192c600d83611b56565b91507f53696e207065726d69736f7321000000000000000000000000000000000000006000830152602082019050919050565b61196881611c2f565b82525050565b61197781611c39565b82525050565b60006020820190506119926000830184611558565b92915050565b60006020820190506119ad6000830184611567565b92915050565b600060208201905081810360008301526119cd8184611576565b905092915050565b600060208201905081810360008301526119ee816115af565b9050919050565b60006020820190508181036000830152611a0e81611615565b9050919050565b60006020820190508181036000830152611a2e8161167b565b9050919050565b60006020820190508181036000830152611a4e816116e1565b9050919050565b60006020820190508181036000830152611a6e81611747565b9050919050565b60006020820190508181036000830152611a8e816117ad565b9050919050565b60006020820190508181036000830152611aae81611813565b9050919050565b60006020820190508181036000830152611ace81611853565b9050919050565b60006020820190508181036000830152611aee816118b9565b9050919050565b60006020820190508181036000830152611b0e8161191f565b9050919050565b6000602082019050611b2a600083018461195f565b92915050565b6000602082019050611b45600083018461196e565b92915050565b600081519050919050565b600082825260208201905092915050565b6000611b7282611c2f565b9150611b7d83611c2f565b9250827fffffffffffffffffffffffffffffffffffffffffffffffffffffffffffffffff03821115611bb257611bb1611cab565b5b828201905092915050565b6000611bc882611c2f565b9150611bd383611c2f565b925082821015611be657611be5611cab565b5b828203905092915050565b6000611bfc82611c0f565b9050919050565b60008115159050919050565b600073ffffffffffffffffffffffffffffffffffffffff82169050919050565b6000819050919050565b600060ff82169050919050565b60005b83811015611c64578082015181840152602081019050611c49565b83811115611c73576000848401525b50505050565b60006002820490506001821680611c9157607f821691505b60208210811415611ca557611ca4611cda565b5b50919050565b7f4e487b7100000000000000000000000000000000000000000000000000000000600052601160045260246000fd5b7f4e487b7100000000000000000000000000000000000000000000000000000000600052602260045260246000fd5b6000601f19601f8301169050919050565b611d2381611bf1565b8114611d2e57600080fd5b50565b611d3a81611c2f565b8114611d4557600080fd5b5056fe45524332303a206469736d696e7563696f6e206465206c6120617369676e6163696f6e20706f7220646562616a6f206465206365726f536166654d6174683a20646573626f7264616d69656e746f20656e206c6120726573746145524332303a206c612063616e7469646164207175656d6164612065786365646520656c2073616c646f45524332303a20656c206d6f6e746f206465206c61207472616e73666572656e63696120657863656465206c6120617369676e6163696f6ea2646970667358221220bf726b2923bd15ae6fe30fccb91b1193bd48ff8a65bea02e0ed6ce26e2b0bef264736f6c63430008000033",
  "immutableReferences": {},
  "source": "//SPDX-License-Identifier: MIT\r\n/*\r\n* MIT License\r\n* ===========\r\n*/\r\n\r\npragma solidity ^0.8.0;\r\n\r\ninterface IERC20 {\r\n    function totalSupply() external view returns (uint);\r\n    function balanceOf(address account) external view returns (uint);\r\n    function transfer(address recipient, uint amount) external returns (bool);\r\n    function allowance(address owner, address spender) external view returns (uint);\r\n    function approve(address spender, uint amount) external returns (bool);\r\n    function transferFrom(address sender, address recipient, uint amount) external returns (bool);\r\n    event Transfer(address indexed from, address indexed to, uint value);\r\n    event Approval(address indexed owner, address indexed spender, uint value);\r\n}\r\n\r\ncontract Context {\r\n\r\n    function _msgSender() internal view returns (address) {\r\n        return msg.sender;\r\n    }\r\n}\r\n\r\ncontract ERC20 is Context, IERC20 {\r\n    using SafeMath for uint;\r\n\r\n    mapping (address => uint) private _balances;\r\n\r\n    mapping (address => mapping (address => uint)) private _allowances;\r\n\r\n    uint private _totalSupply;\r\n    function totalSupply() public view override returns (uint) {\r\n        return _totalSupply;\r\n    }\r\n    function balanceOf(address account) public view override returns (uint) {\r\n        return _balances[account];\r\n    }\r\n    function transfer(address recipient, uint amount) public override returns (bool) {\r\n        _transfer(_msgSender(), recipient, amount);\r\n        return true;\r\n    }\r\n    function allowance(address owner, address spender) public view override returns (uint) {\r\n        return _allowances[owner][spender];\r\n    }\r\n    function approve(address spender, uint amount) public override returns (bool) {\r\n        _approve(_msgSender(), spender, amount);\r\n        return true;\r\n    }\r\n    function transferFrom(address sender, address recipient, uint amount) public override returns (bool) {\r\n        _transfer(sender, recipient, amount);\r\n        _approve(sender, _msgSender(), _allowances[sender][_msgSender()].sub(amount, \"ERC20: el monto de la transferencia excede la asignacion\"));\r\n        return true;\r\n    }\r\n    function increaseAllowance(address spender, uint addedValue) public returns (bool) {\r\n        _approve(_msgSender(), spender, _allowances[_msgSender()][spender].add(addedValue));\r\n        return true;\r\n    }\r\n    function decreaseAllowance(address spender, uint subtractedValue) public returns (bool) {\r\n        _approve(_msgSender(), spender, _allowances[_msgSender()][spender].sub(subtractedValue, \"ERC20: disminucion de la asignacion por debajo de cero\"));\r\n        return true;\r\n    }\r\n    function _transfer(address sender, address recipient, uint amount) internal {\r\n        require(sender != address(0), \"ERC20: transferencia desde la direccion cero\");\r\n        require(recipient != address(0), \"ERC20: transferir a la direccion cero\");\r\n\r\n        _balances[recipient] = _balances[recipient].add(amount);\r\n        emit Transfer(sender, recipient, amount);\r\n    }\r\n    function _mint(address account, uint amount) internal {\r\n        require(account != address(0), \"ERC20: agente a la direccion cero\");\r\n\r\n        _totalSupply = _totalSupply.add(amount);\r\n        require(_totalSupply <= 1e24, \"_totalSupply por exceder el limite maximo\");\r\n        _balances[account] = _balances[account].add(amount);\r\n        emit Transfer(address(0), account, amount);\r\n    }\r\n    function _burn(address account, uint amount) internal {\r\n        require(account != address(0), \"ERC20: quemar desde la direccion cero\");\r\n\r\n        _balances[account] = _balances[account].sub(amount, \"ERC20: la cantidad quemada excede el saldo\");\r\n        _totalSupply = _totalSupply.sub(amount);\r\n        emit Transfer(account, address(0), amount);\r\n    }\r\n    function _approve(address owner, address spender, uint amount) internal {\r\n        require(owner != address(0), \"ERC20: aprobar desde la direccion cero\");\r\n        require(spender != address(0), \"ERC20: aprobar a la direccion cero\");\r\n\r\n        _allowances[owner][spender] = amount;\r\n        emit Approval(owner, spender, amount);\r\n    }\r\n}\r\n\r\nabstract contract ERC20Detailed is IERC20 {\r\n    string private _name;\r\n    string private _symbol;\r\n    uint8 private _decimals;\r\n\r\n    constructor (string memory name, string memory symbol, uint8 decimals) {\r\n        _name = name;\r\n        _symbol = symbol;\r\n        _decimals = decimals;\r\n    }\r\n    function name() public view returns (string memory) {\r\n        return _name;\r\n    }\r\n    function symbol() public view returns (string memory) {\r\n        return _symbol;\r\n    }\r\n    function decimals() public view returns (uint8) {\r\n        return _decimals;\r\n    }\r\n}\r\n\r\nlibrary SafeMath {\r\n    function add(uint a, uint b) internal pure returns (uint) {\r\n        uint c = a + b;\r\n        require(c >= a, \"SafeMath: desbordamiento en la suma\");\r\n\r\n        return c;\r\n    }\r\n    function sub(uint a, uint b) internal pure returns (uint) {\r\n        return sub(a, b, \"SafeMath: desbordamiento en la resta\");\r\n    }\r\n    function sub(uint a, uint b, string memory errorMessage) internal pure returns (uint) {\r\n        require(b <= a, errorMessage);\r\n        uint c = a - b;\r\n\r\n        return c;\r\n    }\r\n    function mul(uint a, uint b) internal pure returns (uint) {\r\n        if (a == 0) {\r\n            return 0;\r\n        }\r\n\r\n        uint c = a * b;\r\n        require(c / a == b, \"SafeMath: desbordamiento en el producto\");\r\n\r\n        return c;\r\n    }\r\n    function div(uint a, uint b) internal pure returns (uint) {\r\n        return div(a, b, \"SafeMath: division por cero\");\r\n    }\r\n    function div(uint a, uint b, string memory errorMessage) internal pure returns (uint) {\r\n        require(b > 0, errorMessage);\r\n        uint c = a / b;\r\n\r\n        return c;\r\n    }\r\n}\r\n\r\nlibrary Address {\r\n    function isContract(address account) internal view returns (bool) {\r\n        bytes32 codehash;\r\n        bytes32 accountHash = 0xc5d2460186f7233c927e7db2dcc703c0e500b653ca82273b7bfad8045d85a470; //keccack256 hash of empty data\r\n        assembly { codehash := extcodehash(account) }\r\n        return (codehash != 0x0 && codehash != accountHash);\r\n    }\r\n}\r\n\r\nlibrary SafeERC20 {\r\n    using SafeMath for uint;\r\n    using Address for address;\r\n\r\n    function safeTransfer(IERC20 token, address to, uint value) internal {\r\n        callOptionalReturn(token, abi.encodeWithSelector(token.transfer.selector, to, value));\r\n    }\r\n\r\n    function safeTransferFrom(IERC20 token, address from, address to, uint value) internal {\r\n        callOptionalReturn(token, abi.encodeWithSelector(token.transferFrom.selector, from, to, value));\r\n    }\r\n\r\n    function safeApprove(IERC20 token, address spender, uint value) internal {\r\n        require((value == 0) || (token.allowance(address(this), spender) == 0),\r\n            \"SafeERC20: error de aprobacion invalida\"\r\n        );\r\n        callOptionalReturn(token, abi.encodeWithSelector(token.approve.selector, spender, value));\r\n    }\r\n    function callOptionalReturn(IERC20 token, bytes memory data) private {\r\n        require(address(token).isContract(), \"SafeERC20: llamada a un contrato invalido\");\r\n        (bool success, bytes memory returndata) = address(token).call(data);\r\n        require(success, \"SafeERC20: falla en la llamada del contrato\");\r\n\r\n        if (returndata.length > 0) {\r\n            require(abi.decode(returndata, (bool)), \"SafeERC20: ERC20 la operacion no tuvo exito\");\r\n        }\r\n    }\r\n}\r\n\r\ncontract OzToken is ERC20, ERC20Detailed {\r\n    using SafeERC20 for IERC20;\r\n    using Address for address;\r\n    using SafeMath for uint;\r\n\r\n\r\n    address public tokenOwner;\r\n    mapping (address => bool) public minters;\r\n\r\n    constructor () public ERC20Detailed(\"Oz Token\", \"OZT\", 0) {\r\n        tokenOwner = msg.sender;\r\n        addMinter(tokenOwner);\r\n        mint(tokenOwner, 1e24);\r\n    }\r\n\r\n    function mint(address account, uint amount) public {\r\n        require(minters[msg.sender], \"Sin permisos!\");\r\n        _mint(account, amount);\r\n    }\r\n\r\n    function setTokenOwner(address _tokenOwner) public {\r\n        require(msg.sender == tokenOwner, \"Sin permisos especiales!\");\r\n        tokenOwner = _tokenOwner;\r\n    }\r\n\r\n    function addMinter(address _minter) public {\r\n        require(msg.sender == tokenOwner, \"Sin permisos especiales!\");\r\n        minters[_minter] = true;\r\n    }\r\n\r\n    function removeMinter(address _minter) public {\r\n        require(msg.sender == tokenOwner, \"Sin permisos especiales!\");\r\n        minters[_minter] = false;\r\n    }\r\n\r\n    function burn(uint256 amount) public {\r\n        _burn(msg.sender, amount);\r\n    }\r\n}",
  "sourcePath": "/home/miki_mustard/Desktop/Personal/Facultad/tdl/nuevo-tdl/teoria-del-lenguaje/truffle-project/contracts/ozToken.sol",
  "compiler": {
    "name": "solc",
    "version": "0.8.0+commit.c7dfd78e.Emscripten.clang"
  },
  "schemaVersion": "3.4.1",
  "updatedAt": "2021-06-26T19:18:37.289Z",
  "networkType": "ethereum",
  "devdoc": {
    "kind": "dev",
    "methods": {},
    "version": 1
  },
  "userdoc": {
    "kind": "user",
    "methods": {},
    "version": 1
  }
}