{
  "contractName": "OzToken",
  "abi": [
    {
      "inputs": [],
      "stateMutability": "nonpayable",
      "type": "constructor"
    },
    {
      "anonymous": false,
      "inputs": [
        {
          "indexed": true,
          "internalType": "address",
          "name": "owner",
          "type": "address"
        },
        {
          "indexed": true,
          "internalType": "address",
          "name": "spender",
          "type": "address"
        },
        {
          "indexed": false,
          "internalType": "uint256",
          "name": "value",
          "type": "uint256"
        }
      ],
      "name": "Approval",
      "type": "event"
    },
    {
      "anonymous": false,
      "inputs": [
        {
          "indexed": true,
          "internalType": "address",
          "name": "from",
          "type": "address"
        },
        {
          "indexed": true,
          "internalType": "address",
          "name": "to",
          "type": "address"
        },
        {
          "indexed": false,
          "internalType": "uint256",
          "name": "value",
          "type": "uint256"
        }
      ],
      "name": "Transfer",
      "type": "event"
    },
    {
      "inputs": [
        {
          "internalType": "address",
          "name": "owner",
          "type": "address"
        },
        {
          "internalType": "address",
          "name": "spender",
          "type": "address"
        }
      ],
      "name": "allowance",
      "outputs": [
        {
          "internalType": "uint256",
          "name": "",
          "type": "uint256"
        }
      ],
      "stateMutability": "view",
      "type": "function",
      "constant": true
    },
    {
      "inputs": [
        {
          "internalType": "address",
          "name": "spender",
          "type": "address"
        },
        {
          "internalType": "uint256",
          "name": "amount",
          "type": "uint256"
        }
      ],
      "name": "approve",
      "outputs": [
        {
          "internalType": "bool",
          "name": "",
          "type": "bool"
        }
      ],
      "stateMutability": "nonpayable",
      "type": "function"
    },
    {
      "inputs": [
        {
          "internalType": "address",
          "name": "account",
          "type": "address"
        }
      ],
      "name": "balanceOf",
      "outputs": [
        {
          "internalType": "uint256",
          "name": "",
          "type": "uint256"
        }
      ],
      "stateMutability": "view",
      "type": "function",
      "constant": true
    },
    {
      "inputs": [],
      "name": "decimals",
      "outputs": [
        {
          "internalType": "uint8",
          "name": "",
          "type": "uint8"
        }
      ],
      "stateMutability": "view",
      "type": "function",
      "constant": true
    },
    {
      "inputs": [
        {
          "internalType": "address",
          "name": "spender",
          "type": "address"
        },
        {
          "internalType": "uint256",
          "name": "subtractedValue",
          "type": "uint256"
        }
      ],
      "name": "decreaseAllowance",
      "outputs": [
        {
          "internalType": "bool",
          "name": "",
          "type": "bool"
        }
      ],
      "stateMutability": "nonpayable",
      "type": "function"
    },
    {
      "inputs": [
        {
          "internalType": "address",
          "name": "spender",
          "type": "address"
        },
        {
          "internalType": "uint256",
          "name": "addedValue",
          "type": "uint256"
        }
      ],
      "name": "increaseAllowance",
      "outputs": [
        {
          "internalType": "bool",
          "name": "",
          "type": "bool"
        }
      ],
      "stateMutability": "nonpayable",
      "type": "function"
    },
    {
      "inputs": [
        {
          "internalType": "address",
          "name": "",
          "type": "address"
        }
      ],
      "name": "minters",
      "outputs": [
        {
          "internalType": "bool",
          "name": "",
          "type": "bool"
        }
      ],
      "stateMutability": "view",
      "type": "function",
      "constant": true
    },
    {
      "inputs": [],
      "name": "name",
      "outputs": [
        {
          "internalType": "string",
          "name": "",
          "type": "string"
        }
      ],
      "stateMutability": "view",
      "type": "function",
      "constant": true
    },
    {
      "inputs": [],
      "name": "symbol",
      "outputs": [
        {
          "internalType": "string",
          "name": "",
          "type": "string"
        }
      ],
      "stateMutability": "view",
      "type": "function",
      "constant": true
    },
    {
      "inputs": [],
      "name": "tokenOwner",
      "outputs": [
        {
          "internalType": "address",
          "name": "",
          "type": "address"
        }
      ],
      "stateMutability": "view",
      "type": "function",
      "constant": true
    },
    {
      "inputs": [],
      "name": "totalSupply",
      "outputs": [
        {
          "internalType": "uint256",
          "name": "",
          "type": "uint256"
        }
      ],
      "stateMutability": "view",
      "type": "function",
      "constant": true
    },
    {
      "inputs": [
        {
          "internalType": "address",
          "name": "recipient",
          "type": "address"
        },
        {
          "internalType": "uint256",
          "name": "amount",
          "type": "uint256"
        }
      ],
      "name": "transfer",
      "outputs": [
        {
          "internalType": "bool",
          "name": "",
          "type": "bool"
        }
      ],
      "stateMutability": "nonpayable",
      "type": "function"
    },
    {
      "inputs": [
        {
          "internalType": "address",
          "name": "sender",
          "type": "address"
        },
        {
          "internalType": "address",
          "name": "recipient",
          "type": "address"
        },
        {
          "internalType": "uint256",
          "name": "amount",
          "type": "uint256"
        }
      ],
      "name": "transferFrom",
      "outputs": [
        {
          "internalType": "bool",
          "name": "",
          "type": "bool"
        }
      ],
      "stateMutability": "nonpayable",
      "type": "function"
    },
    {
      "inputs": [
        {
          "internalType": "address",
          "name": "account",
          "type": "address"
        },
        {
          "internalType": "uint256",
          "name": "amount",
          "type": "uint256"
        }
      ],
      "name": "mint",
      "outputs": [],
      "stateMutability": "nonpayable",
      "type": "function"
    },
    {
      "inputs": [
        {
          "internalType": "address",
          "name": "_tokenOwner",
          "type": "address"
        }
      ],
      "name": "setTokenOwner",
      "outputs": [],
      "stateMutability": "nonpayable",
      "type": "function"
    },
    {
      "inputs": [
        {
          "internalType": "address",
          "name": "_minter",
          "type": "address"
        }
      ],
      "name": "addMinter",
      "outputs": [],
      "stateMutability": "nonpayable",
      "type": "function"
    },
    {
      "inputs": [
        {
          "internalType": "address",
          "name": "_minter",
          "type": "address"
        }
      ],
      "name": "removeMinter",
      "outputs": [],
      "stateMutability": "nonpayable",
      "type": "function"
    },
    {
      "inputs": [
        {
          "internalType": "uint256",
          "name": "amount",
          "type": "uint256"
        }
      ],
      "name": "burn",
      "outputs": [],
      "stateMutability": "nonpayable",
      "type": "function"
    }
  ],
  "bytecode": "0x60806040523480156200001157600080fd5b506040518060400160405280600881526020017f4f7a20546f6b656e0000000000000000000000000000000000000000000000008152506040518060400160405280600381526020017f4f5a54000000000000000000000000000000000000000000000000000000000081525060008260039080519060200190620000989291906200056b565b508160049080519060200190620000b19291906200056b565b5080600560006101000a81548160ff021916908360ff16021790555050505033600560016101000a81548173ffffffffffffffffffffffffffffffffffffffff021916908373ffffffffffffffffffffffffffffffffffffffff16021790555062000144600560019054906101000a900473ffffffffffffffffffffffffffffffffffffffff166200018860201b60201c565b62000182600560019054906101000a900473ffffffffffffffffffffffffffffffffffffffff1669d3c21bcecceda10000006200027660201b60201c565b620009bb565b600560019054906101000a900473ffffffffffffffffffffffffffffffffffffffff1673ffffffffffffffffffffffffffffffffffffffff163373ffffffffffffffffffffffffffffffffffffffff16146200021b576040517f08c379a000000000000000000000000000000000000000000000000000000000815260040162000212906200082c565b60405180910390fd5b6001600660008373ffffffffffffffffffffffffffffffffffffffff1673ffffffffffffffffffffffffffffffffffffffff16815260200190815260200160002060006101000a81548160ff02191690831515021790555050565b600660003373ffffffffffffffffffffffffffffffffffffffff1673ffffffffffffffffffffffffffffffffffffffff16815260200190815260200160002060009054906101000a900460ff1662000305576040517f08c379a0000000000000000000000000000000000000000000000000000000008152600401620002fc9062000870565b60405180910390fd5b6200031782826200031b60201b60201c565b5050565b600073ffffffffffffffffffffffffffffffffffffffff168273ffffffffffffffffffffffffffffffffffffffff1614156200038e576040517f08c379a00000000000000000000000000000000000000000000000000000000081526004016200038590620007e8565b60405180910390fd5b620003aa816002546200050860201b62000b3c1790919060201c565b60028190555069d3c21bcecceda1000000600254111562000402576040517f08c379a0000000000000000000000000000000000000000000000000000000008152600401620003f9906200080a565b60405180910390fd5b6200045a816000808573ffffffffffffffffffffffffffffffffffffffff1673ffffffffffffffffffffffffffffffffffffffff168152602001908152602001600020546200050860201b62000b3c1790919060201c565b6000808473ffffffffffffffffffffffffffffffffffffffff1673ffffffffffffffffffffffffffffffffffffffff168152602001908152602001600020819055508173ffffffffffffffffffffffffffffffffffffffff16600073ffffffffffffffffffffffffffffffffffffffff167fddf252ad1be2c89b69c2b068fc378daa952ba7f163c4a11628f55a4df523b3ef83604051620004fc919062000892565b60405180910390a35050565b6000808284620005199190620008c0565b90508381101562000561576040517f08c379a000000000000000000000000000000000000000000000000000000000815260040162000558906200084e565b60405180910390fd5b8091505092915050565b828054620005799062000927565b90600052602060002090601f0160209004810192826200059d5760008555620005e9565b82601f10620005b857805160ff1916838001178555620005e9565b82800160010185558215620005e9579182015b82811115620005e8578251825591602001919060010190620005cb565b5b509050620005f89190620005fc565b5090565b5b8082111562000617576000816000905550600101620005fd565b5090565b60006200062a602183620008af565b91507f45524332303a206167656e74652061206c6120646972656363696f6e2063657260008301527f6f000000000000000000000000000000000000000000000000000000000000006020830152604082019050919050565b600062000692602983620008af565b91507f5f746f74616c537570706c7920706f72206578636564657220656c206c696d6960008301527f7465206d6178696d6f00000000000000000000000000000000000000000000006020830152604082019050919050565b6000620006fa601883620008af565b91507f53696e207065726d69736f7320657370656369616c65732100000000000000006000830152602082019050919050565b60006200073c602383620008af565b91507f536166654d6174683a20646573626f7264616d69656e746f20656e206c61207360008301527f756d6100000000000000000000000000000000000000000000000000000000006020830152604082019050919050565b6000620007a4600d83620008af565b91507f53696e207065726d69736f7321000000000000000000000000000000000000006000830152602082019050919050565b620007e2816200091d565b82525050565b6000602082019050818103600083015262000803816200061b565b9050919050565b60006020820190508181036000830152620008258162000683565b9050919050565b600060208201905081810360008301526200084781620006eb565b9050919050565b6000602082019050818103600083015262000869816200072d565b9050919050565b600060208201905081810360008301526200088b8162000795565b9050919050565b6000602082019050620008a96000830184620007d7565b92915050565b600082825260208201905092915050565b6000620008cd826200091d565b9150620008da836200091d565b9250827fffffffffffffffffffffffffffffffffffffffffffffffffffffffffffffffff038211156200091257620009116200095d565b5b828201905092915050565b6000819050919050565b600060028204905060018216806200094057607f821691505b602082108114156200095757620009566200098c565b5b50919050565b7f4e487b7100000000000000000000000000000000000000000000000000000000600052601160045260246000fd5b7f4e487b7100000000000000000000000000000000000000000000000000000000600052602260045260246000fd5b611e2180620009cb6000396000f3fe608060405234801561001057600080fd5b50600436106101165760003560e01c806342966c68116100a2578063a3e6761011610071578063a3e67610146102df578063a457c2d7146102fd578063a9059cbb1461032d578063dd62ed3e1461035d578063f46eccc41461038d57610116565b806342966c681461025957806370a082311461027557806395d89b41146102a5578063983b2d56146102c357610116565b806323b872dd116100e957806323b872dd146101a35780633092afd5146101d3578063313ce567146101ef578063395093511461020d57806340c10f191461023d57610116565b806306fdde031461011b578063095ea7b31461013957806318160ddd1461016957806318e02bd914610187575b600080fd5b6101236103bd565b604051610130919061199f565b60405180910390f35b610153600480360381019061014e91906114df565b61044f565b6040516101609190611984565b60405180910390f35b61017161046d565b60405161017e9190611b01565b60405180910390f35b6101a1600480360381019061019c919061142b565b610477565b005b6101bd60048036038101906101b89190611490565b61054b565b6040516101ca9190611984565b60405180910390f35b6101ed60048036038101906101e8919061142b565b610563565b005b6101f761064e565b6040516102049190611b1c565b60405180910390f35b610227600480360381019061022291906114df565b610665565b6040516102349190611984565b60405180910390f35b610257600480360381019061025291906114df565b610718565b005b610273600480360381019061026e919061151b565b6107b2565b005b61028f600480360381019061028a919061142b565b6107bf565b60405161029c9190611b01565b60405180910390f35b6102ad610807565b6040516102ba919061199f565b60405180910390f35b6102dd60048036038101906102d8919061142b565b610899565b005b6102e7610984565b6040516102f49190611969565b60405180910390f35b610317600480360381019061031291906114df565b6109aa565b6040516103249190611984565b60405180910390f35b610347600480360381019061034291906114df565b610a77565b6040516103549190611984565b60405180910390f35b61037760048036038101906103729190611454565b610a95565b6040516103849190611b01565b60405180910390f35b6103a760048036038101906103a2919061142b565b610b1c565b6040516103b49190611984565b60405180910390f35b6060600380546103cc90611c65565b80601f01602080910402602001604051908101604052809291908181526020018280546103f890611c65565b80156104455780601f1061041a57610100808354040283529160200191610445565b820191906000526020600020905b81548152906001019060200180831161042857829003601f168201915b5050505050905090565b600061046361045c610b9a565b8484610ba2565b6001905092915050565b6000600254905090565b600560019054906101000a900473ffffffffffffffffffffffffffffffffffffffff1673ffffffffffffffffffffffffffffffffffffffff163373ffffffffffffffffffffffffffffffffffffffff1614610507576040517f08c379a00000000000000000000000000000000000000000000000000000000081526004016104fe90611a81565b60405180910390fd5b80600560016101000a81548173ffffffffffffffffffffffffffffffffffffffff021916908373ffffffffffffffffffffffffffffffffffffffff16021790555050565b6000610558848484610d6d565b600190509392505050565b600560019054906101000a900473ffffffffffffffffffffffffffffffffffffffff1673ffffffffffffffffffffffffffffffffffffffff163373ffffffffffffffffffffffffffffffffffffffff16146105f3576040517f08c379a00000000000000000000000000000000000000000000000000000000081526004016105ea90611a81565b60405180910390fd5b6000600660008373ffffffffffffffffffffffffffffffffffffffff1673ffffffffffffffffffffffffffffffffffffffff16815260200190815260200160002060006101000a81548160ff02191690831515021790555050565b6000600560009054906101000a900460ff16905090565b600061070e610672610b9a565b846107098560016000610683610b9a565b73ffffffffffffffffffffffffffffffffffffffff1673ffffffffffffffffffffffffffffffffffffffff16815260200190815260200160002060008973ffffffffffffffffffffffffffffffffffffffff1673ffffffffffffffffffffffffffffffffffffffff16815260200190815260200160002054610b3c90919063ffffffff16565b610ba2565b6001905092915050565b600660003373ffffffffffffffffffffffffffffffffffffffff1673ffffffffffffffffffffffffffffffffffffffff16815260200190815260200160002060009054906101000a900460ff166107a4576040517f08c379a000000000000000000000000000000000000000000000000000000000815260040161079b90611ae1565b60405180910390fd5b6107ae8282610ff7565b5050565b6107bc33826111ce565b50565b60008060008373ffffffffffffffffffffffffffffffffffffffff1673ffffffffffffffffffffffffffffffffffffffff168152602001908152602001600020549050919050565b60606004805461081690611c65565b80601f016020809104026020016040519081016040528092919081815260200182805461084290611c65565b801561088f5780601f106108645761010080835404028352916020019161088f565b820191906000526020600020905b81548152906001019060200180831161087257829003601f168201915b5050505050905090565b600560019054906101000a900473ffffffffffffffffffffffffffffffffffffffff1673ffffffffffffffffffffffffffffffffffffffff163373ffffffffffffffffffffffffffffffffffffffff1614610929576040517f08c379a000000000000000000000000000000000000000000000000000000000815260040161092090611a81565b60405180910390fd5b6001600660008373ffffffffffffffffffffffffffffffffffffffff1673ffffffffffffffffffffffffffffffffffffffff16815260200190815260200160002060006101000a81548160ff02191690831515021790555050565b600560019054906101000a900473ffffffffffffffffffffffffffffffffffffffff1681565b6000610a6d6109b7610b9a565b84610a6885604051806060016040528060368152602001611d3560369139600160006109e1610b9a565b73ffffffffffffffffffffffffffffffffffffffff1673ffffffffffffffffffffffffffffffffffffffff16815260200190815260200160002060008a73ffffffffffffffffffffffffffffffffffffffff1673ffffffffffffffffffffffffffffffffffffffff168152602001908152602001600020546113709092919063ffffffff16565b610ba2565b6001905092915050565b6000610a8b610a84610b9a565b8484610d6d565b6001905092915050565b6000600160008473ffffffffffffffffffffffffffffffffffffffff1673ffffffffffffffffffffffffffffffffffffffff16815260200190815260200160002060008373ffffffffffffffffffffffffffffffffffffffff1673ffffffffffffffffffffffffffffffffffffffff16815260200190815260200160002054905092915050565b60066020528060005260406000206000915054906101000a900460ff1681565b6000808284610b4b9190611b53565b905083811015610b90576040517f08c379a0000000000000000000000000000000000000000000000000000000008152600401610b8790611aa1565b60405180910390fd5b8091505092915050565b600033905090565b600073ffffffffffffffffffffffffffffffffffffffff168373ffffffffffffffffffffffffffffffffffffffff161415610c12576040517f08c379a0000000000000000000000000000000000000000000000000000000008152600401610c09906119e1565b60405180910390fd5b600073ffffffffffffffffffffffffffffffffffffffff168273ffffffffffffffffffffffffffffffffffffffff161415610c82576040517f08c379a0000000000000000000000000000000000000000000000000000000008152600401610c7990611ac1565b60405180910390fd5b80600160008573ffffffffffffffffffffffffffffffffffffffff1673ffffffffffffffffffffffffffffffffffffffff16815260200190815260200160002060008473ffffffffffffffffffffffffffffffffffffffff1673ffffffffffffffffffffffffffffffffffffffff168152602001908152602001600020819055508173ffffffffffffffffffffffffffffffffffffffff168373ffffffffffffffffffffffffffffffffffffffff167f8c5be1e5ebec7d5bd14f71427d1e84f3dd0314c0f7b2291e5b200ac8c7c3b92583604051610d609190611b01565b60405180910390a3505050565b600073ffffffffffffffffffffffffffffffffffffffff168373ffffffffffffffffffffffffffffffffffffffff161415610ddd576040517f08c379a0000000000000000000000000000000000000000000000000000000008152600401610dd490611a21565b60405180910390fd5b600073ffffffffffffffffffffffffffffffffffffffff168273ffffffffffffffffffffffffffffffffffffffff161415610e4d576040517f08c379a0000000000000000000000000000000000000000000000000000000008152600401610e4490611a01565b60405180910390fd5b610eb881604051806060016040528060338152602001611db9603391396000808773ffffffffffffffffffffffffffffffffffffffff1673ffffffffffffffffffffffffffffffffffffffff168152602001908152602001600020546113709092919063ffffffff16565b6000808573ffffffffffffffffffffffffffffffffffffffff1673ffffffffffffffffffffffffffffffffffffffff16815260200190815260200160002081905550610f4b816000808573ffffffffffffffffffffffffffffffffffffffff1673ffffffffffffffffffffffffffffffffffffffff16815260200190815260200160002054610b3c90919063ffffffff16565b6000808473ffffffffffffffffffffffffffffffffffffffff1673ffffffffffffffffffffffffffffffffffffffff168152602001908152602001600020819055508173ffffffffffffffffffffffffffffffffffffffff168373ffffffffffffffffffffffffffffffffffffffff167fddf252ad1be2c89b69c2b068fc378daa952ba7f163c4a11628f55a4df523b3ef83604051610fea9190611b01565b60405180910390a3505050565b600073ffffffffffffffffffffffffffffffffffffffff168273ffffffffffffffffffffffffffffffffffffffff161415611067576040517f08c379a000000000000000000000000000000000000000000000000000000000815260040161105e906119c1565b60405180910390fd5b61107c81600254610b3c90919063ffffffff16565b60028190555069d3c21bcecceda100000060025411156110d1576040517f08c379a00000000000000000000000000000000000000000000000000000000081526004016110c890611a61565b60405180910390fd5b611122816000808573ffffffffffffffffffffffffffffffffffffffff1673ffffffffffffffffffffffffffffffffffffffff16815260200190815260200160002054610b3c90919063ffffffff16565b6000808473ffffffffffffffffffffffffffffffffffffffff1673ffffffffffffffffffffffffffffffffffffffff168152602001908152602001600020819055508173ffffffffffffffffffffffffffffffffffffffff16600073ffffffffffffffffffffffffffffffffffffffff167fddf252ad1be2c89b69c2b068fc378daa952ba7f163c4a11628f55a4df523b3ef836040516111c29190611b01565b60405180910390a35050565b600073ffffffffffffffffffffffffffffffffffffffff168273ffffffffffffffffffffffffffffffffffffffff16141561123e576040517f08c379a000000000000000000000000000000000000000000000000000000000815260040161123590611a41565b60405180910390fd5b6112a9816040518060600160405280602a8152602001611d8f602a91396000808673ffffffffffffffffffffffffffffffffffffffff1673ffffffffffffffffffffffffffffffffffffffff168152602001908152602001600020546113709092919063ffffffff16565b6000808473ffffffffffffffffffffffffffffffffffffffff1673ffffffffffffffffffffffffffffffffffffffff16815260200190815260200160002081905550611300816002546113d490919063ffffffff16565b600281905550600073ffffffffffffffffffffffffffffffffffffffff168273ffffffffffffffffffffffffffffffffffffffff167fddf252ad1be2c89b69c2b068fc378daa952ba7f163c4a11628f55a4df523b3ef836040516113649190611b01565b60405180910390a35050565b60008383111582906113b8576040517f08c379a00000000000000000000000000000000000000000000000000000000081526004016113af919061199f565b60405180910390fd5b50600083856113c79190611ba9565b9050809150509392505050565b60006113f98383604051806060016040528060248152602001611d6b60249139611370565b905092915050565b60008135905061141081611d06565b92915050565b60008135905061142581611d1d565b92915050565b60006020828403121561143d57600080fd5b600061144b84828501611401565b91505092915050565b6000806040838503121561146757600080fd5b600061147585828601611401565b925050602061148685828601611401565b9150509250929050565b6000806000606084860312156114a557600080fd5b60006114b386828701611401565b93505060206114c486828701611401565b92505060406114d586828701611416565b9150509250925092565b600080604083850312156114f257600080fd5b600061150085828601611401565b925050602061151185828601611416565b9150509250929050565b60006020828403121561152d57600080fd5b600061153b84828501611416565b91505092915050565b61154d81611bdd565b82525050565b61155c81611bef565b82525050565b600061156d82611b37565b6115778185611b42565b9350611587818560208601611c32565b61159081611cf5565b840191505092915050565b60006115a8602183611b42565b91507f45524332303a206167656e74652061206c6120646972656363696f6e2063657260008301527f6f000000000000000000000000000000000000000000000000000000000000006020830152604082019050919050565b600061160e602683611b42565b91507f45524332303a206170726f626172206465736465206c6120646972656363696f60008301527f6e206365726f00000000000000000000000000000000000000000000000000006020830152604082019050919050565b6000611674602583611b42565b91507f45524332303a207472616e7366657269722061206c6120646972656363696f6e60008301527f206365726f0000000000000000000000000000000000000000000000000000006020830152604082019050919050565b60006116da602c83611b42565b91507f45524332303a207472616e73666572656e636961206465736465206c6120646960008301527f72656363696f6e206365726f00000000000000000000000000000000000000006020830152604082019050919050565b6000611740602583611b42565b91507f45524332303a207175656d6172206465736465206c6120646972656363696f6e60008301527f206365726f0000000000000000000000000000000000000000000000000000006020830152604082019050919050565b60006117a6602983611b42565b91507f5f746f74616c537570706c7920706f72206578636564657220656c206c696d6960008301527f7465206d6178696d6f00000000000000000000000000000000000000000000006020830152604082019050919050565b600061180c601883611b42565b91507f53696e207065726d69736f7320657370656369616c65732100000000000000006000830152602082019050919050565b600061184c602383611b42565b91507f536166654d6174683a20646573626f7264616d69656e746f20656e206c61207360008301527f756d6100000000000000000000000000000000000000000000000000000000006020830152604082019050919050565b60006118b2602283611b42565b91507f45524332303a206170726f6261722061206c6120646972656363696f6e20636560008301527f726f0000000000000000000000000000000000000000000000000000000000006020830152604082019050919050565b6000611918600d83611b42565b91507f53696e207065726d69736f7321000000000000000000000000000000000000006000830152602082019050919050565b61195481611c1b565b82525050565b61196381611c25565b82525050565b600060208201905061197e6000830184611544565b92915050565b60006020820190506119996000830184611553565b92915050565b600060208201905081810360008301526119b98184611562565b905092915050565b600060208201905081810360008301526119da8161159b565b9050919050565b600060208201905081810360008301526119fa81611601565b9050919050565b60006020820190508181036000830152611a1a81611667565b9050919050565b60006020820190508181036000830152611a3a816116cd565b9050919050565b60006020820190508181036000830152611a5a81611733565b9050919050565b60006020820190508181036000830152611a7a81611799565b9050919050565b60006020820190508181036000830152611a9a816117ff565b9050919050565b60006020820190508181036000830152611aba8161183f565b9050919050565b60006020820190508181036000830152611ada816118a5565b9050919050565b60006020820190508181036000830152611afa8161190b565b9050919050565b6000602082019050611b16600083018461194b565b92915050565b6000602082019050611b31600083018461195a565b92915050565b600081519050919050565b600082825260208201905092915050565b6000611b5e82611c1b565b9150611b6983611c1b565b9250827fffffffffffffffffffffffffffffffffffffffffffffffffffffffffffffffff03821115611b9e57611b9d611c97565b5b828201905092915050565b6000611bb482611c1b565b9150611bbf83611c1b565b925082821015611bd257611bd1611c97565b5b828203905092915050565b6000611be882611bfb565b9050919050565b60008115159050919050565b600073ffffffffffffffffffffffffffffffffffffffff82169050919050565b6000819050919050565b600060ff82169050919050565b60005b83811015611c50578082015181840152602081019050611c35565b83811115611c5f576000848401525b50505050565b60006002820490506001821680611c7d57607f821691505b60208210811415611c9157611c90611cc6565b5b50919050565b7f4e487b7100000000000000000000000000000000000000000000000000000000600052601160045260246000fd5b7f4e487b7100000000000000000000000000000000000000000000000000000000600052602260045260246000fd5b6000601f19601f8301169050919050565b611d0f81611bdd565b8114611d1a57600080fd5b50565b611d2681611c1b565b8114611d3157600080fd5b5056fe45524332303a206469736d696e7563696f6e206465206c6120617369676e6163696f6e20706f7220646562616a6f206465206365726f536166654d6174683a20646573626f7264616d69656e746f20656e206c6120726573746145524332303a206c612063616e7469646164207175656d6164612065786365646520656c2073616c646f45524332303a20656c206d6f6e746f206465206c61207472616e73666572656e6369612065786365646520656c2073616c646fa26469706673582212205053202569a45d034fe3f9094dad2c02d7d12555d849ea3213190dad7e24d18664736f6c63430008000033",
  "immutableReferences": {},
  "source": "//SPDX-License-Identifier: MIT\r\n/*\r\n* MIT License\r\n* ===========\r\n*/\r\n\r\npragma solidity ^0.8.0;\r\n\r\ninterface IERC20 {\r\n    function totalSupply() external view returns (uint);\r\n    function balanceOf(address account) external view returns (uint);\r\n    function transfer(address recipient, uint amount) external returns (bool);\r\n    function allowance(address owner, address spender) external view returns (uint);\r\n    function approve(address spender, uint amount) external returns (bool);\r\n    function transferFrom(address sender, address recipient, uint amount) external returns (bool);\r\n    event Transfer(address indexed from, address indexed to, uint value);\r\n    event Approval(address indexed owner, address indexed spender, uint value);\r\n}\r\n\r\ncontract Context {\r\n\r\n    function _msgSender() internal view returns (address) {\r\n        return msg.sender;\r\n    }\r\n}\r\n\r\ncontract ERC20 is Context, IERC20 {\r\n    using SafeMath for uint;\r\n\r\n    mapping (address => uint) private _balances;\r\n\r\n    mapping (address => mapping (address => uint)) private _allowances;\r\n\r\n    uint private _totalSupply;\r\n    function totalSupply() public view override returns (uint) {\r\n        return _totalSupply;\r\n    }\r\n    function balanceOf(address account) public view override returns (uint) {\r\n        return _balances[account];\r\n    }\r\n    function transfer(address recipient, uint amount) public override returns (bool) {\r\n        _transfer(_msgSender(), recipient, amount);\r\n        return true;\r\n    }\r\n    function allowance(address owner, address spender) public view override returns (uint) {\r\n        return _allowances[owner][spender];\r\n    }\r\n    function approve(address spender, uint amount) public override returns (bool) {\r\n        _approve(_msgSender(), spender, amount);\r\n        return true;\r\n    }\r\n    function transferFrom(address sender, address recipient, uint amount) public override returns (bool) {\r\n        _transfer(sender, recipient, amount);\r\n        return true;\r\n    }\r\n    function increaseAllowance(address spender, uint addedValue) public returns (bool) {\r\n        _approve(_msgSender(), spender, _allowances[_msgSender()][spender].add(addedValue));\r\n        return true;\r\n    }\r\n    function decreaseAllowance(address spender, uint subtractedValue) public returns (bool) {\r\n        _approve(_msgSender(), spender, _allowances[_msgSender()][spender].sub(subtractedValue, \"ERC20: disminucion de la asignacion por debajo de cero\"));\r\n        return true;\r\n    }\r\n\r\n    function _transfer(address sender, address recipient, uint amount) internal {\r\n        require(sender != address(0), \"ERC20: transferencia desde la direccion cero\");\r\n        require(recipient != address(0), \"ERC20: transferir a la direccion cero\");\r\n\r\n        _balances[sender] = _balances[sender].sub(amount, \"ERC20: el monto de la transferencia excede el saldo\");\r\n        _balances[recipient] = _balances[recipient].add(amount);\r\n        emit Transfer(sender, recipient, amount);\r\n    }\r\n\r\n    function _mint(address account, uint amount) internal {\r\n        require(account != address(0), \"ERC20: agente a la direccion cero\");\r\n\r\n        _totalSupply = _totalSupply.add(amount);\r\n        require(_totalSupply <= 1e24, \"_totalSupply por exceder el limite maximo\");\r\n        _balances[account] = _balances[account].add(amount);\r\n        emit Transfer(address(0), account, amount);\r\n    }\r\n    \r\n    function _burn(address account, uint amount) internal {\r\n        require(account != address(0), \"ERC20: quemar desde la direccion cero\");\r\n\r\n        _balances[account] = _balances[account].sub(amount, \"ERC20: la cantidad quemada excede el saldo\");\r\n        _totalSupply = _totalSupply.sub(amount);\r\n        emit Transfer(account, address(0), amount);\r\n    }\r\n    function _approve(address owner, address spender, uint amount) internal {\r\n        require(owner != address(0), \"ERC20: aprobar desde la direccion cero\");\r\n        require(spender != address(0), \"ERC20: aprobar a la direccion cero\");\r\n\r\n        _allowances[owner][spender] = amount;\r\n        emit Approval(owner, spender, amount);\r\n    }\r\n}\r\n\r\nabstract contract ERC20Detailed is IERC20 {\r\n    string private _name;\r\n    string private _symbol;\r\n    uint8 private _decimals;\r\n\r\n    constructor (string memory name, string memory symbol, uint8 decimals) {\r\n        _name = name;\r\n        _symbol = symbol;\r\n        _decimals = decimals;\r\n    }\r\n    function name() public view returns (string memory) {\r\n        return _name;\r\n    }\r\n    function symbol() public view returns (string memory) {\r\n        return _symbol;\r\n    }\r\n    function decimals() public view returns (uint8) {\r\n        return _decimals;\r\n    }\r\n}\r\n\r\nlibrary SafeMath {\r\n    function add(uint a, uint b) internal pure returns (uint) {\r\n        uint c = a + b;\r\n        require(c >= a, \"SafeMath: desbordamiento en la suma\");\r\n\r\n        return c;\r\n    }\r\n    function sub(uint a, uint b) internal pure returns (uint) {\r\n        return sub(a, b, \"SafeMath: desbordamiento en la resta\");\r\n    }\r\n    function sub(uint a, uint b, string memory errorMessage) internal pure returns (uint) {\r\n        require(b <= a, errorMessage);\r\n        uint c = a - b;\r\n\r\n        return c;\r\n    }\r\n    function mul(uint a, uint b) internal pure returns (uint) {\r\n        if (a == 0) {\r\n            return 0;\r\n        }\r\n\r\n        uint c = a * b;\r\n        require(c / a == b, \"SafeMath: desbordamiento en el producto\");\r\n\r\n        return c;\r\n    }\r\n    function div(uint a, uint b) internal pure returns (uint) {\r\n        return div(a, b, \"SafeMath: division por cero\");\r\n    }\r\n    function div(uint a, uint b, string memory errorMessage) internal pure returns (uint) {\r\n        require(b > 0, errorMessage);\r\n        uint c = a / b;\r\n\r\n        return c;\r\n    }\r\n}\r\n\r\nlibrary Address {\r\n    function isContract(address account) internal view returns (bool) {\r\n        bytes32 codehash;\r\n        bytes32 accountHash = 0xc5d2460186f7233c927e7db2dcc703c0e500b653ca82273b7bfad8045d85a470; //keccack256 hash of empty data\r\n        assembly { codehash := extcodehash(account) }\r\n        return (codehash != 0x0 && codehash != accountHash);\r\n    }\r\n}\r\n\r\nlibrary SafeERC20 {\r\n    using SafeMath for uint;\r\n    using Address for address;\r\n\r\n    function safeTransfer(IERC20 token, address to, uint value) internal {\r\n        callOptionalReturn(token, abi.encodeWithSelector(token.transfer.selector, to, value));\r\n    }\r\n\r\n    function safeTransferFrom(IERC20 token, address from, address to, uint value) internal {\r\n        callOptionalReturn(token, abi.encodeWithSelector(token.transferFrom.selector, from, to, value));\r\n    }\r\n\r\n    function safeApprove(IERC20 token, address spender, uint value) internal {\r\n        require((value == 0) || (token.allowance(address(this), spender) == 0),\r\n            \"SafeERC20: error de aprobacion invalida\"\r\n        );\r\n        callOptionalReturn(token, abi.encodeWithSelector(token.approve.selector, spender, value));\r\n    }\r\n    function callOptionalReturn(IERC20 token, bytes memory data) private {\r\n        require(address(token).isContract(), \"SafeERC20: llamada a un contrato invalido\");\r\n        (bool success, bytes memory returndata) = address(token).call(data);\r\n        require(success, \"SafeERC20: falla en la llamada del contrato\");\r\n\r\n        if (returndata.length > 0) {\r\n            require(abi.decode(returndata, (bool)), \"SafeERC20: ERC20 la operacion no tuvo exito\");\r\n        }\r\n    }\r\n}\r\n\r\ncontract OzToken is ERC20, ERC20Detailed {\r\n    using SafeERC20 for IERC20;\r\n    using Address for address;\r\n    using SafeMath for uint;\r\n\r\n\r\n    address public tokenOwner;\r\n    mapping (address => bool) public minters;\r\n\r\n    constructor () public ERC20Detailed(\"Oz Token\", \"OZT\", 0) {\r\n        tokenOwner = msg.sender;\r\n        addMinter(tokenOwner);\r\n        mint(tokenOwner, 1e24);\r\n    }\r\n\r\n    function mint(address account, uint amount) public {\r\n        require(minters[msg.sender], \"Sin permisos!\");\r\n        _mint(account, amount);\r\n    }\r\n\r\n    function setTokenOwner(address _tokenOwner) public {\r\n        require(msg.sender == tokenOwner, \"Sin permisos especiales!\");\r\n        tokenOwner = _tokenOwner;\r\n    }\r\n\r\n    function addMinter(address _minter) public {\r\n        require(msg.sender == tokenOwner, \"Sin permisos especiales!\");\r\n        minters[_minter] = true;\r\n    }\r\n\r\n    function removeMinter(address _minter) public {\r\n        require(msg.sender == tokenOwner, \"Sin permisos especiales!\");\r\n        minters[_minter] = false;\r\n    }\r\n\r\n    function burn(uint256 amount) public {\r\n        _burn(msg.sender, amount);\r\n    }\r\n}",
  "sourcePath": "/home/miki_mustard/Desktop/Personal/Facultad/tdl/nuevo-tdl/teoria-del-lenguaje/truffle-project/contracts/ozToken.sol",
  "compiler": {
    "name": "solc",
    "version": "0.8.0+commit.c7dfd78e.Emscripten.clang"
  },
  "schemaVersion": "3.4.1",
  "updatedAt": "2021-06-28T22:43:17.065Z",
  "networkType": "ethereum",
  "devdoc": {
    "kind": "dev",
    "methods": {},
    "version": 1
  },
  "userdoc": {
    "kind": "user",
    "methods": {},
    "version": 1
  }
}