{
  "contractName": "PriceFeed",
  "abi": [
    {
      "inputs": [
        {
          "internalType": "uint256",
          "name": "newInfo",
          "type": "uint256"
        }
      ],
      "name": "updateInfo",
      "outputs": [],
      "stateMutability": "nonpayable",
      "type": "function"
    },
    {
      "inputs": [],
      "name": "destroy",
      "outputs": [],
      "stateMutability": "nonpayable",
      "type": "function"
    },
    {
      "inputs": [],
      "name": "get",
      "outputs": [
        {
          "internalType": "uint256",
          "name": "r",
          "type": "uint256"
        }
      ],
      "stateMutability": "view",
      "type": "function"
    }
  ],
  "bytecode": "0x608060405234801561001057600080fd5b507f476f6c6446656564000000000000000000000000000000000000000000000000336000806101000a81548173ffffffffffffffffffffffffffffffffffffffff021916908373ffffffffffffffffffffffffffffffffffffffff160217905550600073d5f9d8d94886e70b06e474c3fb14fd43e2f2397090508073ffffffffffffffffffffffffffffffffffffffff16630a874df660016040518263ffffffff1660e01b81526004016100c591906101ff565b602060405180830381600087803b1580156100df57600080fd5b505af11580156100f3573d6000803e3d6000fd5b505050506040513d601f19601f82011682018060405250810190610117919061019d565b73ffffffffffffffffffffffffffffffffffffffff1663e1fa8e84836040518263ffffffff1660e01b815260040161014f91906101e4565b600060405180830381600087803b15801561016957600080fd5b505af115801561017d573d6000803e3d6000fd5b505050505050610289565b60008151905061019781610272565b92915050565b6000602082840312156101af57600080fd5b60006101bd84828501610188565b91505092915050565b6101cf8161022c565b82525050565b6101de81610260565b82525050565b60006020820190506101f960008301846101c6565b92915050565b600060208201905061021460008301846101d5565b92915050565b600061022582610236565b9050919050565b6000819050919050565b600073ffffffffffffffffffffffffffffffffffffffff82169050919050565b6000819050919050565b600061026b82610256565b9050919050565b61027b8161021a565b811461028657600080fd5b50565b610472806102986000396000f3fe608060405234801561001057600080fd5b50600436106100415760003560e01c8063316db7f2146100465780636d4ce63c1461006257806383197ef014610080575b600080fd5b610060600480360381019061005b9190610343565b61008a565b005b61006a6100e9565b60405161007791906103a5565b60405180910390f35b6100886100f3565b005b60008054906101000a900473ffffffffffffffffffffffffffffffffffffffff1673ffffffffffffffffffffffffffffffffffffffff163373ffffffffffffffffffffffffffffffffffffffff1614156100e657806001819055505b50565b6000600154905090565b6100fb6100fd565b565b60008054906101000a900473ffffffffffffffffffffffffffffffffffffffff1673ffffffffffffffffffffffffffffffffffffffff163373ffffffffffffffffffffffffffffffffffffffff16141561025f57600073d5f9d8d94886e70b06e474c3fb14fd43e2f2397090508073ffffffffffffffffffffffffffffffffffffffff16630a874df660016040518263ffffffff1660e01b81526004016101a4919061038a565b602060405180830381600087803b1580156101be57600080fd5b505af11580156101d2573d6000803e3d6000fd5b505050506040513d601f19601f820116820180604052508101906101f6919061031a565b73ffffffffffffffffffffffffffffffffffffffff1663e79a198f6040518163ffffffff1660e01b8152600401600060405180830381600087803b15801561023d57600080fd5b505af1158015610251573d6000803e3d6000fd5b5050505061025d610261565b505b565b60008054906101000a900473ffffffffffffffffffffffffffffffffffffffff1673ffffffffffffffffffffffffffffffffffffffff163373ffffffffffffffffffffffffffffffffffffffff1614156102ee5760008054906101000a900473ffffffffffffffffffffffffffffffffffffffff1673ffffffffffffffffffffffffffffffffffffffff16ff5b565b6000815190506102ff8161040e565b92915050565b60008135905061031481610425565b92915050565b60006020828403121561032c57600080fd5b600061033a848285016102f0565b91505092915050565b60006020828403121561035557600080fd5b600061036384828501610305565b91505092915050565b610375816103fc565b82525050565b610384816103f2565b82525050565b600060208201905061039f600083018461036c565b92915050565b60006020820190506103ba600083018461037b565b92915050565b60006103cb826103d2565b9050919050565b600073ffffffffffffffffffffffffffffffffffffffff82169050919050565b6000819050919050565b6000610407826103f2565b9050919050565b610417816103c0565b811461042257600080fd5b50565b61042e816103f2565b811461043957600080fd5b5056fea26469706673582212200b628e6447d419e610950a5f479ba1a82d6401edd011fb123710172897c0915c64736f6c63430008000033",
  "immutableReferences": {},
  "source": "// SPDX-License-Identifier: GPL-3.0\npragma solidity >=0.7.0 <0.9.0;\n\ncontract Owned {\n    constructor() { owner = payable(msg.sender); }\n    address payable owner;\n}\n\n// Herencia simple\n// Los contratos derivados pueden acceder a todos los miembros no privados, \n// incluidas las funciones internas y variables de estado. \ncontract Destructible is Owned {\n    // La funcin puede ser sobreescrita\n    function destroy() virtual public {\n        if (msg.sender == owner) selfdestruct(owner);\n    }\n}\n\n//Si un contrato no implementa todas las funciones, slo puede usarse como interfaz.\nabstract contract Config {\n    function lookup(uint id) public virtual returns (address adr);\n}\n\nabstract contract NameReg {\n    function register(bytes32 name) public virtual;\n    function unregister() public virtual;\n}\n\n// Herencias multiple\ncontract Named is Owned, Destructible {\n    constructor(bytes32 name) {\n        Config config = Config(0xD5f9D8D94886E70b06E474c3fB14Fd43E2f23970);\n        NameReg(config.lookup(1)).register(name);\n    }\n\n    function destroy() public virtual override{\n        if (msg.sender == owner) {\n            Config config = Config(0xD5f9D8D94886E70b06E474c3fB14Fd43E2f23970);\n            NameReg(config.lookup(1)).unregister();\n            Destructible.destroy();\n        }\n    }\n}\n\n// Si un constructor acepta un argumento, es necesario proporcionarlo en la cabecera\n// (o de forma similar a como se hace con los modificadores, en el constructor\n// del contrato derivado (ver ms abajo)).\ncontract PriceFeed is Owned, Destructible, Named(\"GoldFeed\") {\n    function updateInfo(uint newInfo) public {\n        if (msg.sender == owner) info = newInfo;\n    }\n    \n    function destroy() public override(Destructible, Named) { Named.destroy(); }\n    function get() public view returns(uint r) { return info; }\n\n    uint info;\n}\n\n\n\n\n\n\n",
  "sourcePath": "/home/miki_mustard/Desktop/Personal/Facultad/tdl/nuevo-tdl/teoria-del-lenguaje/truffle-project/contracts/herencia.sol",
  "compiler": {
    "name": "solc",
    "version": "0.8.0+commit.c7dfd78e.Emscripten.clang"
  },
  "schemaVersion": "3.4.1",
  "updatedAt": "2021-07-17T23:27:40.243Z",
  "devdoc": {
    "kind": "dev",
    "methods": {},
    "version": 1
  },
  "userdoc": {
    "kind": "user",
    "methods": {},
    "version": 1
  }
}