{
  "contractName": "SubastaFactory",
  "abi": [
    {
      "inputs": [],
      "stateMutability": "nonpayable",
      "type": "constructor"
    },
    {
      "anonymous": false,
      "inputs": [
        {
          "indexed": false,
          "internalType": "address",
          "name": "licitador",
          "type": "address"
        },
        {
          "indexed": false,
          "internalType": "uint256",
          "name": "oferta",
          "type": "uint256"
        },
        {
          "indexed": false,
          "internalType": "address",
          "name": "mejorLicitador",
          "type": "address"
        }
      ],
      "name": "RegistrarOferta",
      "type": "event"
    },
    {
      "anonymous": false,
      "inputs": [
        {
          "indexed": false,
          "internalType": "address",
          "name": "licitadorRetirado",
          "type": "address"
        },
        {
          "indexed": false,
          "internalType": "address",
          "name": "cuentaLicidatorRetirado",
          "type": "address"
        },
        {
          "indexed": false,
          "internalType": "uint256",
          "name": "oferta",
          "type": "uint256"
        }
      ],
      "name": "RegistrarRetiro",
      "type": "event"
    },
    {
      "anonymous": false,
      "inputs": [],
      "name": "RegistroCancelacion",
      "type": "event"
    },
    {
      "inputs": [],
      "name": "idSubasta",
      "outputs": [
        {
          "internalType": "uint256",
          "name": "",
          "type": "uint256"
        }
      ],
      "stateMutability": "view",
      "type": "function",
      "constant": true
    },
    {
      "inputs": [
        {
          "internalType": "uint256",
          "name": "",
          "type": "uint256"
        }
      ],
      "name": "subastas",
      "outputs": [
        {
          "internalType": "uint256",
          "name": "id",
          "type": "uint256"
        },
        {
          "internalType": "address",
          "name": "duenio",
          "type": "address"
        },
        {
          "internalType": "uint256",
          "name": "idCarta",
          "type": "uint256"
        },
        {
          "internalType": "uint256",
          "name": "tiempoInicial",
          "type": "uint256"
        },
        {
          "internalType": "uint256",
          "name": "tiempoFinal",
          "type": "uint256"
        },
        {
          "internalType": "uint256",
          "name": "incrementoOferta",
          "type": "uint256"
        },
        {
          "internalType": "bool",
          "name": "cancelada",
          "type": "bool"
        },
        {
          "internalType": "address",
          "name": "mejorLicitador",
          "type": "address"
        },
        {
          "internalType": "uint256",
          "name": "maximaOfertaLicitador",
          "type": "uint256"
        },
        {
          "internalType": "bool",
          "name": "duenioRetiroDinero",
          "type": "bool"
        }
      ],
      "stateMutability": "view",
      "type": "function",
      "constant": true
    },
    {
      "inputs": [
        {
          "internalType": "address",
          "name": "_duenio",
          "type": "address"
        },
        {
          "internalType": "uint256",
          "name": "_idCarta",
          "type": "uint256"
        },
        {
          "internalType": "uint256",
          "name": "_incrementoOferta",
          "type": "uint256"
        },
        {
          "internalType": "uint256",
          "name": "_tiempoInicial",
          "type": "uint256"
        },
        {
          "internalType": "uint256",
          "name": "_tiempoFinal",
          "type": "uint256"
        }
      ],
      "name": "crearSubasta",
      "outputs": [
        {
          "internalType": "uint256",
          "name": "",
          "type": "uint256"
        }
      ],
      "stateMutability": "nonpayable",
      "type": "function"
    },
    {
      "inputs": [
        {
          "internalType": "address",
          "name": "_duenio",
          "type": "address"
        },
        {
          "internalType": "uint256",
          "name": "_idCarta",
          "type": "uint256"
        },
        {
          "internalType": "uint256",
          "name": "_incrementoOferta",
          "type": "uint256"
        },
        {
          "internalType": "uint256",
          "name": "_tiempoInicial",
          "type": "uint256"
        },
        {
          "internalType": "uint256",
          "name": "_tiempoFinal",
          "type": "uint256"
        }
      ],
      "name": "modificarSubasta",
      "outputs": [],
      "stateMutability": "nonpayable",
      "type": "function"
    },
    {
      "inputs": [],
      "name": "getIdSubastasDisponibles",
      "outputs": [
        {
          "internalType": "uint256[]",
          "name": "",
          "type": "uint256[]"
        }
      ],
      "stateMutability": "view",
      "type": "function",
      "constant": true
    },
    {
      "inputs": [
        {
          "internalType": "uint256",
          "name": "_idSubasta",
          "type": "uint256"
        }
      ],
      "name": "getIdCartaEnSubasta",
      "outputs": [
        {
          "internalType": "uint256",
          "name": "",
          "type": "uint256"
        }
      ],
      "stateMutability": "view",
      "type": "function",
      "constant": true
    },
    {
      "inputs": [
        {
          "internalType": "uint256",
          "name": "_idSubasta",
          "type": "uint256"
        }
      ],
      "name": "obtenerOfertaMaxima",
      "outputs": [
        {
          "internalType": "uint256",
          "name": "",
          "type": "uint256"
        }
      ],
      "stateMutability": "view",
      "type": "function",
      "constant": true
    },
    {
      "inputs": [
        {
          "internalType": "uint256",
          "name": "_idSubasta",
          "type": "uint256"
        }
      ],
      "name": "obtenerMejorLicitador",
      "outputs": [
        {
          "internalType": "address",
          "name": "",
          "type": "address"
        }
      ],
      "stateMutability": "view",
      "type": "function",
      "constant": true
    },
    {
      "inputs": [
        {
          "internalType": "uint256",
          "name": "_idSubasta",
          "type": "uint256"
        }
      ],
      "name": "estaCancelada",
      "outputs": [
        {
          "internalType": "bool",
          "name": "",
          "type": "bool"
        }
      ],
      "stateMutability": "view",
      "type": "function",
      "constant": true
    },
    {
      "inputs": [
        {
          "internalType": "uint256",
          "name": "_idSubasta",
          "type": "uint256"
        },
        {
          "internalType": "uint256",
          "name": "_amount",
          "type": "uint256"
        },
        {
          "internalType": "address",
          "name": "_cuenta",
          "type": "address"
        }
      ],
      "name": "ofertar",
      "outputs": [
        {
          "internalType": "bool",
          "name": "success",
          "type": "bool"
        }
      ],
      "stateMutability": "payable",
      "type": "function",
      "payable": true
    },
    {
      "inputs": [
        {
          "internalType": "uint256",
          "name": "_idSubasta",
          "type": "uint256"
        },
        {
          "internalType": "address",
          "name": "_cuenta",
          "type": "address"
        }
      ],
      "name": "retirarFondos",
      "outputs": [
        {
          "internalType": "uint256",
          "name": "cantidadARetirar",
          "type": "uint256"
        }
      ],
      "stateMutability": "nonpayable",
      "type": "function"
    },
    {
      "inputs": [
        {
          "internalType": "uint256",
          "name": "_idSubasta",
          "type": "uint256"
        },
        {
          "internalType": "address",
          "name": "_cuenta",
          "type": "address"
        }
      ],
      "name": "cancelarSubasta",
      "outputs": [
        {
          "internalType": "bool",
          "name": "success",
          "type": "bool"
        }
      ],
      "stateMutability": "nonpayable",
      "type": "function"
    }
  ],
  "bytecode": "0x608060405234801561001057600080fd5b506000808190555061201a806100276000396000f3fe6080604052600436106100a75760003560e01c806376fe162e1161006457806376fe162e146102025780637984c8a21461023f578063906071911461026a578063a99a476f146102a7578063ac3ccae6146102e4578063be379f7614610321576100a7565b80630ddaf585146100ac57806329a9d96d146100e957806335559743146101125780634d9770cb146101585780635e033ff11461019557806364bdfea3146101c5575b600080fd5b3480156100b857600080fd5b506100d360048036038101906100ce919061154e565b61034c565b6040516100e09190611d6b565b60405180910390f35b3480156100f557600080fd5b50610110600480360381019061010b919061154e565b610462565b005b34801561011e57600080fd5b50610139600480360381019061013491906115c5565b61056e565b60405161014f9a99989796959493929190611d86565b60405180910390f35b34801561016457600080fd5b5061017f600480360381019061017a91906115ee565b61062c565b60405161018c9190611bf0565b60405180910390f35b6101af60048036038101906101aa919061162a565b6108f7565b6040516101bc9190611bf0565b60405180910390f35b3480156101d157600080fd5b506101ec60048036038101906101e791906115c5565b610e37565b6040516101f99190611bb3565b60405180910390f35b34801561020e57600080fd5b50610229600480360381019061022491906115c5565b610eb1565b6040516102369190611bf0565b60405180910390f35b34801561024b57600080fd5b50610254610f18565b6040516102619190611d6b565b60405180910390f35b34801561027657600080fd5b50610291600480360381019061028c91906115c5565b610f1e565b60405161029e9190611d6b565b60405180910390f35b3480156102b357600080fd5b506102ce60048036038101906102c991906115ee565b610f73565b6040516102db9190611d6b565b60405180910390f35b3480156102f057600080fd5b5061030b600480360381019061030691906115c5565b6113bc565b6040516103189190611d6b565b60405180910390f35b34801561032d57600080fd5b50610336611416565b6040516103439190611bce565b60405180910390f35b600081831115610391576040517f08c379a000000000000000000000000000000000000000000000000000000000815260040161038890611c8b565b60405180910390fd5b4383111561039e57600080fd5b600073ffffffffffffffffffffffffffffffffffffffff168673ffffffffffffffffffffffffffffffffffffffff16141561040e576040517f08c379a000000000000000000000000000000000000000000000000000000000815260040161040590611c0b565b60405180910390fd5b60018081600181540180825580915050039060005260206000209050506104388686868686610462565b60008054905060008081548092919061045090611f3e565b91905055508091505095945050505050565b60006001600054815481106104a0577f4e487b7100000000000000000000000000000000000000000000000000000000600052603260045260246000fd5b90600052602060002090600a020190506000548160000181905550858160010160006101000a81548173ffffffffffffffffffffffffffffffffffffffff021916908373ffffffffffffffffffffffffffffffffffffffff16021790555084816002018190555083816005018190555082816003018190555081816004018190555060008160060160006101000a81548160ff0219169083151502179055506000816007018190555060008160080160006101000a81548160ff021916908315150217905550505050505050565b6001818154811061057e57600080fd5b90600052602060002090600a02016000915090508060000154908060010160009054906101000a900473ffffffffffffffffffffffffffffffffffffffff16908060020154908060030154908060040154908060050154908060060160009054906101000a900460ff16908060060160019054906101000a900473ffffffffffffffffffffffffffffffffffffffff16908060070154908060080160009054906101000a900460ff1690508a565b6000828260006001838154811061066c577f4e487b7100000000000000000000000000000000000000000000000000000000600052603260045260246000fd5b90600052602060002090600a020190508060010160009054906101000a900473ffffffffffffffffffffffffffffffffffffffff1673ffffffffffffffffffffffffffffffffffffffff168273ffffffffffffffffffffffffffffffffffffffff161461070e576040517f08c379a000000000000000000000000000000000000000000000000000000000815260040161070590611cab565b60405180910390fd5b8560006001828154811061074b577f4e487b7100000000000000000000000000000000000000000000000000000000600052603260045260246000fd5b90600052602060002090600a02019050806004015443106107a1576040517f08c379a000000000000000000000000000000000000000000000000000000000815260040161079890611d2b565b60405180910390fd5b876000600182815481106107de577f4e487b7100000000000000000000000000000000000000000000000000000000600052603260045260246000fd5b90600052602060002090600a020190508060060160009054906101000a900460ff1615610840576040517f08c379a000000000000000000000000000000000000000000000000000000000815260040161083790611c2b565b60405180910390fd5b600060018b8154811061087c577f4e487b7100000000000000000000000000000000000000000000000000000000600052603260045260246000fd5b90600052602060002090600a0201905060018160060160006101000a81548160ff0219169083151502179055507f49915020f6653aecea8dea37ab114766a9b2e5add00c4e053faba010986be65660405160405180910390a18060060160009054906101000a900460ff169850505050505050505092915050565b600083600060018281548110610936577f4e487b7100000000000000000000000000000000000000000000000000000000600052603260045260246000fd5b90600052602060002090600a020190508060030154431161098c576040517f08c379a000000000000000000000000000000000000000000000000000000000815260040161098390611d4b565b60405180910390fd5b856000600182815481106109c9577f4e487b7100000000000000000000000000000000000000000000000000000000600052603260045260246000fd5b90600052602060002090600a0201905080600401544310610a1f576040517f08c379a0000000000000000000000000000000000000000000000000000000008152600401610a1690611d2b565b60405180910390fd5b87600060018281548110610a5c577f4e487b7100000000000000000000000000000000000000000000000000000000600052603260045260246000fd5b90600052602060002090600a020190508060060160009054906101000a900460ff1615610abe576040517f08c379a0000000000000000000000000000000000000000000000000000000008152600401610ab590611c2b565b60405180910390fd5b8988600060018381548110610afc577f4e487b7100000000000000000000000000000000000000000000000000000000600052603260045260246000fd5b90600052602060002090600a020190508060010160009054906101000a900473ffffffffffffffffffffffffffffffffffffffff1673ffffffffffffffffffffffffffffffffffffffff168273ffffffffffffffffffffffffffffffffffffffff161415610b9f576040517f08c379a0000000000000000000000000000000000000000000000000000000008152600401610b9690611c6b565b60405180910390fd5b600060018e81548110610bdb577f4e487b7100000000000000000000000000000000000000000000000000000000600052603260045260246000fd5b90600052602060002090600a0201905060008d8260090160008f73ffffffffffffffffffffffffffffffffffffffff1673ffffffffffffffffffffffffffffffffffffffff16815260200190815260200160002054610c3a9190611e6c565b90508160070154811115610c83576040517f08c379a0000000000000000000000000000000000000000000000000000000008152600401610c7a90611d0b565b60405180910390fd5b808260090160008f73ffffffffffffffffffffffffffffffffffffffff1673ffffffffffffffffffffffffffffffffffffffff1681526020019081526020016000208190555060008260090160008460060160019054906101000a900473ffffffffffffffffffffffffffffffffffffffff1673ffffffffffffffffffffffffffffffffffffffff1673ffffffffffffffffffffffffffffffffffffffff168152602001908152602001600020549050808211610d6057610d53836005015483610d4d9190611e6c565b82611508565b8360070181905550610e20565b8260060160019054906101000a900473ffffffffffffffffffffffffffffffffffffffff1673ffffffffffffffffffffffffffffffffffffffff163373ffffffffffffffffffffffffffffffffffffffff1614610e1c578d8360060160016101000a81548173ffffffffffffffffffffffffffffffffffffffff021916908373ffffffffffffffffffffffffffffffffffffffff160217905550610e1382846005015483610e0e9190611e6c565b611508565b83600701819055505b8190505b60019c505050505050505050505050509392505050565b60008060018381548110610e74577f4e487b7100000000000000000000000000000000000000000000000000000000600052603260045260246000fd5b90600052602060002090600a020190508060060160019054906101000a900473ffffffffffffffffffffffffffffffffffffffff16915050919050565b60008060018381548110610eee577f4e487b7100000000000000000000000000000000000000000000000000000000600052603260045260246000fd5b90600052602060002090600a020190508060060160009054906101000a900460ff16915050919050565b60005481565b600060018281548110610f5a577f4e487b7100000000000000000000000000000000000000000000000000000000600052603260045260246000fd5b90600052602060002090600a0201600201549050919050565b600082600060018281548110610fb2577f4e487b7100000000000000000000000000000000000000000000000000000000600052603260045260246000fd5b90600052602060002090600a02019050806004015443108015610fe457508060060160009054906101000a900460ff16155b611023576040517f08c379a000000000000000000000000000000000000000000000000000000000815260040161101a90611ceb565b60405180910390fd5b600080600060018881548110611062577f4e487b7100000000000000000000000000000000000000000000000000000000600052603260045260246000fd5b90600052602060002090600a020190508060060160009054906101000a900460ff166110c3576040517f08c379a00000000000000000000000000000000000000000000000000000000081526004016110ba90611c4b565b60405180910390fd5b8060060160009054906101000a900460ff1615611126578692508060090160008473ffffffffffffffffffffffffffffffffffffffff1673ffffffffffffffffffffffffffffffffffffffff168152602001908152602001600020549150611313565b8060010160009054906101000a900473ffffffffffffffffffffffffffffffffffffffff1673ffffffffffffffffffffffffffffffffffffffff168773ffffffffffffffffffffffffffffffffffffffff1614156111ce578060010160009054906101000a900473ffffffffffffffffffffffffffffffffffffffff1692508060070154915060018160080160006101000a81548160ff021916908315150217905550611312565b8060060160019054906101000a900473ffffffffffffffffffffffffffffffffffffffff1673ffffffffffffffffffffffffffffffffffffffff168773ffffffffffffffffffffffffffffffffffffffff1614156112c9578060060160019054906101000a900473ffffffffffffffffffffffffffffffffffffffff16925080600701548160090160008360060160019054906101000a900473ffffffffffffffffffffffffffffffffffffffff1673ffffffffffffffffffffffffffffffffffffffff1673ffffffffffffffffffffffffffffffffffffffff168152602001908152602001600020546112c29190611ec2565b9150611311565b8692508060090160008473ffffffffffffffffffffffffffffffffffffffff1673ffffffffffffffffffffffffffffffffffffffff1681526020019081526020016000205491505b5b5b60008214611356576040517f08c379a000000000000000000000000000000000000000000000000000000000815260040161134d90611ccb565b60405180910390fd5b818160090160008573ffffffffffffffffffffffffffffffffffffffff1673ffffffffffffffffffffffffffffffffffffffff16815260200190815260200160002060008282546113a79190611ec2565b92505081905550819550505050505092915050565b600080600183815481106113f9577f4e487b7100000000000000000000000000000000000000000000000000000000600052603260045260246000fd5b90600052602060002090600a020190508060070154915050919050565b60606000805467ffffffffffffffff81111561145b577f4e487b7100000000000000000000000000000000000000000000000000000000600052604160045260246000fd5b6040519080825280602002602001820160405280156114895781602001602082028036833780820191505090505b50905060005b600054811015611500576114a281610eb1565b6114ed57808282815181106114e0577f4e487b7100000000000000000000000000000000000000000000000000000000600052603260045260246000fd5b6020026020010181815250505b80806114f890611f3e565b91505061148f565b508091505090565b60008183101561151a5782905061151e565b8190505b92915050565b60008135905061153381611fb6565b92915050565b60008135905061154881611fcd565b92915050565b600080600080600060a0868803121561156657600080fd5b600061157488828901611524565b955050602061158588828901611539565b945050604061159688828901611539565b93505060606115a788828901611539565b92505060806115b888828901611539565b9150509295509295909350565b6000602082840312156115d757600080fd5b60006115e584828501611539565b91505092915050565b6000806040838503121561160157600080fd5b600061160f85828601611539565b925050602061162085828601611524565b9150509250929050565b60008060006060848603121561163f57600080fd5b600061164d86828701611539565b935050602061165e86828701611539565b925050604061166f86828701611524565b9150509250925092565b60006116858383611b95565b60208301905092915050565b61169a81611ef6565b82525050565b60006116ab82611e32565b6116b58185611e4a565b93506116c083611e22565b8060005b838110156116f15781516116d88882611679565b97506116e383611e3d565b9250506001810190506116c4565b5085935050505092915050565b61170781611f08565b82525050565b600061171a603083611e5b565b91507f5365206e6563657369746120756e61206375656e7461207061726120696e696360008301527f69617220756e6120737562617374612e000000000000000000000000000000006020830152604082019050919050565b6000611780603d83611e5b565b91507f4573746120616363696f6e206e6f207075656465207265616c697a617273652060008301527f756e612076657a2063616e63656c616461206c6120737562617374612e0000006020830152604082019050919050565b60006117e6603b83611e5b565b91507f4e6f20707565646520726574697261722073757320666f6e646f73206861737460008301527f6120717565206e6f207465726d696e65206c61207375626173746100000000006020830152604082019050919050565b600061184c603683611e5b565b91507f456c206475656e696f206465206c612073756261737461206e6f20707565646560008301527f207265616c697a6172206573746120616363696f6e2e000000000000000000006020830152604082019050919050565b60006118b2603383611e5b565b91507f456c207469656d706f20696e696369616c206465626572696120736572206d6560008301527f6e6f7220616c207469656d706f2066696e616c000000000000000000000000006020830152604082019050919050565b6000611918602a83611e5b565b91507f536f6c6f20656c206475656e696f207075656465207265616c697a617220657360008301527f746120616363696f6e2e000000000000000000000000000000000000000000006020830152604082019050919050565b600061197e602583611e5b565b91507f4e6f206861792064696e65726f20646973706f6e69626c65207061726120726560008301527f74697261720000000000000000000000000000000000000000000000000000006020830152604082019050919050565b60006119e4603b83611e5b565b91507f4573746120616363696f6e206e6f207075656465207265616c697a617273652060008301527f7369206c612073756261737461206573746120656e20637572736f00000000006020830152604082019050919050565b6000611a4a602783611e5b565b91507f5375206f666572746120646562652073757065726172206c61206d6178696d6160008301527f2061637475616c000000000000000000000000000000000000000000000000006020830152604082019050919050565b6000611ab0603683611e5b565b91507f4573746120616363696f6e20736f6c6f207365207075656465207265616c697a60008301527f617220647572616e7465206c6120737562617374612e000000000000000000006020830152604082019050919050565b6000611b16604283611e5b565b91507f4573746120616363696f6e206e6f20707565646520736572207265616c697a6160008301527f646120686173746120717565206e6f20696e69636965206c612073756261737460208301527f612e0000000000000000000000000000000000000000000000000000000000006040830152606082019050919050565b611b9e81611f34565b82525050565b611bad81611f34565b82525050565b6000602082019050611bc86000830184611691565b92915050565b60006020820190508181036000830152611be881846116a0565b905092915050565b6000602082019050611c0560008301846116fe565b92915050565b60006020820190508181036000830152611c248161170d565b9050919050565b60006020820190508181036000830152611c4481611773565b9050919050565b60006020820190508181036000830152611c64816117d9565b9050919050565b60006020820190508181036000830152611c848161183f565b9050919050565b60006020820190508181036000830152611ca4816118a5565b9050919050565b60006020820190508181036000830152611cc48161190b565b9050919050565b60006020820190508181036000830152611ce481611971565b9050919050565b60006020820190508181036000830152611d04816119d7565b9050919050565b60006020820190508181036000830152611d2481611a3d565b9050919050565b60006020820190508181036000830152611d4481611aa3565b9050919050565b60006020820190508181036000830152611d6481611b09565b9050919050565b6000602082019050611d806000830184611ba4565b92915050565b600061014082019050611d9c600083018d611ba4565b611da9602083018c611691565b611db6604083018b611ba4565b611dc3606083018a611ba4565b611dd06080830189611ba4565b611ddd60a0830188611ba4565b611dea60c08301876116fe565b611df760e0830186611691565b611e05610100830185611ba4565b611e136101208301846116fe565b9b9a5050505050505050505050565b6000819050602082019050919050565b600081519050919050565b6000602082019050919050565b600082825260208201905092915050565b600082825260208201905092915050565b6000611e7782611f34565b9150611e8283611f34565b9250827fffffffffffffffffffffffffffffffffffffffffffffffffffffffffffffffff03821115611eb757611eb6611f87565b5b828201905092915050565b6000611ecd82611f34565b9150611ed883611f34565b925082821015611eeb57611eea611f87565b5b828203905092915050565b6000611f0182611f14565b9050919050565b60008115159050919050565b600073ffffffffffffffffffffffffffffffffffffffff82169050919050565b6000819050919050565b6000611f4982611f34565b91507fffffffffffffffffffffffffffffffffffffffffffffffffffffffffffffffff821415611f7c57611f7b611f87565b5b600182019050919050565b7f4e487b7100000000000000000000000000000000000000000000000000000000600052601160045260246000fd5b611fbf81611ef6565b8114611fca57600080fd5b50565b611fd681611f34565b8114611fe157600080fd5b5056fea264697066735822122078a343676577d76638131c17b2dc4fd9556e680ef39d93a8ecaabb92f384bc3564736f6c63430008000033",
  "immutableReferences": {},
  "source": "pragma solidity ^0.8.0;\n\n\ncontract SubastaFactory {\n\n\n    uint public idSubasta;\n    Subasta[] public subastas;\n    \n    constructor(){\n        idSubasta = 0;\n    }\n\n    struct Subasta{\n        uint id; // identificador de la subasta\n        address duenio; // duenio del objeto a subastar\n        uint idCarta; // id carta a ofertar\n        uint tiempoInicial; //tiempo de comienzo de la subasta\n        uint tiempoFinal;  // tiempo de fin de la subasta\n        uint incrementoOferta; //incremento minimo entre ofertas\n        bool cancelada; //estado de la subasta: cancelada o no.\n        address mejorLicitador; //Licitador que dio la mejor oferta\n\n        uint  maximaOfertaLicitador; //esta es complicada, ejemplo:500 pesos.\n        bool duenioRetiroDinero; //estado del duenio: si retiro el dinero ganado o no.\n        mapping(address => uint256)  ofertasLicitadores; //Hash-> licitadores-ofertas\n    }\n\n    event RegistrarOferta(address licitador, uint oferta, address mejorLicitador);\n    event RegistrarRetiro(address licitadorRetirado, address cuentaLicidatorRetirado, uint oferta);\n    event RegistroCancelacion();\n\n    function crearSubasta (address _duenio, uint _idCarta, uint _incrementoOferta, uint _tiempoInicial, uint _tiempoFinal) public returns(uint){\n        require (_tiempoInicial <= _tiempoFinal, \"El tiempo inicial deberia ser menor al tiempo final\") ;\n        require (_tiempoInicial <= block.number);\n        require (_duenio != address(0), \"Se necesita una cuenta para iniciar una subasta.\");\n        subastas.push();\n        modificarSubasta(_duenio, _idCarta, _incrementoOferta, _tiempoInicial, _tiempoFinal);\n        uint idNuevaSubasta = idSubasta;\n        idSubasta ++;\n        return idNuevaSubasta;\n    }\n\n    function modificarSubasta (address _duenio, uint _idCarta, uint _incrementoOferta, uint _tiempoInicial, uint _tiempoFinal) public{\n        Subasta storage subasta = subastas[idSubasta];\n        subasta.id = idSubasta;\n        subasta.duenio = _duenio;\n        subasta.idCarta = _idCarta;\n        subasta.incrementoOferta = _incrementoOferta;\n        subasta.tiempoInicial = _tiempoInicial;\n        subasta.tiempoFinal = _tiempoFinal;\n        subasta.cancelada = false;\n        subasta.maximaOfertaLicitador = 0;\n        subasta.duenioRetiroDinero = false;\n    }\n\n    function getIdSubastasDisponibles() view public returns(uint[] memory){\n        uint[] memory subastasDisponibles = new uint[](idSubasta);\n        for(uint i = 0; i < idSubasta; i++){\n            if(!estaCancelada(i)){\n                subastasDisponibles[i] = i;\n            }\n        }\n        return subastasDisponibles;\n    }\n\n    function getIdCartaEnSubasta(uint _idSubasta) view public returns(uint){\n\n        return subastas[_idSubasta].idCarta;\n    }\n\n    function obtenerOfertaMaxima(uint _idSubasta) public view returns(uint){\n        Subasta storage subasta = subastas[_idSubasta];\n        return subasta.maximaOfertaLicitador;\n    }\n\n    function obtenerMejorLicitador(uint _idSubasta) public view returns(address){\n        Subasta storage subasta = subastas[_idSubasta];\n        return subasta.mejorLicitador;\n    }\n\n    function estaCancelada(uint _idSubasta) public view returns(bool){\n        Subasta storage subasta = subastas[_idSubasta];\n        return subasta.cancelada;\n    }\n\n    function ofertar(uint _idSubasta, uint _amount , address _cuenta) public payable soloDespuesDelComienzo(_idSubasta) soloAntesDelFin(_idSubasta) soloSiNoFueCancelada(_idSubasta)\n        soloSiNoEsduenio(_idSubasta, _cuenta) returns (bool success){\n\n        Subasta storage subasta = subastas[_idSubasta];\n\n        uint totalNuevaOferta = subasta.ofertasLicitadores[_cuenta] + _amount;\n\n        //Si la oferta entrante no supera la maxima oferta de otro licitador, rechazamos la oferta. \n        require (totalNuevaOferta <= subasta.maximaOfertaLicitador, \"Su oferta debe superar la maxima actual\");\n\n        //Le asigno al licitador su nueva oferta\n        subasta.ofertasLicitadores[_cuenta] = totalNuevaOferta;\n\n        uint ofertaMaxima = subasta.ofertasLicitadores[subasta.mejorLicitador];\n\n        if (totalNuevaOferta <= ofertaMaxima) {\n            subasta.maximaOfertaLicitador = _calcularMinimo(totalNuevaOferta + subasta.incrementoOferta, ofertaMaxima);\n        } else {\n            if(msg.sender != subasta.mejorLicitador){\n                subasta.mejorLicitador = _cuenta;\n                subasta.maximaOfertaLicitador = _calcularMinimo(totalNuevaOferta, ofertaMaxima + subasta.incrementoOferta);\n            }\n            ofertaMaxima = totalNuevaOferta;\n        }\n       // emit RegistrarOferta(msg.sender,totalNuevaOferta, subasta.mejorLicitador);\n        return true;\n    }\n\n    function retirarFondos(uint _idSubasta , address _cuenta ) public soloSiTerminoOCancelada(_idSubasta) returns (uint cantidadARetirar){\n\n        address cuentaQueRetira;\n        uint cantidadARetirar;\n        Subasta storage subasta = subastas[_idSubasta];\n        require ( subasta.cancelada , \"No puede retirar sus fondos hasta que no termine la subasta\");\n        if(subasta.cancelada){ //si la subasta fue cancelada, todos pueden retirar sus ofertas.\n            cuentaQueRetira = _cuenta;\n            cantidadARetirar = subasta.ofertasLicitadores[cuentaQueRetira];\n\n        }else{ // La subasta termino correctamente (alguien gano)   \n            if(_cuenta == subasta.duenio){ //el duenio tiene que poder retirar el dinero ganado en la subasta\n                cuentaQueRetira = subasta.duenio;\n                cantidadARetirar = subasta.maximaOfertaLicitador;\n                subasta.duenioRetiroDinero = true;\n            }else if(_cuenta == subasta.mejorLicitador){ //el ganador de la subasta puede retirar la diferencia entre la oferta ganadora y oferta maxima.\n                cuentaQueRetira = subasta.mejorLicitador;\n                cantidadARetirar = subasta.ofertasLicitadores[subasta.mejorLicitador] - subasta.maximaOfertaLicitador;\n            }else{ // cualquiera que participo y no gano puede retirar su oferta. \n                cuentaQueRetira = _cuenta;\n                cantidadARetirar = subasta.ofertasLicitadores[cuentaQueRetira];\n            }\n        }\n        require ( cantidadARetirar == 0, \"No hay dinero disponible para retirar\");\n        subasta.ofertasLicitadores[cuentaQueRetira] -= cantidadARetirar;\n\n        //require (!payable(msg.sender).send(cantidadARetirar), \"Hubo un error al retirar la oferta.\");\n\n        //emit RegistrarRetiro(msg.sender, cuentaQueRetira, cantidadARetirar);\n        return cantidadARetirar;\n    }\n\n    function cancelarSubasta(uint _idSubasta , address _cuenta) public soloSiEsduenio(_idSubasta, _cuenta) soloAntesDelFin(_idSubasta) soloSiNoFueCancelada(_idSubasta)\n    returns (bool success){\n        Subasta storage subasta = subastas[_idSubasta];\n        subasta.cancelada = true;\n        emit RegistroCancelacion();\n        return subasta.cancelada;\n    }\n\n    function _calcularMinimo(uint a, uint b) private pure returns (uint){\n        if (a < b) return a;\n        return b;\n    }\n\n    modifier soloSiEsduenio(uint _idSubasta, address _cuenta){\n        Subasta storage subasta = subastas[_idSubasta];\n        require (_cuenta == subasta.duenio, \"Solo el duenio puede realizar esta accion.\");\n        _;\n    }\n\n    modifier soloSiNoEsduenio(uint _idSubasta, address _cuenta){\n        Subasta storage subasta = subastas[_idSubasta];\n        require ( _cuenta != subasta.duenio, \"El duenio de la subasta no puede realizar esta accion.\");\n        _;\n    }\n\n    modifier soloDespuesDelComienzo(uint _idSubasta){\n        Subasta storage subasta = subastas[_idSubasta];\n        require (block.number > subasta.tiempoInicial, \"Esta accion no puede ser realizada hasta que no inicie la subasta.\");\n        _;\n    }\n\n    modifier soloAntesDelFin(uint _idSubasta){\n        Subasta storage subasta = subastas[_idSubasta];\n        require (block.number < subasta.tiempoFinal, \"Esta accion solo se puede realizar durante la subasta.\");\n        _;\n    }\n\n    modifier soloSiNoFueCancelada(uint _idSubasta){\n        Subasta storage subasta = subastas[_idSubasta];\n        require (!subasta.cancelada , \"Esta accion no puede realizarse una vez cancelada la subasta.\");\n        _;\n    }\n\n    modifier soloSiTerminoOCancelada(uint _idSubasta){\n        Subasta storage subasta = subastas[_idSubasta];\n        require (block.number < subasta.tiempoFinal && !subasta.cancelada, \"Esta accion no puede realizarse si la subasta esta en curso\");\n        _;\n    }\n\n    \n }\n\n",
  "sourcePath": "/Users/filyankaragoz/Desktop/teoria-del-lenguaje/truffle-project/contracts/SubastaFactory.sol",
  "compiler": {
    "name": "solc",
    "version": "0.8.0+commit.c7dfd78e.Emscripten.clang"
  },
  "schemaVersion": "3.4.1",
  "updatedAt": "2021-07-14T01:21:06.317Z",
  "networkType": "ethereum",
  "devdoc": {
    "kind": "dev",
    "methods": {},
    "version": 1
  },
  "userdoc": {
    "kind": "user",
    "methods": {},
    "version": 1
  }
}