{
  "contractName": "SubastaFactory",
  "abi": [
    {
      "inputs": [],
      "stateMutability": "nonpayable",
      "type": "constructor"
    },
    {
      "anonymous": false,
      "inputs": [
        {
          "indexed": false,
          "internalType": "address",
          "name": "licitador",
          "type": "address"
        },
        {
          "indexed": false,
          "internalType": "uint256",
          "name": "oferta",
          "type": "uint256"
        },
        {
          "indexed": false,
          "internalType": "address",
          "name": "mejorLicitador",
          "type": "address"
        }
      ],
      "name": "RegistrarOferta",
      "type": "event"
    },
    {
      "anonymous": false,
      "inputs": [
        {
          "indexed": false,
          "internalType": "address",
          "name": "licitadorRetirado",
          "type": "address"
        },
        {
          "indexed": false,
          "internalType": "address",
          "name": "cuentaLicidatorRetirado",
          "type": "address"
        },
        {
          "indexed": false,
          "internalType": "uint256",
          "name": "oferta",
          "type": "uint256"
        }
      ],
      "name": "RegistrarRetiro",
      "type": "event"
    },
    {
      "anonymous": false,
      "inputs": [],
      "name": "RegistroCancelacion",
      "type": "event"
    },
    {
      "inputs": [],
      "name": "idSubasta",
      "outputs": [
        {
          "internalType": "uint256",
          "name": "",
          "type": "uint256"
        }
      ],
      "stateMutability": "view",
      "type": "function",
      "constant": true
    },
    {
      "inputs": [
        {
          "internalType": "uint256",
          "name": "",
          "type": "uint256"
        }
      ],
      "name": "subastas",
      "outputs": [
        {
          "internalType": "address",
          "name": "duenio",
          "type": "address"
        },
        {
          "internalType": "uint256",
          "name": "idCarta",
          "type": "uint256"
        },
        {
          "internalType": "uint256",
          "name": "tiempoInicial",
          "type": "uint256"
        },
        {
          "internalType": "uint256",
          "name": "tiempoFinal",
          "type": "uint256"
        },
        {
          "internalType": "uint256",
          "name": "incrementoOferta",
          "type": "uint256"
        },
        {
          "internalType": "bool",
          "name": "cancelada",
          "type": "bool"
        },
        {
          "internalType": "address",
          "name": "mejorLicitador",
          "type": "address"
        },
        {
          "internalType": "uint256",
          "name": "maximaOfertaLicitador",
          "type": "uint256"
        },
        {
          "internalType": "bool",
          "name": "duenioRetiroDinero",
          "type": "bool"
        }
      ],
      "stateMutability": "view",
      "type": "function",
      "constant": true
    },
    {
      "inputs": [
        {
          "internalType": "address",
          "name": "_duenio",
          "type": "address"
        },
        {
          "internalType": "uint256",
          "name": "_idCarta",
          "type": "uint256"
        },
        {
          "internalType": "uint256",
          "name": "_incrementoOferta",
          "type": "uint256"
        },
        {
          "internalType": "uint256",
          "name": "_tiempoInicial",
          "type": "uint256"
        },
        {
          "internalType": "uint256",
          "name": "_tiempoFinal",
          "type": "uint256"
        }
      ],
      "name": "crearSubasta",
      "outputs": [
        {
          "internalType": "uint256",
          "name": "",
          "type": "uint256"
        }
      ],
      "stateMutability": "nonpayable",
      "type": "function"
    },
    {
      "inputs": [
        {
          "internalType": "address",
          "name": "_duenio",
          "type": "address"
        },
        {
          "internalType": "uint256",
          "name": "_idCarta",
          "type": "uint256"
        },
        {
          "internalType": "uint256",
          "name": "_incrementoOferta",
          "type": "uint256"
        },
        {
          "internalType": "uint256",
          "name": "_tiempoInicial",
          "type": "uint256"
        },
        {
          "internalType": "uint256",
          "name": "_tiempoFinal",
          "type": "uint256"
        }
      ],
      "name": "modificarSubasta",
      "outputs": [],
      "stateMutability": "nonpayable",
      "type": "function"
    },
    {
      "inputs": [],
      "name": "getIdSubastasDisponibles",
      "outputs": [
        {
          "internalType": "uint256[]",
          "name": "",
          "type": "uint256[]"
        }
      ],
      "stateMutability": "view",
      "type": "function",
      "constant": true
    },
    {
      "inputs": [
        {
          "internalType": "uint256",
          "name": "_idSubasta",
          "type": "uint256"
        }
      ],
      "name": "obtenerOfertaMaxima",
      "outputs": [
        {
          "internalType": "uint256",
          "name": "",
          "type": "uint256"
        }
      ],
      "stateMutability": "view",
      "type": "function",
      "constant": true
    },
    {
      "inputs": [
        {
          "internalType": "uint256",
          "name": "_idSubasta",
          "type": "uint256"
        }
      ],
      "name": "obtenerMejorLicitador",
      "outputs": [
        {
          "internalType": "address",
          "name": "",
          "type": "address"
        }
      ],
      "stateMutability": "view",
      "type": "function",
      "constant": true
    },
    {
      "inputs": [
        {
          "internalType": "uint256",
          "name": "_idSubasta",
          "type": "uint256"
        }
      ],
      "name": "estaCancelada",
      "outputs": [
        {
          "internalType": "bool",
          "name": "",
          "type": "bool"
        }
      ],
      "stateMutability": "view",
      "type": "function",
      "constant": true
    },
    {
      "inputs": [
        {
          "internalType": "uint256",
          "name": "_idSubasta",
          "type": "uint256"
        }
      ],
      "name": "ofertar",
      "outputs": [
        {
          "internalType": "bool",
          "name": "success",
          "type": "bool"
        }
      ],
      "stateMutability": "payable",
      "type": "function",
      "payable": true
    },
    {
      "inputs": [
        {
          "internalType": "uint256",
          "name": "_idSubasta",
          "type": "uint256"
        }
      ],
      "name": "retirarFondos",
      "outputs": [
        {
          "internalType": "bool",
          "name": "success",
          "type": "bool"
        }
      ],
      "stateMutability": "nonpayable",
      "type": "function"
    },
    {
      "inputs": [
        {
          "internalType": "uint256",
          "name": "_idSubasta",
          "type": "uint256"
        }
      ],
      "name": "cancelarSubasta",
      "outputs": [
        {
          "internalType": "bool",
          "name": "success",
          "type": "bool"
        }
      ],
      "stateMutability": "nonpayable",
      "type": "function"
    }
  ],
  "bytecode": "0x608060405234801561001057600080fd5b50600080819055506120b8806100276000396000f3fe60806040526004361061009c5760003560e01c806364bdfea31161006457806364bdfea3146101b957806376fe162e146101f65780637984c8a214610233578063a32aa7171461025e578063ac3ccae61461029b578063be379f76146102d85761009c565b80630ddaf585146100a15780630f981d8e146100de57806329a9d96d1461011b57806335559743146101445780633c5044c114610189575b600080fd5b3480156100ad57600080fd5b506100c860048036038101906100c39190611592565b610303565b6040516100d59190611ea5565b60405180910390f35b3480156100ea57600080fd5b5061010560048036038101906101009190611609565b610414565b6040516101129190611d0a565b60405180910390f35b34801561012757600080fd5b50610142600480360381019061013d9190611592565b6106dc565b005b34801561015057600080fd5b5061016b60048036038101906101669190611609565b6107dd565b60405161018099989796959493929190611c5b565b60405180910390f35b6101a3600480360381019061019e9190611609565b610895565b6040516101b09190611d0a565b60405180910390f35b3480156101c557600080fd5b506101e060048036038101906101db9190611609565b610e71565b6040516101ed9190611bd2565b60405180910390f35b34801561020257600080fd5b5061021d60048036038101906102189190611609565b610eeb565b60405161022a9190611d0a565b60405180910390f35b34801561023f57600080fd5b50610248610f52565b6040516102559190611ea5565b60405180910390f35b34801561026a57600080fd5b5061028560048036038101906102809190611609565b610f58565b6040516102929190611d0a565b60405180910390f35b3480156102a757600080fd5b506102c260048036038101906102bd9190611609565b611400565b6040516102cf9190611ea5565b60405180910390f35b3480156102e457600080fd5b506102ed61145a565b6040516102fa9190611ce8565b60405180910390f35b600081831115610348576040517f08c379a000000000000000000000000000000000000000000000000000000000815260040161033f90611d85565b60405180910390fd5b4383111561035557600080fd5b600073ffffffffffffffffffffffffffffffffffffffff168673ffffffffffffffffffffffffffffffffffffffff1614156103c5576040517f08c379a00000000000000000000000000000000000000000000000000000000081526004016103bc90611d25565b60405180910390fd5b60018081600181540180825580915050039060005260206000209050506103ef86868686866106dc565b60008081548092919061040190611fdc565b9190505550600054905095945050505050565b600081600060018281548110610453577f4e487b7100000000000000000000000000000000000000000000000000000000600052603260045260246000fd5b906000526020600020906009020190508060000160009054906101000a900473ffffffffffffffffffffffffffffffffffffffff1673ffffffffffffffffffffffffffffffffffffffff163373ffffffffffffffffffffffffffffffffffffffff1614156104f6576040517f08c379a00000000000000000000000000000000000000000000000000000000081526004016104ed90611da5565b60405180910390fd5b83600060018281548110610533577f4e487b7100000000000000000000000000000000000000000000000000000000600052603260045260246000fd5b9060005260206000209060090201905080600301544311610589576040517f08c379a000000000000000000000000000000000000000000000000000000000815260040161058090611e65565b60405180910390fd5b856000600182815481106105c6577f4e487b7100000000000000000000000000000000000000000000000000000000600052603260045260246000fd5b906000526020600020906009020190508060050160009054906101000a900460ff16610627576040517f08c379a000000000000000000000000000000000000000000000000000000000815260040161061e90611d45565b60405180910390fd5b600060018981548110610663577f4e487b7100000000000000000000000000000000000000000000000000000000600052603260045260246000fd5b9060005260206000209060090201905060018160050160006101000a81548160ff0219169083151502179055507f49915020f6653aecea8dea37ab114766a9b2e5add00c4e053faba010986be65660405160405180910390a18060050160009054906101000a900460ff16975050505050505050919050565b600060016000548154811061071a577f4e487b7100000000000000000000000000000000000000000000000000000000600052603260045260246000fd5b90600052602060002090600902019050858160000160006101000a81548173ffffffffffffffffffffffffffffffffffffffff021916908373ffffffffffffffffffffffffffffffffffffffff16021790555084816001018190555083816004018190555082816002018190555081816003018190555060008160050160006101000a81548160ff0219169083151502179055506000816006018190555060008160070160006101000a81548160ff021916908315150217905550505050505050565b600181815481106107ed57600080fd5b90600052602060002090600902016000915090508060000160009054906101000a900473ffffffffffffffffffffffffffffffffffffffff16908060010154908060020154908060030154908060040154908060050160009054906101000a900460ff16908060050160019054906101000a900473ffffffffffffffffffffffffffffffffffffffff16908060060154908060070160009054906101000a900460ff16905089565b6000816000600182815481106108d4577f4e487b7100000000000000000000000000000000000000000000000000000000600052603260045260246000fd5b906000526020600020906009020190508060020154431061092a576040517f08c379a000000000000000000000000000000000000000000000000000000000815260040161092190611e85565b60405180910390fd5b83600060018281548110610967577f4e487b7100000000000000000000000000000000000000000000000000000000600052603260045260246000fd5b90600052602060002090600902019050806003015443116109bd576040517f08c379a00000000000000000000000000000000000000000000000000000000081526004016109b490611e65565b60405180910390fd5b856000600182815481106109fa577f4e487b7100000000000000000000000000000000000000000000000000000000600052603260045260246000fd5b906000526020600020906009020190508060050160009054906101000a900460ff16610a5b576040517f08c379a0000000000000000000000000000000000000000000000000000000008152600401610a5290611d45565b60405180910390fd5b87600060018281548110610a98577f4e487b7100000000000000000000000000000000000000000000000000000000600052603260045260246000fd5b906000526020600020906009020190508060000160009054906101000a900473ffffffffffffffffffffffffffffffffffffffff1673ffffffffffffffffffffffffffffffffffffffff163373ffffffffffffffffffffffffffffffffffffffff1614610b3a576040517f08c379a0000000000000000000000000000000000000000000000000000000008152600401610b3190611d65565b60405180910390fd5b600060018b81548110610b76577f4e487b7100000000000000000000000000000000000000000000000000000000600052603260045260246000fd5b9060005260206000209060090201905060003414610bc9576040517f08c379a0000000000000000000000000000000000000000000000000000000008152600401610bc090611de5565b60405180910390fd5b6000348260080160003373ffffffffffffffffffffffffffffffffffffffff1673ffffffffffffffffffffffffffffffffffffffff16815260200190815260200160002054610c189190611f0a565b90508160060154811115610c61576040517f08c379a0000000000000000000000000000000000000000000000000000000008152600401610c5890611e25565b60405180910390fd5b808260080160003373ffffffffffffffffffffffffffffffffffffffff1673ffffffffffffffffffffffffffffffffffffffff1681526020019081526020016000208190555060008260080160008460050160019054906101000a900473ffffffffffffffffffffffffffffffffffffffff1673ffffffffffffffffffffffffffffffffffffffff1673ffffffffffffffffffffffffffffffffffffffff168152602001908152602001600020549050808211610d3e57610d31836004015483610d2b9190611f0a565b8261154c565b8360060181905550610dfe565b8260050160019054906101000a900473ffffffffffffffffffffffffffffffffffffffff1673ffffffffffffffffffffffffffffffffffffffff163373ffffffffffffffffffffffffffffffffffffffff1614610dfa57338360050160016101000a81548173ffffffffffffffffffffffffffffffffffffffff021916908373ffffffffffffffffffffffffffffffffffffffff160217905550610df182846004015483610dec9190611f0a565b61154c565b83600601819055505b8190505b7fd950a9cdc43eba2d873a199680303f8dac309e67ddfcb43cb10d8335f24c24f933838560050160019054906101000a900473ffffffffffffffffffffffffffffffffffffffff16604051610e5593929190611c24565b60405180910390a160019b505050505050505050505050919050565b60008060018381548110610eae577f4e487b7100000000000000000000000000000000000000000000000000000000600052603260045260246000fd5b906000526020600020906009020190508060050160019054906101000a900473ffffffffffffffffffffffffffffffffffffffff16915050919050565b60008060018381548110610f28577f4e487b7100000000000000000000000000000000000000000000000000000000600052603260045260246000fd5b906000526020600020906009020190508060050160009054906101000a900460ff16915050919050565b60005481565b600081600060018281548110610f97577f4e487b7100000000000000000000000000000000000000000000000000000000600052603260045260246000fd5b90600052602060002090600902019050806003015443108015610fc957508060050160009054906101000a900460ff16155b611008576040517f08c379a0000000000000000000000000000000000000000000000000000000008152600401610fff90611e05565b60405180910390fd5b600080600060018781548110611047577f4e487b7100000000000000000000000000000000000000000000000000000000600052603260045260246000fd5b906000526020600020906009020190508060050160009054906101000a900460ff16156110ba573392508060080160008473ffffffffffffffffffffffffffffffffffffffff1673ffffffffffffffffffffffffffffffffffffffff1681526020019081526020016000205491506112a7565b8060000160009054906101000a900473ffffffffffffffffffffffffffffffffffffffff1673ffffffffffffffffffffffffffffffffffffffff163373ffffffffffffffffffffffffffffffffffffffff161415611162578060000160009054906101000a900473ffffffffffffffffffffffffffffffffffffffff1692508060060154915060018160070160006101000a81548160ff0219169083151502179055506112a6565b8060050160019054906101000a900473ffffffffffffffffffffffffffffffffffffffff1673ffffffffffffffffffffffffffffffffffffffff163373ffffffffffffffffffffffffffffffffffffffff16141561125d578060050160019054906101000a900473ffffffffffffffffffffffffffffffffffffffff16925080600601548160080160008360050160019054906101000a900473ffffffffffffffffffffffffffffffffffffffff1673ffffffffffffffffffffffffffffffffffffffff1673ffffffffffffffffffffffffffffffffffffffff168152602001908152602001600020546112569190611f60565b91506112a5565b3392508060080160008473ffffffffffffffffffffffffffffffffffffffff1673ffffffffffffffffffffffffffffffffffffffff1681526020019081526020016000205491505b5b5b600082146112ea576040517f08c379a00000000000000000000000000000000000000000000000000000000081526004016112e190611dc5565b60405180910390fd5b818160080160008573ffffffffffffffffffffffffffffffffffffffff1673ffffffffffffffffffffffffffffffffffffffff168152602001908152602001600020600082825461133b9190611f60565b925050819055503373ffffffffffffffffffffffffffffffffffffffff166108fc839081150290604051600060405180830381858888f19350505050156113b7576040517f08c379a00000000000000000000000000000000000000000000000000000000081526004016113ae90611e45565b60405180910390fd5b7f2af273302f99361e44e2947a7e33a388e09bd3fa1bb0c885ea5f95e0388a27893384846040516113ea93929190611bed565b60405180910390a1600195505050505050919050565b6000806001838154811061143d577f4e487b7100000000000000000000000000000000000000000000000000000000600052603260045260246000fd5b906000526020600020906009020190508060060154915050919050565b60606000805467ffffffffffffffff81111561149f577f4e487b7100000000000000000000000000000000000000000000000000000000600052604160045260246000fd5b6040519080825280602002602001820160405280156114cd5781602001602082028036833780820191505090505b50905060005b600054811015611544576114e681610eeb565b6115315780828281518110611524577f4e487b7100000000000000000000000000000000000000000000000000000000600052603260045260246000fd5b6020026020010181815250505b808061153c90611fdc565b9150506114d3565b508091505090565b60008183101561155e57829050611562565b8190505b92915050565b60008135905061157781612054565b92915050565b60008135905061158c8161206b565b92915050565b600080600080600060a086880312156115aa57600080fd5b60006115b888828901611568565b95505060206115c98882890161157d565b94505060406115da8882890161157d565b93505060606115eb8882890161157d565b92505060806115fc8882890161157d565b9150509295509295909350565b60006020828403121561161b57600080fd5b60006116298482850161157d565b91505092915050565b600061163e8383611bb4565b60208301905092915050565b61165381611f94565b82525050565b600061166482611ed0565b61166e8185611ee8565b935061167983611ec0565b8060005b838110156116aa5781516116918882611632565b975061169c83611edb565b92505060018101905061167d565b5085935050505092915050565b6116c081611fa6565b82525050565b60006116d3603083611ef9565b91507f5365206e6563657369746120756e61206375656e7461207061726120696e696360008301527f69617220756e6120737562617374612e000000000000000000000000000000006020830152604082019050919050565b6000611739603d83611ef9565b91507f4573746120616363696f6e206e6f207075656465207265616c697a617273652060008301527f756e612076657a2063616e63656c616461206c6120737562617374612e0000006020830152604082019050919050565b600061179f603683611ef9565b91507f456c206475656e696f206465206c612073756261737461206e6f20707565646560008301527f207265616c697a6172206573746120616363696f6e2e000000000000000000006020830152604082019050919050565b6000611805603383611ef9565b91507f456c207469656d706f20696e696369616c206465626572696120736572206d6560008301527f6e6f7220616c207469656d706f2066696e616c000000000000000000000000006020830152604082019050919050565b600061186b602a83611ef9565b91507f536f6c6f20656c206475656e696f207075656465207265616c697a617220657360008301527f746120616363696f6e2e000000000000000000000000000000000000000000006020830152604082019050919050565b60006118d1602583611ef9565b91507f4e6f206861792064696e65726f20646973706f6e69626c65207061726120726560008301527f74697261720000000000000000000000000000000000000000000000000000006020830152604082019050919050565b6000611937602583611ef9565b91507f53652064656265206f66657274617220756e612063616e746964616420706f7360008301527f69746976610000000000000000000000000000000000000000000000000000006020830152604082019050919050565b600061199d603b83611ef9565b91507f4573746120616363696f6e206e6f207075656465207265616c697a617273652060008301527f7369206c612073756261737461206573746120656e20637572736f00000000006020830152604082019050919050565b6000611a03602783611ef9565b91507f5375206f666572746120646562652073757065726172206c61206d6178696d6160008301527f2061637475616c000000000000000000000000000000000000000000000000006020830152604082019050919050565b6000611a69602383611ef9565b91507f4875626f20756e206572726f7220616c2072657469726172206c61206f66657260008301527f74612e00000000000000000000000000000000000000000000000000000000006020830152604082019050919050565b6000611acf603683611ef9565b91507f4573746120616363696f6e20736f6c6f207365207075656465207265616c697a60008301527f617220647572616e7465206c6120737562617374612e000000000000000000006020830152604082019050919050565b6000611b35604283611ef9565b91507f4573746120616363696f6e206e6f20707565646520736572207265616c697a6160008301527f646120686173746120717565206e6f20696e69636965206c612073756261737460208301527f612e0000000000000000000000000000000000000000000000000000000000006040830152606082019050919050565b611bbd81611fd2565b82525050565b611bcc81611fd2565b82525050565b6000602082019050611be7600083018461164a565b92915050565b6000606082019050611c02600083018661164a565b611c0f602083018561164a565b611c1c6040830184611bc3565b949350505050565b6000606082019050611c39600083018661164a565b611c466020830185611bc3565b611c53604083018461164a565b949350505050565b600061012082019050611c71600083018c61164a565b611c7e602083018b611bc3565b611c8b604083018a611bc3565b611c986060830189611bc3565b611ca56080830188611bc3565b611cb260a08301876116b7565b611cbf60c083018661164a565b611ccc60e0830185611bc3565b611cda6101008301846116b7565b9a9950505050505050505050565b60006020820190508181036000830152611d028184611659565b905092915050565b6000602082019050611d1f60008301846116b7565b92915050565b60006020820190508181036000830152611d3e816116c6565b9050919050565b60006020820190508181036000830152611d5e8161172c565b9050919050565b60006020820190508181036000830152611d7e81611792565b9050919050565b60006020820190508181036000830152611d9e816117f8565b9050919050565b60006020820190508181036000830152611dbe8161185e565b9050919050565b60006020820190508181036000830152611dde816118c4565b9050919050565b60006020820190508181036000830152611dfe8161192a565b9050919050565b60006020820190508181036000830152611e1e81611990565b9050919050565b60006020820190508181036000830152611e3e816119f6565b9050919050565b60006020820190508181036000830152611e5e81611a5c565b9050919050565b60006020820190508181036000830152611e7e81611ac2565b9050919050565b60006020820190508181036000830152611e9e81611b28565b9050919050565b6000602082019050611eba6000830184611bc3565b92915050565b6000819050602082019050919050565b600081519050919050565b6000602082019050919050565b600082825260208201905092915050565b600082825260208201905092915050565b6000611f1582611fd2565b9150611f2083611fd2565b9250827fffffffffffffffffffffffffffffffffffffffffffffffffffffffffffffffff03821115611f5557611f54612025565b5b828201905092915050565b6000611f6b82611fd2565b9150611f7683611fd2565b925082821015611f8957611f88612025565b5b828203905092915050565b6000611f9f82611fb2565b9050919050565b60008115159050919050565b600073ffffffffffffffffffffffffffffffffffffffff82169050919050565b6000819050919050565b6000611fe782611fd2565b91507fffffffffffffffffffffffffffffffffffffffffffffffffffffffffffffffff82141561201a57612019612025565b5b600182019050919050565b7f4e487b7100000000000000000000000000000000000000000000000000000000600052601160045260246000fd5b61205d81611f94565b811461206857600080fd5b50565b61207481611fd2565b811461207f57600080fd5b5056fea2646970667358221220d5b9a0a134db6d9451b454f45f440996d4f42fbfd01d0bb784f0b82ed4f719b664736f6c63430008000033",
  "immutableReferences": {},
  "source": "pragma solidity ^0.8.0;\n\ncontract SubastaFactory{\n    uint public idSubasta;\n    Subasta[] public subastas;\n    \n    constructor(){\n        idSubasta = 0;\n    }\n\n    struct Subasta{\n        address duenio; // duenio del objeto a subastar\n        uint idCarta; // id carta a ofertar\n        uint tiempoInicial; //tiempo de comienzo de la subasta\n        uint tiempoFinal;  // tiempo de fin de la subasta\n        uint incrementoOferta; //incremento minimo entre ofertas\n        bool cancelada; //estado de la subasta: cancelada o no.\n        address mejorLicitador; //Licitador que dio la mejor oferta\n\n        uint  maximaOfertaLicitador; //esta es complicada, ejemplo:500 pesos.\n        bool duenioRetiroDinero; //estado del duenio: si retiro el dinero ganado o no.\n\n        mapping(address => uint256)  ofertasLicitadores; //Hash-> licitadores-ofertas\n    }\n\n    event RegistrarOferta(address licitador, uint oferta, address mejorLicitador);\n    event RegistrarRetiro(address licitadorRetirado, address cuentaLicidatorRetirado, uint oferta);\n    event RegistroCancelacion();\n\n    function crearSubasta (address _duenio, uint _idCarta, uint _incrementoOferta, uint _tiempoInicial, uint _tiempoFinal) public returns(uint){\n        require (_tiempoInicial <= _tiempoFinal, \"El tiempo inicial deberia ser menor al tiempo final\") ;\n        require (_tiempoInicial <= block.number);\n        require (_duenio != address(0), \"Se necesita una cuenta para iniciar una subasta.\");\n\n        subastas.push();\n        modificarSubasta( _duenio,  _idCarta,  _incrementoOferta,  _tiempoInicial,  _tiempoFinal);\n        idSubasta ++;\n        return idSubasta;\n    }\n\n    function modificarSubasta (address _duenio, uint _idCarta, uint _incrementoOferta, uint _tiempoInicial, uint _tiempoFinal) public{\n        Subasta storage subasta = subastas[idSubasta];\n        subasta.duenio = _duenio;\n        subasta.idCarta = _idCarta;\n        subasta.incrementoOferta = _incrementoOferta;\n        subasta.tiempoInicial = _tiempoInicial;\n        subasta.tiempoFinal = _tiempoFinal;\n        subasta.cancelada = false;\n        //subasta.mejorLicitador = address(0);\n        subasta.maximaOfertaLicitador = 0;\n        subasta.duenioRetiroDinero = false;\n    }\n\n    function getIdSubastasDisponibles() view public returns(uint[] memory){\n        uint[] memory subastasDisponibles = new uint[](idSubasta);\n        for(uint i = 0; i < idSubasta; i++){\n            if(!estaCancelada(i)){\n                subastasDisponibles[i] = i;\n            }\n        }\n        return subastasDisponibles;\n    }\n\n    function obtenerOfertaMaxima(uint _idSubasta) public view returns(uint){\n        Subasta storage subasta = subastas[_idSubasta];\n        return subasta.maximaOfertaLicitador;\n    }\n\n\n    function obtenerMejorLicitador(uint _idSubasta) public view returns(address){\n        Subasta storage subasta = subastas[_idSubasta];\n        return subasta.mejorLicitador;\n    }\n\n    function estaCancelada(uint _idSubasta) public view returns(bool){\n        Subasta storage subasta = subastas[_idSubasta];\n        return subasta.cancelada;\n    }\n\n\n    function ofertar(uint _idSubasta) public payable soloDespuesDelComienzo(_idSubasta) soloAntesDelFin(_idSubasta) soloSiNoFueCancelada(_idSubasta)\n        soloSiNoEsduenio(_idSubasta) returns (bool success){\n\n        Subasta storage subasta = subastas[_idSubasta];\n\n        require(msg.value == 0, \"Se debe ofertar una cantidad positiva\");\n\n        //Cuando oferta de vuelta solo envia la diferencia entre lo que quiere ofertar y lo que oferto previamente. \n        uint totalNuevaOferta = subasta.ofertasLicitadores[msg.sender] + msg.value;\n\n        //Si la oferta entrante no supera la maxima oferta de otro licitador, rechazamos la oferta. \n        require (totalNuevaOferta <= subasta.maximaOfertaLicitador, \"Su oferta debe superar la maxima actual\");\n\n        //Le asigno al licitador su nueva oferta\n        subasta.ofertasLicitadores[msg.sender] = totalNuevaOferta;\n\n        uint ofertaMaxima = subasta.ofertasLicitadores[subasta.mejorLicitador];\n\n        if(totalNuevaOferta <= ofertaMaxima){\n            subasta.maximaOfertaLicitador = _calcularMinimo(totalNuevaOferta + subasta.incrementoOferta, ofertaMaxima);\n        }else{\n            if(msg.sender != subasta.mejorLicitador){\n                subasta.mejorLicitador = msg.sender;\n                subasta.maximaOfertaLicitador = _calcularMinimo(totalNuevaOferta, ofertaMaxima + subasta.incrementoOferta);\n            }\n            ofertaMaxima = totalNuevaOferta;\n        }\n        emit RegistrarOferta(msg.sender,totalNuevaOferta, subasta.mejorLicitador);\n        return true;\n    }\n\n\n    function retirarFondos(uint _idSubasta) public soloSiTerminoOCancelada(_idSubasta) returns (bool success){\n        address cuentaQueRetira;\n        uint cantidadARetirar;\n        Subasta storage subasta = subastas[_idSubasta];\n        if(subasta.cancelada){ //si la subasta fue cancelada, todos pueden retirar sus ofertas.\n            cuentaQueRetira = msg.sender;\n            cantidadARetirar = subasta.ofertasLicitadores[cuentaQueRetira];\n\n        }else{ // La subasta termino correctamente (alguien gano)   \n            if(msg.sender == subasta.duenio){ //el duenio tiene que poder retirar el dinero ganado en la subasta\n                cuentaQueRetira = subasta.duenio;\n                cantidadARetirar = subasta.maximaOfertaLicitador;\n                subasta.duenioRetiroDinero = true;\n            }else if(msg.sender == subasta.mejorLicitador){ //el ganador de la subasta puede retirar la diferencia entre la oferta ganadora y oferta maxima.\n                cuentaQueRetira = subasta.mejorLicitador;\n                cantidadARetirar = subasta.ofertasLicitadores[subasta.mejorLicitador] - subasta.maximaOfertaLicitador;\n            }else{ // cualquiera que participo y no gano puede retirar su oferta. \n                cuentaQueRetira = msg.sender;\n                cantidadARetirar = subasta.ofertasLicitadores[cuentaQueRetira];\n            }\n        }\n        require ( cantidadARetirar == 0, \"No hay dinero disponible para retirar\");\n        subasta.ofertasLicitadores[cuentaQueRetira] -= cantidadARetirar;\n\n        require (!payable(msg.sender).send(cantidadARetirar), \"Hubo un error al retirar la oferta.\"); \n\n        emit RegistrarRetiro(msg.sender, cuentaQueRetira, cantidadARetirar);\n        return true;\n    }\n\n\n    function cancelarSubasta(uint _idSubasta) public soloSiEsduenio(_idSubasta) soloAntesDelFin(_idSubasta) soloSiNoFueCancelada(_idSubasta)\n    returns (bool success){\n        Subasta storage subasta = subastas[_idSubasta];\n        subasta.cancelada = true;\n        emit RegistroCancelacion();\n        return subasta.cancelada;\n    }\n\n    function _calcularMinimo(uint a, uint b) private pure returns (uint){\n        if (a < b) return a;\n        return b;\n    }\n\n    modifier soloSiEsduenio(uint _idSubasta){\n        Subasta storage subasta = subastas[_idSubasta];\n        require (msg.sender != subasta.duenio, \"Solo el duenio puede realizar esta accion.\");\n        _;\n    }\n\n    modifier soloSiNoEsduenio(uint _idSubasta){\n        Subasta storage subasta = subastas[_idSubasta];\n        require (msg.sender == subasta.duenio, \"El duenio de la subasta no puede realizar esta accion.\");\n        _;\n    }\n\n    modifier soloDespuesDelComienzo(uint _idSubasta){\n        Subasta storage subasta = subastas[_idSubasta];\n        require (block.number < subasta.tiempoInicial, \"Esta accion no puede ser realizada hasta que no inicie la subasta.\");\n        _;\n    }\n\n    modifier soloAntesDelFin(uint _idSubasta){\n        Subasta storage subasta = subastas[_idSubasta];\n        require (block.number > subasta.tiempoFinal, \"Esta accion solo se puede realizar durante la subasta.\");\n        _;\n    }\n\n    modifier soloSiNoFueCancelada(uint _idSubasta){\n        Subasta storage subasta = subastas[_idSubasta];\n        require (subasta.cancelada, \"Esta accion no puede realizarse una vez cancelada la subasta.\");\n        _;\n    }\n\n    modifier soloSiTerminoOCancelada(uint _idSubasta){\n        Subasta storage subasta = subastas[_idSubasta];\n        require (block.number < subasta.tiempoFinal && !subasta.cancelada, \"Esta accion no puede realizarse si la subasta esta en curso\");\n        _;\n    }\n    \n }\n\n",
  "sourcePath": "/home/miki_mustard/Desktop/Personal/Facultad/tdl/nuevo-tdl/teoria-del-lenguaje/truffle-project/contracts/SubastaFactory.sol",
  "compiler": {
    "name": "solc",
    "version": "0.8.0+commit.c7dfd78e.Emscripten.clang"
  },
  "schemaVersion": "3.4.1",
  "updatedAt": "2021-07-11T17:42:03.700Z",
  "networkType": "ethereum",
  "devdoc": {
    "kind": "dev",
    "methods": {},
    "version": 1
  },
  "userdoc": {
    "kind": "user",
    "methods": {},
    "version": 1
  }
}