{
  "contractName": "SubastaFactory",
  "abi": [
    {
      "inputs": [
        {
          "internalType": "address",
          "name": "_ozAddress",
          "type": "address"
        }
      ],
      "stateMutability": "nonpayable",
      "type": "constructor"
    },
    {
      "anonymous": false,
      "inputs": [
        {
          "indexed": false,
          "internalType": "address",
          "name": "licitador",
          "type": "address"
        },
        {
          "indexed": false,
          "internalType": "uint256",
          "name": "oferta",
          "type": "uint256"
        },
        {
          "indexed": false,
          "internalType": "address",
          "name": "mejorLicitador",
          "type": "address"
        }
      ],
      "name": "RegistrarOferta",
      "type": "event"
    },
    {
      "anonymous": false,
      "inputs": [
        {
          "indexed": false,
          "internalType": "address",
          "name": "licitadorRetirado",
          "type": "address"
        },
        {
          "indexed": false,
          "internalType": "address",
          "name": "cuentaLicidatorRetirado",
          "type": "address"
        },
        {
          "indexed": false,
          "internalType": "uint256",
          "name": "oferta",
          "type": "uint256"
        }
      ],
      "name": "RegistrarRetiro",
      "type": "event"
    },
    {
      "anonymous": false,
      "inputs": [],
      "name": "RegistroCancelacion",
      "type": "event"
    },
    {
      "inputs": [],
      "name": "idSubasta",
      "outputs": [
        {
          "internalType": "uint256",
          "name": "",
          "type": "uint256"
        }
      ],
      "stateMutability": "view",
      "type": "function",
      "constant": true
    },
    {
      "inputs": [
        {
          "internalType": "uint256",
          "name": "",
          "type": "uint256"
        }
      ],
      "name": "subastas",
      "outputs": [
        {
          "internalType": "uint256",
          "name": "id",
          "type": "uint256"
        },
        {
          "internalType": "address",
          "name": "duenio",
          "type": "address"
        },
        {
          "internalType": "uint256",
          "name": "idCarta",
          "type": "uint256"
        },
        {
          "internalType": "uint256",
          "name": "tiempoInicial",
          "type": "uint256"
        },
        {
          "internalType": "uint256",
          "name": "tiempoFinal",
          "type": "uint256"
        },
        {
          "internalType": "uint256",
          "name": "incrementoOferta",
          "type": "uint256"
        },
        {
          "internalType": "bool",
          "name": "cancelada",
          "type": "bool"
        },
        {
          "internalType": "address",
          "name": "mejorLicitador",
          "type": "address"
        },
        {
          "internalType": "uint256",
          "name": "maximaOfertaLicitador",
          "type": "uint256"
        },
        {
          "internalType": "bool",
          "name": "duenioRetiroDinero",
          "type": "bool"
        }
      ],
      "stateMutability": "view",
      "type": "function",
      "constant": true
    },
    {
      "inputs": [
        {
          "internalType": "address",
          "name": "_duenio",
          "type": "address"
        },
        {
          "internalType": "uint256",
          "name": "_idCarta",
          "type": "uint256"
        },
        {
          "internalType": "uint256",
          "name": "_incrementoOferta",
          "type": "uint256"
        },
        {
          "internalType": "uint256",
          "name": "_tiempoInicial",
          "type": "uint256"
        },
        {
          "internalType": "uint256",
          "name": "_tiempoFinal",
          "type": "uint256"
        }
      ],
      "name": "crearSubasta",
      "outputs": [
        {
          "internalType": "uint256",
          "name": "",
          "type": "uint256"
        }
      ],
      "stateMutability": "nonpayable",
      "type": "function"
    },
    {
      "inputs": [
        {
          "internalType": "address",
          "name": "_duenio",
          "type": "address"
        },
        {
          "internalType": "uint256",
          "name": "_idCarta",
          "type": "uint256"
        },
        {
          "internalType": "uint256",
          "name": "_incrementoOferta",
          "type": "uint256"
        },
        {
          "internalType": "uint256",
          "name": "_tiempoInicial",
          "type": "uint256"
        },
        {
          "internalType": "uint256",
          "name": "_tiempoFinal",
          "type": "uint256"
        }
      ],
      "name": "modificarSubasta",
      "outputs": [],
      "stateMutability": "nonpayable",
      "type": "function"
    },
    {
      "inputs": [],
      "name": "getIdSubastasDisponibles",
      "outputs": [
        {
          "internalType": "uint256[]",
          "name": "",
          "type": "uint256[]"
        }
      ],
      "stateMutability": "view",
      "type": "function",
      "constant": true
    },
    {
      "inputs": [
        {
          "internalType": "address",
          "name": "_ozAddress",
          "type": "address"
        }
      ],
      "name": "setTokenAdress",
      "outputs": [
        {
          "internalType": "bool",
          "name": "",
          "type": "bool"
        }
      ],
      "stateMutability": "payable",
      "type": "function",
      "payable": true
    },
    {
      "inputs": [
        {
          "internalType": "uint256",
          "name": "_idSubasta",
          "type": "uint256"
        }
      ],
      "name": "getIdCartaEnSubasta",
      "outputs": [
        {
          "internalType": "uint256",
          "name": "",
          "type": "uint256"
        }
      ],
      "stateMutability": "view",
      "type": "function",
      "constant": true
    },
    {
      "inputs": [
        {
          "internalType": "uint256",
          "name": "_idSubasta",
          "type": "uint256"
        }
      ],
      "name": "obtenerOfertaMaxima",
      "outputs": [
        {
          "internalType": "uint256",
          "name": "",
          "type": "uint256"
        }
      ],
      "stateMutability": "view",
      "type": "function",
      "constant": true
    },
    {
      "inputs": [
        {
          "internalType": "uint256",
          "name": "_idSubasta",
          "type": "uint256"
        }
      ],
      "name": "obtenerMejorLicitador",
      "outputs": [
        {
          "internalType": "address",
          "name": "",
          "type": "address"
        }
      ],
      "stateMutability": "view",
      "type": "function",
      "constant": true
    },
    {
      "inputs": [
        {
          "internalType": "uint256",
          "name": "_idSubasta",
          "type": "uint256"
        }
      ],
      "name": "estaCancelada",
      "outputs": [
        {
          "internalType": "bool",
          "name": "",
          "type": "bool"
        }
      ],
      "stateMutability": "view",
      "type": "function",
      "constant": true
    },
    {
      "inputs": [
        {
          "internalType": "uint256",
          "name": "_idSubasta",
          "type": "uint256"
        },
        {
          "internalType": "uint256",
          "name": "_amount",
          "type": "uint256"
        },
        {
          "internalType": "address",
          "name": "_cuenta",
          "type": "address"
        }
      ],
      "name": "ofertar",
      "outputs": [
        {
          "internalType": "bool",
          "name": "success",
          "type": "bool"
        }
      ],
      "stateMutability": "payable",
      "type": "function",
      "payable": true
    },
    {
      "inputs": [
        {
          "internalType": "uint256",
          "name": "_idSubasta",
          "type": "uint256"
        },
        {
          "internalType": "address",
          "name": "_cuenta",
          "type": "address"
        }
      ],
      "name": "retirarFondos",
      "outputs": [
        {
          "internalType": "uint256",
          "name": "",
          "type": "uint256"
        }
      ],
      "stateMutability": "payable",
      "type": "function",
      "payable": true
    },
    {
      "inputs": [
        {
          "internalType": "uint256",
          "name": "_idSubasta",
          "type": "uint256"
        },
        {
          "internalType": "address",
          "name": "_cuenta",
          "type": "address"
        }
      ],
      "name": "cancelarSubasta",
      "outputs": [
        {
          "internalType": "bool",
          "name": "success",
          "type": "bool"
        }
      ],
      "stateMutability": "nonpayable",
      "type": "function"
    }
  ],
  "bytecode": "0x60806040523480156200001157600080fd5b50604051620027ba380380620027ba8339818101604052810190620000379190620000de565b6000808190555080600260006101000a81548173ffffffffffffffffffffffffffffffffffffffff021916908373ffffffffffffffffffffffffffffffffffffffff16021790555033600360006101000a81548173ffffffffffffffffffffffffffffffffffffffff021916908373ffffffffffffffffffffffffffffffffffffffff1602179055505062000158565b600081519050620000d8816200013e565b92915050565b600060208284031215620000f157600080fd5b60006200010184828501620000c7565b91505092915050565b600062000117826200011e565b9050919050565b600073ffffffffffffffffffffffffffffffffffffffff82169050919050565b62000149816200010a565b81146200015557600080fd5b50565b61265280620001686000396000f3fe6080604052600436106100c25760003560e01c806376fe162e1161007f578063906071911161005957806390607191146102b5578063a99a476f146102f2578063ac3ccae614610322578063be379f761461035f576100c2565b806376fe162e1461021d5780637984c8a21461025a5780638bb0d81014610285576100c2565b80630ddaf585146100c757806329a9d96d14610104578063355597431461012d5780634d9770cb146101735780635e033ff1146101b057806364bdfea3146101e0575b600080fd5b3480156100d357600080fd5b506100ee60048036038101906100e991906119a3565b61038a565b6040516100fb919061238c565b60405180910390f35b34801561011057600080fd5b5061012b600480360381019061012691906119a3565b6104a0565b005b34801561013957600080fd5b50610154600480360381019061014f9190611a43565b6105ac565b60405161016a9a999897969594939291906123a7565b60405180910390f35b34801561017f57600080fd5b5061019a60048036038101906101959190611a95565b61066a565b6040516101a791906121d1565b60405180910390f35b6101ca60048036038101906101c59190611ad1565b610935565b6040516101d791906121d1565b60405180910390f35b3480156101ec57600080fd5b5061020760048036038101906102029190611a43565b61107f565b6040516102149190612126565b60405180910390f35b34801561022957600080fd5b50610244600480360381019061023f9190611a43565b6110f9565b60405161025191906121d1565b60405180910390f35b34801561026657600080fd5b5061026f611160565b60405161027c919061238c565b60405180910390f35b61029f600480360381019061029a919061197a565b611166565b6040516102ac91906121d1565b60405180910390f35b3480156102c157600080fd5b506102dc60048036038101906102d79190611a43565b611242565b6040516102e9919061238c565b60405180910390f35b61030c60048036038101906103079190611a95565b611297565b604051610319919061238c565b60405180910390f35b34801561032e57600080fd5b5061034960048036038101906103449190611a43565b6117cc565b604051610356919061238c565b60405180910390f35b34801561036b57600080fd5b50610374611826565b60405161038191906121af565b60405180910390f35b6000818311156103cf576040517f08c379a00000000000000000000000000000000000000000000000000000000081526004016103c69061228c565b60405180910390fd5b438311156103dc57600080fd5b600073ffffffffffffffffffffffffffffffffffffffff168673ffffffffffffffffffffffffffffffffffffffff16141561044c576040517f08c379a0000000000000000000000000000000000000000000000000000000008152600401610443906121ec565b60405180910390fd5b600180816001815401808255809150500390600052602060002090505061047686868686866104a0565b60008054905060008081548092919061048e9061255f565b91905055508091505095945050505050565b60006001600054815481106104de577f4e487b7100000000000000000000000000000000000000000000000000000000600052603260045260246000fd5b90600052602060002090600a020190506000548160000181905550858160010160006101000a81548173ffffffffffffffffffffffffffffffffffffffff021916908373ffffffffffffffffffffffffffffffffffffffff16021790555084816002018190555083816005018190555082816003018190555081816004018190555060008160060160006101000a81548160ff0219169083151502179055506000816007018190555060008160080160006101000a81548160ff021916908315150217905550505050505050565b600181815481106105bc57600080fd5b90600052602060002090600a02016000915090508060000154908060010160009054906101000a900473ffffffffffffffffffffffffffffffffffffffff16908060020154908060030154908060040154908060050154908060060160009054906101000a900460ff16908060060160019054906101000a900473ffffffffffffffffffffffffffffffffffffffff16908060070154908060080160009054906101000a900460ff1690508a565b600082826000600183815481106106aa577f4e487b7100000000000000000000000000000000000000000000000000000000600052603260045260246000fd5b90600052602060002090600a020190508060010160009054906101000a900473ffffffffffffffffffffffffffffffffffffffff1673ffffffffffffffffffffffffffffffffffffffff168273ffffffffffffffffffffffffffffffffffffffff161461074c576040517f08c379a0000000000000000000000000000000000000000000000000000000008152600401610743906122ac565b60405180910390fd5b85600060018281548110610789577f4e487b7100000000000000000000000000000000000000000000000000000000600052603260045260246000fd5b90600052602060002090600a02019050806004015443106107df576040517f08c379a00000000000000000000000000000000000000000000000000000000081526004016107d69061234c565b60405180910390fd5b8760006001828154811061081c577f4e487b7100000000000000000000000000000000000000000000000000000000600052603260045260246000fd5b90600052602060002090600a020190508060060160009054906101000a900460ff161561087e576040517f08c379a00000000000000000000000000000000000000000000000000000000081526004016108759061220c565b60405180910390fd5b600060018b815481106108ba577f4e487b7100000000000000000000000000000000000000000000000000000000600052603260045260246000fd5b90600052602060002090600a0201905060018160060160006101000a81548160ff0219169083151502179055507f49915020f6653aecea8dea37ab114766a9b2e5add00c4e053faba010986be65660405160405180910390a18060060160009054906101000a900460ff169850505050505050505092915050565b600083600060018281548110610974577f4e487b7100000000000000000000000000000000000000000000000000000000600052603260045260246000fd5b90600052602060002090600a02019050806003015443116109ca576040517f08c379a00000000000000000000000000000000000000000000000000000000081526004016109c19061236c565b60405180910390fd5b85600060018281548110610a07577f4e487b7100000000000000000000000000000000000000000000000000000000600052603260045260246000fd5b90600052602060002090600a0201905080600401544310610a5d576040517f08c379a0000000000000000000000000000000000000000000000000000000008152600401610a549061234c565b60405180910390fd5b87600060018281548110610a9a577f4e487b7100000000000000000000000000000000000000000000000000000000600052603260045260246000fd5b90600052602060002090600a020190508060060160009054906101000a900460ff1615610afc576040517f08c379a0000000000000000000000000000000000000000000000000000000008152600401610af39061220c565b60405180910390fd5b8988600060018381548110610b3a577f4e487b7100000000000000000000000000000000000000000000000000000000600052603260045260246000fd5b90600052602060002090600a020190508060010160009054906101000a900473ffffffffffffffffffffffffffffffffffffffff1673ffffffffffffffffffffffffffffffffffffffff168273ffffffffffffffffffffffffffffffffffffffff161415610bdd576040517f08c379a0000000000000000000000000000000000000000000000000000000008152600401610bd49061226c565b60405180910390fd5b600060018e81548110610c19577f4e487b7100000000000000000000000000000000000000000000000000000000600052603260045260246000fd5b90600052602060002090600a0201905060008d905060008d905081600260009054906101000a900473ffffffffffffffffffffffffffffffffffffffff1673ffffffffffffffffffffffffffffffffffffffff166370a08231836040518263ffffffff1660e01b8152600401610c8f9190612126565b60206040518083038186803b158015610ca757600080fd5b505afa158015610cbb573d6000803e3d6000fd5b505050506040513d601f19601f82011682018060405250810190610cdf9190611a6c565b1015610d20576040517f08c379a0000000000000000000000000000000000000000000000000000000008152600401610d179061222c565b60405180910390fd5b60008f8460090160008473ffffffffffffffffffffffffffffffffffffffff1673ffffffffffffffffffffffffffffffffffffffff16815260200190815260200160002054610d6f919061248d565b90508360070154811015610db8576040517f08c379a0000000000000000000000000000000000000000000000000000000008152600401610daf9061232c565b60405180910390fd5b808460090160008473ffffffffffffffffffffffffffffffffffffffff1673ffffffffffffffffffffffffffffffffffffffff1681526020019081526020016000208190555060008460090160008660060160019054906101000a900473ffffffffffffffffffffffffffffffffffffffff1673ffffffffffffffffffffffffffffffffffffffff1673ffffffffffffffffffffffffffffffffffffffff168152602001908152602001600020549050808211610e9557610e88856005015483610e82919061248d565b8261190a565b8560070181905550610f55565b8460060160019054906101000a900473ffffffffffffffffffffffffffffffffffffffff1673ffffffffffffffffffffffffffffffffffffffff163373ffffffffffffffffffffffffffffffffffffffff1614610f51578f8560060160016101000a81548173ffffffffffffffffffffffffffffffffffffffff021916908373ffffffffffffffffffffffffffffffffffffffff160217905550610f4882866005015483610f43919061248d565b61190a565b85600701819055505b8190505b600260009054906101000a900473ffffffffffffffffffffffffffffffffffffffff1673ffffffffffffffffffffffffffffffffffffffff166323b872dd8430876040518463ffffffff1660e01b8152600401610fb493929190612141565b602060405180830381600087803b158015610fce57600080fd5b505af1158015610fe2573d6000803e3d6000fd5b505050506040513d601f19601f820116820180604052508101906110069190611a1a565b507fd950a9cdc43eba2d873a199680303f8dac309e67ddfcb43cb10d8335f24c24f983838760060160019054906101000a900473ffffffffffffffffffffffffffffffffffffffff1660405161105e93929190612178565b60405180910390a160019e5050505050505050505050505050509392505050565b600080600183815481106110bc577f4e487b7100000000000000000000000000000000000000000000000000000000600052603260045260246000fd5b90600052602060002090600a020190508060060160019054906101000a900473ffffffffffffffffffffffffffffffffffffffff16915050919050565b60008060018381548110611136577f4e487b7100000000000000000000000000000000000000000000000000000000600052603260045260246000fd5b90600052602060002090600a020190508060060160009054906101000a900460ff16915050919050565b60005481565b6000600360009054906101000a900473ffffffffffffffffffffffffffffffffffffffff1673ffffffffffffffffffffffffffffffffffffffff163373ffffffffffffffffffffffffffffffffffffffff16146111f8576040517f08c379a00000000000000000000000000000000000000000000000000000000081526004016111ef9061230c565b60405180910390fd5b81600260006101000a81548173ffffffffffffffffffffffffffffffffffffffff021916908373ffffffffffffffffffffffffffffffffffffffff16021790555060019050919050565b60006001828154811061127e577f4e487b7100000000000000000000000000000000000000000000000000000000600052603260045260246000fd5b90600052602060002090600a0201600201549050919050565b6000826000600182815481106112d6577f4e487b7100000000000000000000000000000000000000000000000000000000600052603260045260246000fd5b90600052602060002090600a02019050806004015443108061130757508060060160009054906101000a900460ff16155b611346576040517f08c379a000000000000000000000000000000000000000000000000000000000815260040161133d906122ec565b60405180910390fd5b600080600060018881548110611385577f4e487b7100000000000000000000000000000000000000000000000000000000600052603260045260246000fd5b90600052602060002090600a020190508060060160009054906101000a900460ff166113e6576040517f08c379a00000000000000000000000000000000000000000000000000000000081526004016113dd9061224c565b60405180910390fd5b8060060160009054906101000a900460ff1615611449578692508060090160008473ffffffffffffffffffffffffffffffffffffffff1673ffffffffffffffffffffffffffffffffffffffff168152602001908152602001600020549150611636565b8060010160009054906101000a900473ffffffffffffffffffffffffffffffffffffffff1673ffffffffffffffffffffffffffffffffffffffff168773ffffffffffffffffffffffffffffffffffffffff1614156114f1578060010160009054906101000a900473ffffffffffffffffffffffffffffffffffffffff1692508060070154915060018160080160006101000a81548160ff021916908315150217905550611635565b8060060160019054906101000a900473ffffffffffffffffffffffffffffffffffffffff1673ffffffffffffffffffffffffffffffffffffffff168773ffffffffffffffffffffffffffffffffffffffff1614156115ec578060060160019054906101000a900473ffffffffffffffffffffffffffffffffffffffff16925080600701548160090160008360060160019054906101000a900473ffffffffffffffffffffffffffffffffffffffff1673ffffffffffffffffffffffffffffffffffffffff1673ffffffffffffffffffffffffffffffffffffffff168152602001908152602001600020546115e591906124e3565b9150611634565b8692508060090160008473ffffffffffffffffffffffffffffffffffffffff1673ffffffffffffffffffffffffffffffffffffffff1681526020019081526020016000205491505b5b5b60008214611679576040517f08c379a0000000000000000000000000000000000000000000000000000000008152600401611670906122cc565b60405180910390fd5b818160090160008573ffffffffffffffffffffffffffffffffffffffff1673ffffffffffffffffffffffffffffffffffffffff16815260200190815260200160002060008282546116ca91906124e3565b92505081905550600260009054906101000a900473ffffffffffffffffffffffffffffffffffffffff1673ffffffffffffffffffffffffffffffffffffffff166323b872dd3089856040518463ffffffff1660e01b815260040161173093929190612141565b602060405180830381600087803b15801561174a57600080fd5b505af115801561175e573d6000803e3d6000fd5b505050506040513d601f19601f820116820180604052508101906117829190611a1a565b507f2af273302f99361e44e2947a7e33a388e09bd3fa1bb0c885ea5f95e0388a27898784846040516117b693929190612141565b60405180910390a1819550505050505092915050565b60008060018381548110611809577f4e487b7100000000000000000000000000000000000000000000000000000000600052603260045260246000fd5b90600052602060002090600a020190508060070154915050919050565b60606000805467ffffffffffffffff81111561186b577f4e487b7100000000000000000000000000000000000000000000000000000000600052604160045260246000fd5b6040519080825280602002602001820160405280156118995781602001602082028036833780820191505090505b50905060005b60005481101561190257808282815181106118e3577f4e487b7100000000000000000000000000000000000000000000000000000000600052603260045260246000fd5b60200260200101818152505080806118fa9061255f565b91505061189f565b508091505090565b60008183101561191c57829050611920565b8190505b92915050565b600081359050611935816125d7565b92915050565b60008151905061194a816125ee565b92915050565b60008135905061195f81612605565b92915050565b60008151905061197481612605565b92915050565b60006020828403121561198c57600080fd5b600061199a84828501611926565b91505092915050565b600080600080600060a086880312156119bb57600080fd5b60006119c988828901611926565b95505060206119da88828901611950565b94505060406119eb88828901611950565b93505060606119fc88828901611950565b9250506080611a0d88828901611950565b9150509295509295909350565b600060208284031215611a2c57600080fd5b6000611a3a8482850161193b565b91505092915050565b600060208284031215611a5557600080fd5b6000611a6384828501611950565b91505092915050565b600060208284031215611a7e57600080fd5b6000611a8c84828501611965565b91505092915050565b60008060408385031215611aa857600080fd5b6000611ab685828601611950565b9250506020611ac785828601611926565b9150509250929050565b600080600060608486031215611ae657600080fd5b6000611af486828701611950565b9350506020611b0586828701611950565b9250506040611b1686828701611926565b9150509250925092565b6000611b2c8383612108565b60208301905092915050565b611b4181612517565b82525050565b6000611b5282612453565b611b5c818561246b565b9350611b6783612443565b8060005b83811015611b98578151611b7f8882611b20565b9750611b8a8361245e565b925050600181019050611b6b565b5085935050505092915050565b611bae81612529565b82525050565b6000611bc160308361247c565b91507f5365206e6563657369746120756e61206375656e7461207061726120696e696360008301527f69617220756e6120737562617374612e000000000000000000000000000000006020830152604082019050919050565b6000611c27603d8361247c565b91507f4573746120616363696f6e206e6f207075656465207265616c697a617273652060008301527f756e612076657a2063616e63656c616461206c6120737562617374612e0000006020830152604082019050919050565b6000611c8d60318361247c565b91507f4e6f207469656e652073616c646f20737566696369656e74652070617261207260008301527f65616c697a6172206c61206f66657274610000000000000000000000000000006020830152604082019050919050565b6000611cf3603b8361247c565b91507f4e6f20707565646520726574697261722073757320666f6e646f73206861737460008301527f6120717565206e6f207465726d696e65206c61207375626173746100000000006020830152604082019050919050565b6000611d5960368361247c565b91507f456c206475656e696f206465206c612073756261737461206e6f20707565646560008301527f207265616c697a6172206573746120616363696f6e2e000000000000000000006020830152604082019050919050565b6000611dbf60338361247c565b91507f456c207469656d706f20696e696369616c206465626572696120736572206d6560008301527f6e6f7220616c207469656d706f2066696e616c000000000000000000000000006020830152604082019050919050565b6000611e25602a8361247c565b91507f536f6c6f20656c206475656e696f207075656465207265616c697a617220657360008301527f746120616363696f6e2e000000000000000000000000000000000000000000006020830152604082019050919050565b6000611e8b60258361247c565b91507f4e6f206861792064696e65726f20646973706f6e69626c65207061726120726560008301527f74697261720000000000000000000000000000000000000000000000000000006020830152604082019050919050565b6000611ef1603b8361247c565b91507f4573746120616363696f6e206e6f207075656465207265616c697a617273652060008301527f7369206c612073756261737461206573746120656e20637572736f00000000006020830152604082019050919050565b6000611f5760258361247c565b91507f536f6c6f20656c204f574e45522070756564652063616d6269617220656c205460008301527f6f6b656e2e0000000000000000000000000000000000000000000000000000006020830152604082019050919050565b6000611fbd60278361247c565b91507f5375206f666572746120646562652073757065726172206c61206d6178696d6160008301527f2061637475616c000000000000000000000000000000000000000000000000006020830152604082019050919050565b600061202360368361247c565b91507f4573746120616363696f6e20736f6c6f207365207075656465207265616c697a60008301527f617220647572616e7465206c6120737562617374612e000000000000000000006020830152604082019050919050565b600061208960428361247c565b91507f4573746120616363696f6e206e6f20707565646520736572207265616c697a6160008301527f646120686173746120717565206e6f20696e69636965206c612073756261737460208301527f612e0000000000000000000000000000000000000000000000000000000000006040830152606082019050919050565b61211181612555565b82525050565b61212081612555565b82525050565b600060208201905061213b6000830184611b38565b92915050565b60006060820190506121566000830186611b38565b6121636020830185611b38565b6121706040830184612117565b949350505050565b600060608201905061218d6000830186611b38565b61219a6020830185612117565b6121a76040830184611b38565b949350505050565b600060208201905081810360008301526121c98184611b47565b905092915050565b60006020820190506121e66000830184611ba5565b92915050565b6000602082019050818103600083015261220581611bb4565b9050919050565b6000602082019050818103600083015261222581611c1a565b9050919050565b6000602082019050818103600083015261224581611c80565b9050919050565b6000602082019050818103600083015261226581611ce6565b9050919050565b6000602082019050818103600083015261228581611d4c565b9050919050565b600060208201905081810360008301526122a581611db2565b9050919050565b600060208201905081810360008301526122c581611e18565b9050919050565b600060208201905081810360008301526122e581611e7e565b9050919050565b6000602082019050818103600083015261230581611ee4565b9050919050565b6000602082019050818103600083015261232581611f4a565b9050919050565b6000602082019050818103600083015261234581611fb0565b9050919050565b6000602082019050818103600083015261236581612016565b9050919050565b600060208201905081810360008301526123858161207c565b9050919050565b60006020820190506123a16000830184612117565b92915050565b6000610140820190506123bd600083018d612117565b6123ca602083018c611b38565b6123d7604083018b612117565b6123e4606083018a612117565b6123f16080830189612117565b6123fe60a0830188612117565b61240b60c0830187611ba5565b61241860e0830186611b38565b612426610100830185612117565b612434610120830184611ba5565b9b9a5050505050505050505050565b6000819050602082019050919050565b600081519050919050565b6000602082019050919050565b600082825260208201905092915050565b600082825260208201905092915050565b600061249882612555565b91506124a383612555565b9250827fffffffffffffffffffffffffffffffffffffffffffffffffffffffffffffffff038211156124d8576124d76125a8565b5b828201905092915050565b60006124ee82612555565b91506124f983612555565b92508282101561250c5761250b6125a8565b5b828203905092915050565b600061252282612535565b9050919050565b60008115159050919050565b600073ffffffffffffffffffffffffffffffffffffffff82169050919050565b6000819050919050565b600061256a82612555565b91507fffffffffffffffffffffffffffffffffffffffffffffffffffffffffffffffff82141561259d5761259c6125a8565b5b600182019050919050565b7f4e487b7100000000000000000000000000000000000000000000000000000000600052601160045260246000fd5b6125e081612517565b81146125eb57600080fd5b50565b6125f781612529565b811461260257600080fd5b50565b61260e81612555565b811461261957600080fd5b5056fea2646970667358221220cca9ba712aba92f451017dde6328249e3765395b63292beb161cb54b8d7409aa64736f6c63430008000033",
  "immutableReferences": {},
  "source": "pragma solidity ^0.8.0;\n\nimport \"./ozToken.sol\";\nimport \"./IOzToken.sol\";\n\ncontract SubastaFactory {\n    uint public idSubasta;\n    Subasta[] public subastas;\n    IOzToken ozContract;\n    address owner;\n    \n    constructor(address _ozAddress){\n        idSubasta = 0;\n        ozContract = IOzToken(_ozAddress);\n        owner = msg.sender;\n    }\n\n    struct Subasta{\n        uint id; // identificador de la subasta\n        address duenio; // duenio del objeto a subastar\n        uint idCarta; // id carta a ofertar\n        uint tiempoInicial; //tiempo de comienzo de la subasta\n        uint tiempoFinal;  // tiempo de fin de la subasta\n        uint incrementoOferta; //incremento minimo entre ofertas\n        bool cancelada; //estado de la subasta: cancelada o no.\n        address mejorLicitador; //Licitador que dio la mejor oferta\n\n        uint  maximaOfertaLicitador; //esta es complicada, ejemplo:500 pesos.\n        bool duenioRetiroDinero; //estado del duenio: si retiro el dinero ganado o no.\n        mapping(address => uint256)  ofertasLicitadores; //Hash-> licitadores-ofertas\n    }\n\n    event RegistrarOferta(address licitador, uint oferta, address mejorLicitador);\n    event RegistrarRetiro(address licitadorRetirado, address cuentaLicidatorRetirado, uint oferta);\n    event RegistroCancelacion();\n\n    function crearSubasta (address _duenio, uint _idCarta, uint _incrementoOferta, uint _tiempoInicial, uint _tiempoFinal) public returns(uint){\n        require (_tiempoInicial <= _tiempoFinal, \"El tiempo inicial deberia ser menor al tiempo final\") ;\n        require (_tiempoInicial <= block.number);\n        require (_duenio != address(0), \"Se necesita una cuenta para iniciar una subasta.\");\n        subastas.push();\n        modificarSubasta(_duenio, _idCarta, _incrementoOferta, _tiempoInicial, _tiempoFinal);\n        uint idNuevaSubasta = idSubasta;\n        idSubasta ++;\n        return idNuevaSubasta;\n    }\n\n    function modificarSubasta (address _duenio, uint _idCarta, uint _incrementoOferta, uint _tiempoInicial, uint _tiempoFinal) public{\n        Subasta storage subasta = subastas[idSubasta];\n        subasta.id = idSubasta;\n        subasta.duenio = _duenio;\n        subasta.idCarta = _idCarta;\n        subasta.incrementoOferta = _incrementoOferta;\n        subasta.tiempoInicial = _tiempoInicial;\n        subasta.tiempoFinal = _tiempoFinal;\n        subasta.cancelada = false;\n        subasta.maximaOfertaLicitador = 0;\n        subasta.duenioRetiroDinero = false;\n    }\n\n    function getIdSubastasDisponibles() view public returns(uint[] memory){\n        uint[] memory subastasDisponibles = new uint[](idSubasta);\n        for(uint i = 0; i < idSubasta; i++){\n            subastasDisponibles[i] = i;            \n        }\n        return subastasDisponibles;\n    }\n\n    function setTokenAdress(address _ozAddress) public payable returns(bool){\n        require(msg.sender == owner, \"Solo el OWNER puede cambiar el Token.\");\n        ozContract = IOzToken(_ozAddress);\n        return true;\n    }\n\n    function getIdCartaEnSubasta(uint _idSubasta) view public returns(uint){\n        return subastas[_idSubasta].idCarta;\n    }\n\n    function obtenerOfertaMaxima(uint _idSubasta) public view returns(uint){\n        Subasta storage subasta = subastas[_idSubasta];\n        return subasta.maximaOfertaLicitador;\n    }\n\n    function obtenerMejorLicitador(uint _idSubasta) public view returns(address){\n        Subasta storage subasta = subastas[_idSubasta];\n        return subasta.mejorLicitador;\n    }\n\n    function estaCancelada(uint _idSubasta) public view returns(bool){\n        Subasta storage subasta = subastas[_idSubasta];\n        return subasta.cancelada;\n    }\n\n    function ofertar(uint _idSubasta, uint _amount , address _cuenta) public payable soloDespuesDelComienzo(_idSubasta) soloAntesDelFin(_idSubasta) soloSiNoFueCancelada(_idSubasta)\n        soloSiNoEsduenio(_idSubasta, _cuenta) returns (bool success){\n\n        Subasta storage subasta = subastas[_idSubasta];\n        uint cantidadOferta = _amount;\n        address cuentaOferta = _cuenta;\n        \n        require(ozContract.balanceOf(cuentaOferta) >= cantidadOferta, \"No tiene saldo suficiente para realizar la oferta\");\n\n        uint totalNuevaOferta = subasta.ofertasLicitadores[cuentaOferta] + _amount;\n        \n        //Si la oferta entrante no supera la maxima oferta de otro licitador, rechazamos la oferta. \n        require (totalNuevaOferta >= subasta.maximaOfertaLicitador, \"Su oferta debe superar la maxima actual\");\n\n        //Le asigno al licitador su nueva oferta\n        subasta.ofertasLicitadores[cuentaOferta] = totalNuevaOferta;\n\n        uint ofertaMaxima = subasta.ofertasLicitadores[subasta.mejorLicitador];\n\n        if (totalNuevaOferta <= ofertaMaxima) {\n            subasta.maximaOfertaLicitador = _calcularMinimo(totalNuevaOferta + subasta.incrementoOferta, ofertaMaxima);\n        } else {\n            if(msg.sender != subasta.mejorLicitador){\n                subasta.mejorLicitador = _cuenta;\n                subasta.maximaOfertaLicitador = _calcularMinimo(totalNuevaOferta, ofertaMaxima + subasta.incrementoOferta);\n            }\n            ofertaMaxima = totalNuevaOferta;\n        }\n\n        ozContract.transferFrom(cuentaOferta, address(this), cantidadOferta);\n        emit RegistrarOferta(cuentaOferta,totalNuevaOferta, subasta.mejorLicitador);\n\n        return true;\n    }\n\n    function retirarFondos(uint _idSubasta , address _cuenta ) public payable soloSiTerminoOCancelada(_idSubasta) returns (uint){\n\n        address cuentaQueRetira;\n        uint cantidadARetirar;\n        Subasta storage subasta = subastas[_idSubasta];\n        require ( subasta.cancelada , \"No puede retirar sus fondos hasta que no termine la subasta\");\n        if(subasta.cancelada){ //si la subasta fue cancelada, todos pueden retirar sus ofertas.\n            cuentaQueRetira = _cuenta;\n            cantidadARetirar = subasta.ofertasLicitadores[cuentaQueRetira];\n\n        }else{ // La subasta termino correctamente (alguien gano)   \n            if(_cuenta == subasta.duenio){ //el duenio tiene que poder retirar el dinero ganado en la subasta\n                cuentaQueRetira = subasta.duenio;\n                cantidadARetirar = subasta.maximaOfertaLicitador;\n                subasta.duenioRetiroDinero = true;\n            }else if(_cuenta == subasta.mejorLicitador){ //el ganador de la subasta puede retirar la diferencia entre la oferta ganadora y oferta maxima.\n                cuentaQueRetira = subasta.mejorLicitador;\n                cantidadARetirar = subasta.ofertasLicitadores[subasta.mejorLicitador] - subasta.maximaOfertaLicitador;\n            }else{ // cualquiera que participo y no gano puede retirar su oferta. \n                cuentaQueRetira = _cuenta;\n                cantidadARetirar = subasta.ofertasLicitadores[cuentaQueRetira];\n            }\n        }\n        require ( cantidadARetirar == 0, \"No hay dinero disponible para retirar\");\n        subasta.ofertasLicitadores[cuentaQueRetira] -= cantidadARetirar;\n\n        //require (!payable(msg.sender).send(cantidadARetirar), \"Hubo un error al retirar la oferta.\");\n        ozContract.transferFrom(address(this), _cuenta, cantidadARetirar);\n        emit RegistrarRetiro(_cuenta, cuentaQueRetira, cantidadARetirar);\n        return cantidadARetirar;\n    }\n\n    function cancelarSubasta(uint _idSubasta , address _cuenta) public soloSiEsduenio(_idSubasta, _cuenta) soloAntesDelFin(_idSubasta) soloSiNoFueCancelada(_idSubasta)\n    returns (bool success){\n        Subasta storage subasta = subastas[_idSubasta];\n        subasta.cancelada = true;\n        emit RegistroCancelacion();\n        return subasta.cancelada;\n    }\n\n    function _calcularMinimo(uint a, uint b) private pure returns (uint){\n        if (a < b) return a;\n        return b;\n    }\n\n    modifier soloSiEsduenio(uint _idSubasta, address _cuenta){\n        Subasta storage subasta = subastas[_idSubasta];\n        require (_cuenta == subasta.duenio, \"Solo el duenio puede realizar esta accion.\");\n        _;\n    }\n\n    modifier soloSiNoEsduenio(uint _idSubasta, address _cuenta){\n        Subasta storage subasta = subastas[_idSubasta];\n        require ( _cuenta != subasta.duenio, \"El duenio de la subasta no puede realizar esta accion.\");\n        _;\n    }\n\n    modifier soloDespuesDelComienzo(uint _idSubasta){\n        Subasta storage subasta = subastas[_idSubasta];\n        require (block.number > subasta.tiempoInicial, \"Esta accion no puede ser realizada hasta que no inicie la subasta.\");\n        _;\n    }\n\n    modifier soloAntesDelFin(uint _idSubasta){\n        Subasta storage subasta = subastas[_idSubasta];\n        require (block.number < subasta.tiempoFinal, \"Esta accion solo se puede realizar durante la subasta.\");\n        _;\n    }\n\n    modifier soloSiNoFueCancelada(uint _idSubasta){\n        Subasta storage subasta = subastas[_idSubasta];\n        require (!subasta.cancelada , \"Esta accion no puede realizarse una vez cancelada la subasta.\");\n        _;\n    }\n\n    modifier soloSiTerminoOCancelada(uint _idSubasta){\n        Subasta storage subasta = subastas[_idSubasta];\n        require (block.number < subasta.tiempoFinal || !subasta.cancelada, \"Esta accion no puede realizarse si la subasta esta en curso\");\n        _;\n    }\n\n    \n }\n\n",
  "sourcePath": "/home/miki_mustard/Desktop/Personal/Facultad/tdl/nuevo-tdl/teoria-del-lenguaje/truffle-project/contracts/SubastaFactory.sol",
  "compiler": {
    "name": "solc",
    "version": "0.8.0+commit.c7dfd78e.Emscripten.clang"
  },
  "schemaVersion": "3.4.1",
  "updatedAt": "2021-07-18T00:33:10.439Z",
  "networkType": "ethereum",
  "devdoc": {
    "kind": "dev",
    "methods": {},
    "version": 1
  },
  "userdoc": {
    "kind": "user",
    "methods": {},
    "version": 1
  }
}