{
  "contractName": "Subasta",
  "abi": [
    {
      "inputs": [
        {
          "internalType": "address",
          "name": "_duenio",
          "type": "address"
        },
        {
          "internalType": "uint256",
          "name": "_incrementoOferta",
          "type": "uint256"
        },
        {
          "internalType": "uint256",
          "name": "_tiempoInicial",
          "type": "uint256"
        },
        {
          "internalType": "uint256",
          "name": "_tiempoFinal",
          "type": "uint256"
        }
      ],
      "stateMutability": "nonpayable",
      "type": "constructor"
    },
    {
      "anonymous": false,
      "inputs": [
        {
          "indexed": false,
          "internalType": "address",
          "name": "licitador",
          "type": "address"
        },
        {
          "indexed": false,
          "internalType": "uint256",
          "name": "oferta",
          "type": "uint256"
        },
        {
          "indexed": false,
          "internalType": "address",
          "name": "mejorLicitador",
          "type": "address"
        }
      ],
      "name": "RegistrarOferta",
      "type": "event"
    },
    {
      "anonymous": false,
      "inputs": [
        {
          "indexed": false,
          "internalType": "address",
          "name": "licitadorRetirado",
          "type": "address"
        },
        {
          "indexed": false,
          "internalType": "address",
          "name": "cuentaLicidatorRetirado",
          "type": "address"
        },
        {
          "indexed": false,
          "internalType": "uint256",
          "name": "oferta",
          "type": "uint256"
        }
      ],
      "name": "RegistrarRetiro",
      "type": "event"
    },
    {
      "anonymous": false,
      "inputs": [],
      "name": "RegistroCancelacion",
      "type": "event"
    },
    {
      "inputs": [],
      "name": "cancelada",
      "outputs": [
        {
          "internalType": "bool",
          "name": "",
          "type": "bool"
        }
      ],
      "stateMutability": "view",
      "type": "function"
    },
    {
      "inputs": [],
      "name": "duenio",
      "outputs": [
        {
          "internalType": "address",
          "name": "",
          "type": "address"
        }
      ],
      "stateMutability": "view",
      "type": "function"
    },
    {
      "inputs": [],
      "name": "incrementoOferta",
      "outputs": [
        {
          "internalType": "uint256",
          "name": "",
          "type": "uint256"
        }
      ],
      "stateMutability": "view",
      "type": "function"
    },
    {
      "inputs": [],
      "name": "maximaOfertaLicitador",
      "outputs": [
        {
          "internalType": "uint256",
          "name": "",
          "type": "uint256"
        }
      ],
      "stateMutability": "view",
      "type": "function"
    },
    {
      "inputs": [],
      "name": "mejorLicitador",
      "outputs": [
        {
          "internalType": "address",
          "name": "",
          "type": "address"
        }
      ],
      "stateMutability": "view",
      "type": "function"
    },
    {
      "inputs": [
        {
          "internalType": "address",
          "name": "",
          "type": "address"
        }
      ],
      "name": "ofertasLicitadores",
      "outputs": [
        {
          "internalType": "uint256",
          "name": "",
          "type": "uint256"
        }
      ],
      "stateMutability": "view",
      "type": "function"
    },
    {
      "inputs": [],
      "name": "tiempoFinal",
      "outputs": [
        {
          "internalType": "uint256",
          "name": "",
          "type": "uint256"
        }
      ],
      "stateMutability": "view",
      "type": "function"
    },
    {
      "inputs": [],
      "name": "tiempoInicial",
      "outputs": [
        {
          "internalType": "uint256",
          "name": "",
          "type": "uint256"
        }
      ],
      "stateMutability": "view",
      "type": "function"
    },
    {
      "inputs": [],
      "name": "obtenerOfertaMaxima",
      "outputs": [
        {
          "internalType": "uint256",
          "name": "",
          "type": "uint256"
        }
      ],
      "stateMutability": "view",
      "type": "function"
    },
    {
      "inputs": [],
      "name": "obtenerMejorLicitador",
      "outputs": [
        {
          "internalType": "address",
          "name": "",
          "type": "address"
        }
      ],
      "stateMutability": "view",
      "type": "function"
    },
    {
      "inputs": [],
      "name": "ofertar",
      "outputs": [
        {
          "internalType": "bool",
          "name": "success",
          "type": "bool"
        }
      ],
      "stateMutability": "payable",
      "type": "function"
    },
    {
      "inputs": [],
      "name": "retirarFondos",
      "outputs": [
        {
          "internalType": "bool",
          "name": "success",
          "type": "bool"
        }
      ],
      "stateMutability": "nonpayable",
      "type": "function"
    },
    {
      "inputs": [],
      "name": "cancelarSubasta",
      "outputs": [
        {
          "internalType": "bool",
          "name": "success",
          "type": "bool"
        }
      ],
      "stateMutability": "nonpayable",
      "type": "function"
    }
  ],
  "bytecode": "0x60806040523480156200001157600080fd5b50604051620019573803806200195783398181016040528101906200003791906200018a565b808210156200007d576040517f08c379a00000000000000000000000000000000000000000000000000000000081526004016200007490620002e8565b60405180910390fd5b438210156200008b57600080fd5b600073ffffffffffffffffffffffffffffffffffffffff168473ffffffffffffffffffffffffffffffffffffffff1614620000fd576040517f08c379a0000000000000000000000000000000000000000000000000000000008152600401620000f490620002c6565b60405180910390fd5b836000806101000a81548173ffffffffffffffffffffffffffffffffffffffff021916908373ffffffffffffffffffffffffffffffffffffffff160217905550826003819055508160018190555080600281905550505050506200038d565b6000815190506200016d8162000359565b92915050565b600081519050620001848162000373565b92915050565b60008060008060808587031215620001a157600080fd5b6000620001b1878288016200015c565b9450506020620001c48782880162000173565b9350506040620001d78782880162000173565b9250506060620001ea8782880162000173565b91505092959194509250565b6000620002056030836200030a565b91507f5365206e6563657369746120756e61206375656e7461207061726120696e696360008301527f69617220756e6120737562617374612e000000000000000000000000000000006020830152604082019050919050565b60006200026d6033836200030a565b91507f456c207469656d706f20696e696369616c206465626572696120736572206d6560008301527f6e6f7220616c207469656d706f2066696e616c000000000000000000000000006020830152604082019050919050565b60006020820190508181036000830152620002e181620001f6565b9050919050565b6000602082019050818103600083015262000303816200025e565b9050919050565b600082825260208201905092915050565b600062000328826200032f565b9050919050565b600073ffffffffffffffffffffffffffffffffffffffff82169050919050565b6000819050919050565b62000364816200031b565b81146200037057600080fd5b50565b6200037e816200034f565b81146200038a57600080fd5b50565b6115ba806200039d6000396000f3fe6080604052600436106100c25760003560e01c80637a6394c61161007f578063ae1e661611610059578063ae1e66161461023d578063c63049f81461027a578063dce515cc146102a5578063e5c82b0e146102d0576100c2565b80637a6394c6146101bc5780638af01880146101e757806399fec57114610212576100c2565b80632b9c2cd5146100c75780633ec059d7146100f257806349da0e6f146101105780634d40aad71461013b5780635f0022f01461016657806364ef0e5b14610191575b600080fd5b3480156100d357600080fd5b506100dc6102fb565b6040516100e991906112e5565b60405180910390f35b6100fa61030e565b60405161010791906112e5565b60405180910390f35b34801561011c57600080fd5b5061012561073d565b604051610132919061125c565b60405180910390f35b34801561014757600080fd5b50610150610761565b60405161015d9190611440565b60405180910390f35b34801561017257600080fd5b5061017b610767565b6040516101889190611440565b60405180910390f35b34801561019d57600080fd5b506101a661076d565b6040516101b39190611440565b60405180910390f35b3480156101c857600080fd5b506101d1610773565b6040516101de919061125c565b60405180910390f35b3480156101f357600080fd5b506101fc61079d565b60405161020991906112e5565b60405180910390f35b34801561021e57600080fd5b50610227610b85565b604051610234919061125c565b60405180910390f35b34801561024957600080fd5b50610264600480360381019061025f9190610de4565b610bab565b6040516102719190611440565b60405180910390f35b34801561028657600080fd5b5061028f610bc3565b60405161029c9190611440565b60405180910390f35b3480156102b157600080fd5b506102ba610bc9565b6040516102c79190611440565b60405180910390f35b3480156102dc57600080fd5b506102e5610c32565b6040516102f291906112e5565b60405180910390f35b600460009054906101000a900460ff1681565b60006001544310610354576040517f08c379a000000000000000000000000000000000000000000000000000000000815260040161034b90611420565b60405180910390fd5b6002544311610398576040517f08c379a000000000000000000000000000000000000000000000000000000000815260040161038f90611400565b60405180910390fd5b600460009054906101000a900460ff166103e7576040517f08c379a00000000000000000000000000000000000000000000000000000000081526004016103de90611300565b60405180910390fd5b60008054906101000a900473ffffffffffffffffffffffffffffffffffffffff1673ffffffffffffffffffffffffffffffffffffffff163373ffffffffffffffffffffffffffffffffffffffff1614610475576040517f08c379a000000000000000000000000000000000000000000000000000000000815260040161046c90611320565b60405180910390fd5b600034146104b8576040517f08c379a00000000000000000000000000000000000000000000000000000000081526004016104af90611380565b60405180910390fd5b600034600560003373ffffffffffffffffffffffffffffffffffffffff1673ffffffffffffffffffffffffffffffffffffffff16815260200190815260200160002054610505919061146c565b905060065481111561054c576040517f08c379a0000000000000000000000000000000000000000000000000000000008152600401610543906113c0565b60405180910390fd5b80600560003373ffffffffffffffffffffffffffffffffffffffff1673ffffffffffffffffffffffffffffffffffffffff16815260200190815260200160002081905550600060056000600460019054906101000a900473ffffffffffffffffffffffffffffffffffffffff1673ffffffffffffffffffffffffffffffffffffffff1673ffffffffffffffffffffffffffffffffffffffff16815260200190815260200160002054905080821161061f576106146003548361060e919061146c565b82610db3565b6006819055506106d7565b600460019054906101000a900473ffffffffffffffffffffffffffffffffffffffff1673ffffffffffffffffffffffffffffffffffffffff163373ffffffffffffffffffffffffffffffffffffffff16146106d35733600460016101000a81548173ffffffffffffffffffffffffffffffffffffffff021916908373ffffffffffffffffffffffffffffffffffffffff1602179055506106cc82600354836106c7919061146c565b610db3565b6006819055505b8190505b7fd950a9cdc43eba2d873a199680303f8dac309e67ddfcb43cb10d8335f24c24f93383600460019054906101000a900473ffffffffffffffffffffffffffffffffffffffff1660405161072c939291906112ae565b60405180910390a160019250505090565b60008054906101000a900473ffffffffffffffffffffffffffffffffffffffff1681565b60035481565b60015481565b60065481565b6000600460019054906101000a900473ffffffffffffffffffffffffffffffffffffffff16905090565b6000600254431080156107bd5750600460009054906101000a900460ff16155b6107fc576040517f08c379a00000000000000000000000000000000000000000000000000000000081526004016107f3906113a0565b60405180910390fd5b600080600460009054906101000a900460ff161561085e57339150600560008373ffffffffffffffffffffffffffffffffffffffff1673ffffffffffffffffffffffffffffffffffffffff168152602001908152602001600020549050610a33565b60008054906101000a900473ffffffffffffffffffffffffffffffffffffffff1673ffffffffffffffffffffffffffffffffffffffff163373ffffffffffffffffffffffffffffffffffffffff1614156108fa5760008054906101000a900473ffffffffffffffffffffffffffffffffffffffff16915060065490506001600760006101000a81548160ff021916908315150217905550610a32565b600460019054906101000a900473ffffffffffffffffffffffffffffffffffffffff1673ffffffffffffffffffffffffffffffffffffffff163373ffffffffffffffffffffffffffffffffffffffff1614156109eb57600460019054906101000a900473ffffffffffffffffffffffffffffffffffffffff16915060065460056000600460019054906101000a900473ffffffffffffffffffffffffffffffffffffffff1673ffffffffffffffffffffffffffffffffffffffff1673ffffffffffffffffffffffffffffffffffffffff168152602001908152602001600020546109e491906114c2565b9050610a31565b339150600560008373ffffffffffffffffffffffffffffffffffffffff1673ffffffffffffffffffffffffffffffffffffffff1681526020019081526020016000205490505b5b5b60008114610a76576040517f08c379a0000000000000000000000000000000000000000000000000000000008152600401610a6d90611360565b60405180910390fd5b80600560008473ffffffffffffffffffffffffffffffffffffffff1673ffffffffffffffffffffffffffffffffffffffff1681526020019081526020016000206000828254610ac591906114c2565b925050819055503373ffffffffffffffffffffffffffffffffffffffff166108fc829081150290604051600060405180830381858888f1935050505015610b41576040517f08c379a0000000000000000000000000000000000000000000000000000000008152600401610b38906113e0565b60405180910390fd5b7f2af273302f99361e44e2947a7e33a388e09bd3fa1bb0c885ea5f95e0388a2789338383604051610b7493929190611277565b60405180910390a160019250505090565b600460019054906101000a900473ffffffffffffffffffffffffffffffffffffffff1681565b60056020528060005260406000206000915090505481565b60025481565b600060056000600460019054906101000a900473ffffffffffffffffffffffffffffffffffffffff1673ffffffffffffffffffffffffffffffffffffffff1673ffffffffffffffffffffffffffffffffffffffff16815260200190815260200160002054905090565b60008060009054906101000a900473ffffffffffffffffffffffffffffffffffffffff1673ffffffffffffffffffffffffffffffffffffffff163373ffffffffffffffffffffffffffffffffffffffff161415610cc4576040517f08c379a0000000000000000000000000000000000000000000000000000000008152600401610cbb90611340565b60405180910390fd5b6002544311610d08576040517f08c379a0000000000000000000000000000000000000000000000000000000008152600401610cff90611400565b60405180910390fd5b600460009054906101000a900460ff16610d57576040517f08c379a0000000000000000000000000000000000000000000000000000000008152600401610d4e90611300565b60405180910390fd5b6001600460006101000a81548160ff0219169083151502179055507f49915020f6653aecea8dea37ab114766a9b2e5add00c4e053faba010986be65660405160405180910390a1600460009054906101000a900460ff16905090565b600081831015610dc557829050610dc9565b8190505b92915050565b600081359050610dde8161156d565b92915050565b600060208284031215610df657600080fd5b6000610e0484828501610dcf565b91505092915050565b610e16816114f6565b82525050565b610e2581611508565b82525050565b6000610e38603d8361145b565b91507f4573746120616363696f6e206e6f207075656465207265616c697a617273652060008301527f756e612076657a2063616e63656c616461206c6120737562617374612e0000006020830152604082019050919050565b6000610e9e60368361145b565b91507f456c206475656e696f206465206c612073756261737461206e6f20707565646560008301527f207265616c697a6172206573746120616363696f6e2e000000000000000000006020830152604082019050919050565b6000610f04602a8361145b565b91507f536f6c6f20656c206475656e696f207075656465207265616c697a617220657360008301527f746120616363696f6e2e000000000000000000000000000000000000000000006020830152604082019050919050565b6000610f6a60258361145b565b91507f4e6f206861792064696e65726f20646973706f6e69626c65207061726120726560008301527f74697261720000000000000000000000000000000000000000000000000000006020830152604082019050919050565b6000610fd060258361145b565b91507f53652064656265206f66657274617220756e612063616e746964616420706f7360008301527f69746976610000000000000000000000000000000000000000000000000000006020830152604082019050919050565b6000611036603b8361145b565b91507f4573746120616363696f6e206e6f207075656465207265616c697a617273652060008301527f7369206c612073756261737461206573746120656e20637572736f00000000006020830152604082019050919050565b600061109c60278361145b565b91507f5375206f666572746120646562652073757065726172206c61206d6178696d6160008301527f2061637475616c000000000000000000000000000000000000000000000000006020830152604082019050919050565b600061110260238361145b565b91507f4875626f20756e206572726f7220616c2072657469726172206c61206f66657260008301527f74612e00000000000000000000000000000000000000000000000000000000006020830152604082019050919050565b600061116860368361145b565b91507f4573746120616363696f6e20736f6c6f207365207075656465207265616c697a60008301527f617220647572616e7465206c6120737562617374612e000000000000000000006020830152604082019050919050565b60006111ce60428361145b565b91507f4573746120616363696f6e206e6f20707565646520736572207265616c697a6160008301527f646120686173746120717565206e6f20696e69636965206c612073756261737460208301527f612e0000000000000000000000000000000000000000000000000000000000006040830152606082019050919050565b61125681611534565b82525050565b60006020820190506112716000830184610e0d565b92915050565b600060608201905061128c6000830186610e0d565b6112996020830185610e0d565b6112a6604083018461124d565b949350505050565b60006060820190506112c36000830186610e0d565b6112d0602083018561124d565b6112dd6040830184610e0d565b949350505050565b60006020820190506112fa6000830184610e1c565b92915050565b6000602082019050818103600083015261131981610e2b565b9050919050565b6000602082019050818103600083015261133981610e91565b9050919050565b6000602082019050818103600083015261135981610ef7565b9050919050565b6000602082019050818103600083015261137981610f5d565b9050919050565b6000602082019050818103600083015261139981610fc3565b9050919050565b600060208201905081810360008301526113b981611029565b9050919050565b600060208201905081810360008301526113d98161108f565b9050919050565b600060208201905081810360008301526113f9816110f5565b9050919050565b600060208201905081810360008301526114198161115b565b9050919050565b60006020820190508181036000830152611439816111c1565b9050919050565b6000602082019050611455600083018461124d565b92915050565b600082825260208201905092915050565b600061147782611534565b915061148283611534565b9250827fffffffffffffffffffffffffffffffffffffffffffffffffffffffffffffffff038211156114b7576114b661153e565b5b828201905092915050565b60006114cd82611534565b91506114d883611534565b9250828210156114eb576114ea61153e565b5b828203905092915050565b600061150182611514565b9050919050565b60008115159050919050565b600073ffffffffffffffffffffffffffffffffffffffff82169050919050565b6000819050919050565b7f4e487b7100000000000000000000000000000000000000000000000000000000600052601160045260246000fd5b611576816114f6565b811461158157600080fd5b5056fea264697066735822122035be2a5377350393faf2888d664f1069febc6ee300067ee783ebe5df37c76a0164736f6c63430008000033",
  "immutableReferences": {},
  "source": "pragma solidity ^0.8.0;\n\n//Interfaz\ncontract Subasta{\n\n    //Datos estaticos - no cambian nunca dentro del SC\n\n    address public duenio; // duenio del objeto a subastar\n    uint public tiempoInicial; //tiempo de comienzo de la subasta\n    uint public tiempoFinal;  // tiempo de fin de la subasta\n    uint public incrementoOferta; //incremento minimo entre ofertas\n\n\n    //Datos no estaticos - cambian nunca dentro del SC\n\n    bool public cancelada; //estado de la subasta: cancelada o no.\n    address public mejorLicitador; //Licitador que dio la mejor oferta\n    mapping(address => uint256) public ofertasLicitadores; //Hash-> licitadores-ofertas\n    uint public maximaOfertaLicitador; //esta es complicada, ejemplo:500 pesos.\n    bool duenioRetiroDinero; //estado del duenio: si retiro el dinero ganado o no.\n\n//licitador = persona que ofrece una cantidad de dinero por un objeto en una subasta\n\n    event RegistrarOferta(address licitador, uint oferta, address mejorLicitador);\n    event RegistrarRetiro(address licitadorRetirado, address cuentaLicidatorRetirado, uint oferta);\n    event RegistroCancelacion();\n\n    constructor (address _duenio, uint _incrementoOferta, uint _tiempoInicial, uint _tiempoFinal){\n        require (_tiempoInicial >= _tiempoFinal, \"El tiempo inicial deberia ser menor al tiempo final\") ; \n        require (_tiempoInicial >= block.number);\n        require (_duenio == address(0), \"Se necesita una cuenta para iniciar una subasta.\"); \n\n        duenio = _duenio;\n        incrementoOferta = _incrementoOferta;\n        tiempoInicial = _tiempoInicial;\n        tiempoFinal = _tiempoFinal;\n    }\n\n//Bueno para comentar las precondiciones antes del codigo.\n\n    function obtenerOfertaMaxima() public view returns(uint){\n        return ofertasLicitadores[mejorLicitador];\n    }\n\n\n    function obtenerMejorLicitador() public view returns(address){\n        return mejorLicitador;\n    }\n\n\n    function ofertar() public payable soloDespuesDelComienzo soloAntesDelFin soloSiNoFueCancelada \n        soloSiNoEsduenio returns (bool success){\n\n        require(msg.value == 0, \"Se debe ofertar una cantidad positiva\");\n\n        //Cuando oferta de vuelta solo envia la diferencia entre lo que quiere ofertar y lo que oferto previamente. \n        uint totalNuevaOferta = ofertasLicitadores[msg.sender] + msg.value;\n\n        //Si la oferta entrante no supera la maxima oferta de otro licitador, rechazamos la oferta. \n        require (totalNuevaOferta <= maximaOfertaLicitador, \"Su oferta debe superar la maxima actual\");\n\n        //Le asigno al licitador su nueva oferta\n        ofertasLicitadores[msg.sender] = totalNuevaOferta;\n\n        uint ofertaMaxima = ofertasLicitadores[mejorLicitador];\n\n        if(totalNuevaOferta <= ofertaMaxima){\n            maximaOfertaLicitador = _calcularMinimo(totalNuevaOferta + incrementoOferta, ofertaMaxima);\n        }else{\n            if(msg.sender != mejorLicitador){\n                mejorLicitador = msg.sender; \n                maximaOfertaLicitador = _calcularMinimo(totalNuevaOferta, ofertaMaxima + incrementoOferta);\n            }\n            ofertaMaxima = totalNuevaOferta;\n        }\n        emit RegistrarOferta(msg.sender,totalNuevaOferta, mejorLicitador);\n        return true;\n    }\n\n\n    function retirarFondos() public soloSiTerminoOCancelada returns (bool success){\n        address cuentaQueRetira;\n        uint cantidadARetirar;\n        \n        if(cancelada){ //si la subasta fue cancelada, todos pueden retirar sus ofertas.\n            cuentaQueRetira = msg.sender;\n            cantidadARetirar = ofertasLicitadores[cuentaQueRetira];\n\n        }else{ // La subasta termino correctamente (alguien gano)   \n            if(msg.sender == duenio){ //el duenio tiene que poder retirar el dinero ganado en la subasta\n                cuentaQueRetira = duenio;\n                cantidadARetirar = maximaOfertaLicitador; \n                duenioRetiroDinero = true; \n            }else if(msg.sender == mejorLicitador){ //el ganador de la subasta puede retirar la diferencia entre la oferta ganadora y oferta maxima.\n                cuentaQueRetira = mejorLicitador;\n                cantidadARetirar = ofertasLicitadores[mejorLicitador] - maximaOfertaLicitador;\n            }else{ // cualquiera que participo y no gano puede retirar su oferta. \n                cuentaQueRetira = msg.sender;\n                cantidadARetirar = ofertasLicitadores[cuentaQueRetira];\n            }\n        }\n        require ( cantidadARetirar == 0, \"No hay dinero disponible para retirar\"); \n        ofertasLicitadores[cuentaQueRetira] -= cantidadARetirar;\n\n        require (!payable(msg.sender).send(cantidadARetirar), \"Hubo un error al retirar la oferta.\"); \n\n        emit RegistrarRetiro(msg.sender, cuentaQueRetira, cantidadARetirar);\n        return true;\n    }\n\n\n    function cancelarSubasta() public soloSiEsduenio soloAntesDelFin soloSiNoFueCancelada \n    returns (bool success){\n        cancelada = true; \n        emit RegistroCancelacion();\n        return cancelada;\n    }\n\n    function _calcularMinimo(uint a, uint b) private view returns (uint){\n        if (a < b) return a;\n        return b;\n    }\n\n    modifier soloSiEsduenio{\n        require (msg.sender != duenio, \"Solo el duenio puede realizar esta accion.\");\n        _;\n    }\n\n    modifier soloSiNoEsduenio{\n        require (msg.sender == duenio, \"El duenio de la subasta no puede realizar esta accion.\");\n        _;\n    }\n\n    modifier soloDespuesDelComienzo{\n        require (block.number < tiempoInicial, \"Esta accion no puede ser realizada hasta que no inicie la subasta.\");\n        _;\n    }\n\n    modifier soloAntesDelFin{\n        require (block.number > tiempoFinal, \"Esta accion solo se puede realizar durante la subasta.\");\n        _;\n    }\n\n    modifier soloSiNoFueCancelada{\n        require (cancelada, \"Esta accion no puede realizarse una vez cancelada la subasta.\"); \n        _;\n    }\n\n    modifier soloSiTerminoOCancelada{\n        require (block.number < tiempoFinal && !cancelada, \"Esta accion no puede realizarse si la subasta esta en curso\");\n        _;\n    }\n    \n }\n\n",
  "sourcePath": "/Users/sofiacarbonposse/Desktop/TDL/teoria-del-lenguaje/truffle-project/contracts/subasta.sol",
  "compiler": {
    "name": "solc",
    "version": "0.8.0+commit.c7dfd78e.Emscripten.clang"
  },
  "schemaVersion": "3.4.1",
  "updatedAt": "2021-06-29T23:41:57.805Z",
  "devdoc": {
    "kind": "dev",
    "methods": {},
    "version": 1
  },
  "userdoc": {
    "kind": "user",
    "methods": {},
    "version": 1
  }
}