{
  "contractName": "SubastaFactory",
  "abi": [
    {
      "inputs": [],
      "stateMutability": "nonpayable",
      "type": "constructor"
    },
    {
      "anonymous": false,
      "inputs": [
        {
          "indexed": false,
          "internalType": "contract Subasta",
          "name": "contratoSubasta",
          "type": "address"
        },
        {
          "indexed": false,
          "internalType": "address",
          "name": "duenio",
          "type": "address"
        },
        {
          "indexed": false,
          "internalType": "uint256",
          "name": "idSubasta",
          "type": "uint256"
        }
      ],
      "name": "SubastaCreada",
      "type": "event"
    },
    {
      "inputs": [],
      "name": "idSubasta",
      "outputs": [
        {
          "internalType": "uint256",
          "name": "",
          "type": "uint256"
        }
      ],
      "stateMutability": "view",
      "type": "function",
      "constant": true
    },
    {
      "inputs": [
        {
          "internalType": "uint256",
          "name": "",
          "type": "uint256"
        }
      ],
      "name": "subastas",
      "outputs": [
        {
          "internalType": "contract Subasta",
          "name": "",
          "type": "address"
        }
      ],
      "stateMutability": "view",
      "type": "function",
      "constant": true
    },
    {
      "inputs": [],
      "name": "subastaFactory",
      "outputs": [],
      "stateMutability": "nonpayable",
      "type": "function"
    },
    {
      "inputs": [
        {
          "internalType": "uint256",
          "name": "cartaId",
          "type": "uint256"
        },
        {
          "internalType": "uint256",
          "name": "_incrementoOferta",
          "type": "uint256"
        },
        {
          "internalType": "uint256",
          "name": "_tiempoInicial",
          "type": "uint256"
        },
        {
          "internalType": "uint256",
          "name": "_tiempoFinal",
          "type": "uint256"
        }
      ],
      "name": "crearSubasta",
      "outputs": [],
      "stateMutability": "nonpayable",
      "type": "function"
    },
    {
      "inputs": [
        {
          "internalType": "uint256",
          "name": "_id",
          "type": "uint256"
        }
      ],
      "name": "getSubasta",
      "outputs": [
        {
          "internalType": "contract Subasta",
          "name": "",
          "type": "address"
        }
      ],
      "stateMutability": "view",
      "type": "function",
      "constant": true
    },
    {
      "inputs": [],
      "name": "getIdSubastasDisponibles",
      "outputs": [
        {
          "internalType": "uint256[]",
          "name": "",
          "type": "uint256[]"
        }
      ],
      "stateMutability": "view",
      "type": "function",
      "constant": true
    }
  ],
  "bytecode": "0x608060405234801561001057600080fd5b5060008081905550612323806100276000396000f3fe60806040523480156200001157600080fd5b50600436106200006a5760003560e01c806335559743146200006f5780635820671c14620000a55780635cc8032814620000b15780637984c8a214620000d15780639022ddb414620000f3578063be379f761462000129575b600080fd5b6200008d600480360381019062000087919062000495565b6200014b565b6040516200009c919062000676565b60405180910390f35b620000af6200017e565b005b620000cf6004803603810190620000c99190620004c1565b62000180565b005b620000db62000244565b604051620000ea9190620006d0565b60405180910390f35b6200011160048036038101906200010b919062000495565b6200024a565b60405162000120919062000676565b60405180910390f35b6200013362000287565b60405162000142919062000652565b60405180910390f35b60016020528060005260406000206000915054906101000a900473ffffffffffffffffffffffffffffffffffffffff1681565b565b6000338585858560405162000195906200042d565b620001a5959493929190620005f5565b604051809103906000f080158015620001c2573d6000803e3d6000fd5b509050600160008054815260200190815260200160002060009054906101000a905050600080815480929190620001f99062000798565b91905055507fc2485665b904adc2646143e86e577b1eb7df0aa00ce3efb398a3f9173691b0ac8133600054604051620002359392919062000693565b60405180910390a15050505050565b60005481565b60006001600083815260200190815260200160002060009054906101000a900473ffffffffffffffffffffffffffffffffffffffff169050919050565b60606000805467ffffffffffffffff811115620002cd577f4e487b7100000000000000000000000000000000000000000000000000000000600052604160045260246000fd5b604051908082528060200260200182016040528015620002fc5781602001602082028036833780820191505090505b50905060005b60005481101562000425576001600082815260200190815260200160002060009054906101000a900473ffffffffffffffffffffffffffffffffffffffff1673ffffffffffffffffffffffffffffffffffffffff166301d2ce746040518163ffffffff1660e01b815260040160206040518083038186803b1580156200038757600080fd5b505afa1580156200039c573d6000803e3d6000fd5b505050506040513d601f19601f82011682018060405250810190620003c2919062000469565b6200040f578082828151811062000402577f4e487b7100000000000000000000000000000000000000000000000000000000600052603260045260246000fd5b6020026020010181815250505b80806200041c9062000798565b91505062000302565b508091505090565b611aa4806200084a83390190565b6000815190506200044c8162000815565b92915050565b60008135905062000463816200082f565b92915050565b6000602082840312156200047c57600080fd5b60006200048c848285016200043b565b91505092915050565b600060208284031215620004a857600080fd5b6000620004b88482850162000452565b91505092915050565b60008060008060808587031215620004d857600080fd5b6000620004e88782880162000452565b9450506020620004fb8782880162000452565b93505060406200050e8782880162000452565b9250506060620005218782880162000452565b91505092959194509250565b60006200053b8383620005d3565b60208301905092915050565b620005528162000726565b82525050565b60006200056582620006fd565b62000571818562000715565b93506200057e83620006ed565b8060005b83811015620005b55781516200059988826200052d565b9750620005a68362000708565b92505060018101905062000582565b5085935050505092915050565b620005cd8162000770565b82525050565b620005de8162000766565b82525050565b620005ef8162000766565b82525050565b600060a0820190506200060c600083018862000547565b6200061b6020830187620005e4565b6200062a6040830186620005e4565b620006396060830185620005e4565b620006486080830184620005e4565b9695505050505050565b600060208201905081810360008301526200066e818462000558565b905092915050565b60006020820190506200068d6000830184620005c2565b92915050565b6000606082019050620006aa6000830186620005c2565b620006b9602083018562000547565b620006c86040830184620005e4565b949350505050565b6000602082019050620006e76000830184620005e4565b92915050565b6000819050602082019050919050565b600081519050919050565b6000602082019050919050565b600082825260208201905092915050565b6000620007338262000746565b9050919050565b60008115159050919050565b600073ffffffffffffffffffffffffffffffffffffffff82169050919050565b6000819050919050565b60006200077d8262000784565b9050919050565b6000620007918262000746565b9050919050565b6000620007a58262000766565b91507fffffffffffffffffffffffffffffffffffffffffffffffffffffffffffffffff821415620007db57620007da620007e6565b5b600182019050919050565b7f4e487b7100000000000000000000000000000000000000000000000000000000600052601160045260246000fd5b62000820816200073a565b81146200082c57600080fd5b50565b6200083a8162000766565b81146200084657600080fd5b5056fe60806040523480156200001157600080fd5b5060405162001aa438038062001aa48339818101604052810190620000379190620001da565b808211156200007d576040517f08c379a00000000000000000000000000000000000000000000000000000000081526004016200007490620003d8565b60405180910390fd5b438211156200008b57600080fd5b600073ffffffffffffffffffffffffffffffffffffffff168573ffffffffffffffffffffffffffffffffffffffff161415620000fe576040517f08c379a0000000000000000000000000000000000000000000000000000000008152600401620000f59062000394565b60405180910390fd5b600084141562000145576040517f08c379a00000000000000000000000000000000000000000000000000000000081526004016200013c90620003b6565b60405180910390fd5b846000806101000a81548173ffffffffffffffffffffffffffffffffffffffff021916908373ffffffffffffffffffffffffffffffffffffffff1602179055508360018190555082600481905550816002819055508060038190555050505050506200047d565b600081519050620001bd8162000449565b92915050565b600081519050620001d48162000463565b92915050565b600080600080600060a08688031215620001f357600080fd5b60006200020388828901620001ac565b95505060206200021688828901620001c3565b94505060406200022988828901620001c3565b93505060606200023c88828901620001c3565b92505060806200024f88828901620001c3565b9150509295509295909350565b60006200026b603083620003fa565b91507f5365206e6563657369746120756e61206375656e7461207061726120696e696360008301527f69617220756e6120737562617374612e000000000000000000000000000000006020830152604082019050919050565b6000620002d3602f83620003fa565b91507f5365206e6563657369746120756e61206361727461207061726120696e69636960008301527f617220756e6120737562617374612e00000000000000000000000000000000006020830152604082019050919050565b60006200033b603383620003fa565b91507f456c207469656d706f20696e696369616c206465626572696120736572206d6560008301527f6e6f7220616c207469656d706f2066696e616c000000000000000000000000006020830152604082019050919050565b60006020820190508181036000830152620003af816200025c565b9050919050565b60006020820190508181036000830152620003d181620002c4565b9050919050565b60006020820190508181036000830152620003f3816200032c565b9050919050565b600082825260208201905092915050565b600062000418826200041f565b9050919050565b600073ffffffffffffffffffffffffffffffffffffffff82169050919050565b6000819050919050565b62000454816200040b565b81146200046057600080fd5b50565b6200046e816200043f565b81146200047a57600080fd5b50565b611617806200048d6000396000f3fe6080604052600436106100dd5760003560e01c80637a6394c61161007f578063ae1e661611610059578063ae1e661614610283578063c63049f8146102c0578063dce515cc146102eb578063e5c82b0e14610316576100dd565b80637a6394c6146102025780638af018801461022d57806399fec57114610258576100dd565b806349da0e6f116100bb57806349da0e6f146101565780634d40aad7146101815780635f0022f0146101ac57806364ef0e5b146101d7576100dd565b806301d2ce74146100e25780632b9c2cd51461010d5780633ec059d714610138575b600080fd5b3480156100ee57600080fd5b506100f7610341565b6040516101049190611342565b60405180910390f35b34801561011957600080fd5b50610122610358565b60405161012f9190611342565b60405180910390f35b61014061036b565b60405161014d9190611342565b60405180910390f35b34801561016257600080fd5b5061016b61079a565b60405161017891906112b9565b60405180910390f35b34801561018d57600080fd5b506101966107be565b6040516101a3919061149d565b60405180910390f35b3480156101b857600080fd5b506101c16107c4565b6040516101ce919061149d565b60405180910390f35b3480156101e357600080fd5b506101ec6107ca565b6040516101f9919061149d565b60405180910390f35b34801561020e57600080fd5b506102176107d0565b60405161022491906112b9565b60405180910390f35b34801561023957600080fd5b506102426107fa565b60405161024f9190611342565b60405180910390f35b34801561026457600080fd5b5061026d610be2565b60405161027a91906112b9565b60405180910390f35b34801561028f57600080fd5b506102aa60048036038101906102a59190610e41565b610c08565b6040516102b7919061149d565b60405180910390f35b3480156102cc57600080fd5b506102d5610c20565b6040516102e2919061149d565b60405180910390f35b3480156102f757600080fd5b50610300610c26565b60405161030d919061149d565b60405180910390f35b34801561032257600080fd5b5061032b610c8f565b6040516103389190611342565b60405180910390f35b6000600560009054906101000a900460ff16905090565b600560009054906101000a900460ff1681565b600060025443106103b1576040517f08c379a00000000000000000000000000000000000000000000000000000000081526004016103a89061147d565b60405180910390fd5b60035443116103f5576040517f08c379a00000000000000000000000000000000000000000000000000000000081526004016103ec9061145d565b60405180910390fd5b600560009054906101000a900460ff16610444576040517f08c379a000000000000000000000000000000000000000000000000000000000815260040161043b9061135d565b60405180910390fd5b60008054906101000a900473ffffffffffffffffffffffffffffffffffffffff1673ffffffffffffffffffffffffffffffffffffffff163373ffffffffffffffffffffffffffffffffffffffff16146104d2576040517f08c379a00000000000000000000000000000000000000000000000000000000081526004016104c99061137d565b60405180910390fd5b60003414610515576040517f08c379a000000000000000000000000000000000000000000000000000000000815260040161050c906113dd565b60405180910390fd5b600034600660003373ffffffffffffffffffffffffffffffffffffffff1673ffffffffffffffffffffffffffffffffffffffff1681526020019081526020016000205461056291906114c9565b90506007548111156105a9576040517f08c379a00000000000000000000000000000000000000000000000000000000081526004016105a09061141d565b60405180910390fd5b80600660003373ffffffffffffffffffffffffffffffffffffffff1673ffffffffffffffffffffffffffffffffffffffff16815260200190815260200160002081905550600060066000600560019054906101000a900473ffffffffffffffffffffffffffffffffffffffff1673ffffffffffffffffffffffffffffffffffffffff1673ffffffffffffffffffffffffffffffffffffffff16815260200190815260200160002054905080821161067c576106716004548361066b91906114c9565b82610e10565b600781905550610734565b600560019054906101000a900473ffffffffffffffffffffffffffffffffffffffff1673ffffffffffffffffffffffffffffffffffffffff163373ffffffffffffffffffffffffffffffffffffffff16146107305733600560016101000a81548173ffffffffffffffffffffffffffffffffffffffff021916908373ffffffffffffffffffffffffffffffffffffffff160217905550610729826004548361072491906114c9565b610e10565b6007819055505b8190505b7fd950a9cdc43eba2d873a199680303f8dac309e67ddfcb43cb10d8335f24c24f93383600560019054906101000a900473ffffffffffffffffffffffffffffffffffffffff166040516107899392919061130b565b60405180910390a160019250505090565b60008054906101000a900473ffffffffffffffffffffffffffffffffffffffff1681565b60045481565b60025481565b60075481565b6000600560019054906101000a900473ffffffffffffffffffffffffffffffffffffffff16905090565b60006003544310801561081a5750600560009054906101000a900460ff16155b610859576040517f08c379a0000000000000000000000000000000000000000000000000000000008152600401610850906113fd565b60405180910390fd5b600080600560009054906101000a900460ff16156108bb57339150600660008373ffffffffffffffffffffffffffffffffffffffff1673ffffffffffffffffffffffffffffffffffffffff168152602001908152602001600020549050610a90565b60008054906101000a900473ffffffffffffffffffffffffffffffffffffffff1673ffffffffffffffffffffffffffffffffffffffff163373ffffffffffffffffffffffffffffffffffffffff1614156109575760008054906101000a900473ffffffffffffffffffffffffffffffffffffffff16915060075490506001600860006101000a81548160ff021916908315150217905550610a8f565b600560019054906101000a900473ffffffffffffffffffffffffffffffffffffffff1673ffffffffffffffffffffffffffffffffffffffff163373ffffffffffffffffffffffffffffffffffffffff161415610a4857600560019054906101000a900473ffffffffffffffffffffffffffffffffffffffff16915060075460066000600560019054906101000a900473ffffffffffffffffffffffffffffffffffffffff1673ffffffffffffffffffffffffffffffffffffffff1673ffffffffffffffffffffffffffffffffffffffff16815260200190815260200160002054610a41919061151f565b9050610a8e565b339150600660008373ffffffffffffffffffffffffffffffffffffffff1673ffffffffffffffffffffffffffffffffffffffff1681526020019081526020016000205490505b5b5b60008114610ad3576040517f08c379a0000000000000000000000000000000000000000000000000000000008152600401610aca906113bd565b60405180910390fd5b80600660008473ffffffffffffffffffffffffffffffffffffffff1673ffffffffffffffffffffffffffffffffffffffff1681526020019081526020016000206000828254610b22919061151f565b925050819055503373ffffffffffffffffffffffffffffffffffffffff166108fc829081150290604051600060405180830381858888f1935050505015610b9e576040517f08c379a0000000000000000000000000000000000000000000000000000000008152600401610b959061143d565b60405180910390fd5b7f2af273302f99361e44e2947a7e33a388e09bd3fa1bb0c885ea5f95e0388a2789338383604051610bd1939291906112d4565b60405180910390a160019250505090565b600560019054906101000a900473ffffffffffffffffffffffffffffffffffffffff1681565b60066020528060005260406000206000915090505481565b60035481565b600060066000600560019054906101000a900473ffffffffffffffffffffffffffffffffffffffff1673ffffffffffffffffffffffffffffffffffffffff1673ffffffffffffffffffffffffffffffffffffffff16815260200190815260200160002054905090565b60008060009054906101000a900473ffffffffffffffffffffffffffffffffffffffff1673ffffffffffffffffffffffffffffffffffffffff163373ffffffffffffffffffffffffffffffffffffffff161415610d21576040517f08c379a0000000000000000000000000000000000000000000000000000000008152600401610d189061139d565b60405180910390fd5b6003544311610d65576040517f08c379a0000000000000000000000000000000000000000000000000000000008152600401610d5c9061145d565b60405180910390fd5b600560009054906101000a900460ff16610db4576040517f08c379a0000000000000000000000000000000000000000000000000000000008152600401610dab9061135d565b60405180910390fd5b6001600560006101000a81548160ff0219169083151502179055507f49915020f6653aecea8dea37ab114766a9b2e5add00c4e053faba010986be65660405160405180910390a1600560009054906101000a900460ff16905090565b600081831015610e2257829050610e26565b8190505b92915050565b600081359050610e3b816115ca565b92915050565b600060208284031215610e5357600080fd5b6000610e6184828501610e2c565b91505092915050565b610e7381611553565b82525050565b610e8281611565565b82525050565b6000610e95603d836114b8565b91507f4573746120616363696f6e206e6f207075656465207265616c697a617273652060008301527f756e612076657a2063616e63656c616461206c6120737562617374612e0000006020830152604082019050919050565b6000610efb6036836114b8565b91507f456c206475656e696f206465206c612073756261737461206e6f20707565646560008301527f207265616c697a6172206573746120616363696f6e2e000000000000000000006020830152604082019050919050565b6000610f61602a836114b8565b91507f536f6c6f20656c206475656e696f207075656465207265616c697a617220657360008301527f746120616363696f6e2e000000000000000000000000000000000000000000006020830152604082019050919050565b6000610fc76025836114b8565b91507f4e6f206861792064696e65726f20646973706f6e69626c65207061726120726560008301527f74697261720000000000000000000000000000000000000000000000000000006020830152604082019050919050565b600061102d6025836114b8565b91507f53652064656265206f66657274617220756e612063616e746964616420706f7360008301527f69746976610000000000000000000000000000000000000000000000000000006020830152604082019050919050565b6000611093603b836114b8565b91507f4573746120616363696f6e206e6f207075656465207265616c697a617273652060008301527f7369206c612073756261737461206573746120656e20637572736f00000000006020830152604082019050919050565b60006110f96027836114b8565b91507f5375206f666572746120646562652073757065726172206c61206d6178696d6160008301527f2061637475616c000000000000000000000000000000000000000000000000006020830152604082019050919050565b600061115f6023836114b8565b91507f4875626f20756e206572726f7220616c2072657469726172206c61206f66657260008301527f74612e00000000000000000000000000000000000000000000000000000000006020830152604082019050919050565b60006111c56036836114b8565b91507f4573746120616363696f6e20736f6c6f207365207075656465207265616c697a60008301527f617220647572616e7465206c6120737562617374612e000000000000000000006020830152604082019050919050565b600061122b6042836114b8565b91507f4573746120616363696f6e206e6f20707565646520736572207265616c697a6160008301527f646120686173746120717565206e6f20696e69636965206c612073756261737460208301527f612e0000000000000000000000000000000000000000000000000000000000006040830152606082019050919050565b6112b381611591565b82525050565b60006020820190506112ce6000830184610e6a565b92915050565b60006060820190506112e96000830186610e6a565b6112f66020830185610e6a565b61130360408301846112aa565b949350505050565b60006060820190506113206000830186610e6a565b61132d60208301856112aa565b61133a6040830184610e6a565b949350505050565b60006020820190506113576000830184610e79565b92915050565b6000602082019050818103600083015261137681610e88565b9050919050565b6000602082019050818103600083015261139681610eee565b9050919050565b600060208201905081810360008301526113b681610f54565b9050919050565b600060208201905081810360008301526113d681610fba565b9050919050565b600060208201905081810360008301526113f681611020565b9050919050565b6000602082019050818103600083015261141681611086565b9050919050565b60006020820190508181036000830152611436816110ec565b9050919050565b6000602082019050818103600083015261145681611152565b9050919050565b60006020820190508181036000830152611476816111b8565b9050919050565b600060208201905081810360008301526114968161121e565b9050919050565b60006020820190506114b260008301846112aa565b92915050565b600082825260208201905092915050565b60006114d482611591565b91506114df83611591565b9250827fffffffffffffffffffffffffffffffffffffffffffffffffffffffffffffffff038211156115145761151361159b565b5b828201905092915050565b600061152a82611591565b915061153583611591565b9250828210156115485761154761159b565b5b828203905092915050565b600061155e82611571565b9050919050565b60008115159050919050565b600073ffffffffffffffffffffffffffffffffffffffff82169050919050565b6000819050919050565b7f4e487b7100000000000000000000000000000000000000000000000000000000600052601160045260246000fd5b6115d381611553565b81146115de57600080fd5b5056fea26469706673582212204e84fc9fbbf1ff986d8d350d1e6dc3598f7fd13fceca6b322c5cdd89d3dedfbd64736f6c63430008000033a26469706673582212203b5aea2b44c4ee146ab1989ca05e0c0e1e09675ebbca1230e3c711eaebbe226864736f6c63430008000033",
  "immutableReferences": {},
  "source": "pragma solidity ^0.8.0;\nimport {Subasta} from './subasta.sol';\n\n\ncontract SubastaFactory {\n    uint public idSubasta;\n    mapping(uint256 => Subasta) public subastas; \n    //address[] public subastasDisponibles;\n    \n    event SubastaCreada(Subasta contratoSubasta, address duenio, uint idSubasta);\n\n    constructor(){\n        idSubasta = 0;\n    }\n\n    function subastaFactory() public {\n    }\n\n    function crearSubasta(uint cartaId, uint _incrementoOferta, uint _tiempoInicial, uint _tiempoFinal) public {\n        Subasta nuevaSubasta = new Subasta(msg.sender,cartaId, _incrementoOferta, _tiempoInicial, _tiempoFinal);\n        subastas[idSubasta];\n        idSubasta ++;\n        SubastaCreada(nuevaSubasta, msg.sender, idSubasta);\n    }\n\n    function getSubasta(uint _id) view public returns (Subasta){\n        return subastas[_id];\n    }\n\n    function getIdSubastasDisponibles() view public returns(uint[] memory){\n        uint[] memory subastasDisponibles = new uint[](idSubasta);\n        for(uint i = 0; i < idSubasta; i++){\n            if(!subastas[i].estaCancelada()){\n                subastasDisponibles[i] = i;\n            }\n        }\n        return subastasDisponibles;\n    } \n}\n\n\n\n",
  "sourcePath": "/Users/filyankaragoz/Documents/TDL/teoria-del-lenguaje/truffle-project/contracts/SubastaFactory.sol",
  "compiler": {
    "name": "solc",
    "version": "0.8.0+commit.c7dfd78e.Emscripten.clang"
  },
  "schemaVersion": "3.4.1",
  "updatedAt": "2021-07-05T00:08:18.089Z",
  "networkType": "ethereum",
  "devdoc": {
    "kind": "dev",
    "methods": {},
    "version": 1
  },
  "userdoc": {
    "kind": "user",
    "methods": {},
    "version": 1
  }
}