{
  "contractName": "SubastaFactory",
  "abi": [
    {
      "inputs": [],
      "stateMutability": "nonpayable",
      "type": "constructor"
    },
    {
      "anonymous": false,
      "inputs": [
        {
          "indexed": false,
          "internalType": "address",
          "name": "licitador",
          "type": "address"
        },
        {
          "indexed": false,
          "internalType": "uint256",
          "name": "oferta",
          "type": "uint256"
        },
        {
          "indexed": false,
          "internalType": "address",
          "name": "mejorLicitador",
          "type": "address"
        }
      ],
      "name": "RegistrarOferta",
      "type": "event"
    },
    {
      "anonymous": false,
      "inputs": [
        {
          "indexed": false,
          "internalType": "address",
          "name": "licitadorRetirado",
          "type": "address"
        },
        {
          "indexed": false,
          "internalType": "address",
          "name": "cuentaLicidatorRetirado",
          "type": "address"
        },
        {
          "indexed": false,
          "internalType": "uint256",
          "name": "oferta",
          "type": "uint256"
        }
      ],
      "name": "RegistrarRetiro",
      "type": "event"
    },
    {
      "anonymous": false,
      "inputs": [],
      "name": "RegistroCancelacion",
      "type": "event"
    },
    {
      "inputs": [],
      "name": "idSubasta",
      "outputs": [
        {
          "internalType": "uint256",
          "name": "",
          "type": "uint256"
        }
      ],
      "stateMutability": "view",
      "type": "function",
      "constant": true
    },
    {
      "inputs": [
        {
          "internalType": "uint256",
          "name": "",
          "type": "uint256"
        }
      ],
      "name": "subastas",
      "outputs": [
        {
          "internalType": "uint256",
          "name": "id",
          "type": "uint256"
        },
        {
          "internalType": "address",
          "name": "duenio",
          "type": "address"
        },
        {
          "internalType": "uint256",
          "name": "idCarta",
          "type": "uint256"
        },
        {
          "internalType": "uint256",
          "name": "tiempoInicial",
          "type": "uint256"
        },
        {
          "internalType": "uint256",
          "name": "tiempoFinal",
          "type": "uint256"
        },
        {
          "internalType": "uint256",
          "name": "incrementoOferta",
          "type": "uint256"
        },
        {
          "internalType": "bool",
          "name": "cancelada",
          "type": "bool"
        },
        {
          "internalType": "address",
          "name": "mejorLicitador",
          "type": "address"
        },
        {
          "internalType": "uint256",
          "name": "maximaOfertaLicitador",
          "type": "uint256"
        },
        {
          "internalType": "bool",
          "name": "duenioRetiroDinero",
          "type": "bool"
        }
      ],
      "stateMutability": "view",
      "type": "function",
      "constant": true
    },
    {
      "inputs": [
        {
          "internalType": "address",
          "name": "_duenio",
          "type": "address"
        },
        {
          "internalType": "uint256",
          "name": "_idCarta",
          "type": "uint256"
        },
        {
          "internalType": "uint256",
          "name": "_incrementoOferta",
          "type": "uint256"
        },
        {
          "internalType": "uint256",
          "name": "_tiempoInicial",
          "type": "uint256"
        },
        {
          "internalType": "uint256",
          "name": "_tiempoFinal",
          "type": "uint256"
        }
      ],
      "name": "crearSubasta",
      "outputs": [
        {
          "internalType": "uint256",
          "name": "",
          "type": "uint256"
        }
      ],
      "stateMutability": "nonpayable",
      "type": "function"
    },
    {
      "inputs": [
        {
          "internalType": "address",
          "name": "_duenio",
          "type": "address"
        },
        {
          "internalType": "uint256",
          "name": "_idCarta",
          "type": "uint256"
        },
        {
          "internalType": "uint256",
          "name": "_incrementoOferta",
          "type": "uint256"
        },
        {
          "internalType": "uint256",
          "name": "_tiempoInicial",
          "type": "uint256"
        },
        {
          "internalType": "uint256",
          "name": "_tiempoFinal",
          "type": "uint256"
        }
      ],
      "name": "modificarSubasta",
      "outputs": [],
      "stateMutability": "nonpayable",
      "type": "function"
    },
    {
      "inputs": [],
      "name": "getIdSubastasDisponibles",
      "outputs": [
        {
          "internalType": "uint256[]",
          "name": "",
          "type": "uint256[]"
        }
      ],
      "stateMutability": "view",
      "type": "function",
      "constant": true
    },
    {
      "inputs": [
        {
          "internalType": "uint256",
          "name": "_idSubasta",
          "type": "uint256"
        }
      ],
      "name": "obtenerOfertaMaxima",
      "outputs": [
        {
          "internalType": "uint256",
          "name": "",
          "type": "uint256"
        }
      ],
      "stateMutability": "view",
      "type": "function",
      "constant": true
    },
    {
      "inputs": [
        {
          "internalType": "uint256",
          "name": "_idSubasta",
          "type": "uint256"
        }
      ],
      "name": "obtenerMejorLicitador",
      "outputs": [
        {
          "internalType": "address",
          "name": "",
          "type": "address"
        }
      ],
      "stateMutability": "view",
      "type": "function",
      "constant": true
    },
    {
      "inputs": [
        {
          "internalType": "uint256",
          "name": "_idSubasta",
          "type": "uint256"
        }
      ],
      "name": "estaCancelada",
      "outputs": [
        {
          "internalType": "bool",
          "name": "",
          "type": "bool"
        }
      ],
      "stateMutability": "view",
      "type": "function",
      "constant": true
    },
    {
      "inputs": [
        {
          "internalType": "uint256",
          "name": "_idSubasta",
          "type": "uint256"
        },
        {
          "internalType": "uint256",
          "name": "_amount",
          "type": "uint256"
        }
      ],
      "name": "ofertar",
      "outputs": [
        {
          "internalType": "bool",
          "name": "success",
          "type": "bool"
        }
      ],
      "stateMutability": "payable",
      "type": "function",
      "payable": true
    },
    {
      "inputs": [
        {
          "internalType": "uint256",
          "name": "_idSubasta",
          "type": "uint256"
        }
      ],
      "name": "retirarFondos",
      "outputs": [
        {
          "internalType": "bool",
          "name": "success",
          "type": "bool"
        }
      ],
      "stateMutability": "nonpayable",
      "type": "function"
    },
    {
      "inputs": [
        {
          "internalType": "uint256",
          "name": "_idSubasta",
          "type": "uint256"
        }
      ],
      "name": "cancelarSubasta",
      "outputs": [
        {
          "internalType": "bool",
          "name": "success",
          "type": "bool"
        }
      ],
      "stateMutability": "nonpayable",
      "type": "function"
    }
  ],
  "bytecode": "0x608060405234801561001057600080fd5b506000808190555061211d806100276000396000f3fe60806040526004361061009c5760003560e01c806376fe162e1161006457806376fe162e146101c75780637984c8a214610204578063a32aa7171461022f578063ac3ccae61461026c578063be379f76146102a9578063e273def9146102d45761009c565b80630ddaf585146100a15780630f981d8e146100de57806329a9d96d1461011b578063355597431461014457806364bdfea31461018a575b600080fd5b3480156100ad57600080fd5b506100c860048036038101906100c391906115ac565b610304565b6040516100d59190611e6e565b60405180910390f35b3480156100ea57600080fd5b5061010560048036038101906101009190611623565b61041a565b6040516101129190611cd3565b60405180910390f35b34801561012757600080fd5b50610142600480360381019061013d91906115ac565b6106e2565b005b34801561015057600080fd5b5061016b60048036038101906101669190611623565b6107ee565b6040516101819a99989796959493929190611e89565b60405180910390f35b34801561019657600080fd5b506101b160048036038101906101ac9190611623565b6108ac565b6040516101be9190611c28565b60405180910390f35b3480156101d357600080fd5b506101ee60048036038101906101e99190611623565b610926565b6040516101fb9190611cd3565b60405180910390f35b34801561021057600080fd5b5061021961098d565b6040516102269190611e6e565b60405180910390f35b34801561023b57600080fd5b5061025660048036038101906102519190611623565b610993565b6040516102639190611cd3565b60405180910390f35b34801561027857600080fd5b50610293600480360381019061028e9190611623565b610e3b565b6040516102a09190611e6e565b60405180910390f35b3480156102b557600080fd5b506102be610e95565b6040516102cb9190611cb1565b60405180910390f35b6102ee60048036038101906102e9919061164c565b610f87565b6040516102fb9190611cd3565b60405180910390f35b600081831115610349576040517f08c379a000000000000000000000000000000000000000000000000000000000815260040161034090611d4e565b60405180910390fd5b4383111561035657600080fd5b600073ffffffffffffffffffffffffffffffffffffffff168673ffffffffffffffffffffffffffffffffffffffff1614156103c6576040517f08c379a00000000000000000000000000000000000000000000000000000000081526004016103bd90611cee565b60405180910390fd5b60018081600181540180825580915050039060005260206000209050506103f086868686866106e2565b60008054905060008081548092919061040890612041565b91905055508091505095945050505050565b600081600060018281548110610459577f4e487b7100000000000000000000000000000000000000000000000000000000600052603260045260246000fd5b90600052602060002090600a020190508060010160009054906101000a900473ffffffffffffffffffffffffffffffffffffffff1673ffffffffffffffffffffffffffffffffffffffff163373ffffffffffffffffffffffffffffffffffffffff16146104fb576040517f08c379a00000000000000000000000000000000000000000000000000000000081526004016104f290611d6e565b60405180910390fd5b83600060018281548110610538577f4e487b7100000000000000000000000000000000000000000000000000000000600052603260045260246000fd5b90600052602060002090600a020190508060040154431061058e576040517f08c379a000000000000000000000000000000000000000000000000000000000815260040161058590611e2e565b60405180910390fd5b856000600182815481106105cb577f4e487b7100000000000000000000000000000000000000000000000000000000600052603260045260246000fd5b90600052602060002090600a020190508060060160009054906101000a900460ff161561062d576040517f08c379a000000000000000000000000000000000000000000000000000000000815260040161062490611d0e565b60405180910390fd5b600060018981548110610669577f4e487b7100000000000000000000000000000000000000000000000000000000600052603260045260246000fd5b90600052602060002090600a0201905060018160060160006101000a81548160ff0219169083151502179055507f49915020f6653aecea8dea37ab114766a9b2e5add00c4e053faba010986be65660405160405180910390a18060060160009054906101000a900460ff16975050505050505050919050565b6000600160005481548110610720577f4e487b7100000000000000000000000000000000000000000000000000000000600052603260045260246000fd5b90600052602060002090600a020190506000548160000181905550858160010160006101000a81548173ffffffffffffffffffffffffffffffffffffffff021916908373ffffffffffffffffffffffffffffffffffffffff16021790555084816002018190555083816005018190555082816003018190555081816004018190555060008160060160006101000a81548160ff0219169083151502179055506000816007018190555060008160080160006101000a81548160ff021916908315150217905550505050505050565b600181815481106107fe57600080fd5b90600052602060002090600a02016000915090508060000154908060010160009054906101000a900473ffffffffffffffffffffffffffffffffffffffff16908060020154908060030154908060040154908060050154908060060160009054906101000a900460ff16908060060160019054906101000a900473ffffffffffffffffffffffffffffffffffffffff16908060070154908060080160009054906101000a900460ff1690508a565b600080600183815481106108e9577f4e487b7100000000000000000000000000000000000000000000000000000000600052603260045260246000fd5b90600052602060002090600a020190508060060160019054906101000a900473ffffffffffffffffffffffffffffffffffffffff16915050919050565b60008060018381548110610963577f4e487b7100000000000000000000000000000000000000000000000000000000600052603260045260246000fd5b90600052602060002090600a020190508060060160009054906101000a900460ff16915050919050565b60005481565b6000816000600182815481106109d2577f4e487b7100000000000000000000000000000000000000000000000000000000600052603260045260246000fd5b90600052602060002090600a02019050806004015443108015610a0457508060060160009054906101000a900460ff16155b610a43576040517f08c379a0000000000000000000000000000000000000000000000000000000008152600401610a3a90611dce565b60405180910390fd5b600080600060018781548110610a82577f4e487b7100000000000000000000000000000000000000000000000000000000600052603260045260246000fd5b90600052602060002090600a020190508060060160009054906101000a900460ff1615610af5573392508060090160008473ffffffffffffffffffffffffffffffffffffffff1673ffffffffffffffffffffffffffffffffffffffff168152602001908152602001600020549150610ce2565b8060010160009054906101000a900473ffffffffffffffffffffffffffffffffffffffff1673ffffffffffffffffffffffffffffffffffffffff163373ffffffffffffffffffffffffffffffffffffffff161415610b9d578060010160009054906101000a900473ffffffffffffffffffffffffffffffffffffffff1692508060070154915060018160080160006101000a81548160ff021916908315150217905550610ce1565b8060060160019054906101000a900473ffffffffffffffffffffffffffffffffffffffff1673ffffffffffffffffffffffffffffffffffffffff163373ffffffffffffffffffffffffffffffffffffffff161415610c98578060060160019054906101000a900473ffffffffffffffffffffffffffffffffffffffff16925080600701548160090160008360060160019054906101000a900473ffffffffffffffffffffffffffffffffffffffff1673ffffffffffffffffffffffffffffffffffffffff1673ffffffffffffffffffffffffffffffffffffffff16815260200190815260200160002054610c919190611fc5565b9150610ce0565b3392508060090160008473ffffffffffffffffffffffffffffffffffffffff1673ffffffffffffffffffffffffffffffffffffffff1681526020019081526020016000205491505b5b5b60008214610d25576040517f08c379a0000000000000000000000000000000000000000000000000000000008152600401610d1c90611d8e565b60405180910390fd5b818160090160008573ffffffffffffffffffffffffffffffffffffffff1673ffffffffffffffffffffffffffffffffffffffff1681526020019081526020016000206000828254610d769190611fc5565b925050819055503373ffffffffffffffffffffffffffffffffffffffff166108fc839081150290604051600060405180830381858888f1935050505015610df2576040517f08c379a0000000000000000000000000000000000000000000000000000000008152600401610de990611e0e565b60405180910390fd5b7f2af273302f99361e44e2947a7e33a388e09bd3fa1bb0c885ea5f95e0388a2789338484604051610e2593929190611c43565b60405180910390a1600195505050505050919050565b60008060018381548110610e78577f4e487b7100000000000000000000000000000000000000000000000000000000600052603260045260246000fd5b90600052602060002090600a020190508060070154915050919050565b60606000805467ffffffffffffffff811115610eda577f4e487b7100000000000000000000000000000000000000000000000000000000600052604160045260246000fd5b604051908082528060200260200182016040528015610f085781602001602082028036833780820191505090505b50905060005b600054811015610f7f57610f2181610926565b610f6c5780828281518110610f5f577f4e487b7100000000000000000000000000000000000000000000000000000000600052603260045260246000fd5b6020026020010181815250505b8080610f7790612041565b915050610f0e565b508091505090565b600082600060018281548110610fc6577f4e487b7100000000000000000000000000000000000000000000000000000000600052603260045260246000fd5b90600052602060002090600a020190508060030154431161101c576040517f08c379a000000000000000000000000000000000000000000000000000000000815260040161101390611e4e565b60405180910390fd5b84600060018281548110611059577f4e487b7100000000000000000000000000000000000000000000000000000000600052603260045260246000fd5b90600052602060002090600a02019050806004015443106110af576040517f08c379a00000000000000000000000000000000000000000000000000000000081526004016110a690611e2e565b60405180910390fd5b866000600182815481106110ec577f4e487b7100000000000000000000000000000000000000000000000000000000600052603260045260246000fd5b90600052602060002090600a020190508060060160009054906101000a900460ff161561114e576040517f08c379a000000000000000000000000000000000000000000000000000000000815260040161114590611d0e565b60405180910390fd5b8860006001828154811061118b577f4e487b7100000000000000000000000000000000000000000000000000000000600052603260045260246000fd5b90600052602060002090600a020190508060010160009054906101000a900473ffffffffffffffffffffffffffffffffffffffff1673ffffffffffffffffffffffffffffffffffffffff163373ffffffffffffffffffffffffffffffffffffffff16141561122e576040517f08c379a000000000000000000000000000000000000000000000000000000000815260040161122590611d2e565b60405180910390fd5b600060018c8154811061126a577f4e487b7100000000000000000000000000000000000000000000000000000000600052603260045260246000fd5b90600052602060002090600a0201905060008b146112bd576040517f08c379a00000000000000000000000000000000000000000000000000000000081526004016112b490611dae565b60405180910390fd5b60008b8260090160003373ffffffffffffffffffffffffffffffffffffffff1673ffffffffffffffffffffffffffffffffffffffff1681526020019081526020016000205461130c9190611f6f565b90508160070154811115611355576040517f08c379a000000000000000000000000000000000000000000000000000000000815260040161134c90611dee565b60405180910390fd5b808260090160003373ffffffffffffffffffffffffffffffffffffffff1673ffffffffffffffffffffffffffffffffffffffff1681526020019081526020016000208190555060008260090160008460060160019054906101000a900473ffffffffffffffffffffffffffffffffffffffff1673ffffffffffffffffffffffffffffffffffffffff1673ffffffffffffffffffffffffffffffffffffffff1681526020019081526020016000205490508082116114325761142583600501548361141f9190611f6f565b82611566565b83600701819055506114f2565b8260060160019054906101000a900473ffffffffffffffffffffffffffffffffffffffff1673ffffffffffffffffffffffffffffffffffffffff163373ffffffffffffffffffffffffffffffffffffffff16146114ee57338360060160016101000a81548173ffffffffffffffffffffffffffffffffffffffff021916908373ffffffffffffffffffffffffffffffffffffffff1602179055506114e5828460050154836114e09190611f6f565b611566565b83600701819055505b8190505b7fd950a9cdc43eba2d873a199680303f8dac309e67ddfcb43cb10d8335f24c24f933838560060160019054906101000a900473ffffffffffffffffffffffffffffffffffffffff1660405161154993929190611c7a565b60405180910390a160019b50505050505050505050505092915050565b6000818310156115785782905061157c565b8190505b92915050565b600081359050611591816120b9565b92915050565b6000813590506115a6816120d0565b92915050565b600080600080600060a086880312156115c457600080fd5b60006115d288828901611582565b95505060206115e388828901611597565b94505060406115f488828901611597565b935050606061160588828901611597565b925050608061161688828901611597565b9150509295509295909350565b60006020828403121561163557600080fd5b600061164384828501611597565b91505092915050565b6000806040838503121561165f57600080fd5b600061166d85828601611597565b925050602061167e85828601611597565b9150509250929050565b60006116948383611c0a565b60208301905092915050565b6116a981611ff9565b82525050565b60006116ba82611f35565b6116c48185611f4d565b93506116cf83611f25565b8060005b838110156117005781516116e78882611688565b97506116f283611f40565b9250506001810190506116d3565b5085935050505092915050565b6117168161200b565b82525050565b6000611729603083611f5e565b91507f5365206e6563657369746120756e61206375656e7461207061726120696e696360008301527f69617220756e6120737562617374612e000000000000000000000000000000006020830152604082019050919050565b600061178f603d83611f5e565b91507f4573746120616363696f6e206e6f207075656465207265616c697a617273652060008301527f756e612076657a2063616e63656c616461206c6120737562617374612e0000006020830152604082019050919050565b60006117f5603683611f5e565b91507f456c206475656e696f206465206c612073756261737461206e6f20707565646560008301527f207265616c697a6172206573746120616363696f6e2e000000000000000000006020830152604082019050919050565b600061185b603383611f5e565b91507f456c207469656d706f20696e696369616c206465626572696120736572206d6560008301527f6e6f7220616c207469656d706f2066696e616c000000000000000000000000006020830152604082019050919050565b60006118c1602a83611f5e565b91507f536f6c6f20656c206475656e696f207075656465207265616c697a617220657360008301527f746120616363696f6e2e000000000000000000000000000000000000000000006020830152604082019050919050565b6000611927602583611f5e565b91507f4e6f206861792064696e65726f20646973706f6e69626c65207061726120726560008301527f74697261720000000000000000000000000000000000000000000000000000006020830152604082019050919050565b600061198d602583611f5e565b91507f53652064656265206f66657274617220756e612063616e746964616420706f7360008301527f69746976610000000000000000000000000000000000000000000000000000006020830152604082019050919050565b60006119f3603b83611f5e565b91507f4573746120616363696f6e206e6f207075656465207265616c697a617273652060008301527f7369206c612073756261737461206573746120656e20637572736f00000000006020830152604082019050919050565b6000611a59602783611f5e565b91507f5375206f666572746120646562652073757065726172206c61206d6178696d6160008301527f2061637475616c000000000000000000000000000000000000000000000000006020830152604082019050919050565b6000611abf602383611f5e565b91507f4875626f20756e206572726f7220616c2072657469726172206c61206f66657260008301527f74612e00000000000000000000000000000000000000000000000000000000006020830152604082019050919050565b6000611b25603683611f5e565b91507f4573746120616363696f6e20736f6c6f207365207075656465207265616c697a60008301527f617220647572616e7465206c6120737562617374612e000000000000000000006020830152604082019050919050565b6000611b8b604283611f5e565b91507f4573746120616363696f6e206e6f20707565646520736572207265616c697a6160008301527f646120686173746120717565206e6f20696e69636965206c612073756261737460208301527f612e0000000000000000000000000000000000000000000000000000000000006040830152606082019050919050565b611c1381612037565b82525050565b611c2281612037565b82525050565b6000602082019050611c3d60008301846116a0565b92915050565b6000606082019050611c5860008301866116a0565b611c6560208301856116a0565b611c726040830184611c19565b949350505050565b6000606082019050611c8f60008301866116a0565b611c9c6020830185611c19565b611ca960408301846116a0565b949350505050565b60006020820190508181036000830152611ccb81846116af565b905092915050565b6000602082019050611ce8600083018461170d565b92915050565b60006020820190508181036000830152611d078161171c565b9050919050565b60006020820190508181036000830152611d2781611782565b9050919050565b60006020820190508181036000830152611d47816117e8565b9050919050565b60006020820190508181036000830152611d678161184e565b9050919050565b60006020820190508181036000830152611d87816118b4565b9050919050565b60006020820190508181036000830152611da78161191a565b9050919050565b60006020820190508181036000830152611dc781611980565b9050919050565b60006020820190508181036000830152611de7816119e6565b9050919050565b60006020820190508181036000830152611e0781611a4c565b9050919050565b60006020820190508181036000830152611e2781611ab2565b9050919050565b60006020820190508181036000830152611e4781611b18565b9050919050565b60006020820190508181036000830152611e6781611b7e565b9050919050565b6000602082019050611e836000830184611c19565b92915050565b600061014082019050611e9f600083018d611c19565b611eac602083018c6116a0565b611eb9604083018b611c19565b611ec6606083018a611c19565b611ed36080830189611c19565b611ee060a0830188611c19565b611eed60c083018761170d565b611efa60e08301866116a0565b611f08610100830185611c19565b611f1661012083018461170d565b9b9a5050505050505050505050565b6000819050602082019050919050565b600081519050919050565b6000602082019050919050565b600082825260208201905092915050565b600082825260208201905092915050565b6000611f7a82612037565b9150611f8583612037565b9250827fffffffffffffffffffffffffffffffffffffffffffffffffffffffffffffffff03821115611fba57611fb961208a565b5b828201905092915050565b6000611fd082612037565b9150611fdb83612037565b925082821015611fee57611fed61208a565b5b828203905092915050565b600061200482612017565b9050919050565b60008115159050919050565b600073ffffffffffffffffffffffffffffffffffffffff82169050919050565b6000819050919050565b600061204c82612037565b91507fffffffffffffffffffffffffffffffffffffffffffffffffffffffffffffffff82141561207f5761207e61208a565b5b600182019050919050565b7f4e487b7100000000000000000000000000000000000000000000000000000000600052601160045260246000fd5b6120c281611ff9565b81146120cd57600080fd5b50565b6120d981612037565b81146120e457600080fd5b5056fea264697066735822122059b93903077b2490f05ec593e07234f0f1f63a0c01286648d421258e74a8185864736f6c63430008000033",
  "immutableReferences": {},
  "source": "pragma solidity ^0.8.0;\n\n\ncontract SubastaFactory {\n\n\n    uint public idSubasta;\n    Subasta[] public subastas;\n    \n    constructor(){\n        idSubasta = 0;\n    }\n\n    struct Subasta{\n        uint id; // identificador de la subasta\n        address duenio; // duenio del objeto a subastar\n        uint idCarta; // id carta a ofertar\n        uint tiempoInicial; //tiempo de comienzo de la subasta\n        uint tiempoFinal;  // tiempo de fin de la subasta\n        uint incrementoOferta; //incremento minimo entre ofertas\n        bool cancelada; //estado de la subasta: cancelada o no.\n        address mejorLicitador; //Licitador que dio la mejor oferta\n\n        uint  maximaOfertaLicitador; //esta es complicada, ejemplo:500 pesos.\n        bool duenioRetiroDinero; //estado del duenio: si retiro el dinero ganado o no.\n        mapping(address => uint256)  ofertasLicitadores; //Hash-> licitadores-ofertas\n    }\n\n    event RegistrarOferta(address licitador, uint oferta, address mejorLicitador);\n    event RegistrarRetiro(address licitadorRetirado, address cuentaLicidatorRetirado, uint oferta);\n    event RegistroCancelacion();\n\n    function crearSubasta (address _duenio, uint _idCarta, uint _incrementoOferta, uint _tiempoInicial, uint _tiempoFinal) public returns(uint){\n        require (_tiempoInicial <= _tiempoFinal, \"El tiempo inicial deberia ser menor al tiempo final\") ;\n        require (_tiempoInicial <= block.number);\n        require (_duenio != address(0), \"Se necesita una cuenta para iniciar una subasta.\");\n        subastas.push();\n        modificarSubasta(_duenio, _idCarta, _incrementoOferta, _tiempoInicial, _tiempoFinal);\n        uint idNuevaSubasta = idSubasta;\n        idSubasta ++;\n        return idNuevaSubasta;\n    }\n\n    function modificarSubasta (address _duenio, uint _idCarta, uint _incrementoOferta, uint _tiempoInicial, uint _tiempoFinal) public{\n        Subasta storage subasta = subastas[idSubasta];\n        subasta.id = idSubasta;\n        subasta.duenio = _duenio;\n        subasta.idCarta = _idCarta;\n        subasta.incrementoOferta = _incrementoOferta;\n        subasta.tiempoInicial = _tiempoInicial;\n        subasta.tiempoFinal = _tiempoFinal;\n        subasta.cancelada = false;\n        //subasta.mejorLicitador = address(0);\n        subasta.maximaOfertaLicitador = 0;\n        subasta.duenioRetiroDinero = false;\n    }\n\n    function getIdSubastasDisponibles() view public returns(uint[] memory){\n        uint[] memory subastasDisponibles = new uint[](idSubasta);\n        for(uint i = 0; i < idSubasta; i++){\n            if(!estaCancelada(i)){\n                subastasDisponibles[i] = i;\n            }\n        }\n        return subastasDisponibles;\n    }\n\n    function obtenerOfertaMaxima(uint _idSubasta) public view returns(uint){\n        Subasta storage subasta = subastas[_idSubasta];\n        return subasta.maximaOfertaLicitador;\n    }\n\n\n    function obtenerMejorLicitador(uint _idSubasta) public view returns(address){\n        Subasta storage subasta = subastas[_idSubasta];\n        return subasta.mejorLicitador;\n    }\n\n    function estaCancelada(uint _idSubasta) public view returns(bool){\n        Subasta storage subasta = subastas[_idSubasta];\n        return subasta.cancelada;\n    }\n\n\n    function ofertar(uint _idSubasta, uint _amount ) public payable soloDespuesDelComienzo(_idSubasta) soloAntesDelFin(_idSubasta) soloSiNoFueCancelada(_idSubasta)\n        soloSiNoEsduenio(_idSubasta) returns (bool success){\n\n        Subasta storage subasta = subastas[_idSubasta];\n\n        require(_amount == 0, \"Se debe ofertar una cantidad positiva\");\n\n\n        uint totalNuevaOferta = subasta.ofertasLicitadores[msg.sender] + _amount;\n\n        //Si la oferta entrante no supera la maxima oferta de otro licitador, rechazamos la oferta. \n        require (totalNuevaOferta <= subasta.maximaOfertaLicitador, \"Su oferta debe superar la maxima actual\");\n\n        //Le asigno al licitador su nueva oferta\n        subasta.ofertasLicitadores[msg.sender] = totalNuevaOferta;\n\n        uint ofertaMaxima = subasta.ofertasLicitadores[subasta.mejorLicitador];\n\n        if(totalNuevaOferta <= ofertaMaxima){\n            subasta.maximaOfertaLicitador = _calcularMinimo(totalNuevaOferta + subasta.incrementoOferta, ofertaMaxima);\n        }else{\n            if(msg.sender != subasta.mejorLicitador){\n                subasta.mejorLicitador = msg.sender;\n                subasta.maximaOfertaLicitador = _calcularMinimo(totalNuevaOferta, ofertaMaxima + subasta.incrementoOferta);\n            }\n            ofertaMaxima = totalNuevaOferta;\n        }\n        emit RegistrarOferta(msg.sender,totalNuevaOferta, subasta.mejorLicitador);\n        return true;\n    }\n\n\n    function retirarFondos(uint _idSubasta) public soloSiTerminoOCancelada(_idSubasta) returns (bool success){\n        address cuentaQueRetira;\n        uint cantidadARetirar;\n        Subasta storage subasta = subastas[_idSubasta];\n        if(subasta.cancelada){ //si la subasta fue cancelada, todos pueden retirar sus ofertas.\n            cuentaQueRetira = msg.sender;\n            cantidadARetirar = subasta.ofertasLicitadores[cuentaQueRetira];\n\n        }else{ // La subasta termino correctamente (alguien gano)   \n            if(msg.sender == subasta.duenio){ //el duenio tiene que poder retirar el dinero ganado en la subasta\n                cuentaQueRetira = subasta.duenio;\n                cantidadARetirar = subasta.maximaOfertaLicitador;\n                subasta.duenioRetiroDinero = true;\n            }else if(msg.sender == subasta.mejorLicitador){ //el ganador de la subasta puede retirar la diferencia entre la oferta ganadora y oferta maxima.\n                cuentaQueRetira = subasta.mejorLicitador;\n                cantidadARetirar = subasta.ofertasLicitadores[subasta.mejorLicitador] - subasta.maximaOfertaLicitador;\n            }else{ // cualquiera que participo y no gano puede retirar su oferta. \n                cuentaQueRetira = msg.sender;\n                cantidadARetirar = subasta.ofertasLicitadores[cuentaQueRetira];\n            }\n        }\n        require ( cantidadARetirar == 0, \"No hay dinero disponible para retirar\");\n        subasta.ofertasLicitadores[cuentaQueRetira] -= cantidadARetirar;\n\n        require (!payable(msg.sender).send(cantidadARetirar), \"Hubo un error al retirar la oferta.\"); \n\n        emit RegistrarRetiro(msg.sender, cuentaQueRetira, cantidadARetirar);\n        return true;\n    }\n\n    function cancelarSubasta(uint _idSubasta) public soloSiEsduenio(_idSubasta) soloAntesDelFin(_idSubasta) soloSiNoFueCancelada(_idSubasta)\n    returns (bool success){\n        Subasta storage subasta = subastas[_idSubasta];\n        subasta.cancelada = true;\n        emit RegistroCancelacion();\n        return subasta.cancelada;\n    }\n\n    function _calcularMinimo(uint a, uint b) private pure returns (uint){\n        if (a < b) return a;\n        return b;\n    }\n\n\n    modifier soloSiEsduenio(uint _idSubasta){\n        Subasta storage subasta = subastas[_idSubasta];\n        require (msg.sender == subasta.duenio, \"Solo el duenio puede realizar esta accion.\");\n        _;\n    }\n\n    modifier soloSiNoEsduenio(uint _idSubasta){\n        Subasta storage subasta = subastas[_idSubasta];\n        require (msg.sender != subasta.duenio, \"El duenio de la subasta no puede realizar esta accion.\");\n        _;\n    }\n\n    modifier soloDespuesDelComienzo(uint _idSubasta){\n        Subasta storage subasta = subastas[_idSubasta];\n        require (block.number > subasta.tiempoInicial, \"Esta accion no puede ser realizada hasta que no inicie la subasta.\");\n        _;\n    }\n\n    modifier soloAntesDelFin(uint _idSubasta){\n        Subasta storage subasta = subastas[_idSubasta];\n        require (block.number < subasta.tiempoFinal, \"Esta accion solo se puede realizar durante la subasta.\");\n        _;\n    }\n\n    modifier soloSiNoFueCancelada(uint _idSubasta){\n        Subasta storage subasta = subastas[_idSubasta];\n        require (!subasta.cancelada , \"Esta accion no puede realizarse una vez cancelada la subasta.\");\n        _;\n    }\n\n\n    modifier soloSiTerminoOCancelada(uint _idSubasta){\n        Subasta storage subasta = subastas[_idSubasta];\n        require (block.number < subasta.tiempoFinal && !subasta.cancelada, \"Esta accion no puede realizarse si la subasta esta en curso\");\n        _;\n    }\n\n    \n }\n\n",
  "sourcePath": "/home/miki_mustard/Desktop/Personal/Facultad/tdl/nuevo-tdl/teoria-del-lenguaje/truffle-project/contracts/SubastaFactory.sol",
  "compiler": {
    "name": "solc",
    "version": "0.8.0+commit.c7dfd78e.Emscripten.clang"
  },
  "schemaVersion": "3.4.1",
  "updatedAt": "2021-07-12T18:14:10.046Z",
  "networkType": "ethereum",
  "devdoc": {
    "kind": "dev",
    "methods": {},
    "version": 1
  },
  "userdoc": {
    "kind": "user",
    "methods": {},
    "version": 1
  }
}