{
  "contractName": "SubastaFactory",
  "abi": [
    {
      "inputs": [],
      "stateMutability": "nonpayable",
      "type": "constructor"
    },
    {
      "anonymous": false,
      "inputs": [
        {
          "indexed": false,
          "internalType": "address",
          "name": "licitador",
          "type": "address"
        },
        {
          "indexed": false,
          "internalType": "uint256",
          "name": "oferta",
          "type": "uint256"
        },
        {
          "indexed": false,
          "internalType": "address",
          "name": "mejorLicitador",
          "type": "address"
        }
      ],
      "name": "RegistrarOferta",
      "type": "event"
    },
    {
      "anonymous": false,
      "inputs": [
        {
          "indexed": false,
          "internalType": "address",
          "name": "licitadorRetirado",
          "type": "address"
        },
        {
          "indexed": false,
          "internalType": "address",
          "name": "cuentaLicidatorRetirado",
          "type": "address"
        },
        {
          "indexed": false,
          "internalType": "uint256",
          "name": "oferta",
          "type": "uint256"
        }
      ],
      "name": "RegistrarRetiro",
      "type": "event"
    },
    {
      "anonymous": false,
      "inputs": [],
      "name": "RegistroCancelacion",
      "type": "event"
    },
    {
      "inputs": [],
      "name": "idSubasta",
      "outputs": [
        {
          "internalType": "uint256",
          "name": "",
          "type": "uint256"
        }
      ],
      "stateMutability": "view",
      "type": "function",
      "constant": true
    },
    {
      "inputs": [
        {
          "internalType": "uint256",
          "name": "",
          "type": "uint256"
        }
      ],
      "name": "subastas",
      "outputs": [
        {
          "internalType": "address",
          "name": "duenio",
          "type": "address"
        },
        {
          "internalType": "uint256",
          "name": "idCarta",
          "type": "uint256"
        },
        {
          "internalType": "uint256",
          "name": "tiempoInicial",
          "type": "uint256"
        },
        {
          "internalType": "uint256",
          "name": "tiempoFinal",
          "type": "uint256"
        },
        {
          "internalType": "uint256",
          "name": "incrementoOferta",
          "type": "uint256"
        },
        {
          "internalType": "bool",
          "name": "cancelada",
          "type": "bool"
        },
        {
          "internalType": "address",
          "name": "mejorLicitador",
          "type": "address"
        },
        {
          "internalType": "uint256",
          "name": "maximaOfertaLicitador",
          "type": "uint256"
        },
        {
          "internalType": "bool",
          "name": "duenioRetiroDinero",
          "type": "bool"
        },
        {
          "internalType": "uint256",
          "name": "idSubasta",
          "type": "uint256"
        }
      ],
      "stateMutability": "view",
      "type": "function",
      "constant": true
    },
    {
      "inputs": [
        {
          "internalType": "address",
          "name": "_duenio",
          "type": "address"
        },
        {
          "internalType": "uint256",
          "name": "_idCarta",
          "type": "uint256"
        },
        {
          "internalType": "uint256",
          "name": "_incrementoOferta",
          "type": "uint256"
        },
        {
          "internalType": "uint256",
          "name": "_tiempoInicial",
          "type": "uint256"
        },
        {
          "internalType": "uint256",
          "name": "_tiempoFinal",
          "type": "uint256"
        }
      ],
      "name": "crearSubasta",
      "outputs": [
        {
          "internalType": "uint256",
          "name": "",
          "type": "uint256"
        }
      ],
      "stateMutability": "nonpayable",
      "type": "function"
    },
    {
      "inputs": [
        {
          "internalType": "address",
          "name": "_duenio",
          "type": "address"
        },
        {
          "internalType": "uint256",
          "name": "_idCarta",
          "type": "uint256"
        },
        {
          "internalType": "uint256",
          "name": "_incrementoOferta",
          "type": "uint256"
        },
        {
          "internalType": "uint256",
          "name": "_tiempoInicial",
          "type": "uint256"
        },
        {
          "internalType": "uint256",
          "name": "_tiempoFinal",
          "type": "uint256"
        },
        {
          "internalType": "uint256",
          "name": "_idSubasta",
          "type": "uint256"
        }
      ],
      "name": "modificarSubasta",
      "outputs": [],
      "stateMutability": "nonpayable",
      "type": "function"
    },
    {
      "inputs": [],
      "name": "getIdSubastasDisponibles",
      "outputs": [
        {
          "internalType": "uint256[]",
          "name": "",
          "type": "uint256[]"
        }
      ],
      "stateMutability": "view",
      "type": "function",
      "constant": true
    },
    {
      "inputs": [
        {
          "internalType": "uint256",
          "name": "_idSubasta",
          "type": "uint256"
        }
      ],
      "name": "obtenerOfertaMaxima",
      "outputs": [
        {
          "internalType": "uint256",
          "name": "",
          "type": "uint256"
        }
      ],
      "stateMutability": "view",
      "type": "function",
      "constant": true
    },
    {
      "inputs": [
        {
          "internalType": "uint256",
          "name": "_idSubasta",
          "type": "uint256"
        }
      ],
      "name": "obtenerMejorLicitador",
      "outputs": [
        {
          "internalType": "address",
          "name": "",
          "type": "address"
        }
      ],
      "stateMutability": "view",
      "type": "function",
      "constant": true
    },
    {
      "inputs": [
        {
          "internalType": "uint256",
          "name": "_idSubasta",
          "type": "uint256"
        }
      ],
      "name": "estaCancelada",
      "outputs": [
        {
          "internalType": "bool",
          "name": "",
          "type": "bool"
        }
      ],
      "stateMutability": "view",
      "type": "function",
      "constant": true
    },
    {
      "inputs": [
        {
          "internalType": "uint256",
          "name": "_idSubasta",
          "type": "uint256"
        },
        {
          "internalType": "uint256",
          "name": "_amount",
          "type": "uint256"
        }
      ],
      "name": "ofertar",
      "outputs": [
        {
          "internalType": "bool",
          "name": "success",
          "type": "bool"
        }
      ],
      "stateMutability": "payable",
      "type": "function",
      "payable": true
    },
    {
      "inputs": [
        {
          "internalType": "uint256",
          "name": "_idSubasta",
          "type": "uint256"
        }
      ],
      "name": "retirarFondos",
      "outputs": [
        {
          "internalType": "bool",
          "name": "success",
          "type": "bool"
        }
      ],
      "stateMutability": "nonpayable",
      "type": "function"
    },
    {
      "inputs": [
        {
          "internalType": "uint256",
          "name": "_idSubasta",
          "type": "uint256"
        }
      ],
      "name": "cancelarSubasta",
      "outputs": [
        {
          "internalType": "bool",
          "name": "success",
          "type": "bool"
        }
      ],
      "stateMutability": "nonpayable",
      "type": "function"
    }
  ],
  "bytecode": "0x608060405234801561001057600080fd5b50600080819055506121a8806100276000396000f3fe60806040526004361061009c5760003560e01c80637984c8a2116100645780637984c8a2146101db578063a32aa71714610206578063ac3ccae614610243578063bb6e41ca14610280578063be379f76146102a9578063e273def9146102d45761009c565b80630ddaf585146100a15780630f981d8e146100de578063355597431461011b57806364bdfea31461016157806376fe162e1461019e575b600080fd5b3480156100ad57600080fd5b506100c860048036038101906100c391906115ae565b610304565b6040516100d59190611f95565b60405180910390f35b3480156100ea57600080fd5b50610105600480360381019061010091906116ae565b61041b565b6040516101129190611dfa565b60405180910390f35b34801561012757600080fd5b50610142600480360381019061013d91906116ae565b6106e3565b6040516101589a99989796959493929190611d3c565b60405180910390f35b34801561016d57600080fd5b50610188600480360381019061018391906116ae565b6107a1565b6040516101959190611cb3565b60405180910390f35b3480156101aa57600080fd5b506101c560048036038101906101c091906116ae565b61081b565b6040516101d29190611dfa565b60405180910390f35b3480156101e757600080fd5b506101f0610882565b6040516101fd9190611f95565b60405180910390f35b34801561021257600080fd5b5061022d600480360381019061022891906116ae565b610888565b60405161023a9190611dfa565b60405180910390f35b34801561024f57600080fd5b5061026a600480360381019061026591906116ae565b610d30565b6040516102779190611f95565b60405180910390f35b34801561028c57600080fd5b506102a760048036038101906102a29190611625565b610d8a565b005b3480156102b557600080fd5b506102be610e97565b6040516102cb9190611dd8565b60405180910390f35b6102ee60048036038101906102e991906116d7565b610f89565b6040516102fb9190611dfa565b60405180910390f35b600081831115610349576040517f08c379a000000000000000000000000000000000000000000000000000000000815260040161034090611e75565b60405180910390fd5b4383111561035657600080fd5b600073ffffffffffffffffffffffffffffffffffffffff168673ffffffffffffffffffffffffffffffffffffffff1614156103c6576040517f08c379a00000000000000000000000000000000000000000000000000000000081526004016103bd90611e15565b60405180910390fd5b60018081600181540180825580915050039060005260206000209050506000805490506103f7878787878786610d8a565b600080815480929190610409906120cc565b91905055508091505095945050505050565b60008160006001828154811061045a577f4e487b7100000000000000000000000000000000000000000000000000000000600052603260045260246000fd5b90600052602060002090600a020190508060000160009054906101000a900473ffffffffffffffffffffffffffffffffffffffff1673ffffffffffffffffffffffffffffffffffffffff163373ffffffffffffffffffffffffffffffffffffffff16146104fc576040517f08c379a00000000000000000000000000000000000000000000000000000000081526004016104f390611e95565b60405180910390fd5b83600060018281548110610539577f4e487b7100000000000000000000000000000000000000000000000000000000600052603260045260246000fd5b90600052602060002090600a020190508060030154431161058f576040517f08c379a000000000000000000000000000000000000000000000000000000000815260040161058690611f55565b60405180910390fd5b856000600182815481106105cc577f4e487b7100000000000000000000000000000000000000000000000000000000600052603260045260246000fd5b90600052602060002090600a020190508060050160009054906101000a900460ff161561062e576040517f08c379a000000000000000000000000000000000000000000000000000000000815260040161062590611e35565b60405180910390fd5b60006001898154811061066a577f4e487b7100000000000000000000000000000000000000000000000000000000600052603260045260246000fd5b90600052602060002090600a0201905060018160050160006101000a81548160ff0219169083151502179055507f49915020f6653aecea8dea37ab114766a9b2e5add00c4e053faba010986be65660405160405180910390a18060050160009054906101000a900460ff16975050505050505050919050565b600181815481106106f357600080fd5b90600052602060002090600a02016000915090508060000160009054906101000a900473ffffffffffffffffffffffffffffffffffffffff16908060010154908060020154908060030154908060040154908060050160009054906101000a900460ff16908060050160019054906101000a900473ffffffffffffffffffffffffffffffffffffffff16908060060154908060070160009054906101000a900460ff1690806008015490508a565b600080600183815481106107de577f4e487b7100000000000000000000000000000000000000000000000000000000600052603260045260246000fd5b90600052602060002090600a020190508060050160019054906101000a900473ffffffffffffffffffffffffffffffffffffffff16915050919050565b60008060018381548110610858577f4e487b7100000000000000000000000000000000000000000000000000000000600052603260045260246000fd5b90600052602060002090600a020190508060050160009054906101000a900460ff16915050919050565b60005481565b6000816000600182815481106108c7577f4e487b7100000000000000000000000000000000000000000000000000000000600052603260045260246000fd5b90600052602060002090600a020190508060030154431080156108f957508060050160009054906101000a900460ff16155b610938576040517f08c379a000000000000000000000000000000000000000000000000000000000815260040161092f90611ef5565b60405180910390fd5b600080600060018781548110610977577f4e487b7100000000000000000000000000000000000000000000000000000000600052603260045260246000fd5b90600052602060002090600a020190508060050160009054906101000a900460ff16156109ea573392508060090160008473ffffffffffffffffffffffffffffffffffffffff1673ffffffffffffffffffffffffffffffffffffffff168152602001908152602001600020549150610bd7565b8060000160009054906101000a900473ffffffffffffffffffffffffffffffffffffffff1673ffffffffffffffffffffffffffffffffffffffff163373ffffffffffffffffffffffffffffffffffffffff161415610a92578060000160009054906101000a900473ffffffffffffffffffffffffffffffffffffffff1692508060060154915060018160070160006101000a81548160ff021916908315150217905550610bd6565b8060050160019054906101000a900473ffffffffffffffffffffffffffffffffffffffff1673ffffffffffffffffffffffffffffffffffffffff163373ffffffffffffffffffffffffffffffffffffffff161415610b8d578060050160019054906101000a900473ffffffffffffffffffffffffffffffffffffffff16925080600601548160090160008360050160019054906101000a900473ffffffffffffffffffffffffffffffffffffffff1673ffffffffffffffffffffffffffffffffffffffff1673ffffffffffffffffffffffffffffffffffffffff16815260200190815260200160002054610b869190612050565b9150610bd5565b3392508060090160008473ffffffffffffffffffffffffffffffffffffffff1673ffffffffffffffffffffffffffffffffffffffff1681526020019081526020016000205491505b5b5b60008214610c1a576040517f08c379a0000000000000000000000000000000000000000000000000000000008152600401610c1190611eb5565b60405180910390fd5b818160090160008573ffffffffffffffffffffffffffffffffffffffff1673ffffffffffffffffffffffffffffffffffffffff1681526020019081526020016000206000828254610c6b9190612050565b925050819055503373ffffffffffffffffffffffffffffffffffffffff166108fc839081150290604051600060405180830381858888f1935050505015610ce7576040517f08c379a0000000000000000000000000000000000000000000000000000000008152600401610cde90611f35565b60405180910390fd5b7f2af273302f99361e44e2947a7e33a388e09bd3fa1bb0c885ea5f95e0388a2789338484604051610d1a93929190611cce565b60405180910390a1600195505050505050919050565b60008060018381548110610d6d577f4e487b7100000000000000000000000000000000000000000000000000000000600052603260045260246000fd5b90600052602060002090600a020190508060060154915050919050565b6000600160005481548110610dc8577f4e487b7100000000000000000000000000000000000000000000000000000000600052603260045260246000fd5b90600052602060002090600a02019050868160000160006101000a81548173ffffffffffffffffffffffffffffffffffffffff021916908373ffffffffffffffffffffffffffffffffffffffff16021790555085816001018190555084816004018190555083816002018190555082816003018190555060008160050160006101000a81548160ff0219169083151502179055506000816006018190555060008160070160006101000a81548160ff021916908315150217905550600054816008018190555050505050505050565b60606000805467ffffffffffffffff811115610edc577f4e487b7100000000000000000000000000000000000000000000000000000000600052604160045260246000fd5b604051908082528060200260200182016040528015610f0a5781602001602082028036833780820191505090505b50905060005b600054811015610f8157610f238161081b565b610f6e5780828281518110610f61577f4e487b7100000000000000000000000000000000000000000000000000000000600052603260045260246000fd5b6020026020010181815250505b8080610f79906120cc565b915050610f10565b508091505090565b600082600060018281548110610fc8577f4e487b7100000000000000000000000000000000000000000000000000000000600052603260045260246000fd5b90600052602060002090600a020190508060020154431061101e576040517f08c379a000000000000000000000000000000000000000000000000000000000815260040161101590611f75565b60405180910390fd5b8460006001828154811061105b577f4e487b7100000000000000000000000000000000000000000000000000000000600052603260045260246000fd5b90600052602060002090600a02019050806003015443116110b1576040517f08c379a00000000000000000000000000000000000000000000000000000000081526004016110a890611f55565b60405180910390fd5b866000600182815481106110ee577f4e487b7100000000000000000000000000000000000000000000000000000000600052603260045260246000fd5b90600052602060002090600a020190508060050160009054906101000a900460ff1615611150576040517f08c379a000000000000000000000000000000000000000000000000000000000815260040161114790611e35565b60405180910390fd5b8860006001828154811061118d577f4e487b7100000000000000000000000000000000000000000000000000000000600052603260045260246000fd5b90600052602060002090600a020190508060000160009054906101000a900473ffffffffffffffffffffffffffffffffffffffff1673ffffffffffffffffffffffffffffffffffffffff163373ffffffffffffffffffffffffffffffffffffffff161415611230576040517f08c379a000000000000000000000000000000000000000000000000000000000815260040161122790611e55565b60405180910390fd5b600060018c8154811061126c577f4e487b7100000000000000000000000000000000000000000000000000000000600052603260045260246000fd5b90600052602060002090600a0201905060008b146112bf576040517f08c379a00000000000000000000000000000000000000000000000000000000081526004016112b690611ed5565b60405180910390fd5b60008b8260090160003373ffffffffffffffffffffffffffffffffffffffff1673ffffffffffffffffffffffffffffffffffffffff1681526020019081526020016000205461130e9190611ffa565b90508160060154811115611357576040517f08c379a000000000000000000000000000000000000000000000000000000000815260040161134e90611f15565b60405180910390fd5b808260090160003373ffffffffffffffffffffffffffffffffffffffff1673ffffffffffffffffffffffffffffffffffffffff1681526020019081526020016000208190555060008260090160008460050160019054906101000a900473ffffffffffffffffffffffffffffffffffffffff1673ffffffffffffffffffffffffffffffffffffffff1673ffffffffffffffffffffffffffffffffffffffff168152602001908152602001600020549050808211611434576114278360040154836114219190611ffa565b82611568565b83600601819055506114f4565b8260050160019054906101000a900473ffffffffffffffffffffffffffffffffffffffff1673ffffffffffffffffffffffffffffffffffffffff163373ffffffffffffffffffffffffffffffffffffffff16146114f057338360050160016101000a81548173ffffffffffffffffffffffffffffffffffffffff021916908373ffffffffffffffffffffffffffffffffffffffff1602179055506114e7828460040154836114e29190611ffa565b611568565b83600601819055505b8190505b7fd950a9cdc43eba2d873a199680303f8dac309e67ddfcb43cb10d8335f24c24f933838560050160019054906101000a900473ffffffffffffffffffffffffffffffffffffffff1660405161154b93929190611d05565b60405180910390a160019b50505050505050505050505092915050565b60008183101561157a5782905061157e565b8190505b92915050565b60008135905061159381612144565b92915050565b6000813590506115a88161215b565b92915050565b600080600080600060a086880312156115c657600080fd5b60006115d488828901611584565b95505060206115e588828901611599565b94505060406115f688828901611599565b935050606061160788828901611599565b925050608061161888828901611599565b9150509295509295909350565b60008060008060008060c0878903121561163e57600080fd5b600061164c89828a01611584565b965050602061165d89828a01611599565b955050604061166e89828a01611599565b945050606061167f89828a01611599565b935050608061169089828a01611599565b92505060a06116a189828a01611599565b9150509295509295509295565b6000602082840312156116c057600080fd5b60006116ce84828501611599565b91505092915050565b600080604083850312156116ea57600080fd5b60006116f885828601611599565b925050602061170985828601611599565b9150509250929050565b600061171f8383611c95565b60208301905092915050565b61173481612084565b82525050565b600061174582611fc0565b61174f8185611fd8565b935061175a83611fb0565b8060005b8381101561178b5781516117728882611713565b975061177d83611fcb565b92505060018101905061175e565b5085935050505092915050565b6117a181612096565b82525050565b60006117b4603083611fe9565b91507f5365206e6563657369746120756e61206375656e7461207061726120696e696360008301527f69617220756e6120737562617374612e000000000000000000000000000000006020830152604082019050919050565b600061181a603d83611fe9565b91507f4573746120616363696f6e206e6f207075656465207265616c697a617273652060008301527f756e612076657a2063616e63656c616461206c6120737562617374612e0000006020830152604082019050919050565b6000611880603683611fe9565b91507f456c206475656e696f206465206c612073756261737461206e6f20707565646560008301527f207265616c697a6172206573746120616363696f6e2e000000000000000000006020830152604082019050919050565b60006118e6603383611fe9565b91507f456c207469656d706f20696e696369616c206465626572696120736572206d6560008301527f6e6f7220616c207469656d706f2066696e616c000000000000000000000000006020830152604082019050919050565b600061194c602a83611fe9565b91507f536f6c6f20656c206475656e696f207075656465207265616c697a617220657360008301527f746120616363696f6e2e000000000000000000000000000000000000000000006020830152604082019050919050565b60006119b2602583611fe9565b91507f4e6f206861792064696e65726f20646973706f6e69626c65207061726120726560008301527f74697261720000000000000000000000000000000000000000000000000000006020830152604082019050919050565b6000611a18602583611fe9565b91507f53652064656265206f66657274617220756e612063616e746964616420706f7360008301527f69746976610000000000000000000000000000000000000000000000000000006020830152604082019050919050565b6000611a7e603b83611fe9565b91507f4573746120616363696f6e206e6f207075656465207265616c697a617273652060008301527f7369206c612073756261737461206573746120656e20637572736f00000000006020830152604082019050919050565b6000611ae4602783611fe9565b91507f5375206f666572746120646562652073757065726172206c61206d6178696d6160008301527f2061637475616c000000000000000000000000000000000000000000000000006020830152604082019050919050565b6000611b4a602383611fe9565b91507f4875626f20756e206572726f7220616c2072657469726172206c61206f66657260008301527f74612e00000000000000000000000000000000000000000000000000000000006020830152604082019050919050565b6000611bb0603683611fe9565b91507f4573746120616363696f6e20736f6c6f207365207075656465207265616c697a60008301527f617220647572616e7465206c6120737562617374612e000000000000000000006020830152604082019050919050565b6000611c16604283611fe9565b91507f4573746120616363696f6e206e6f20707565646520736572207265616c697a6160008301527f646120686173746120717565206e6f20696e69636965206c612073756261737460208301527f612e0000000000000000000000000000000000000000000000000000000000006040830152606082019050919050565b611c9e816120c2565b82525050565b611cad816120c2565b82525050565b6000602082019050611cc8600083018461172b565b92915050565b6000606082019050611ce3600083018661172b565b611cf0602083018561172b565b611cfd6040830184611ca4565b949350505050565b6000606082019050611d1a600083018661172b565b611d276020830185611ca4565b611d34604083018461172b565b949350505050565b600061014082019050611d52600083018d61172b565b611d5f602083018c611ca4565b611d6c604083018b611ca4565b611d79606083018a611ca4565b611d866080830189611ca4565b611d9360a0830188611798565b611da060c083018761172b565b611dad60e0830186611ca4565b611dbb610100830185611798565b611dc9610120830184611ca4565b9b9a5050505050505050505050565b60006020820190508181036000830152611df2818461173a565b905092915050565b6000602082019050611e0f6000830184611798565b92915050565b60006020820190508181036000830152611e2e816117a7565b9050919050565b60006020820190508181036000830152611e4e8161180d565b9050919050565b60006020820190508181036000830152611e6e81611873565b9050919050565b60006020820190508181036000830152611e8e816118d9565b9050919050565b60006020820190508181036000830152611eae8161193f565b9050919050565b60006020820190508181036000830152611ece816119a5565b9050919050565b60006020820190508181036000830152611eee81611a0b565b9050919050565b60006020820190508181036000830152611f0e81611a71565b9050919050565b60006020820190508181036000830152611f2e81611ad7565b9050919050565b60006020820190508181036000830152611f4e81611b3d565b9050919050565b60006020820190508181036000830152611f6e81611ba3565b9050919050565b60006020820190508181036000830152611f8e81611c09565b9050919050565b6000602082019050611faa6000830184611ca4565b92915050565b6000819050602082019050919050565b600081519050919050565b6000602082019050919050565b600082825260208201905092915050565b600082825260208201905092915050565b6000612005826120c2565b9150612010836120c2565b9250827fffffffffffffffffffffffffffffffffffffffffffffffffffffffffffffffff0382111561204557612044612115565b5b828201905092915050565b600061205b826120c2565b9150612066836120c2565b92508282101561207957612078612115565b5b828203905092915050565b600061208f826120a2565b9050919050565b60008115159050919050565b600073ffffffffffffffffffffffffffffffffffffffff82169050919050565b6000819050919050565b60006120d7826120c2565b91507fffffffffffffffffffffffffffffffffffffffffffffffffffffffffffffffff82141561210a57612109612115565b5b600182019050919050565b7f4e487b7100000000000000000000000000000000000000000000000000000000600052601160045260246000fd5b61214d81612084565b811461215857600080fd5b50565b612164816120c2565b811461216f57600080fd5b5056fea2646970667358221220f3b29d24f74e345c6ce660b05bb3d1a2b4da30e5093947a2abd952889562cc7964736f6c63430008000033",
  "immutableReferences": {},
  "source": "pragma solidity ^0.8.0;\n\n\ncontract SubastaFactory {\n\n\n    uint public idSubasta;\n    Subasta[] public subastas;\n    \n    constructor(){\n        idSubasta = 0;\n    }\n\n    struct Subasta{\n        address duenio; // duenio del objeto a subastar\n        uint idCarta; // id carta a ofertar\n        uint tiempoInicial; //tiempo de comienzo de la subasta\n        uint tiempoFinal;  // tiempo de fin de la subasta\n        uint incrementoOferta; //incremento minimo entre ofertas\n        bool cancelada; //estado de la subasta: cancelada o no.\n        address mejorLicitador; //Licitador que dio la mejor oferta\n\n        uint  maximaOfertaLicitador; //esta es complicada, ejemplo:500 pesos.\n        bool duenioRetiroDinero; //estado del duenio: si retiro el dinero ganado o no.\n        uint idSubasta; // identificador de la subasta\n\n        mapping(address => uint256)  ofertasLicitadores; //Hash-> licitadores-ofertas\n    }\n\n    event RegistrarOferta(address licitador, uint oferta, address mejorLicitador);\n    event RegistrarRetiro(address licitadorRetirado, address cuentaLicidatorRetirado, uint oferta);\n    event RegistroCancelacion();\n\n    function crearSubasta (address _duenio, uint _idCarta, uint _incrementoOferta, uint _tiempoInicial, uint _tiempoFinal) public returns(uint){\n        require (_tiempoInicial <= _tiempoFinal, \"El tiempo inicial deberia ser menor al tiempo final\") ;\n        require (_tiempoInicial <= block.number);\n        require (_duenio != address(0), \"Se necesita una cuenta para iniciar una subasta.\");\n        subastas.push();\n        uint _idSubasta = idSubasta;\n        modificarSubasta( _duenio,  _idCarta,  _incrementoOferta,  _tiempoInicial,  _tiempoFinal, _idSubasta);\n        idSubasta ++;\n        return _idSubasta;\n    }\n\n    function modificarSubasta (address _duenio, uint _idCarta, uint _incrementoOferta, uint _tiempoInicial, uint _tiempoFinal, uint _idSubasta) public{\n        Subasta storage subasta = subastas[idSubasta];\n        subasta.duenio = _duenio;\n        subasta.idCarta = _idCarta;\n        subasta.incrementoOferta = _incrementoOferta;\n        subasta.tiempoInicial = _tiempoInicial;\n        subasta.tiempoFinal = _tiempoFinal;\n        subasta.cancelada = false;\n        //subasta.mejorLicitador = address(0);\n        subasta.maximaOfertaLicitador = 0;\n        subasta.duenioRetiroDinero = false;\n        subasta.idSubasta = idSubasta ;\n    }\n\n    function getIdSubastasDisponibles() view public returns(uint[] memory){\n        uint[] memory subastasDisponibles = new uint[](idSubasta);\n        for(uint i = 0; i < idSubasta; i++){\n            if(!estaCancelada(i)){\n                subastasDisponibles[i] = i;\n            }\n        }\n        return subastasDisponibles;\n    }\n\n    function obtenerOfertaMaxima(uint _idSubasta) public view returns(uint){\n        Subasta storage subasta = subastas[_idSubasta];\n        return subasta.maximaOfertaLicitador;\n    }\n\n\n    function obtenerMejorLicitador(uint _idSubasta) public view returns(address){\n        Subasta storage subasta = subastas[_idSubasta];\n        return subasta.mejorLicitador;\n    }\n\n    function estaCancelada(uint _idSubasta) public view returns(bool){\n        Subasta storage subasta = subastas[_idSubasta];\n        return subasta.cancelada;\n    }\n\n\n    function ofertar(uint _idSubasta, uint _amount ) public payable soloDespuesDelComienzo(_idSubasta) soloAntesDelFin(_idSubasta) soloSiNoFueCancelada(_idSubasta)\n        soloSiNoEsduenio(_idSubasta) returns (bool success){\n\n        Subasta storage subasta = subastas[_idSubasta];\n\n        require(_amount == 0, \"Se debe ofertar una cantidad positiva\");\n\n\n        uint totalNuevaOferta = subasta.ofertasLicitadores[msg.sender] + _amount;\n\n        //Si la oferta entrante no supera la maxima oferta de otro licitador, rechazamos la oferta. \n        require (totalNuevaOferta <= subasta.maximaOfertaLicitador, \"Su oferta debe superar la maxima actual\");\n\n        //Le asigno al licitador su nueva oferta\n        subasta.ofertasLicitadores[msg.sender] = totalNuevaOferta;\n\n        uint ofertaMaxima = subasta.ofertasLicitadores[subasta.mejorLicitador];\n\n        if(totalNuevaOferta <= ofertaMaxima){\n            subasta.maximaOfertaLicitador = _calcularMinimo(totalNuevaOferta + subasta.incrementoOferta, ofertaMaxima);\n        }else{\n            if(msg.sender != subasta.mejorLicitador){\n                subasta.mejorLicitador = msg.sender;\n                subasta.maximaOfertaLicitador = _calcularMinimo(totalNuevaOferta, ofertaMaxima + subasta.incrementoOferta);\n            }\n            ofertaMaxima = totalNuevaOferta;\n        }\n        emit RegistrarOferta(msg.sender,totalNuevaOferta, subasta.mejorLicitador);\n        return true;\n    }\n\n\n    function retirarFondos(uint _idSubasta) public soloSiTerminoOCancelada(_idSubasta) returns (bool success){\n        address cuentaQueRetira;\n        uint cantidadARetirar;\n        Subasta storage subasta = subastas[_idSubasta];\n        if(subasta.cancelada){ //si la subasta fue cancelada, todos pueden retirar sus ofertas.\n            cuentaQueRetira = msg.sender;\n            cantidadARetirar = subasta.ofertasLicitadores[cuentaQueRetira];\n\n        }else{ // La subasta termino correctamente (alguien gano)   \n            if(msg.sender == subasta.duenio){ //el duenio tiene que poder retirar el dinero ganado en la subasta\n                cuentaQueRetira = subasta.duenio;\n                cantidadARetirar = subasta.maximaOfertaLicitador;\n                subasta.duenioRetiroDinero = true;\n            }else if(msg.sender == subasta.mejorLicitador){ //el ganador de la subasta puede retirar la diferencia entre la oferta ganadora y oferta maxima.\n                cuentaQueRetira = subasta.mejorLicitador;\n                cantidadARetirar = subasta.ofertasLicitadores[subasta.mejorLicitador] - subasta.maximaOfertaLicitador;\n            }else{ // cualquiera que participo y no gano puede retirar su oferta. \n                cuentaQueRetira = msg.sender;\n                cantidadARetirar = subasta.ofertasLicitadores[cuentaQueRetira];\n            }\n        }\n        require ( cantidadARetirar == 0, \"No hay dinero disponible para retirar\");\n        subasta.ofertasLicitadores[cuentaQueRetira] -= cantidadARetirar;\n\n        require (!payable(msg.sender).send(cantidadARetirar), \"Hubo un error al retirar la oferta.\"); \n\n        emit RegistrarRetiro(msg.sender, cuentaQueRetira, cantidadARetirar);\n        return true;\n    }\n\n    function cancelarSubasta(uint _idSubasta) public soloSiEsduenio(_idSubasta) soloAntesDelFin(_idSubasta) soloSiNoFueCancelada(_idSubasta)\n    returns (bool success){\n        Subasta storage subasta = subastas[_idSubasta];\n        subasta.cancelada = true;\n        emit RegistroCancelacion();\n        return subasta.cancelada;\n    }\n\n    function _calcularMinimo(uint a, uint b) private pure returns (uint){\n        if (a < b) return a;\n        return b;\n    }\n\n\n    modifier soloSiEsduenio(uint _idSubasta){\n        Subasta storage subasta = subastas[_idSubasta];\n        require (msg.sender == subasta.duenio, \"Solo el duenio puede realizar esta accion.\");\n        _;\n    }\n\n    modifier soloSiNoEsduenio(uint _idSubasta){\n        Subasta storage subasta = subastas[_idSubasta];\n        require (msg.sender != subasta.duenio, \"El duenio de la subasta no puede realizar esta accion.\");\n        _;\n    }\n\n    modifier soloDespuesDelComienzo(uint _idSubasta){\n        Subasta storage subasta = subastas[_idSubasta];\n        require (block.number < subasta.tiempoInicial, \"Esta accion no puede ser realizada hasta que no inicie la subasta.\");\n        _;\n    }\n\n    modifier soloAntesDelFin(uint _idSubasta){\n        Subasta storage subasta = subastas[_idSubasta];\n        require (block.number > subasta.tiempoFinal, \"Esta accion solo se puede realizar durante la subasta.\");\n        _;\n    }\n\n    modifier soloSiNoFueCancelada(uint _idSubasta){\n        Subasta storage subasta = subastas[_idSubasta];\n        require (!subasta.cancelada , \"Esta accion no puede realizarse una vez cancelada la subasta.\");\n        _;\n    }\n\n\n    modifier soloSiTerminoOCancelada(uint _idSubasta){\n        Subasta storage subasta = subastas[_idSubasta];\n        require (block.number < subasta.tiempoFinal && !subasta.cancelada, \"Esta accion no puede realizarse si la subasta esta en curso\");\n        _;\n    }\n\n    \n }\n\n",
  "sourcePath": "/Users/filyankaragoz/Documents/teoria-del-lenguaje/truffle-project/contracts/SubastaFactory.sol",
  "compiler": {
    "name": "solc",
    "version": "0.8.0+commit.c7dfd78e.Emscripten.clang"
  },
  "schemaVersion": "3.4.1",
  "updatedAt": "2021-07-12T03:43:29.981Z",
  "networkType": "ethereum",
  "devdoc": {
    "kind": "dev",
    "methods": {},
    "version": 1
  },
  "userdoc": {
    "kind": "user",
    "methods": {},
    "version": 1
  }
}